{
	"contracts/ecommerce.sol": {
		"Ecommerce": {
			"abi": [
				{
					"inputs": [
						{
							"internalType": "address",
							"name": "_icoContractAddress",
							"type": "address"
						}
					],
					"stateMutability": "nonpayable",
					"type": "constructor"
				},
				{
					"inputs": [],
					"name": "AccessControlBadConfirmation",
					"type": "error"
				},
				{
					"inputs": [
						{
							"internalType": "address",
							"name": "account",
							"type": "address"
						},
						{
							"internalType": "bytes32",
							"name": "neededRole",
							"type": "bytes32"
						}
					],
					"name": "AccessControlUnauthorizedAccount",
					"type": "error"
				},
				{
					"anonymous": false,
					"inputs": [
						{
							"indexed": false,
							"internalType": "address",
							"name": "account",
							"type": "address"
						}
					],
					"name": "Paused",
					"type": "event"
				},
				{
					"anonymous": false,
					"inputs": [
						{
							"indexed": false,
							"internalType": "uint256",
							"name": "productId",
							"type": "uint256"
						},
						{
							"indexed": false,
							"internalType": "string",
							"name": "name",
							"type": "string"
						},
						{
							"indexed": false,
							"internalType": "uint256",
							"name": "price",
							"type": "uint256"
						},
						{
							"indexed": false,
							"internalType": "address",
							"name": "seller",
							"type": "address"
						}
					],
					"name": "ProductAdded",
					"type": "event"
				},
				{
					"anonymous": false,
					"inputs": [
						{
							"indexed": false,
							"internalType": "uint256",
							"name": "productId",
							"type": "uint256"
						},
						{
							"indexed": false,
							"internalType": "address",
							"name": "buyer",
							"type": "address"
						}
					],
					"name": "ProductPurchaseCanceled",
					"type": "event"
				},
				{
					"anonymous": false,
					"inputs": [
						{
							"indexed": false,
							"internalType": "uint256",
							"name": "productId",
							"type": "uint256"
						},
						{
							"indexed": false,
							"internalType": "address",
							"name": "buyer",
							"type": "address"
						}
					],
					"name": "ProductPurchased",
					"type": "event"
				},
				{
					"anonymous": false,
					"inputs": [
						{
							"indexed": false,
							"internalType": "uint256",
							"name": "productId",
							"type": "uint256"
						},
						{
							"indexed": false,
							"internalType": "bool",
							"name": "available",
							"type": "bool"
						}
					],
					"name": "ProductStatusUpdated",
					"type": "event"
				},
				{
					"anonymous": false,
					"inputs": [
						{
							"indexed": true,
							"internalType": "bytes32",
							"name": "role",
							"type": "bytes32"
						},
						{
							"indexed": true,
							"internalType": "bytes32",
							"name": "previousAdminRole",
							"type": "bytes32"
						},
						{
							"indexed": true,
							"internalType": "bytes32",
							"name": "newAdminRole",
							"type": "bytes32"
						}
					],
					"name": "RoleAdminChanged",
					"type": "event"
				},
				{
					"anonymous": false,
					"inputs": [
						{
							"indexed": true,
							"internalType": "bytes32",
							"name": "role",
							"type": "bytes32"
						},
						{
							"indexed": true,
							"internalType": "address",
							"name": "account",
							"type": "address"
						},
						{
							"indexed": true,
							"internalType": "address",
							"name": "sender",
							"type": "address"
						}
					],
					"name": "RoleGranted",
					"type": "event"
				},
				{
					"anonymous": false,
					"inputs": [
						{
							"indexed": true,
							"internalType": "bytes32",
							"name": "role",
							"type": "bytes32"
						},
						{
							"indexed": true,
							"internalType": "address",
							"name": "account",
							"type": "address"
						},
						{
							"indexed": true,
							"internalType": "address",
							"name": "sender",
							"type": "address"
						}
					],
					"name": "RoleRevoked",
					"type": "event"
				},
				{
					"anonymous": false,
					"inputs": [
						{
							"indexed": false,
							"internalType": "address",
							"name": "account",
							"type": "address"
						}
					],
					"name": "Unpaused",
					"type": "event"
				},
				{
					"stateMutability": "payable",
					"type": "fallback"
				},
				{
					"inputs": [],
					"name": "ADMIN_ROLE",
					"outputs": [
						{
							"internalType": "bytes32",
							"name": "",
							"type": "bytes32"
						}
					],
					"stateMutability": "view",
					"type": "function"
				},
				{
					"inputs": [],
					"name": "AUDITOR_ROLE",
					"outputs": [
						{
							"internalType": "bytes32",
							"name": "",
							"type": "bytes32"
						}
					],
					"stateMutability": "view",
					"type": "function"
				},
				{
					"inputs": [],
					"name": "AUTHENTICATOR_ROLE",
					"outputs": [
						{
							"internalType": "bytes32",
							"name": "",
							"type": "bytes32"
						}
					],
					"stateMutability": "view",
					"type": "function"
				},
				{
					"inputs": [],
					"name": "BUYER_ROLE",
					"outputs": [
						{
							"internalType": "bytes32",
							"name": "",
							"type": "bytes32"
						}
					],
					"stateMutability": "view",
					"type": "function"
				},
				{
					"inputs": [],
					"name": "DEFAULT_ADMIN_ROLE",
					"outputs": [
						{
							"internalType": "bytes32",
							"name": "",
							"type": "bytes32"
						}
					],
					"stateMutability": "view",
					"type": "function"
				},
				{
					"inputs": [],
					"name": "SELLER_ROLE",
					"outputs": [
						{
							"internalType": "bytes32",
							"name": "",
							"type": "bytes32"
						}
					],
					"stateMutability": "view",
					"type": "function"
				},
				{
					"inputs": [
						{
							"internalType": "address",
							"name": "account",
							"type": "address"
						}
					],
					"name": "addAuditor",
					"outputs": [],
					"stateMutability": "nonpayable",
					"type": "function"
				},
				{
					"inputs": [
						{
							"internalType": "address",
							"name": "account",
							"type": "address"
						}
					],
					"name": "addAuthenticator",
					"outputs": [],
					"stateMutability": "nonpayable",
					"type": "function"
				},
				{
					"inputs": [
						{
							"internalType": "address",
							"name": "account",
							"type": "address"
						}
					],
					"name": "addBuyer",
					"outputs": [],
					"stateMutability": "nonpayable",
					"type": "function"
				},
				{
					"inputs": [
						{
							"internalType": "string",
							"name": "name",
							"type": "string"
						},
						{
							"internalType": "uint256",
							"name": "price",
							"type": "uint256"
						}
					],
					"name": "addProduct",
					"outputs": [],
					"stateMutability": "nonpayable",
					"type": "function"
				},
				{
					"inputs": [
						{
							"internalType": "address",
							"name": "account",
							"type": "address"
						}
					],
					"name": "addSeller",
					"outputs": [],
					"stateMutability": "nonpayable",
					"type": "function"
				},
				{
					"inputs": [],
					"name": "audictorAddress",
					"outputs": [
						{
							"internalType": "address",
							"name": "",
							"type": "address"
						}
					],
					"stateMutability": "view",
					"type": "function"
				},
				{
					"inputs": [],
					"name": "authenticatorAddress",
					"outputs": [
						{
							"internalType": "address",
							"name": "",
							"type": "address"
						}
					],
					"stateMutability": "view",
					"type": "function"
				},
				{
					"inputs": [],
					"name": "buyerAddress",
					"outputs": [
						{
							"internalType": "address",
							"name": "",
							"type": "address"
						}
					],
					"stateMutability": "view",
					"type": "function"
				},
				{
					"inputs": [
						{
							"internalType": "uint256",
							"name": "productId",
							"type": "uint256"
						}
					],
					"name": "cancelPurchase",
					"outputs": [],
					"stateMutability": "nonpayable",
					"type": "function"
				},
				{
					"inputs": [],
					"name": "decimal",
					"outputs": [
						{
							"internalType": "uint8",
							"name": "",
							"type": "uint8"
						}
					],
					"stateMutability": "view",
					"type": "function"
				},
				{
					"inputs": [],
					"name": "decimals",
					"outputs": [
						{
							"internalType": "uint8",
							"name": "",
							"type": "uint8"
						}
					],
					"stateMutability": "pure",
					"type": "function"
				},
				{
					"inputs": [
						{
							"internalType": "bytes32",
							"name": "role",
							"type": "bytes32"
						}
					],
					"name": "getRoleAdmin",
					"outputs": [
						{
							"internalType": "bytes32",
							"name": "",
							"type": "bytes32"
						}
					],
					"stateMutability": "view",
					"type": "function"
				},
				{
					"inputs": [
						{
							"internalType": "bytes32",
							"name": "role",
							"type": "bytes32"
						},
						{
							"internalType": "address",
							"name": "account",
							"type": "address"
						}
					],
					"name": "grantRole",
					"outputs": [],
					"stateMutability": "nonpayable",
					"type": "function"
				},
				{
					"inputs": [
						{
							"internalType": "bytes32",
							"name": "role",
							"type": "bytes32"
						},
						{
							"internalType": "address",
							"name": "account",
							"type": "address"
						}
					],
					"name": "hasRole",
					"outputs": [
						{
							"internalType": "bool",
							"name": "",
							"type": "bool"
						}
					],
					"stateMutability": "view",
					"type": "function"
				},
				{
					"inputs": [],
					"name": "icoContract",
					"outputs": [
						{
							"internalType": "contract IICO",
							"name": "",
							"type": "address"
						}
					],
					"stateMutability": "view",
					"type": "function"
				},
				{
					"inputs": [],
					"name": "pause",
					"outputs": [],
					"stateMutability": "nonpayable",
					"type": "function"
				},
				{
					"inputs": [],
					"name": "paused",
					"outputs": [
						{
							"internalType": "bool",
							"name": "",
							"type": "bool"
						}
					],
					"stateMutability": "view",
					"type": "function"
				},
				{
					"inputs": [],
					"name": "productCount",
					"outputs": [
						{
							"internalType": "uint256",
							"name": "",
							"type": "uint256"
						}
					],
					"stateMutability": "view",
					"type": "function"
				},
				{
					"inputs": [
						{
							"internalType": "uint256",
							"name": "",
							"type": "uint256"
						}
					],
					"name": "products",
					"outputs": [
						{
							"internalType": "string",
							"name": "name",
							"type": "string"
						},
						{
							"internalType": "uint256",
							"name": "price",
							"type": "uint256"
						},
						{
							"internalType": "address",
							"name": "seller",
							"type": "address"
						},
						{
							"internalType": "bool",
							"name": "available",
							"type": "bool"
						},
						{
							"internalType": "address",
							"name": "buyer",
							"type": "address"
						}
					],
					"stateMutability": "view",
					"type": "function"
				},
				{
					"inputs": [
						{
							"internalType": "uint256",
							"name": "productId",
							"type": "uint256"
						}
					],
					"name": "purchaseProduct",
					"outputs": [],
					"stateMutability": "nonpayable",
					"type": "function"
				},
				{
					"inputs": [
						{
							"internalType": "address",
							"name": "account",
							"type": "address"
						}
					],
					"name": "removeAuditor",
					"outputs": [],
					"stateMutability": "nonpayable",
					"type": "function"
				},
				{
					"inputs": [
						{
							"internalType": "address",
							"name": "account",
							"type": "address"
						}
					],
					"name": "removeAuthenticator",
					"outputs": [],
					"stateMutability": "nonpayable",
					"type": "function"
				},
				{
					"inputs": [
						{
							"internalType": "address",
							"name": "account",
							"type": "address"
						}
					],
					"name": "removeBuyer",
					"outputs": [],
					"stateMutability": "nonpayable",
					"type": "function"
				},
				{
					"inputs": [
						{
							"internalType": "address",
							"name": "account",
							"type": "address"
						}
					],
					"name": "removeSeller",
					"outputs": [],
					"stateMutability": "nonpayable",
					"type": "function"
				},
				{
					"inputs": [
						{
							"internalType": "bytes32",
							"name": "role",
							"type": "bytes32"
						},
						{
							"internalType": "address",
							"name": "callerConfirmation",
							"type": "address"
						}
					],
					"name": "renounceRole",
					"outputs": [],
					"stateMutability": "nonpayable",
					"type": "function"
				},
				{
					"inputs": [
						{
							"internalType": "bytes32",
							"name": "role",
							"type": "bytes32"
						},
						{
							"internalType": "address",
							"name": "account",
							"type": "address"
						}
					],
					"name": "revokeRole",
					"outputs": [],
					"stateMutability": "nonpayable",
					"type": "function"
				},
				{
					"inputs": [],
					"name": "sellerAddress",
					"outputs": [
						{
							"internalType": "address",
							"name": "",
							"type": "address"
						}
					],
					"stateMutability": "view",
					"type": "function"
				},
				{
					"inputs": [
						{
							"internalType": "bytes4",
							"name": "interfaceId",
							"type": "bytes4"
						}
					],
					"name": "supportsInterface",
					"outputs": [
						{
							"internalType": "bool",
							"name": "",
							"type": "bool"
						}
					],
					"stateMutability": "view",
					"type": "function"
				},
				{
					"inputs": [],
					"name": "unpause",
					"outputs": [],
					"stateMutability": "nonpayable",
					"type": "function"
				},
				{
					"inputs": [
						{
							"internalType": "uint256",
							"name": "productId",
							"type": "uint256"
						},
						{
							"internalType": "bool",
							"name": "available",
							"type": "bool"
						}
					],
					"name": "updateProductStatus",
					"outputs": [],
					"stateMutability": "nonpayable",
					"type": "function"
				},
				{
					"stateMutability": "payable",
					"type": "receive"
				}
			],
			"devdoc": {
				"errors": {
					"AccessControlBadConfirmation()": [
						{
							"details": "The caller of a function is not the expected one. NOTE: Don't confuse with {AccessControlUnauthorizedAccount}."
						}
					],
					"AccessControlUnauthorizedAccount(address,bytes32)": [
						{
							"details": "The `account` is missing a role."
						}
					]
				},
				"events": {
					"Paused(address)": {
						"details": "Emitted when the pause is triggered by `account`."
					},
					"RoleAdminChanged(bytes32,bytes32,bytes32)": {
						"details": "Emitted when `newAdminRole` is set as ``role``'s admin role, replacing `previousAdminRole` `DEFAULT_ADMIN_ROLE` is the starting admin for all roles, despite {RoleAdminChanged} not being emitted signaling this."
					},
					"RoleGranted(bytes32,address,address)": {
						"details": "Emitted when `account` is granted `role`. `sender` is the account that originated the contract call. This account bears the admin role (for the granted role). Expected in cases where the role was granted using the internal {AccessControl-_grantRole}."
					},
					"RoleRevoked(bytes32,address,address)": {
						"details": "Emitted when `account` is revoked `role`. `sender` is the account that originated the contract call:   - if using `revokeRole`, it is the admin role bearer   - if using `renounceRole`, it is the role bearer (i.e. `account`)"
					},
					"Unpaused(address)": {
						"details": "Emitted when the pause is lifted by `account`."
					}
				},
				"kind": "dev",
				"methods": {
					"getRoleAdmin(bytes32)": {
						"details": "Returns the admin role that controls `role`. See {grantRole} and {revokeRole}. To change a role's admin, use {_setRoleAdmin}."
					},
					"grantRole(bytes32,address)": {
						"details": "Grants `role` to `account`. If `account` had not been already granted `role`, emits a {RoleGranted} event. Requirements: - the caller must have ``role``'s admin role. May emit a {RoleGranted} event."
					},
					"hasRole(bytes32,address)": {
						"details": "Returns `true` if `account` has been granted `role`."
					},
					"paused()": {
						"details": "Returns true if the contract is paused, and false otherwise."
					},
					"renounceRole(bytes32,address)": {
						"details": "Revokes `role` from the calling account. Roles are often managed via {grantRole} and {revokeRole}: this function's purpose is to provide a mechanism for accounts to lose their privileges if they are compromised (such as when a trusted device is misplaced). If the calling account had been revoked `role`, emits a {RoleRevoked} event. Requirements: - the caller must be `callerConfirmation`. May emit a {RoleRevoked} event."
					},
					"revokeRole(bytes32,address)": {
						"details": "Revokes `role` from `account`. If `account` had been granted `role`, emits a {RoleRevoked} event. Requirements: - the caller must have ``role``'s admin role. May emit a {RoleRevoked} event."
					},
					"supportsInterface(bytes4)": {
						"details": "See {IERC165-supportsInterface}."
					}
				},
				"version": 1
			},
			"evm": {
				"assembly": "    /* \"contracts/ecommerce.sol\":434:6827  contract Ecommerce is AccessControl, Pausable {... */\n  mstore(0x40, 0x80)\n    /* \"contracts/ecommerce.sol\":1904:2631  constructor(address _icoContractAddress) {... */\n  callvalue\n  dup1\n  iszero\n  tag_1\n  jumpi\n  revert(0x00, 0x00)\ntag_1:\n  pop\n  mload(0x40)\n  sub(codesize, bytecodeSize)\n  dup1\n  bytecodeSize\n  dup4\n  codecopy\n  dup2\n  dup2\n  add\n  0x40\n  mstore\n  dup2\n  add\n  swap1\n  tag_2\n  swap2\n  swap1\n  tag_3\n  jump\t// in\ntag_2:\n    /* \"@openzeppelin/contracts/security/Pausable.sol\":1006:1011  false */\n  0x00\n    /* \"@openzeppelin/contracts/security/Pausable.sol\":996:1003  _paused */\n  0x01\n  0x00\n    /* \"@openzeppelin/contracts/security/Pausable.sol\":996:1011  _paused = false */\n  0x0100\n  exp\n  dup2\n  sload\n  dup2\n  0xff\n  mul\n  not\n  and\n  swap1\n  dup4\n  iszero\n  iszero\n  mul\n  or\n  swap1\n  sstore\n  pop\n    /* \"contracts/ecommerce.sol\":1995:1996  0 */\n  0x00\n    /* \"contracts/ecommerce.sol\":1964:1997  _icoContractAddress != address(0) */\n  0xffffffffffffffffffffffffffffffffffffffff\n  and\n    /* \"contracts/ecommerce.sol\":1964:1983  _icoContractAddress */\n  dup2\n    /* \"contracts/ecommerce.sol\":1964:1997  _icoContractAddress != address(0) */\n  0xffffffffffffffffffffffffffffffffffffffff\n  and\n  sub\n    /* \"contracts/ecommerce.sol\":1956:2030  require(_icoContractAddress != address(0), \"Invalid ICO contract address\") */\n  tag_8\n  jumpi\n  mload(0x40)\n  0x08c379a000000000000000000000000000000000000000000000000000000000\n  dup2\n  mstore\n  0x04\n  add\n  tag_9\n  swap1\n  tag_10\n  jump\t// in\ntag_9:\n  mload(0x40)\n  dup1\n  swap2\n  sub\n  swap1\n  revert\ntag_8:\n    /* \"contracts/ecommerce.sol\":2060:2079  _icoContractAddress */\n  dup1\n    /* \"contracts/ecommerce.sol\":2041:2052  icoContract */\n  0x04\n  0x00\n    /* \"contracts/ecommerce.sol\":2041:2080  icoContract = IICO(_icoContractAddress) */\n  0x0100\n  exp\n  dup2\n  sload\n  dup2\n  0xffffffffffffffffffffffffffffffffffffffff\n  mul\n  not\n  and\n  swap1\n  dup4\n  0xffffffffffffffffffffffffffffffffffffffff\n  and\n  mul\n  or\n  swap1\n  sstore\n  pop\n    /* \"contracts/ecommerce.sol\":2142:2176  _grantRole(ADMIN_ROLE, msg.sender) */\n  tag_11\n    /* \"contracts/ecommerce.sol\":545:568  keccak256(\"ADMIN_ROLE\") */\n  0xa49807205ce4d355092ef5a8a18f56e8913cf4a201fbe287825b095693c21775\n    /* \"contracts/ecommerce.sol\":2165:2175  msg.sender */\n  caller\n    /* \"contracts/ecommerce.sol\":2142:2152  _grantRole */\n  shl(0x20, tag_12)\n    /* \"contracts/ecommerce.sol\":2142:2176  _grantRole(ADMIN_ROLE, msg.sender) */\n  0x20\n  shr\n  jump\t// in\ntag_11:\n  pop\n    /* \"contracts/ecommerce.sol\":2187:2225  _grantRole(SELLER_ROLE, sellerAddress) */\n  tag_13\n    /* \"contracts/ecommerce.sol\":613:637  keccak256(\"SELLER_ROLE\") */\n  0x43f25613eb2f15fb17222a5d424ca2655743e71265d98e4b93c05e5fb589ecde\n    /* \"contracts/ecommerce.sol\":907:949  0x5B38Da6a701c568545dCfcB03FcB875f56beddC4 */\n  0x5b38da6a701c568545dcfcb03fcb875f56beddc4\n    /* \"contracts/ecommerce.sol\":2187:2197  _grantRole */\n  shl(0x20, tag_12)\n    /* \"contracts/ecommerce.sol\":2187:2225  _grantRole(SELLER_ROLE, sellerAddress) */\n  0x20\n  shr\n  jump\t// in\ntag_13:\n  pop\n    /* \"contracts/ecommerce.sol\":2236:2272  _grantRole(BUYER_ROLE, buyerAddress) */\n  tag_14\n    /* \"contracts/ecommerce.sol\":681:704  keccak256(\"BUYER_ROLE\") */\n  0xf8cd32ed93fc2f9fc78152a14807c9609af3d99c5fe4dc6b106a801aaddfe90e\n    /* \"contracts/ecommerce.sol\":995:1037  0x4B20993Bc481177ec7E8f571ceCaE8A9e22C02db */\n  0x4b20993bc481177ec7e8f571cecae8a9e22c02db\n    /* \"contracts/ecommerce.sol\":2236:2246  _grantRole */\n  shl(0x20, tag_12)\n    /* \"contracts/ecommerce.sol\":2236:2272  _grantRole(BUYER_ROLE, buyerAddress) */\n  0x20\n  shr\n  jump\t// in\ntag_14:\n  pop\n    /* \"contracts/ecommerce.sol\":2283:2335  _grantRole(AUTHENTICATOR_ROLE, authenticatorAddress) */\n  tag_15\n    /* \"contracts/ecommerce.sol\":756:787  keccak256(\"AUTHENTICATOR_ROLE\") */\n  0x190acb99f29d9641c9ad47655049f2d7c78fcbc837d62e7981d28c871f722081\n    /* \"contracts/ecommerce.sol\":1091:1133  0x78731D3Ca6b7E34aC0F824c42a7cC18A495cabaB */\n  0x78731d3ca6b7e34ac0f824c42a7cc18a495cabab\n    /* \"contracts/ecommerce.sol\":2283:2293  _grantRole */\n  shl(0x20, tag_12)\n    /* \"contracts/ecommerce.sol\":2283:2335  _grantRole(AUTHENTICATOR_ROLE, authenticatorAddress) */\n  0x20\n  shr\n  jump\t// in\ntag_15:\n  pop\n    /* \"contracts/ecommerce.sol\":2346:2387  _grantRole(AUDITOR_ROLE, audictorAddress) */\n  tag_16\n    /* \"contracts/ecommerce.sol\":833:858  keccak256(\"AUDITOR_ROLE\") */\n  0x59a1c48e5837ad7a7f3dcedcbe129bf3249ec4fbf651fd4f5e2600ead39fe2f5\n    /* \"contracts/ecommerce.sol\":1182:1224  0x78731D3Ca6b7E34aC0F824c42a7cC18A495cabaB */\n  0x78731d3ca6b7e34ac0f824c42a7cc18a495cabab\n    /* \"contracts/ecommerce.sol\":2346:2356  _grantRole */\n  shl(0x20, tag_12)\n    /* \"contracts/ecommerce.sol\":2346:2387  _grantRole(AUDITOR_ROLE, audictorAddress) */\n  0x20\n  shr\n  jump\t// in\ntag_16:\n  pop\n    /* \"contracts/ecommerce.sol\":2431:2469  _setRoleAdmin(SELLER_ROLE, ADMIN_ROLE) */\n  tag_17\n    /* \"contracts/ecommerce.sol\":613:637  keccak256(\"SELLER_ROLE\") */\n  0x43f25613eb2f15fb17222a5d424ca2655743e71265d98e4b93c05e5fb589ecde\n    /* \"contracts/ecommerce.sol\":545:568  keccak256(\"ADMIN_ROLE\") */\n  0xa49807205ce4d355092ef5a8a18f56e8913cf4a201fbe287825b095693c21775\n    /* \"contracts/ecommerce.sol\":2431:2444  _setRoleAdmin */\n  shl(0x20, tag_18)\n    /* \"contracts/ecommerce.sol\":2431:2469  _setRoleAdmin(SELLER_ROLE, ADMIN_ROLE) */\n  0x20\n  shr\n  jump\t// in\ntag_17:\n    /* \"contracts/ecommerce.sol\":2480:2517  _setRoleAdmin(BUYER_ROLE, ADMIN_ROLE) */\n  tag_19\n    /* \"contracts/ecommerce.sol\":681:704  keccak256(\"BUYER_ROLE\") */\n  0xf8cd32ed93fc2f9fc78152a14807c9609af3d99c5fe4dc6b106a801aaddfe90e\n    /* \"contracts/ecommerce.sol\":545:568  keccak256(\"ADMIN_ROLE\") */\n  0xa49807205ce4d355092ef5a8a18f56e8913cf4a201fbe287825b095693c21775\n    /* \"contracts/ecommerce.sol\":2480:2493  _setRoleAdmin */\n  shl(0x20, tag_18)\n    /* \"contracts/ecommerce.sol\":2480:2517  _setRoleAdmin(BUYER_ROLE, ADMIN_ROLE) */\n  0x20\n  shr\n  jump\t// in\ntag_19:\n    /* \"contracts/ecommerce.sol\":2528:2573  _setRoleAdmin(AUTHENTICATOR_ROLE, ADMIN_ROLE) */\n  tag_20\n    /* \"contracts/ecommerce.sol\":756:787  keccak256(\"AUTHENTICATOR_ROLE\") */\n  0x190acb99f29d9641c9ad47655049f2d7c78fcbc837d62e7981d28c871f722081\n    /* \"contracts/ecommerce.sol\":545:568  keccak256(\"ADMIN_ROLE\") */\n  0xa49807205ce4d355092ef5a8a18f56e8913cf4a201fbe287825b095693c21775\n    /* \"contracts/ecommerce.sol\":2528:2541  _setRoleAdmin */\n  shl(0x20, tag_18)\n    /* \"contracts/ecommerce.sol\":2528:2573  _setRoleAdmin(AUTHENTICATOR_ROLE, ADMIN_ROLE) */\n  0x20\n  shr\n  jump\t// in\ntag_20:\n    /* \"contracts/ecommerce.sol\":2584:2623  _setRoleAdmin(AUDITOR_ROLE, ADMIN_ROLE) */\n  tag_21\n    /* \"contracts/ecommerce.sol\":833:858  keccak256(\"AUDITOR_ROLE\") */\n  0x59a1c48e5837ad7a7f3dcedcbe129bf3249ec4fbf651fd4f5e2600ead39fe2f5\n    /* \"contracts/ecommerce.sol\":545:568  keccak256(\"ADMIN_ROLE\") */\n  0xa49807205ce4d355092ef5a8a18f56e8913cf4a201fbe287825b095693c21775\n    /* \"contracts/ecommerce.sol\":2584:2597  _setRoleAdmin */\n  shl(0x20, tag_18)\n    /* \"contracts/ecommerce.sol\":2584:2623  _setRoleAdmin(AUDITOR_ROLE, ADMIN_ROLE) */\n  0x20\n  shr\n  jump\t// in\ntag_21:\n    /* \"contracts/ecommerce.sol\":1904:2631  constructor(address _icoContractAddress) {... */\n  pop\n    /* \"contracts/ecommerce.sol\":434:6827  contract Ecommerce is AccessControl, Pausable {... */\n  jump(tag_22)\n    /* \"@openzeppelin/contracts/access/AccessControl.sol\":6179:6495  function _grantRole(bytes32 role, address account) internal virtual returns (bool) {... */\ntag_12:\n    /* \"@openzeppelin/contracts/access/AccessControl.sol\":6256:6260  bool */\n  0x00\n    /* \"@openzeppelin/contracts/access/AccessControl.sol\":6277:6299  hasRole(role, account) */\n  tag_24\n    /* \"@openzeppelin/contracts/access/AccessControl.sol\":6285:6289  role */\n  dup4\n    /* \"@openzeppelin/contracts/access/AccessControl.sol\":6291:6298  account */\n  dup4\n    /* \"@openzeppelin/contracts/access/AccessControl.sol\":6277:6284  hasRole */\n  shl(0x20, tag_25)\n    /* \"@openzeppelin/contracts/access/AccessControl.sol\":6277:6299  hasRole(role, account) */\n  0x20\n  shr\n  jump\t// in\ntag_24:\n    /* \"@openzeppelin/contracts/access/AccessControl.sol\":6272:6489  if (!hasRole(role, account)) {... */\n  tag_26\n  jumpi\n    /* \"@openzeppelin/contracts/access/AccessControl.sol\":6347:6351  true */\n  0x01\n    /* \"@openzeppelin/contracts/access/AccessControl.sol\":6315:6321  _roles */\n  0x00\n    /* \"@openzeppelin/contracts/access/AccessControl.sol\":6315:6327  _roles[role] */\n  0x00\n    /* \"@openzeppelin/contracts/access/AccessControl.sol\":6322:6326  role */\n  dup6\n    /* \"@openzeppelin/contracts/access/AccessControl.sol\":6315:6327  _roles[role] */\n  dup2\n  mstore\n  0x20\n  add\n  swap1\n  dup2\n  mstore\n  0x20\n  add\n  0x00\n  keccak256\n    /* \"@openzeppelin/contracts/access/AccessControl.sol\":6315:6335  _roles[role].hasRole */\n  0x00\n  add\n    /* \"@openzeppelin/contracts/access/AccessControl.sol\":6315:6344  _roles[role].hasRole[account] */\n  0x00\n    /* \"@openzeppelin/contracts/access/AccessControl.sol\":6336:6343  account */\n  dup5\n    /* \"@openzeppelin/contracts/access/AccessControl.sol\":6315:6344  _roles[role].hasRole[account] */\n  0xffffffffffffffffffffffffffffffffffffffff\n  and\n  0xffffffffffffffffffffffffffffffffffffffff\n  and\n  dup2\n  mstore\n  0x20\n  add\n  swap1\n  dup2\n  mstore\n  0x20\n  add\n  0x00\n  keccak256\n  0x00\n    /* \"@openzeppelin/contracts/access/AccessControl.sol\":6315:6351  _roles[role].hasRole[account] = true */\n  0x0100\n  exp\n  dup2\n  sload\n  dup2\n  0xff\n  mul\n  not\n  and\n  swap1\n  dup4\n  iszero\n  iszero\n  mul\n  or\n  swap1\n  sstore\n  pop\n    /* \"@openzeppelin/contracts/access/AccessControl.sol\":6397:6409  _msgSender() */\n  tag_27\n    /* \"@openzeppelin/contracts/access/AccessControl.sol\":6397:6407  _msgSender */\n  shl(0x20, tag_28)\n    /* \"@openzeppelin/contracts/access/AccessControl.sol\":6397:6409  _msgSender() */\n  0x20\n  shr\n  jump\t// in\ntag_27:\n    /* \"@openzeppelin/contracts/access/AccessControl.sol\":6370:6410  RoleGranted(role, account, _msgSender()) */\n  0xffffffffffffffffffffffffffffffffffffffff\n  and\n    /* \"@openzeppelin/contracts/access/AccessControl.sol\":6388:6395  account */\n  dup3\n    /* \"@openzeppelin/contracts/access/AccessControl.sol\":6370:6410  RoleGranted(role, account, _msgSender()) */\n  0xffffffffffffffffffffffffffffffffffffffff\n  and\n    /* \"@openzeppelin/contracts/access/AccessControl.sol\":6382:6386  role */\n  dup5\n    /* \"@openzeppelin/contracts/access/AccessControl.sol\":6370:6410  RoleGranted(role, account, _msgSender()) */\n  0x2f8788117e7eff1d82e926ec794901d17c78024a50270940304540a733656f0d\n  mload(0x40)\n  mload(0x40)\n  dup1\n  swap2\n  sub\n  swap1\n  log4\n    /* \"@openzeppelin/contracts/access/AccessControl.sol\":6431:6435  true */\n  0x01\n    /* \"@openzeppelin/contracts/access/AccessControl.sol\":6424:6435  return true */\n  swap1\n  pop\n  jump(tag_23)\n    /* \"@openzeppelin/contracts/access/AccessControl.sol\":6272:6489  if (!hasRole(role, account)) {... */\ntag_26:\n    /* \"@openzeppelin/contracts/access/AccessControl.sol\":6473:6478  false */\n  0x00\n    /* \"@openzeppelin/contracts/access/AccessControl.sol\":6466:6478  return false */\n  swap1\n  pop\n    /* \"@openzeppelin/contracts/access/AccessControl.sol\":6179:6495  function _grantRole(bytes32 role, address account) internal virtual returns (bool) {... */\ntag_23:\n  swap3\n  swap2\n  pop\n  pop\n  jump\t// out\n    /* \"@openzeppelin/contracts/access/AccessControl.sol\":5698:5945  function _setRoleAdmin(bytes32 role, bytes32 adminRole) internal virtual {... */\ntag_18:\n    /* \"@openzeppelin/contracts/access/AccessControl.sol\":5781:5806  bytes32 previousAdminRole */\n  0x00\n    /* \"@openzeppelin/contracts/access/AccessControl.sol\":5809:5827  getRoleAdmin(role) */\n  tag_31\n    /* \"@openzeppelin/contracts/access/AccessControl.sol\":5822:5826  role */\n  dup4\n    /* \"@openzeppelin/contracts/access/AccessControl.sol\":5809:5821  getRoleAdmin */\n  shl(0x20, tag_32)\n    /* \"@openzeppelin/contracts/access/AccessControl.sol\":5809:5827  getRoleAdmin(role) */\n  0x20\n  shr\n  jump\t// in\ntag_31:\n    /* \"@openzeppelin/contracts/access/AccessControl.sol\":5781:5827  bytes32 previousAdminRole = getRoleAdmin(role) */\n  swap1\n  pop\n    /* \"@openzeppelin/contracts/access/AccessControl.sol\":5862:5871  adminRole */\n  dup2\n    /* \"@openzeppelin/contracts/access/AccessControl.sol\":5837:5843  _roles */\n  0x00\n    /* \"@openzeppelin/contracts/access/AccessControl.sol\":5837:5849  _roles[role] */\n  0x00\n    /* \"@openzeppelin/contracts/access/AccessControl.sol\":5844:5848  role */\n  dup6\n    /* \"@openzeppelin/contracts/access/AccessControl.sol\":5837:5849  _roles[role] */\n  dup2\n  mstore\n  0x20\n  add\n  swap1\n  dup2\n  mstore\n  0x20\n  add\n  0x00\n  keccak256\n    /* \"@openzeppelin/contracts/access/AccessControl.sol\":5837:5859  _roles[role].adminRole */\n  0x01\n  add\n    /* \"@openzeppelin/contracts/access/AccessControl.sol\":5837:5871  _roles[role].adminRole = adminRole */\n  dup2\n  swap1\n  sstore\n  pop\n    /* \"@openzeppelin/contracts/access/AccessControl.sol\":5928:5937  adminRole */\n  dup2\n    /* \"@openzeppelin/contracts/access/AccessControl.sol\":5909:5926  previousAdminRole */\n  dup2\n    /* \"@openzeppelin/contracts/access/AccessControl.sol\":5903:5907  role */\n  dup5\n    /* \"@openzeppelin/contracts/access/AccessControl.sol\":5886:5938  RoleAdminChanged(role, previousAdminRole, adminRole) */\n  0xbd79b86ffe0ab8e8776151514217cd7cacd52c909f66475c3af44e129f0b00ff\n  mload(0x40)\n  mload(0x40)\n  dup1\n  swap2\n  sub\n  swap1\n  log4\n    /* \"@openzeppelin/contracts/access/AccessControl.sol\":5771:5945  {... */\n  pop\n    /* \"@openzeppelin/contracts/access/AccessControl.sol\":5698:5945  function _setRoleAdmin(bytes32 role, bytes32 adminRole) internal virtual {... */\n  pop\n  pop\n  jump\t// out\n    /* \"@openzeppelin/contracts/access/AccessControl.sol\":2854:2990  function hasRole(bytes32 role, address account) public view virtual returns (bool) {... */\ntag_25:\n    /* \"@openzeppelin/contracts/access/AccessControl.sol\":2931:2935  bool */\n  0x00\n    /* \"@openzeppelin/contracts/access/AccessControl.sol\":2954:2960  _roles */\n  0x00\n    /* \"@openzeppelin/contracts/access/AccessControl.sol\":2954:2966  _roles[role] */\n  0x00\n    /* \"@openzeppelin/contracts/access/AccessControl.sol\":2961:2965  role */\n  dup5\n    /* \"@openzeppelin/contracts/access/AccessControl.sol\":2954:2966  _roles[role] */\n  dup2\n  mstore\n  0x20\n  add\n  swap1\n  dup2\n  mstore\n  0x20\n  add\n  0x00\n  keccak256\n    /* \"@openzeppelin/contracts/access/AccessControl.sol\":2954:2974  _roles[role].hasRole */\n  0x00\n  add\n    /* \"@openzeppelin/contracts/access/AccessControl.sol\":2954:2983  _roles[role].hasRole[account] */\n  0x00\n    /* \"@openzeppelin/contracts/access/AccessControl.sol\":2975:2982  account */\n  dup4\n    /* \"@openzeppelin/contracts/access/AccessControl.sol\":2954:2983  _roles[role].hasRole[account] */\n  0xffffffffffffffffffffffffffffffffffffffff\n  and\n  0xffffffffffffffffffffffffffffffffffffffff\n  and\n  dup2\n  mstore\n  0x20\n  add\n  swap1\n  dup2\n  mstore\n  0x20\n  add\n  0x00\n  keccak256\n  0x00\n  swap1\n  sload\n  swap1\n  0x0100\n  exp\n  swap1\n  div\n  0xff\n  and\n    /* \"@openzeppelin/contracts/access/AccessControl.sol\":2947:2983  return _roles[role].hasRole[account] */\n  swap1\n  pop\n    /* \"@openzeppelin/contracts/access/AccessControl.sol\":2854:2990  function hasRole(bytes32 role, address account) public view virtual returns (bool) {... */\n  swap3\n  swap2\n  pop\n  pop\n  jump\t// out\n    /* \"@openzeppelin/contracts/utils/Context.sol\":656:752  function _msgSender() internal view virtual returns (address) {... */\ntag_28:\n    /* \"@openzeppelin/contracts/utils/Context.sol\":709:716  address */\n  0x00\n    /* \"@openzeppelin/contracts/utils/Context.sol\":735:745  msg.sender */\n  caller\n    /* \"@openzeppelin/contracts/utils/Context.sol\":728:745  return msg.sender */\n  swap1\n  pop\n    /* \"@openzeppelin/contracts/utils/Context.sol\":656:752  function _msgSender() internal view virtual returns (address) {... */\n  swap1\n  jump\t// out\n    /* \"@openzeppelin/contracts/access/AccessControl.sol\":3810:3930  function getRoleAdmin(bytes32 role) public view virtual returns (bytes32) {... */\ntag_32:\n    /* \"@openzeppelin/contracts/access/AccessControl.sol\":3875:3882  bytes32 */\n  0x00\n    /* \"@openzeppelin/contracts/access/AccessControl.sol\":3901:3907  _roles */\n  0x00\n    /* \"@openzeppelin/contracts/access/AccessControl.sol\":3901:3913  _roles[role] */\n  0x00\n    /* \"@openzeppelin/contracts/access/AccessControl.sol\":3908:3912  role */\n  dup4\n    /* \"@openzeppelin/contracts/access/AccessControl.sol\":3901:3913  _roles[role] */\n  dup2\n  mstore\n  0x20\n  add\n  swap1\n  dup2\n  mstore\n  0x20\n  add\n  0x00\n  keccak256\n    /* \"@openzeppelin/contracts/access/AccessControl.sol\":3901:3923  _roles[role].adminRole */\n  0x01\n  add\n  sload\n    /* \"@openzeppelin/contracts/access/AccessControl.sol\":3894:3923  return _roles[role].adminRole */\n  swap1\n  pop\n    /* \"@openzeppelin/contracts/access/AccessControl.sol\":3810:3930  function getRoleAdmin(bytes32 role) public view virtual returns (bytes32) {... */\n  swap2\n  swap1\n  pop\n  jump\t// out\n    /* \"#utility.yul\":88:205   */\ntag_37:\n    /* \"#utility.yul\":197:198   */\n  0x00\n    /* \"#utility.yul\":194:195   */\n  0x00\n    /* \"#utility.yul\":187:199   */\n  revert\n    /* \"#utility.yul\":334:460   */\ntag_39:\n    /* \"#utility.yul\":371:378   */\n  0x00\n    /* \"#utility.yul\":411:453   */\n  0xffffffffffffffffffffffffffffffffffffffff\n    /* \"#utility.yul\":404:409   */\n  dup3\n    /* \"#utility.yul\":400:454   */\n  and\n    /* \"#utility.yul\":389:454   */\n  swap1\n  pop\n    /* \"#utility.yul\":334:460   */\n  swap2\n  swap1\n  pop\n  jump\t// out\n    /* \"#utility.yul\":466:562   */\ntag_40:\n    /* \"#utility.yul\":503:510   */\n  0x00\n    /* \"#utility.yul\":532:556   */\n  tag_52\n    /* \"#utility.yul\":550:555   */\n  dup3\n    /* \"#utility.yul\":532:556   */\n  tag_39\n  jump\t// in\ntag_52:\n    /* \"#utility.yul\":521:556   */\n  swap1\n  pop\n    /* \"#utility.yul\":466:562   */\n  swap2\n  swap1\n  pop\n  jump\t// out\n    /* \"#utility.yul\":568:690   */\ntag_41:\n    /* \"#utility.yul\":641:665   */\n  tag_54\n    /* \"#utility.yul\":659:664   */\n  dup2\n    /* \"#utility.yul\":641:665   */\n  tag_40\n  jump\t// in\ntag_54:\n    /* \"#utility.yul\":634:639   */\n  dup2\n    /* \"#utility.yul\":631:666   */\n  eq\n    /* \"#utility.yul\":621:684   */\n  tag_55\n  jumpi\n    /* \"#utility.yul\":680:681   */\n  0x00\n    /* \"#utility.yul\":677:678   */\n  0x00\n    /* \"#utility.yul\":670:682   */\n  revert\n    /* \"#utility.yul\":621:684   */\ntag_55:\n    /* \"#utility.yul\":568:690   */\n  pop\n  jump\t// out\n    /* \"#utility.yul\":696:839   */\ntag_42:\n    /* \"#utility.yul\":753:758   */\n  0x00\n    /* \"#utility.yul\":784:790   */\n  dup2\n    /* \"#utility.yul\":778:791   */\n  mload\n    /* \"#utility.yul\":769:791   */\n  swap1\n  pop\n    /* \"#utility.yul\":800:833   */\n  tag_57\n    /* \"#utility.yul\":827:832   */\n  dup2\n    /* \"#utility.yul\":800:833   */\n  tag_41\n  jump\t// in\ntag_57:\n    /* \"#utility.yul\":696:839   */\n  swap3\n  swap2\n  pop\n  pop\n  jump\t// out\n    /* \"#utility.yul\":845:1196   */\ntag_3:\n    /* \"#utility.yul\":915:921   */\n  0x00\n    /* \"#utility.yul\":964:966   */\n  0x20\n    /* \"#utility.yul\":952:961   */\n  dup3\n    /* \"#utility.yul\":943:950   */\n  dup5\n    /* \"#utility.yul\":939:962   */\n  sub\n    /* \"#utility.yul\":935:967   */\n  slt\n    /* \"#utility.yul\":932:1051   */\n  iszero\n  tag_59\n  jumpi\n    /* \"#utility.yul\":970:1049   */\n  tag_60\n  tag_37\n  jump\t// in\ntag_60:\n    /* \"#utility.yul\":932:1051   */\ntag_59:\n    /* \"#utility.yul\":1090:1091   */\n  0x00\n    /* \"#utility.yul\":1115:1179   */\n  tag_61\n    /* \"#utility.yul\":1171:1178   */\n  dup5\n    /* \"#utility.yul\":1162:1168   */\n  dup3\n    /* \"#utility.yul\":1151:1160   */\n  dup6\n    /* \"#utility.yul\":1147:1169   */\n  add\n    /* \"#utility.yul\":1115:1179   */\n  tag_42\n  jump\t// in\ntag_61:\n    /* \"#utility.yul\":1105:1179   */\n  swap2\n  pop\n    /* \"#utility.yul\":1061:1189   */\n  pop\n    /* \"#utility.yul\":845:1196   */\n  swap3\n  swap2\n  pop\n  pop\n  jump\t// out\n    /* \"#utility.yul\":1202:1371   */\ntag_43:\n    /* \"#utility.yul\":1286:1297   */\n  0x00\n    /* \"#utility.yul\":1320:1326   */\n  dup3\n    /* \"#utility.yul\":1315:1318   */\n  dup3\n    /* \"#utility.yul\":1308:1327   */\n  mstore\n    /* \"#utility.yul\":1360:1364   */\n  0x20\n    /* \"#utility.yul\":1355:1358   */\n  dup3\n    /* \"#utility.yul\":1351:1365   */\n  add\n    /* \"#utility.yul\":1336:1365   */\n  swap1\n  pop\n    /* \"#utility.yul\":1202:1371   */\n  swap3\n  swap2\n  pop\n  pop\n  jump\t// out\n    /* \"#utility.yul\":1377:1555   */\ntag_44:\n    /* \"#utility.yul\":1517:1547   */\n  0x496e76616c69642049434f20636f6e7472616374206164647265737300000000\n    /* \"#utility.yul\":1513:1514   */\n  0x00\n    /* \"#utility.yul\":1505:1511   */\n  dup3\n    /* \"#utility.yul\":1501:1515   */\n  add\n    /* \"#utility.yul\":1494:1548   */\n  mstore\n    /* \"#utility.yul\":1377:1555   */\n  pop\n  jump\t// out\n    /* \"#utility.yul\":1561:1927   */\ntag_45:\n    /* \"#utility.yul\":1703:1706   */\n  0x00\n    /* \"#utility.yul\":1724:1791   */\n  tag_65\n    /* \"#utility.yul\":1788:1790   */\n  0x1c\n    /* \"#utility.yul\":1783:1786   */\n  dup4\n    /* \"#utility.yul\":1724:1791   */\n  tag_43\n  jump\t// in\ntag_65:\n    /* \"#utility.yul\":1717:1791   */\n  swap2\n  pop\n    /* \"#utility.yul\":1800:1893   */\n  tag_66\n    /* \"#utility.yul\":1889:1892   */\n  dup3\n    /* \"#utility.yul\":1800:1893   */\n  tag_44\n  jump\t// in\ntag_66:\n    /* \"#utility.yul\":1918:1920   */\n  0x20\n    /* \"#utility.yul\":1913:1916   */\n  dup3\n    /* \"#utility.yul\":1909:1921   */\n  add\n    /* \"#utility.yul\":1902:1921   */\n  swap1\n  pop\n    /* \"#utility.yul\":1561:1927   */\n  swap2\n  swap1\n  pop\n  jump\t// out\n    /* \"#utility.yul\":1933:2352   */\ntag_10:\n    /* \"#utility.yul\":2099:2103   */\n  0x00\n    /* \"#utility.yul\":2137:2139   */\n  0x20\n    /* \"#utility.yul\":2126:2135   */\n  dup3\n    /* \"#utility.yul\":2122:2140   */\n  add\n    /* \"#utility.yul\":2114:2140   */\n  swap1\n  pop\n    /* \"#utility.yul\":2186:2195   */\n  dup2\n    /* \"#utility.yul\":2180:2184   */\n  dup2\n    /* \"#utility.yul\":2176:2196   */\n  sub\n    /* \"#utility.yul\":2172:2173   */\n  0x00\n    /* \"#utility.yul\":2161:2170   */\n  dup4\n    /* \"#utility.yul\":2157:2174   */\n  add\n    /* \"#utility.yul\":2150:2197   */\n  mstore\n    /* \"#utility.yul\":2214:2345   */\n  tag_68\n    /* \"#utility.yul\":2340:2344   */\n  dup2\n    /* \"#utility.yul\":2214:2345   */\n  tag_45\n  jump\t// in\ntag_68:\n    /* \"#utility.yul\":2206:2345   */\n  swap1\n  pop\n    /* \"#utility.yul\":1933:2352   */\n  swap2\n  swap1\n  pop\n  jump\t// out\n    /* \"contracts/ecommerce.sol\":434:6827  contract Ecommerce is AccessControl, Pausable {... */\ntag_22:\n  dataSize(sub_0)\n  dup1\n  dataOffset(sub_0)\n  0x00\n  codecopy\n  0x00\n  return\nstop\n\nsub_0: assembly {\n        /* \"contracts/ecommerce.sol\":434:6827  contract Ecommerce is AccessControl, Pausable {... */\n      mstore(0x40, 0x80)\n      jumpi(tag_1, lt(calldatasize, 0x04))\n      shr(0xe0, calldataload(0x00))\n      dup1\n      0x7cb9cf54\n      gt\n      tag_39\n      jumpi\n      dup1\n      0xc3634ddc\n      gt\n      tag_40\n      jumpi\n      dup1\n      0xdbe4613d\n      gt\n      tag_41\n      jumpi\n      dup1\n      0xdbe4613d\n      eq\n      tag_34\n      jumpi\n      dup1\n      0xe08903b1\n      eq\n      tag_35\n      jumpi\n      dup1\n      0xe0f6ef87\n      eq\n      tag_36\n      jumpi\n      dup1\n      0xe429cef1\n      eq\n      tag_37\n      jumpi\n      dup1\n      0xe6116cfd\n      eq\n      tag_38\n      jumpi\n      jump(tag_2)\n    tag_41:\n      dup1\n      0xc3634ddc\n      eq\n      tag_30\n      jumpi\n      dup1\n      0xc66e4095\n      eq\n      tag_31\n      jumpi\n      dup1\n      0xd547741f\n      eq\n      tag_32\n      jumpi\n      dup1\n      0xd93fabfa\n      eq\n      tag_33\n      jumpi\n      jump(tag_2)\n    tag_40:\n      dup1\n      0xa217fddf\n      gt\n      tag_42\n      jumpi\n      dup1\n      0xa217fddf\n      eq\n      tag_25\n      jumpi\n      dup1\n      0xb15247d9\n      eq\n      tag_26\n      jumpi\n      dup1\n      0xb235ce85\n      eq\n      tag_27\n      jumpi\n      dup1\n      0xb65c5e8d\n      eq\n      tag_28\n      jumpi\n      dup1\n      0xbbf89803\n      eq\n      tag_29\n      jumpi\n      jump(tag_2)\n    tag_42:\n      dup1\n      0x7cb9cf54\n      eq\n      tag_21\n      jumpi\n      dup1\n      0x8456cb59\n      eq\n      tag_22\n      jumpi\n      dup1\n      0x91d14854\n      eq\n      tag_23\n      jumpi\n      dup1\n      0x9699a82d\n      eq\n      tag_24\n      jumpi\n      jump(tag_2)\n    tag_39:\n      dup1\n      0x410b2724\n      gt\n      tag_43\n      jumpi\n      dup1\n      0x6f75b00c\n      gt\n      tag_44\n      jumpi\n      dup1\n      0x6f75b00c\n      eq\n      tag_16\n      jumpi\n      dup1\n      0x75b238fc\n      eq\n      tag_17\n      jumpi\n      dup1\n      0x76809ce3\n      eq\n      tag_18\n      jumpi\n      dup1\n      0x7a01a1da\n      eq\n      tag_19\n      jumpi\n      dup1\n      0x7acc0b20\n      eq\n      tag_20\n      jumpi\n      jump(tag_2)\n    tag_44:\n      dup1\n      0x410b2724\n      eq\n      tag_12\n      jumpi\n      dup1\n      0x44834aca\n      eq\n      tag_13\n      jumpi\n      dup1\n      0x5c975abb\n      eq\n      tag_14\n      jumpi\n      dup1\n      0x6e1d616e\n      eq\n      tag_15\n      jumpi\n      jump(tag_2)\n    tag_43:\n      dup1\n      0x313ce567\n      gt\n      tag_45\n      jumpi\n      dup1\n      0x313ce567\n      eq\n      tag_7\n      jumpi\n      dup1\n      0x36568abe\n      eq\n      tag_8\n      jumpi\n      dup1\n      0x38e76a03\n      eq\n      tag_9\n      jumpi\n      dup1\n      0x3d9b2ae6\n      eq\n      tag_10\n      jumpi\n      dup1\n      0x3f4ba83a\n      eq\n      tag_11\n      jumpi\n      jump(tag_2)\n    tag_45:\n      dup1\n      0x01ffc9a7\n      eq\n      tag_3\n      jumpi\n      dup1\n      0x1fc6cf22\n      eq\n      tag_4\n      jumpi\n      dup1\n      0x248a9ca3\n      eq\n      tag_5\n      jumpi\n      dup1\n      0x2f2ff15d\n      eq\n      tag_6\n      jumpi\n      jump(tag_2)\n    tag_1:\n      jumpi(tag_2, calldatasize)\n        /* \"contracts/ecommerce.sol\":4679:4716  revert(\"Direct payments not allowed\") */\n      mload(0x40)\n      0x08c379a000000000000000000000000000000000000000000000000000000000\n      dup2\n      mstore\n      0x04\n      add\n      tag_48\n      swap1\n      tag_49\n      jump\t// in\n    tag_48:\n      mload(0x40)\n      dup1\n      swap2\n      sub\n      swap1\n      revert\n        /* \"contracts/ecommerce.sol\":434:6827  contract Ecommerce is AccessControl, Pausable {... */\n    tag_2:\n        /* \"contracts/ecommerce.sol\":4771:4834  revert(\"Function does not exist or direct payment not allowed\") */\n      mload(0x40)\n      0x08c379a000000000000000000000000000000000000000000000000000000000\n      dup2\n      mstore\n      0x04\n      add\n      tag_52\n      swap1\n      tag_53\n      jump\t// in\n    tag_52:\n      mload(0x40)\n      dup1\n      swap2\n      sub\n      swap1\n      revert\n        /* \"@openzeppelin/contracts/access/AccessControl.sol\":2565:2767  function supportsInterface(bytes4 interfaceId) public view virtual override returns (bool) {... */\n    tag_3:\n      callvalue\n      dup1\n      iszero\n      tag_54\n      jumpi\n      revert(0x00, 0x00)\n    tag_54:\n      pop\n      tag_55\n      0x04\n      dup1\n      calldatasize\n      sub\n      dup2\n      add\n      swap1\n      tag_56\n      swap2\n      swap1\n      tag_57\n      jump\t// in\n    tag_56:\n      tag_58\n      jump\t// in\n    tag_55:\n      mload(0x40)\n      tag_59\n      swap2\n      swap1\n      tag_60\n      jump\t// in\n    tag_59:\n      mload(0x40)\n      dup1\n      swap2\n      sub\n      swap1\n      return\n        /* \"contracts/ecommerce.sol\":1044:1133  address public constant authenticatorAddress = 0x78731D3Ca6b7E34aC0F824c42a7cC18A495cabaB */\n    tag_4:\n      callvalue\n      dup1\n      iszero\n      tag_61\n      jumpi\n      revert(0x00, 0x00)\n    tag_61:\n      pop\n      tag_62\n      tag_63\n      jump\t// in\n    tag_62:\n      mload(0x40)\n      tag_64\n      swap2\n      swap1\n      tag_65\n      jump\t// in\n    tag_64:\n      mload(0x40)\n      dup1\n      swap2\n      sub\n      swap1\n      return\n        /* \"@openzeppelin/contracts/access/AccessControl.sol\":3810:3930  function getRoleAdmin(bytes32 role) public view virtual returns (bytes32) {... */\n    tag_5:\n      callvalue\n      dup1\n      iszero\n      tag_66\n      jumpi\n      revert(0x00, 0x00)\n    tag_66:\n      pop\n      tag_67\n      0x04\n      dup1\n      calldatasize\n      sub\n      dup2\n      add\n      swap1\n      tag_68\n      swap2\n      swap1\n      tag_69\n      jump\t// in\n    tag_68:\n      tag_70\n      jump\t// in\n    tag_67:\n      mload(0x40)\n      tag_71\n      swap2\n      swap1\n      tag_72\n      jump\t// in\n    tag_71:\n      mload(0x40)\n      dup1\n      swap2\n      sub\n      swap1\n      return\n        /* \"@openzeppelin/contracts/access/AccessControl.sol\":4226:4362  function grantRole(bytes32 role, address account) public virtual onlyRole(getRoleAdmin(role)) {... */\n    tag_6:\n      callvalue\n      dup1\n      iszero\n      tag_73\n      jumpi\n      revert(0x00, 0x00)\n    tag_73:\n      pop\n      tag_74\n      0x04\n      dup1\n      calldatasize\n      sub\n      dup2\n      add\n      swap1\n      tag_75\n      swap2\n      swap1\n      tag_76\n      jump\t// in\n    tag_75:\n      tag_77\n      jump\t// in\n    tag_74:\n      stop\n        /* \"contracts/ecommerce.sol\":4513:4594  function decimals() public pure returns (uint8) {... */\n    tag_7:\n      callvalue\n      dup1\n      iszero\n      tag_78\n      jumpi\n      revert(0x00, 0x00)\n    tag_78:\n      pop\n      tag_79\n      tag_80\n      jump\t// in\n    tag_79:\n      mload(0x40)\n      tag_81\n      swap2\n      swap1\n      tag_82\n      jump\t// in\n    tag_81:\n      mload(0x40)\n      dup1\n      swap2\n      sub\n      swap1\n      return\n        /* \"@openzeppelin/contracts/access/AccessControl.sol\":5328:5573  function renounceRole(bytes32 role, address callerConfirmation) public virtual {... */\n    tag_8:\n      callvalue\n      dup1\n      iszero\n      tag_83\n      jumpi\n      revert(0x00, 0x00)\n    tag_83:\n      pop\n      tag_84\n      0x04\n      dup1\n      calldatasize\n      sub\n      dup2\n      add\n      swap1\n      tag_85\n      swap2\n      swap1\n      tag_76\n      jump\t// in\n    tag_85:\n      tag_86\n      jump\t// in\n    tag_84:\n      stop\n        /* \"contracts/ecommerce.sol\":5790:6304  function purchaseProduct(uint256 productId) external onlyBuyer whenNotPaused {... */\n    tag_9:\n      callvalue\n      dup1\n      iszero\n      tag_87\n      jumpi\n      revert(0x00, 0x00)\n    tag_87:\n      pop\n      tag_88\n      0x04\n      dup1\n      calldatasize\n      sub\n      dup2\n      add\n      swap1\n      tag_89\n      swap2\n      swap1\n      tag_90\n      jump\t// in\n    tag_89:\n      tag_91\n      jump\t// in\n    tag_88:\n      stop\n        /* \"contracts/ecommerce.sol\":867:949  address public constant sellerAddress = 0x5B38Da6a701c568545dCfcB03FcB875f56beddC4 */\n    tag_10:\n      callvalue\n      dup1\n      iszero\n      tag_92\n      jumpi\n      revert(0x00, 0x00)\n    tag_92:\n      pop\n      tag_93\n      tag_94\n      jump\t// in\n    tag_93:\n      mload(0x40)\n      tag_95\n      swap2\n      swap1\n      tag_65\n      jump\t// in\n    tag_95:\n      mload(0x40)\n      dup1\n      swap2\n      sub\n      swap1\n      return\n        /* \"contracts/ecommerce.sol\":4402:4480  function unpause() external onlyRole(ADMIN_ROLE) {... */\n    tag_11:\n      callvalue\n      dup1\n      iszero\n      tag_96\n      jumpi\n      revert(0x00, 0x00)\n    tag_96:\n      pop\n      tag_97\n      tag_98\n      jump\t// in\n    tag_97:\n      stop\n        /* \"contracts/ecommerce.sol\":3797:3916  function addAuthenticator(address account) external onlyAdmin {... */\n    tag_12:\n      callvalue\n      dup1\n      iszero\n      tag_99\n      jumpi\n      revert(0x00, 0x00)\n    tag_99:\n      pop\n      tag_100\n      0x04\n      dup1\n      calldatasize\n      sub\n      dup2\n      add\n      swap1\n      tag_101\n      swap2\n      swap1\n      tag_102\n      jump\t// in\n    tag_101:\n      tag_103\n      jump\t// in\n    tag_100:\n      stop\n        /* \"contracts/ecommerce.sol\":956:1037  address public constant buyerAddress = 0x4B20993Bc481177ec7E8f571ceCaE8A9e22C02db */\n    tag_13:\n      callvalue\n      dup1\n      iszero\n      tag_104\n      jumpi\n      revert(0x00, 0x00)\n    tag_104:\n      pop\n      tag_105\n      tag_106\n      jump\t// in\n    tag_105:\n      mload(0x40)\n      tag_107\n      swap2\n      swap1\n      tag_65\n      jump\t// in\n    tag_107:\n      mload(0x40)\n      dup1\n      swap2\n      sub\n      swap1\n      return\n        /* \"@openzeppelin/contracts/security/Pausable.sol\":1615:1699  function paused() public view virtual returns (bool) {... */\n    tag_14:\n      callvalue\n      dup1\n      iszero\n      tag_108\n      jumpi\n      revert(0x00, 0x00)\n    tag_108:\n      pop\n      tag_109\n      tag_110\n      jump\t// in\n    tag_109:\n      mload(0x40)\n      tag_111\n      swap2\n      swap1\n      tag_60\n      jump\t// in\n    tag_111:\n      mload(0x40)\n      dup1\n      swap2\n      sub\n      swap1\n      return\n        /* \"contracts/ecommerce.sol\":794:858  bytes32 public constant AUDITOR_ROLE = keccak256(\"AUDITOR_ROLE\") */\n    tag_15:\n      callvalue\n      dup1\n      iszero\n      tag_112\n      jumpi\n      revert(0x00, 0x00)\n    tag_112:\n      pop\n      tag_113\n      tag_114\n      jump\t// in\n    tag_113:\n      mload(0x40)\n      tag_115\n      swap2\n      swap1\n      tag_72\n      jump\t// in\n    tag_115:\n      mload(0x40)\n      dup1\n      swap2\n      sub\n      swap1\n      return\n        /* \"contracts/ecommerce.sol\":3682:3789  function removeBuyer(address account) external onlyAdmin {... */\n    tag_16:\n      callvalue\n      dup1\n      iszero\n      tag_116\n      jumpi\n      revert(0x00, 0x00)\n    tag_116:\n      pop\n      tag_117\n      0x04\n      dup1\n      calldatasize\n      sub\n      dup2\n      add\n      swap1\n      tag_118\n      swap2\n      swap1\n      tag_102\n      jump\t// in\n    tag_118:\n      tag_119\n      jump\t// in\n    tag_117:\n      stop\n        /* \"contracts/ecommerce.sol\":508:568  bytes32 public constant ADMIN_ROLE = keccak256(\"ADMIN_ROLE\") */\n    tag_17:\n      callvalue\n      dup1\n      iszero\n      tag_120\n      jumpi\n      revert(0x00, 0x00)\n    tag_120:\n      pop\n      tag_121\n      tag_122\n      jump\t// in\n    tag_121:\n      mload(0x40)\n      tag_123\n      swap2\n      swap1\n      tag_72\n      jump\t// in\n    tag_123:\n      mload(0x40)\n      dup1\n      swap2\n      sub\n      swap1\n      return\n        /* \"contracts/ecommerce.sol\":1231:1265  uint8 public constant decimal = 18 */\n    tag_18:\n      callvalue\n      dup1\n      iszero\n      tag_124\n      jumpi\n      revert(0x00, 0x00)\n    tag_124:\n      pop\n      tag_125\n      tag_126\n      jump\t// in\n    tag_125:\n      mload(0x40)\n      tag_127\n      swap2\n      swap1\n      tag_82\n      jump\t// in\n    tag_127:\n      mload(0x40)\n      dup1\n      swap2\n      sub\n      swap1\n      return\n        /* \"contracts/ecommerce.sol\":644:704  bytes32 public constant BUYER_ROLE = keccak256(\"BUYER_ROLE\") */\n    tag_19:\n      callvalue\n      dup1\n      iszero\n      tag_128\n      jumpi\n      revert(0x00, 0x00)\n    tag_128:\n      pop\n      tag_129\n      tag_130\n      jump\t// in\n    tag_129:\n      mload(0x40)\n      tag_131\n      swap2\n      swap1\n      tag_72\n      jump\t// in\n    tag_131:\n      mload(0x40)\n      dup1\n      swap2\n      sub\n      swap1\n      return\n        /* \"contracts/ecommerce.sol\":1462:1505  mapping(uint256 => Product) public products */\n    tag_20:\n      callvalue\n      dup1\n      iszero\n      tag_132\n      jumpi\n      revert(0x00, 0x00)\n    tag_132:\n      pop\n      tag_133\n      0x04\n      dup1\n      calldatasize\n      sub\n      dup2\n      add\n      swap1\n      tag_134\n      swap2\n      swap1\n      tag_90\n      jump\t// in\n    tag_134:\n      tag_135\n      jump\t// in\n    tag_133:\n      mload(0x40)\n      tag_136\n      swap6\n      swap5\n      swap4\n      swap3\n      swap2\n      swap1\n      tag_137\n      jump\t// in\n    tag_136:\n      mload(0x40)\n      dup1\n      swap2\n      sub\n      swap1\n      return\n        /* \"contracts/ecommerce.sol\":3454:3563  function removeSeller(address account) external onlyAdmin {... */\n    tag_21:\n      callvalue\n      dup1\n      iszero\n      tag_138\n      jumpi\n      revert(0x00, 0x00)\n    tag_138:\n      pop\n      tag_139\n      0x04\n      dup1\n      calldatasize\n      sub\n      dup2\n      add\n      swap1\n      tag_140\n      swap2\n      swap1\n      tag_102\n      jump\t// in\n    tag_140:\n      tag_141\n      jump\t// in\n    tag_139:\n      stop\n        /* \"contracts/ecommerce.sol\":4320:4394  function pause() external onlyRole(ADMIN_ROLE) {... */\n    tag_22:\n      callvalue\n      dup1\n      iszero\n      tag_142\n      jumpi\n      revert(0x00, 0x00)\n    tag_142:\n      pop\n      tag_143\n      tag_144\n      jump\t// in\n    tag_143:\n      stop\n        /* \"@openzeppelin/contracts/access/AccessControl.sol\":2854:2990  function hasRole(bytes32 role, address account) public view virtual returns (bool) {... */\n    tag_23:\n      callvalue\n      dup1\n      iszero\n      tag_145\n      jumpi\n      revert(0x00, 0x00)\n    tag_145:\n      pop\n      tag_146\n      0x04\n      dup1\n      calldatasize\n      sub\n      dup2\n      add\n      swap1\n      tag_147\n      swap2\n      swap1\n      tag_76\n      jump\t// in\n    tag_147:\n      tag_148\n      jump\t// in\n    tag_146:\n      mload(0x40)\n      tag_149\n      swap2\n      swap1\n      tag_60\n      jump\t// in\n    tag_149:\n      mload(0x40)\n      dup1\n      swap2\n      sub\n      swap1\n      return\n        /* \"contracts/ecommerce.sol\":3924:4047  function removeAuthenticator(address account) external onlyAdmin {... */\n    tag_24:\n      callvalue\n      dup1\n      iszero\n      tag_150\n      jumpi\n      revert(0x00, 0x00)\n    tag_150:\n      pop\n      tag_151\n      0x04\n      dup1\n      calldatasize\n      sub\n      dup2\n      add\n      swap1\n      tag_152\n      swap2\n      swap1\n      tag_102\n      jump\t// in\n    tag_152:\n      tag_153\n      jump\t// in\n    tag_151:\n      stop\n        /* \"@openzeppelin/contracts/access/AccessControl.sol\":2187:2236  bytes32 public constant DEFAULT_ADMIN_ROLE = 0x00 */\n    tag_25:\n      callvalue\n      dup1\n      iszero\n      tag_154\n      jumpi\n      revert(0x00, 0x00)\n    tag_154:\n      pop\n      tag_155\n      tag_156\n      jump\t// in\n    tag_155:\n      mload(0x40)\n      tag_157\n      swap2\n      swap1\n      tag_72\n      jump\t// in\n    tag_157:\n      mload(0x40)\n      dup1\n      swap2\n      sub\n      swap1\n      return\n        /* \"contracts/ecommerce.sol\":4877:5388  function addProduct(string memory name, uint256 price) external onlySeller whenNotPaused {... */\n    tag_26:\n      callvalue\n      dup1\n      iszero\n      tag_158\n      jumpi\n      revert(0x00, 0x00)\n    tag_158:\n      pop\n      tag_159\n      0x04\n      dup1\n      calldatasize\n      sub\n      dup2\n      add\n      swap1\n      tag_160\n      swap2\n      swap1\n      tag_161\n      jump\t// in\n    tag_160:\n      tag_162\n      jump\t// in\n    tag_159:\n      stop\n        /* \"contracts/ecommerce.sol\":1140:1224  address public constant audictorAddress = 0x78731D3Ca6b7E34aC0F824c42a7cC18A495cabaB */\n    tag_27:\n      callvalue\n      dup1\n      iszero\n      tag_163\n      jumpi\n      revert(0x00, 0x00)\n    tag_163:\n      pop\n      tag_164\n      tag_165\n      jump\t// in\n    tag_164:\n      mload(0x40)\n      tag_166\n      swap2\n      swap1\n      tag_65\n      jump\t// in\n    tag_166:\n      mload(0x40)\n      dup1\n      swap2\n      sub\n      swap1\n      return\n        /* \"contracts/ecommerce.sol\":711:787  bytes32 public constant AUTHENTICATOR_ROLE = keccak256(\"AUTHENTICATOR_ROLE\") */\n    tag_28:\n      callvalue\n      dup1\n      iszero\n      tag_167\n      jumpi\n      revert(0x00, 0x00)\n    tag_167:\n      pop\n      tag_168\n      tag_169\n      jump\t// in\n    tag_168:\n      mload(0x40)\n      tag_170\n      swap2\n      swap1\n      tag_72\n      jump\t// in\n    tag_170:\n      mload(0x40)\n      dup1\n      swap2\n      sub\n      swap1\n      return\n        /* \"contracts/ecommerce.sol\":3571:3674  function addBuyer(address account) external onlyAdmin {... */\n    tag_29:\n      callvalue\n      dup1\n      iszero\n      tag_171\n      jumpi\n      revert(0x00, 0x00)\n    tag_171:\n      pop\n      tag_172\n      0x04\n      dup1\n      calldatasize\n      sub\n      dup2\n      add\n      swap1\n      tag_173\n      swap2\n      swap1\n      tag_102\n      jump\t// in\n    tag_173:\n      tag_174\n      jump\t// in\n    tag_172:\n      stop\n        /* \"contracts/ecommerce.sol\":6346:6824  function cancelPurchase(uint256 productId) external onlyAuditor whenNotPaused {... */\n    tag_30:\n      callvalue\n      dup1\n      iszero\n      tag_175\n      jumpi\n      revert(0x00, 0x00)\n    tag_175:\n      pop\n      tag_176\n      0x04\n      dup1\n      calldatasize\n      sub\n      dup2\n      add\n      swap1\n      tag_177\n      swap2\n      swap1\n      tag_90\n      jump\t// in\n    tag_177:\n      tag_178\n      jump\t// in\n    tag_176:\n      stop\n        /* \"contracts/ecommerce.sol\":1548:1571  IICO public icoContract */\n    tag_31:\n      callvalue\n      dup1\n      iszero\n      tag_179\n      jumpi\n      revert(0x00, 0x00)\n    tag_179:\n      pop\n      tag_180\n      tag_181\n      jump\t// in\n    tag_180:\n      mload(0x40)\n      tag_182\n      swap2\n      swap1\n      tag_183\n      jump\t// in\n    tag_182:\n      mload(0x40)\n      dup1\n      swap2\n      sub\n      swap1\n      return\n        /* \"@openzeppelin/contracts/access/AccessControl.sol\":4642:4780  function revokeRole(bytes32 role, address account) public virtual onlyRole(getRoleAdmin(role)) {... */\n    tag_32:\n      callvalue\n      dup1\n      iszero\n      tag_184\n      jumpi\n      revert(0x00, 0x00)\n    tag_184:\n      pop\n      tag_185\n      0x04\n      dup1\n      calldatasize\n      sub\n      dup2\n      add\n      swap1\n      tag_186\n      swap2\n      swap1\n      tag_76\n      jump\t// in\n    tag_186:\n      tag_187\n      jump\t// in\n    tag_185:\n      stop\n        /* \"contracts/ecommerce.sol\":3341:3446  function addSeller(address account) external onlyAdmin {... */\n    tag_33:\n      callvalue\n      dup1\n      iszero\n      tag_188\n      jumpi\n      revert(0x00, 0x00)\n    tag_188:\n      pop\n      tag_189\n      0x04\n      dup1\n      calldatasize\n      sub\n      dup2\n      add\n      swap1\n      tag_190\n      swap2\n      swap1\n      tag_102\n      jump\t// in\n    tag_190:\n      tag_191\n      jump\t// in\n    tag_189:\n      stop\n        /* \"contracts/ecommerce.sol\":575:637  bytes32 public constant SELLER_ROLE = keccak256(\"SELLER_ROLE\") */\n    tag_34:\n      callvalue\n      dup1\n      iszero\n      tag_192\n      jumpi\n      revert(0x00, 0x00)\n    tag_192:\n      pop\n      tag_193\n      tag_194\n      jump\t// in\n    tag_193:\n      mload(0x40)\n      tag_195\n      swap2\n      swap1\n      tag_72\n      jump\t// in\n    tag_195:\n      mload(0x40)\n      dup1\n      swap2\n      sub\n      swap1\n      return\n        /* \"contracts/ecommerce.sol\":5396:5755  function updateProductStatus(uint256 productId, bool available) external onlySeller whenNotPaused {... */\n    tag_35:\n      callvalue\n      dup1\n      iszero\n      tag_196\n      jumpi\n      revert(0x00, 0x00)\n    tag_196:\n      pop\n      tag_197\n      0x04\n      dup1\n      calldatasize\n      sub\n      dup2\n      add\n      swap1\n      tag_198\n      swap2\n      swap1\n      tag_199\n      jump\t// in\n    tag_198:\n      tag_200\n      jump\t// in\n    tag_197:\n      stop\n        /* \"contracts/ecommerce.sol\":1512:1539  uint256 public productCount */\n    tag_36:\n      callvalue\n      dup1\n      iszero\n      tag_201\n      jumpi\n      revert(0x00, 0x00)\n    tag_201:\n      pop\n      tag_202\n      tag_203\n      jump\t// in\n    tag_202:\n      mload(0x40)\n      tag_204\n      swap2\n      swap1\n      tag_205\n      jump\t// in\n    tag_204:\n      mload(0x40)\n      dup1\n      swap2\n      sub\n      swap1\n      return\n        /* \"contracts/ecommerce.sol\":4055:4162  function addAuditor(address account) external onlyAdmin {... */\n    tag_37:\n      callvalue\n      dup1\n      iszero\n      tag_206\n      jumpi\n      revert(0x00, 0x00)\n    tag_206:\n      pop\n      tag_207\n      0x04\n      dup1\n      calldatasize\n      sub\n      dup2\n      add\n      swap1\n      tag_208\n      swap2\n      swap1\n      tag_102\n      jump\t// in\n    tag_208:\n      tag_209\n      jump\t// in\n    tag_207:\n      stop\n        /* \"contracts/ecommerce.sol\":4170:4281  function removeAuditor(address account) external onlyAdmin {... */\n    tag_38:\n      callvalue\n      dup1\n      iszero\n      tag_210\n      jumpi\n      revert(0x00, 0x00)\n    tag_210:\n      pop\n      tag_211\n      0x04\n      dup1\n      calldatasize\n      sub\n      dup2\n      add\n      swap1\n      tag_212\n      swap2\n      swap1\n      tag_102\n      jump\t// in\n    tag_212:\n      tag_213\n      jump\t// in\n    tag_211:\n      stop\n        /* \"@openzeppelin/contracts/access/AccessControl.sol\":2565:2767  function supportsInterface(bytes4 interfaceId) public view virtual override returns (bool) {... */\n    tag_58:\n        /* \"@openzeppelin/contracts/access/AccessControl.sol\":2650:2654  bool */\n      0x00\n        /* \"@openzeppelin/contracts/access/AccessControl.sol\":2688:2720  type(IAccessControl).interfaceId */\n      0x7965db0b00000000000000000000000000000000000000000000000000000000\n        /* \"@openzeppelin/contracts/access/AccessControl.sol\":2673:2720  interfaceId == type(IAccessControl).interfaceId */\n      not(0xffffffffffffffffffffffffffffffffffffffffffffffffffffffff)\n      and\n        /* \"@openzeppelin/contracts/access/AccessControl.sol\":2673:2684  interfaceId */\n      dup3\n        /* \"@openzeppelin/contracts/access/AccessControl.sol\":2673:2720  interfaceId == type(IAccessControl).interfaceId */\n      not(0xffffffffffffffffffffffffffffffffffffffffffffffffffffffff)\n      and\n      eq\n        /* \"@openzeppelin/contracts/access/AccessControl.sol\":2673:2760  interfaceId == type(IAccessControl).interfaceId || super.supportsInterface(interfaceId) */\n      dup1\n      tag_215\n      jumpi\n      pop\n        /* \"@openzeppelin/contracts/access/AccessControl.sol\":2724:2760  super.supportsInterface(interfaceId) */\n      tag_216\n        /* \"@openzeppelin/contracts/access/AccessControl.sol\":2748:2759  interfaceId */\n      dup3\n        /* \"@openzeppelin/contracts/access/AccessControl.sol\":2724:2747  super.supportsInterface */\n      tag_217\n        /* \"@openzeppelin/contracts/access/AccessControl.sol\":2724:2760  super.supportsInterface(interfaceId) */\n      jump\t// in\n    tag_216:\n        /* \"@openzeppelin/contracts/access/AccessControl.sol\":2673:2760  interfaceId == type(IAccessControl).interfaceId || super.supportsInterface(interfaceId) */\n    tag_215:\n        /* \"@openzeppelin/contracts/access/AccessControl.sol\":2666:2760  return interfaceId == type(IAccessControl).interfaceId || super.supportsInterface(interfaceId) */\n      swap1\n      pop\n        /* \"@openzeppelin/contracts/access/AccessControl.sol\":2565:2767  function supportsInterface(bytes4 interfaceId) public view virtual override returns (bool) {... */\n      swap2\n      swap1\n      pop\n      jump\t// out\n        /* \"contracts/ecommerce.sol\":1044:1133  address public constant authenticatorAddress = 0x78731D3Ca6b7E34aC0F824c42a7cC18A495cabaB */\n    tag_63:\n        /* \"contracts/ecommerce.sol\":1091:1133  0x78731D3Ca6b7E34aC0F824c42a7cC18A495cabaB */\n      0x78731d3ca6b7e34ac0f824c42a7cc18a495cabab\n        /* \"contracts/ecommerce.sol\":1044:1133  address public constant authenticatorAddress = 0x78731D3Ca6b7E34aC0F824c42a7cC18A495cabaB */\n      dup2\n      jump\t// out\n        /* \"@openzeppelin/contracts/access/AccessControl.sol\":3810:3930  function getRoleAdmin(bytes32 role) public view virtual returns (bytes32) {... */\n    tag_70:\n        /* \"@openzeppelin/contracts/access/AccessControl.sol\":3875:3882  bytes32 */\n      0x00\n        /* \"@openzeppelin/contracts/access/AccessControl.sol\":3901:3907  _roles */\n      0x00\n        /* \"@openzeppelin/contracts/access/AccessControl.sol\":3901:3913  _roles[role] */\n      0x00\n        /* \"@openzeppelin/contracts/access/AccessControl.sol\":3908:3912  role */\n      dup4\n        /* \"@openzeppelin/contracts/access/AccessControl.sol\":3901:3913  _roles[role] */\n      dup2\n      mstore\n      0x20\n      add\n      swap1\n      dup2\n      mstore\n      0x20\n      add\n      0x00\n      keccak256\n        /* \"@openzeppelin/contracts/access/AccessControl.sol\":3901:3923  _roles[role].adminRole */\n      0x01\n      add\n      sload\n        /* \"@openzeppelin/contracts/access/AccessControl.sol\":3894:3923  return _roles[role].adminRole */\n      swap1\n      pop\n        /* \"@openzeppelin/contracts/access/AccessControl.sol\":3810:3930  function getRoleAdmin(bytes32 role) public view virtual returns (bytes32) {... */\n      swap2\n      swap1\n      pop\n      jump\t// out\n        /* \"@openzeppelin/contracts/access/AccessControl.sol\":4226:4362  function grantRole(bytes32 role, address account) public virtual onlyRole(getRoleAdmin(role)) {... */\n    tag_77:\n        /* \"@openzeppelin/contracts/access/AccessControl.sol\":4300:4318  getRoleAdmin(role) */\n      tag_219\n        /* \"@openzeppelin/contracts/access/AccessControl.sol\":4313:4317  role */\n      dup3\n        /* \"@openzeppelin/contracts/access/AccessControl.sol\":4300:4312  getRoleAdmin */\n      tag_70\n        /* \"@openzeppelin/contracts/access/AccessControl.sol\":4300:4318  getRoleAdmin(role) */\n      jump\t// in\n    tag_219:\n        /* \"@openzeppelin/contracts/access/AccessControl.sol\":2464:2480  _checkRole(role) */\n      tag_221\n        /* \"@openzeppelin/contracts/access/AccessControl.sol\":2475:2479  role */\n      dup2\n        /* \"@openzeppelin/contracts/access/AccessControl.sol\":2464:2474  _checkRole */\n      tag_222\n        /* \"@openzeppelin/contracts/access/AccessControl.sol\":2464:2480  _checkRole(role) */\n      jump\t// in\n    tag_221:\n        /* \"@openzeppelin/contracts/access/AccessControl.sol\":4330:4355  _grantRole(role, account) */\n      tag_224\n        /* \"@openzeppelin/contracts/access/AccessControl.sol\":4341:4345  role */\n      dup4\n        /* \"@openzeppelin/contracts/access/AccessControl.sol\":4347:4354  account */\n      dup4\n        /* \"@openzeppelin/contracts/access/AccessControl.sol\":4330:4340  _grantRole */\n      tag_225\n        /* \"@openzeppelin/contracts/access/AccessControl.sol\":4330:4355  _grantRole(role, account) */\n      jump\t// in\n    tag_224:\n      pop\n        /* \"@openzeppelin/contracts/access/AccessControl.sol\":4226:4362  function grantRole(bytes32 role, address account) public virtual onlyRole(getRoleAdmin(role)) {... */\n      pop\n      pop\n      pop\n      jump\t// out\n        /* \"contracts/ecommerce.sol\":4513:4594  function decimals() public pure returns (uint8) {... */\n    tag_80:\n        /* \"contracts/ecommerce.sol\":4554:4559  uint8 */\n      0x00\n        /* \"contracts/ecommerce.sol\":1263:1265  18 */\n      0x12\n        /* \"contracts/ecommerce.sol\":4572:4586  return decimal */\n      swap1\n      pop\n        /* \"contracts/ecommerce.sol\":4513:4594  function decimals() public pure returns (uint8) {... */\n      swap1\n      jump\t// out\n        /* \"@openzeppelin/contracts/access/AccessControl.sol\":5328:5573  function renounceRole(bytes32 role, address callerConfirmation) public virtual {... */\n    tag_86:\n        /* \"@openzeppelin/contracts/access/AccessControl.sol\":5443:5455  _msgSender() */\n      tag_228\n        /* \"@openzeppelin/contracts/access/AccessControl.sol\":5443:5453  _msgSender */\n      tag_229\n        /* \"@openzeppelin/contracts/access/AccessControl.sol\":5443:5455  _msgSender() */\n      jump\t// in\n    tag_228:\n        /* \"@openzeppelin/contracts/access/AccessControl.sol\":5421:5455  callerConfirmation != _msgSender() */\n      0xffffffffffffffffffffffffffffffffffffffff\n      and\n        /* \"@openzeppelin/contracts/access/AccessControl.sol\":5421:5439  callerConfirmation */\n      dup2\n        /* \"@openzeppelin/contracts/access/AccessControl.sol\":5421:5455  callerConfirmation != _msgSender() */\n      0xffffffffffffffffffffffffffffffffffffffff\n      and\n      eq\n        /* \"@openzeppelin/contracts/access/AccessControl.sol\":5417:5519  if (callerConfirmation != _msgSender()) {... */\n      tag_230\n      jumpi\n        /* \"@openzeppelin/contracts/access/AccessControl.sol\":5478:5508  AccessControlBadConfirmation() */\n      mload(0x40)\n      0x6697b23200000000000000000000000000000000000000000000000000000000\n      dup2\n      mstore\n      0x04\n      add\n      mload(0x40)\n      dup1\n      swap2\n      sub\n      swap1\n      revert\n        /* \"@openzeppelin/contracts/access/AccessControl.sol\":5417:5519  if (callerConfirmation != _msgSender()) {... */\n    tag_230:\n        /* \"@openzeppelin/contracts/access/AccessControl.sol\":5529:5566  _revokeRole(role, callerConfirmation) */\n      tag_231\n        /* \"@openzeppelin/contracts/access/AccessControl.sol\":5541:5545  role */\n      dup3\n        /* \"@openzeppelin/contracts/access/AccessControl.sol\":5547:5565  callerConfirmation */\n      dup3\n        /* \"@openzeppelin/contracts/access/AccessControl.sol\":5529:5540  _revokeRole */\n      tag_232\n        /* \"@openzeppelin/contracts/access/AccessControl.sol\":5529:5566  _revokeRole(role, callerConfirmation) */\n      jump\t// in\n    tag_231:\n      pop\n        /* \"@openzeppelin/contracts/access/AccessControl.sol\":5328:5573  function renounceRole(bytes32 role, address callerConfirmation) public virtual {... */\n      pop\n      pop\n      jump\t// out\n        /* \"contracts/ecommerce.sol\":5790:6304  function purchaseProduct(uint256 productId) external onlyBuyer whenNotPaused {... */\n    tag_91:\n        /* \"contracts/ecommerce.sol\":2955:2986  hasRole(BUYER_ROLE, msg.sender) */\n      tag_234\n        /* \"contracts/ecommerce.sol\":681:704  keccak256(\"BUYER_ROLE\") */\n      0xf8cd32ed93fc2f9fc78152a14807c9609af3d99c5fe4dc6b106a801aaddfe90e\n        /* \"contracts/ecommerce.sol\":2975:2985  msg.sender */\n      caller\n        /* \"contracts/ecommerce.sol\":2955:2962  hasRole */\n      tag_148\n        /* \"contracts/ecommerce.sol\":2955:2986  hasRole(BUYER_ROLE, msg.sender) */\n      jump\t// in\n    tag_234:\n        /* \"contracts/ecommerce.sol\":2947:3011  require(hasRole(BUYER_ROLE, msg.sender), \"Restricted to buyers\") */\n      tag_235\n      jumpi\n      mload(0x40)\n      0x08c379a000000000000000000000000000000000000000000000000000000000\n      dup2\n      mstore\n      0x04\n      add\n      tag_236\n      swap1\n      tag_237\n      jump\t// in\n    tag_236:\n      mload(0x40)\n      dup1\n      swap2\n      sub\n      swap1\n      revert\n    tag_235:\n        /* \"@openzeppelin/contracts/security/Pausable.sol\":1239:1258  _requireNotPaused() */\n      tag_239\n        /* \"@openzeppelin/contracts/security/Pausable.sol\":1239:1256  _requireNotPaused */\n      tag_240\n        /* \"@openzeppelin/contracts/security/Pausable.sol\":1239:1258  _requireNotPaused() */\n      jump\t// in\n    tag_239:\n        /* \"contracts/ecommerce.sol\":5878:5901  Product storage product */\n      0x00\n        /* \"contracts/ecommerce.sol\":5904:5912  products */\n      0x02\n        /* \"contracts/ecommerce.sol\":5904:5923  products[productId] */\n      0x00\n        /* \"contracts/ecommerce.sol\":5913:5922  productId */\n      dup4\n        /* \"contracts/ecommerce.sol\":5904:5923  products[productId] */\n      dup2\n      mstore\n      0x20\n      add\n      swap1\n      dup2\n      mstore\n      0x20\n      add\n      0x00\n      keccak256\n        /* \"contracts/ecommerce.sol\":5878:5923  Product storage product = products[productId] */\n      swap1\n      pop\n        /* \"contracts/ecommerce.sol\":5942:5949  product */\n      dup1\n        /* \"contracts/ecommerce.sol\":5942:5959  product.available */\n      0x02\n      add\n      0x14\n      swap1\n      sload\n      swap1\n      0x0100\n      exp\n      swap1\n      div\n      0xff\n      and\n        /* \"contracts/ecommerce.sol\":5934:5988  require(product.available, \"Product is not available\") */\n      tag_242\n      jumpi\n      mload(0x40)\n      0x08c379a000000000000000000000000000000000000000000000000000000000\n      dup2\n      mstore\n      0x04\n      add\n      tag_243\n      swap1\n      tag_244\n      jump\t// in\n    tag_243:\n      mload(0x40)\n      dup1\n      swap2\n      sub\n      swap1\n      revert\n    tag_242:\n        /* \"contracts/ecommerce.sol\":6046:6057  icoContract */\n      0x04\n      0x00\n      swap1\n      sload\n      swap1\n      0x0100\n      exp\n      swap1\n      div\n      0xffffffffffffffffffffffffffffffffffffffff\n      and\n        /* \"contracts/ecommerce.sol\":6046:6072  icoContract.initiateEscrow */\n      0xffffffffffffffffffffffffffffffffffffffff\n      and\n      0xf04a72b3\n        /* \"contracts/ecommerce.sol\":6073:6082  productId */\n      dup4\n        /* \"contracts/ecommerce.sol\":6084:6091  product */\n      dup4\n        /* \"contracts/ecommerce.sol\":6084:6097  product.price */\n      0x01\n      add\n      sload\n        /* \"contracts/ecommerce.sol\":6099:6109  msg.sender */\n      caller\n        /* \"contracts/ecommerce.sol\":6046:6110  icoContract.initiateEscrow(productId, product.price, msg.sender) */\n      mload(0x40)\n      dup5\n      0xffffffff\n      and\n      0xe0\n      shl\n      dup2\n      mstore\n      0x04\n      add\n      tag_245\n      swap4\n      swap3\n      swap2\n      swap1\n      tag_246\n      jump\t// in\n    tag_245:\n      0x00\n      mload(0x40)\n      dup1\n      dup4\n      sub\n      dup2\n      0x00\n      dup8\n      dup1\n      extcodesize\n      iszero\n      dup1\n      iszero\n      tag_247\n      jumpi\n      revert(0x00, 0x00)\n    tag_247:\n      pop\n      gas\n      call\n      iszero\n      dup1\n      iszero\n      tag_249\n      jumpi\n      returndatacopy(0x00, 0x00, returndatasize)\n      revert(0x00, returndatasize)\n    tag_249:\n      pop\n      pop\n      pop\n      pop\n        /* \"contracts/ecommerce.sol\":6193:6203  msg.sender */\n      caller\n        /* \"contracts/ecommerce.sol\":6177:6184  product */\n      dup2\n        /* \"contracts/ecommerce.sol\":6177:6190  product.buyer */\n      0x03\n      add\n      0x00\n        /* \"contracts/ecommerce.sol\":6177:6203  product.buyer = msg.sender */\n      0x0100\n      exp\n      dup2\n      sload\n      dup2\n      0xffffffffffffffffffffffffffffffffffffffff\n      mul\n      not\n      and\n      swap1\n      dup4\n      0xffffffffffffffffffffffffffffffffffffffff\n      and\n      mul\n      or\n      swap1\n      sstore\n      pop\n        /* \"contracts/ecommerce.sol\":6234:6239  false */\n      0x00\n        /* \"contracts/ecommerce.sol\":6214:6221  product */\n      dup2\n        /* \"contracts/ecommerce.sol\":6214:6231  product.available */\n      0x02\n      add\n      0x14\n        /* \"contracts/ecommerce.sol\":6214:6239  product.available = false */\n      0x0100\n      exp\n      dup2\n      sload\n      dup2\n      0xff\n      mul\n      not\n      and\n      swap1\n      dup4\n      iszero\n      iszero\n      mul\n      or\n      swap1\n      sstore\n      pop\n        /* \"contracts/ecommerce.sol\":6257:6296  ProductPurchased(productId, msg.sender) */\n      0x9ad4ecfaf27ea0cbeebee0ed92fe15c8a84975f1e3d45ccfc526d7751dcf98ff\n        /* \"contracts/ecommerce.sol\":6274:6283  productId */\n      dup3\n        /* \"contracts/ecommerce.sol\":6285:6295  msg.sender */\n      caller\n        /* \"contracts/ecommerce.sol\":6257:6296  ProductPurchased(productId, msg.sender) */\n      mload(0x40)\n      tag_250\n      swap3\n      swap2\n      swap1\n      tag_251\n      jump\t// in\n    tag_250:\n      mload(0x40)\n      dup1\n      swap2\n      sub\n      swap1\n      log1\n        /* \"contracts/ecommerce.sol\":5867:6304  {... */\n      pop\n        /* \"contracts/ecommerce.sol\":5790:6304  function purchaseProduct(uint256 productId) external onlyBuyer whenNotPaused {... */\n      pop\n      jump\t// out\n        /* \"contracts/ecommerce.sol\":867:949  address public constant sellerAddress = 0x5B38Da6a701c568545dCfcB03FcB875f56beddC4 */\n    tag_94:\n        /* \"contracts/ecommerce.sol\":907:949  0x5B38Da6a701c568545dCfcB03FcB875f56beddC4 */\n      0x5b38da6a701c568545dcfcb03fcb875f56beddc4\n        /* \"contracts/ecommerce.sol\":867:949  address public constant sellerAddress = 0x5B38Da6a701c568545dCfcB03FcB875f56beddC4 */\n      dup2\n      jump\t// out\n        /* \"contracts/ecommerce.sol\":4402:4480  function unpause() external onlyRole(ADMIN_ROLE) {... */\n    tag_98:\n        /* \"contracts/ecommerce.sol\":545:568  keccak256(\"ADMIN_ROLE\") */\n      0xa49807205ce4d355092ef5a8a18f56e8913cf4a201fbe287825b095693c21775\n        /* \"@openzeppelin/contracts/access/AccessControl.sol\":2464:2480  _checkRole(role) */\n      tag_253\n        /* \"@openzeppelin/contracts/access/AccessControl.sol\":2475:2479  role */\n      dup2\n        /* \"@openzeppelin/contracts/access/AccessControl.sol\":2464:2474  _checkRole */\n      tag_222\n        /* \"@openzeppelin/contracts/access/AccessControl.sol\":2464:2480  _checkRole(role) */\n      jump\t// in\n    tag_253:\n        /* \"contracts/ecommerce.sol\":4462:4472  _unpause() */\n      tag_255\n        /* \"contracts/ecommerce.sol\":4462:4470  _unpause */\n      tag_256\n        /* \"contracts/ecommerce.sol\":4462:4472  _unpause() */\n      jump\t// in\n    tag_255:\n        /* \"contracts/ecommerce.sol\":4402:4480  function unpause() external onlyRole(ADMIN_ROLE) {... */\n      pop\n      jump\t// out\n        /* \"contracts/ecommerce.sol\":3797:3916  function addAuthenticator(address account) external onlyAdmin {... */\n    tag_103:\n        /* \"contracts/ecommerce.sol\":2704:2735  hasRole(ADMIN_ROLE, msg.sender) */\n      tag_258\n        /* \"contracts/ecommerce.sol\":545:568  keccak256(\"ADMIN_ROLE\") */\n      0xa49807205ce4d355092ef5a8a18f56e8913cf4a201fbe287825b095693c21775\n        /* \"contracts/ecommerce.sol\":2724:2734  msg.sender */\n      caller\n        /* \"contracts/ecommerce.sol\":2704:2711  hasRole */\n      tag_148\n        /* \"contracts/ecommerce.sol\":2704:2735  hasRole(ADMIN_ROLE, msg.sender) */\n      jump\t// in\n    tag_258:\n        /* \"contracts/ecommerce.sol\":2696:2760  require(hasRole(ADMIN_ROLE, msg.sender), \"Restricted to admins\") */\n      tag_259\n      jumpi\n      mload(0x40)\n      0x08c379a000000000000000000000000000000000000000000000000000000000\n      dup2\n      mstore\n      0x04\n      add\n      tag_260\n      swap1\n      tag_261\n      jump\t// in\n    tag_260:\n      mload(0x40)\n      dup1\n      swap2\n      sub\n      swap1\n      revert\n    tag_259:\n        /* \"contracts/ecommerce.sol\":3870:3908  grantRole(AUTHENTICATOR_ROLE, account) */\n      tag_263\n        /* \"contracts/ecommerce.sol\":756:787  keccak256(\"AUTHENTICATOR_ROLE\") */\n      0x190acb99f29d9641c9ad47655049f2d7c78fcbc837d62e7981d28c871f722081\n        /* \"contracts/ecommerce.sol\":3900:3907  account */\n      dup3\n        /* \"contracts/ecommerce.sol\":3870:3879  grantRole */\n      tag_77\n        /* \"contracts/ecommerce.sol\":3870:3908  grantRole(AUTHENTICATOR_ROLE, account) */\n      jump\t// in\n    tag_263:\n        /* \"contracts/ecommerce.sol\":3797:3916  function addAuthenticator(address account) external onlyAdmin {... */\n      pop\n      jump\t// out\n        /* \"contracts/ecommerce.sol\":956:1037  address public constant buyerAddress = 0x4B20993Bc481177ec7E8f571ceCaE8A9e22C02db */\n    tag_106:\n        /* \"contracts/ecommerce.sol\":995:1037  0x4B20993Bc481177ec7E8f571ceCaE8A9e22C02db */\n      0x4b20993bc481177ec7e8f571cecae8a9e22c02db\n        /* \"contracts/ecommerce.sol\":956:1037  address public constant buyerAddress = 0x4B20993Bc481177ec7E8f571ceCaE8A9e22C02db */\n      dup2\n      jump\t// out\n        /* \"@openzeppelin/contracts/security/Pausable.sol\":1615:1699  function paused() public view virtual returns (bool) {... */\n    tag_110:\n        /* \"@openzeppelin/contracts/security/Pausable.sol\":1662:1666  bool */\n      0x00\n        /* \"@openzeppelin/contracts/security/Pausable.sol\":1685:1692  _paused */\n      0x01\n      0x00\n      swap1\n      sload\n      swap1\n      0x0100\n      exp\n      swap1\n      div\n      0xff\n      and\n        /* \"@openzeppelin/contracts/security/Pausable.sol\":1678:1692  return _paused */\n      swap1\n      pop\n        /* \"@openzeppelin/contracts/security/Pausable.sol\":1615:1699  function paused() public view virtual returns (bool) {... */\n      swap1\n      jump\t// out\n        /* \"contracts/ecommerce.sol\":794:858  bytes32 public constant AUDITOR_ROLE = keccak256(\"AUDITOR_ROLE\") */\n    tag_114:\n        /* \"contracts/ecommerce.sol\":833:858  keccak256(\"AUDITOR_ROLE\") */\n      0x59a1c48e5837ad7a7f3dcedcbe129bf3249ec4fbf651fd4f5e2600ead39fe2f5\n        /* \"contracts/ecommerce.sol\":794:858  bytes32 public constant AUDITOR_ROLE = keccak256(\"AUDITOR_ROLE\") */\n      dup2\n      jump\t// out\n        /* \"contracts/ecommerce.sol\":3682:3789  function removeBuyer(address account) external onlyAdmin {... */\n    tag_119:\n        /* \"contracts/ecommerce.sol\":2704:2735  hasRole(ADMIN_ROLE, msg.sender) */\n      tag_266\n        /* \"contracts/ecommerce.sol\":545:568  keccak256(\"ADMIN_ROLE\") */\n      0xa49807205ce4d355092ef5a8a18f56e8913cf4a201fbe287825b095693c21775\n        /* \"contracts/ecommerce.sol\":2724:2734  msg.sender */\n      caller\n        /* \"contracts/ecommerce.sol\":2704:2711  hasRole */\n      tag_148\n        /* \"contracts/ecommerce.sol\":2704:2735  hasRole(ADMIN_ROLE, msg.sender) */\n      jump\t// in\n    tag_266:\n        /* \"contracts/ecommerce.sol\":2696:2760  require(hasRole(ADMIN_ROLE, msg.sender), \"Restricted to admins\") */\n      tag_267\n      jumpi\n      mload(0x40)\n      0x08c379a000000000000000000000000000000000000000000000000000000000\n      dup2\n      mstore\n      0x04\n      add\n      tag_268\n      swap1\n      tag_261\n      jump\t// in\n    tag_268:\n      mload(0x40)\n      dup1\n      swap2\n      sub\n      swap1\n      revert\n    tag_267:\n        /* \"contracts/ecommerce.sol\":3750:3781  revokeRole(BUYER_ROLE, account) */\n      tag_270\n        /* \"contracts/ecommerce.sol\":681:704  keccak256(\"BUYER_ROLE\") */\n      0xf8cd32ed93fc2f9fc78152a14807c9609af3d99c5fe4dc6b106a801aaddfe90e\n        /* \"contracts/ecommerce.sol\":3773:3780  account */\n      dup3\n        /* \"contracts/ecommerce.sol\":3750:3760  revokeRole */\n      tag_187\n        /* \"contracts/ecommerce.sol\":3750:3781  revokeRole(BUYER_ROLE, account) */\n      jump\t// in\n    tag_270:\n        /* \"contracts/ecommerce.sol\":3682:3789  function removeBuyer(address account) external onlyAdmin {... */\n      pop\n      jump\t// out\n        /* \"contracts/ecommerce.sol\":508:568  bytes32 public constant ADMIN_ROLE = keccak256(\"ADMIN_ROLE\") */\n    tag_122:\n        /* \"contracts/ecommerce.sol\":545:568  keccak256(\"ADMIN_ROLE\") */\n      0xa49807205ce4d355092ef5a8a18f56e8913cf4a201fbe287825b095693c21775\n        /* \"contracts/ecommerce.sol\":508:568  bytes32 public constant ADMIN_ROLE = keccak256(\"ADMIN_ROLE\") */\n      dup2\n      jump\t// out\n        /* \"contracts/ecommerce.sol\":1231:1265  uint8 public constant decimal = 18 */\n    tag_126:\n        /* \"contracts/ecommerce.sol\":1263:1265  18 */\n      0x12\n        /* \"contracts/ecommerce.sol\":1231:1265  uint8 public constant decimal = 18 */\n      dup2\n      jump\t// out\n        /* \"contracts/ecommerce.sol\":644:704  bytes32 public constant BUYER_ROLE = keccak256(\"BUYER_ROLE\") */\n    tag_130:\n        /* \"contracts/ecommerce.sol\":681:704  keccak256(\"BUYER_ROLE\") */\n      0xf8cd32ed93fc2f9fc78152a14807c9609af3d99c5fe4dc6b106a801aaddfe90e\n        /* \"contracts/ecommerce.sol\":644:704  bytes32 public constant BUYER_ROLE = keccak256(\"BUYER_ROLE\") */\n      dup2\n      jump\t// out\n        /* \"contracts/ecommerce.sol\":1462:1505  mapping(uint256 => Product) public products */\n    tag_135:\n      mstore(0x20, 0x02)\n      dup1\n      0x00\n      mstore\n      keccak256(0x00, 0x40)\n      0x00\n      swap2\n      pop\n      swap1\n      pop\n      dup1\n      0x00\n      add\n      dup1\n      sload\n      tag_271\n      swap1\n      tag_272\n      jump\t// in\n    tag_271:\n      dup1\n      0x1f\n      add\n      0x20\n      dup1\n      swap2\n      div\n      mul\n      0x20\n      add\n      mload(0x40)\n      swap1\n      dup2\n      add\n      0x40\n      mstore\n      dup1\n      swap3\n      swap2\n      swap1\n      dup2\n      dup2\n      mstore\n      0x20\n      add\n      dup3\n      dup1\n      sload\n      tag_273\n      swap1\n      tag_272\n      jump\t// in\n    tag_273:\n      dup1\n      iszero\n      tag_274\n      jumpi\n      dup1\n      0x1f\n      lt\n      tag_275\n      jumpi\n      0x0100\n      dup1\n      dup4\n      sload\n      div\n      mul\n      dup4\n      mstore\n      swap2\n      0x20\n      add\n      swap2\n      jump(tag_274)\n    tag_275:\n      dup3\n      add\n      swap2\n      swap1\n      0x00\n      mstore\n      keccak256(0x00, 0x20)\n      swap1\n    tag_276:\n      dup2\n      sload\n      dup2\n      mstore\n      swap1\n      0x01\n      add\n      swap1\n      0x20\n      add\n      dup1\n      dup4\n      gt\n      tag_276\n      jumpi\n      dup3\n      swap1\n      sub\n      0x1f\n      and\n      dup3\n      add\n      swap2\n    tag_274:\n      pop\n      pop\n      pop\n      pop\n      pop\n      swap1\n      dup1\n      0x01\n      add\n      sload\n      swap1\n      dup1\n      0x02\n      add\n      0x00\n      swap1\n      sload\n      swap1\n      0x0100\n      exp\n      swap1\n      div\n      0xffffffffffffffffffffffffffffffffffffffff\n      and\n      swap1\n      dup1\n      0x02\n      add\n      0x14\n      swap1\n      sload\n      swap1\n      0x0100\n      exp\n      swap1\n      div\n      0xff\n      and\n      swap1\n      dup1\n      0x03\n      add\n      0x00\n      swap1\n      sload\n      swap1\n      0x0100\n      exp\n      swap1\n      div\n      0xffffffffffffffffffffffffffffffffffffffff\n      and\n      swap1\n      pop\n      dup6\n      jump\t// out\n        /* \"contracts/ecommerce.sol\":3454:3563  function removeSeller(address account) external onlyAdmin {... */\n    tag_141:\n        /* \"contracts/ecommerce.sol\":2704:2735  hasRole(ADMIN_ROLE, msg.sender) */\n      tag_278\n        /* \"contracts/ecommerce.sol\":545:568  keccak256(\"ADMIN_ROLE\") */\n      0xa49807205ce4d355092ef5a8a18f56e8913cf4a201fbe287825b095693c21775\n        /* \"contracts/ecommerce.sol\":2724:2734  msg.sender */\n      caller\n        /* \"contracts/ecommerce.sol\":2704:2711  hasRole */\n      tag_148\n        /* \"contracts/ecommerce.sol\":2704:2735  hasRole(ADMIN_ROLE, msg.sender) */\n      jump\t// in\n    tag_278:\n        /* \"contracts/ecommerce.sol\":2696:2760  require(hasRole(ADMIN_ROLE, msg.sender), \"Restricted to admins\") */\n      tag_279\n      jumpi\n      mload(0x40)\n      0x08c379a000000000000000000000000000000000000000000000000000000000\n      dup2\n      mstore\n      0x04\n      add\n      tag_280\n      swap1\n      tag_261\n      jump\t// in\n    tag_280:\n      mload(0x40)\n      dup1\n      swap2\n      sub\n      swap1\n      revert\n    tag_279:\n        /* \"contracts/ecommerce.sol\":3523:3555  revokeRole(SELLER_ROLE, account) */\n      tag_282\n        /* \"contracts/ecommerce.sol\":613:637  keccak256(\"SELLER_ROLE\") */\n      0x43f25613eb2f15fb17222a5d424ca2655743e71265d98e4b93c05e5fb589ecde\n        /* \"contracts/ecommerce.sol\":3547:3554  account */\n      dup3\n        /* \"contracts/ecommerce.sol\":3523:3533  revokeRole */\n      tag_187\n        /* \"contracts/ecommerce.sol\":3523:3555  revokeRole(SELLER_ROLE, account) */\n      jump\t// in\n    tag_282:\n        /* \"contracts/ecommerce.sol\":3454:3563  function removeSeller(address account) external onlyAdmin {... */\n      pop\n      jump\t// out\n        /* \"contracts/ecommerce.sol\":4320:4394  function pause() external onlyRole(ADMIN_ROLE) {... */\n    tag_144:\n        /* \"contracts/ecommerce.sol\":545:568  keccak256(\"ADMIN_ROLE\") */\n      0xa49807205ce4d355092ef5a8a18f56e8913cf4a201fbe287825b095693c21775\n        /* \"@openzeppelin/contracts/access/AccessControl.sol\":2464:2480  _checkRole(role) */\n      tag_284\n        /* \"@openzeppelin/contracts/access/AccessControl.sol\":2475:2479  role */\n      dup2\n        /* \"@openzeppelin/contracts/access/AccessControl.sol\":2464:2474  _checkRole */\n      tag_222\n        /* \"@openzeppelin/contracts/access/AccessControl.sol\":2464:2480  _checkRole(role) */\n      jump\t// in\n    tag_284:\n        /* \"contracts/ecommerce.sol\":4378:4386  _pause() */\n      tag_286\n        /* \"contracts/ecommerce.sol\":4378:4384  _pause */\n      tag_287\n        /* \"contracts/ecommerce.sol\":4378:4386  _pause() */\n      jump\t// in\n    tag_286:\n        /* \"contracts/ecommerce.sol\":4320:4394  function pause() external onlyRole(ADMIN_ROLE) {... */\n      pop\n      jump\t// out\n        /* \"@openzeppelin/contracts/access/AccessControl.sol\":2854:2990  function hasRole(bytes32 role, address account) public view virtual returns (bool) {... */\n    tag_148:\n        /* \"@openzeppelin/contracts/access/AccessControl.sol\":2931:2935  bool */\n      0x00\n        /* \"@openzeppelin/contracts/access/AccessControl.sol\":2954:2960  _roles */\n      0x00\n        /* \"@openzeppelin/contracts/access/AccessControl.sol\":2954:2966  _roles[role] */\n      0x00\n        /* \"@openzeppelin/contracts/access/AccessControl.sol\":2961:2965  role */\n      dup5\n        /* \"@openzeppelin/contracts/access/AccessControl.sol\":2954:2966  _roles[role] */\n      dup2\n      mstore\n      0x20\n      add\n      swap1\n      dup2\n      mstore\n      0x20\n      add\n      0x00\n      keccak256\n        /* \"@openzeppelin/contracts/access/AccessControl.sol\":2954:2974  _roles[role].hasRole */\n      0x00\n      add\n        /* \"@openzeppelin/contracts/access/AccessControl.sol\":2954:2983  _roles[role].hasRole[account] */\n      0x00\n        /* \"@openzeppelin/contracts/access/AccessControl.sol\":2975:2982  account */\n      dup4\n        /* \"@openzeppelin/contracts/access/AccessControl.sol\":2954:2983  _roles[role].hasRole[account] */\n      0xffffffffffffffffffffffffffffffffffffffff\n      and\n      0xffffffffffffffffffffffffffffffffffffffff\n      and\n      dup2\n      mstore\n      0x20\n      add\n      swap1\n      dup2\n      mstore\n      0x20\n      add\n      0x00\n      keccak256\n      0x00\n      swap1\n      sload\n      swap1\n      0x0100\n      exp\n      swap1\n      div\n      0xff\n      and\n        /* \"@openzeppelin/contracts/access/AccessControl.sol\":2947:2983  return _roles[role].hasRole[account] */\n      swap1\n      pop\n        /* \"@openzeppelin/contracts/access/AccessControl.sol\":2854:2990  function hasRole(bytes32 role, address account) public view virtual returns (bool) {... */\n      swap3\n      swap2\n      pop\n      pop\n      jump\t// out\n        /* \"contracts/ecommerce.sol\":3924:4047  function removeAuthenticator(address account) external onlyAdmin {... */\n    tag_153:\n        /* \"contracts/ecommerce.sol\":2704:2735  hasRole(ADMIN_ROLE, msg.sender) */\n      tag_290\n        /* \"contracts/ecommerce.sol\":545:568  keccak256(\"ADMIN_ROLE\") */\n      0xa49807205ce4d355092ef5a8a18f56e8913cf4a201fbe287825b095693c21775\n        /* \"contracts/ecommerce.sol\":2724:2734  msg.sender */\n      caller\n        /* \"contracts/ecommerce.sol\":2704:2711  hasRole */\n      tag_148\n        /* \"contracts/ecommerce.sol\":2704:2735  hasRole(ADMIN_ROLE, msg.sender) */\n      jump\t// in\n    tag_290:\n        /* \"contracts/ecommerce.sol\":2696:2760  require(hasRole(ADMIN_ROLE, msg.sender), \"Restricted to admins\") */\n      tag_291\n      jumpi\n      mload(0x40)\n      0x08c379a000000000000000000000000000000000000000000000000000000000\n      dup2\n      mstore\n      0x04\n      add\n      tag_292\n      swap1\n      tag_261\n      jump\t// in\n    tag_292:\n      mload(0x40)\n      dup1\n      swap2\n      sub\n      swap1\n      revert\n    tag_291:\n        /* \"contracts/ecommerce.sol\":4000:4039  revokeRole(AUTHENTICATOR_ROLE, account) */\n      tag_294\n        /* \"contracts/ecommerce.sol\":756:787  keccak256(\"AUTHENTICATOR_ROLE\") */\n      0x190acb99f29d9641c9ad47655049f2d7c78fcbc837d62e7981d28c871f722081\n        /* \"contracts/ecommerce.sol\":4031:4038  account */\n      dup3\n        /* \"contracts/ecommerce.sol\":4000:4010  revokeRole */\n      tag_187\n        /* \"contracts/ecommerce.sol\":4000:4039  revokeRole(AUTHENTICATOR_ROLE, account) */\n      jump\t// in\n    tag_294:\n        /* \"contracts/ecommerce.sol\":3924:4047  function removeAuthenticator(address account) external onlyAdmin {... */\n      pop\n      jump\t// out\n        /* \"@openzeppelin/contracts/access/AccessControl.sol\":2187:2236  bytes32 public constant DEFAULT_ADMIN_ROLE = 0x00 */\n    tag_156:\n        /* \"@openzeppelin/contracts/access/AccessControl.sol\":2232:2236  0x00 */\n      0x00\n        /* \"@openzeppelin/contracts/access/AccessControl.sol\":2187:2236  bytes32 public constant DEFAULT_ADMIN_ROLE = 0x00 */\n      0x00\n      shl\n      dup2\n      jump\t// out\n        /* \"contracts/ecommerce.sol\":4877:5388  function addProduct(string memory name, uint256 price) external onlySeller whenNotPaused {... */\n    tag_162:\n        /* \"contracts/ecommerce.sol\":2829:2861  hasRole(SELLER_ROLE, msg.sender) */\n      tag_296\n        /* \"contracts/ecommerce.sol\":613:637  keccak256(\"SELLER_ROLE\") */\n      0x43f25613eb2f15fb17222a5d424ca2655743e71265d98e4b93c05e5fb589ecde\n        /* \"contracts/ecommerce.sol\":2850:2860  msg.sender */\n      caller\n        /* \"contracts/ecommerce.sol\":2829:2836  hasRole */\n      tag_148\n        /* \"contracts/ecommerce.sol\":2829:2861  hasRole(SELLER_ROLE, msg.sender) */\n      jump\t// in\n    tag_296:\n        /* \"contracts/ecommerce.sol\":2821:2887  require(hasRole(SELLER_ROLE, msg.sender), \"Restricted to sellers\") */\n      tag_297\n      jumpi\n      mload(0x40)\n      0x08c379a000000000000000000000000000000000000000000000000000000000\n      dup2\n      mstore\n      0x04\n      add\n      tag_298\n      swap1\n      tag_299\n      jump\t// in\n    tag_298:\n      mload(0x40)\n      dup1\n      swap2\n      sub\n      swap1\n      revert\n    tag_297:\n        /* \"@openzeppelin/contracts/security/Pausable.sol\":1239:1258  _requireNotPaused() */\n      tag_301\n        /* \"@openzeppelin/contracts/security/Pausable.sol\":1239:1256  _requireNotPaused */\n      tag_240\n        /* \"@openzeppelin/contracts/security/Pausable.sol\":1239:1258  _requireNotPaused() */\n      jump\t// in\n    tag_301:\n        /* \"contracts/ecommerce.sol\":5006:5007  0 */\n      0x00\n        /* \"contracts/ecommerce.sol\":4991:4995  name */\n      dup3\n        /* \"contracts/ecommerce.sol\":4985:5003  bytes(name).length */\n      mload\n        /* \"contracts/ecommerce.sol\":4985:5007  bytes(name).length > 0 */\n      gt\n        /* \"contracts/ecommerce.sol\":4977:5036  require(bytes(name).length > 0, \"Product name is required\") */\n      tag_303\n      jumpi\n      mload(0x40)\n      0x08c379a000000000000000000000000000000000000000000000000000000000\n      dup2\n      mstore\n      0x04\n      add\n      tag_304\n      swap1\n      tag_305\n      jump\t// in\n    tag_304:\n      mload(0x40)\n      dup1\n      swap2\n      sub\n      swap1\n      revert\n    tag_303:\n        /* \"contracts/ecommerce.sol\":5063:5064  0 */\n      0x00\n        /* \"contracts/ecommerce.sol\":5055:5060  price */\n      dup2\n        /* \"contracts/ecommerce.sol\":5055:5064  price > 0 */\n      gt\n        /* \"contracts/ecommerce.sol\":5047:5097  require(price > 0, \"Price must be greater than 0\") */\n      tag_306\n      jumpi\n      mload(0x40)\n      0x08c379a000000000000000000000000000000000000000000000000000000000\n      dup2\n      mstore\n      0x04\n      add\n      tag_307\n      swap1\n      tag_308\n      jump\t// in\n    tag_307:\n      mload(0x40)\n      dup1\n      swap2\n      sub\n      swap1\n      revert\n    tag_306:\n        /* \"contracts/ecommerce.sol\":5135:5302  Product({... */\n      mload(0x40)\n      dup1\n      0xa0\n      add\n      0x40\n      mstore\n      dup1\n        /* \"contracts/ecommerce.sol\":5164:5168  name */\n      dup4\n        /* \"contracts/ecommerce.sol\":5135:5302  Product({... */\n      dup2\n      mstore\n      0x20\n      add\n        /* \"contracts/ecommerce.sol\":5190:5195  price */\n      dup3\n        /* \"contracts/ecommerce.sol\":5135:5302  Product({... */\n      dup2\n      mstore\n      0x20\n      add\n        /* \"contracts/ecommerce.sol\":5218:5228  msg.sender */\n      caller\n        /* \"contracts/ecommerce.sol\":5135:5302  Product({... */\n      0xffffffffffffffffffffffffffffffffffffffff\n      and\n      dup2\n      mstore\n      0x20\n      add\n        /* \"contracts/ecommerce.sol\":5254:5258  true */\n      0x01\n        /* \"contracts/ecommerce.sol\":5135:5302  Product({... */\n      iszero\n      iszero\n      dup2\n      mstore\n      0x20\n      add\n        /* \"contracts/ecommerce.sol\":5288:5289  0 */\n      0x00\n        /* \"contracts/ecommerce.sol\":5135:5302  Product({... */\n      0xffffffffffffffffffffffffffffffffffffffff\n      and\n      dup2\n      mstore\n      pop\n        /* \"contracts/ecommerce.sol\":5110:5118  products */\n      0x02\n        /* \"contracts/ecommerce.sol\":5110:5132  products[productCount] */\n      0x00\n        /* \"contracts/ecommerce.sol\":5119:5131  productCount */\n      sload(0x03)\n        /* \"contracts/ecommerce.sol\":5110:5132  products[productCount] */\n      dup2\n      mstore\n      0x20\n      add\n      swap1\n      dup2\n      mstore\n      0x20\n      add\n      0x00\n      keccak256\n        /* \"contracts/ecommerce.sol\":5110:5302  products[productCount] = Product({... */\n      0x00\n      dup3\n      add\n      mload\n      dup2\n      0x00\n      add\n      swap1\n      dup2\n      tag_309\n      swap2\n      swap1\n      tag_310\n      jump\t// in\n    tag_309:\n      pop\n      0x20\n      dup3\n      add\n      mload\n      dup2\n      0x01\n      add\n      sstore\n      0x40\n      dup3\n      add\n      mload\n      dup2\n      0x02\n      add\n      exp(0x0100, 0x00)\n      dup2\n      sload\n      dup2\n      0xffffffffffffffffffffffffffffffffffffffff\n      mul\n      not\n      and\n      swap1\n      dup4\n      0xffffffffffffffffffffffffffffffffffffffff\n      and\n      mul\n      or\n      swap1\n      sstore\n      pop\n      0x60\n      dup3\n      add\n      mload\n      dup2\n      0x02\n      add\n      exp(0x0100, 0x14)\n      dup2\n      sload\n      dup2\n      0xff\n      mul\n      not\n      and\n      swap1\n      dup4\n      iszero\n      iszero\n      mul\n      or\n      swap1\n      sstore\n      pop\n      0x80\n      dup3\n      add\n      mload\n      dup2\n      0x03\n      add\n      exp(0x0100, 0x00)\n      dup2\n      sload\n      dup2\n      0xffffffffffffffffffffffffffffffffffffffff\n      mul\n      not\n      and\n      swap1\n      dup4\n      0xffffffffffffffffffffffffffffffffffffffff\n      and\n      mul\n      or\n      swap1\n      sstore\n      pop\n      swap1\n      pop\n      pop\n        /* \"contracts/ecommerce.sol\":5320:5371  ProductAdded(productCount, name, price, msg.sender) */\n      0x52402cafb2ecec722b103e8f203f83362148c168659dc96678c2c6850d12dd9f\n        /* \"contracts/ecommerce.sol\":5333:5345  productCount */\n      sload(0x03)\n        /* \"contracts/ecommerce.sol\":5347:5351  name */\n      dup4\n        /* \"contracts/ecommerce.sol\":5353:5358  price */\n      dup4\n        /* \"contracts/ecommerce.sol\":5360:5370  msg.sender */\n      caller\n        /* \"contracts/ecommerce.sol\":5320:5371  ProductAdded(productCount, name, price, msg.sender) */\n      mload(0x40)\n      tag_311\n      swap5\n      swap4\n      swap3\n      swap2\n      swap1\n      tag_312\n      jump\t// in\n    tag_311:\n      mload(0x40)\n      dup1\n      swap2\n      sub\n      swap1\n      log1\n        /* \"contracts/ecommerce.sol\":4877:5388  function addProduct(string memory name, uint256 price) external onlySeller whenNotPaused {... */\n      pop\n      pop\n      jump\t// out\n        /* \"contracts/ecommerce.sol\":1140:1224  address public constant audictorAddress = 0x78731D3Ca6b7E34aC0F824c42a7cC18A495cabaB */\n    tag_165:\n        /* \"contracts/ecommerce.sol\":1182:1224  0x78731D3Ca6b7E34aC0F824c42a7cC18A495cabaB */\n      0x78731d3ca6b7e34ac0f824c42a7cc18a495cabab\n        /* \"contracts/ecommerce.sol\":1140:1224  address public constant audictorAddress = 0x78731D3Ca6b7E34aC0F824c42a7cC18A495cabaB */\n      dup2\n      jump\t// out\n        /* \"contracts/ecommerce.sol\":711:787  bytes32 public constant AUTHENTICATOR_ROLE = keccak256(\"AUTHENTICATOR_ROLE\") */\n    tag_169:\n        /* \"contracts/ecommerce.sol\":756:787  keccak256(\"AUTHENTICATOR_ROLE\") */\n      0x190acb99f29d9641c9ad47655049f2d7c78fcbc837d62e7981d28c871f722081\n        /* \"contracts/ecommerce.sol\":711:787  bytes32 public constant AUTHENTICATOR_ROLE = keccak256(\"AUTHENTICATOR_ROLE\") */\n      dup2\n      jump\t// out\n        /* \"contracts/ecommerce.sol\":3571:3674  function addBuyer(address account) external onlyAdmin {... */\n    tag_174:\n        /* \"contracts/ecommerce.sol\":2704:2735  hasRole(ADMIN_ROLE, msg.sender) */\n      tag_314\n        /* \"contracts/ecommerce.sol\":545:568  keccak256(\"ADMIN_ROLE\") */\n      0xa49807205ce4d355092ef5a8a18f56e8913cf4a201fbe287825b095693c21775\n        /* \"contracts/ecommerce.sol\":2724:2734  msg.sender */\n      caller\n        /* \"contracts/ecommerce.sol\":2704:2711  hasRole */\n      tag_148\n        /* \"contracts/ecommerce.sol\":2704:2735  hasRole(ADMIN_ROLE, msg.sender) */\n      jump\t// in\n    tag_314:\n        /* \"contracts/ecommerce.sol\":2696:2760  require(hasRole(ADMIN_ROLE, msg.sender), \"Restricted to admins\") */\n      tag_315\n      jumpi\n      mload(0x40)\n      0x08c379a000000000000000000000000000000000000000000000000000000000\n      dup2\n      mstore\n      0x04\n      add\n      tag_316\n      swap1\n      tag_261\n      jump\t// in\n    tag_316:\n      mload(0x40)\n      dup1\n      swap2\n      sub\n      swap1\n      revert\n    tag_315:\n        /* \"contracts/ecommerce.sol\":3636:3666  grantRole(BUYER_ROLE, account) */\n      tag_318\n        /* \"contracts/ecommerce.sol\":681:704  keccak256(\"BUYER_ROLE\") */\n      0xf8cd32ed93fc2f9fc78152a14807c9609af3d99c5fe4dc6b106a801aaddfe90e\n        /* \"contracts/ecommerce.sol\":3658:3665  account */\n      dup3\n        /* \"contracts/ecommerce.sol\":3636:3645  grantRole */\n      tag_77\n        /* \"contracts/ecommerce.sol\":3636:3666  grantRole(BUYER_ROLE, account) */\n      jump\t// in\n    tag_318:\n        /* \"contracts/ecommerce.sol\":3571:3674  function addBuyer(address account) external onlyAdmin {... */\n      pop\n      jump\t// out\n        /* \"contracts/ecommerce.sol\":6346:6824  function cancelPurchase(uint256 productId) external onlyAuditor whenNotPaused {... */\n    tag_178:\n        /* \"contracts/ecommerce.sol\":3229:3262  hasRole(AUDITOR_ROLE, msg.sender) */\n      tag_320\n        /* \"contracts/ecommerce.sol\":833:858  keccak256(\"AUDITOR_ROLE\") */\n      0x59a1c48e5837ad7a7f3dcedcbe129bf3249ec4fbf651fd4f5e2600ead39fe2f5\n        /* \"contracts/ecommerce.sol\":3251:3261  msg.sender */\n      caller\n        /* \"contracts/ecommerce.sol\":3229:3236  hasRole */\n      tag_148\n        /* \"contracts/ecommerce.sol\":3229:3262  hasRole(AUDITOR_ROLE, msg.sender) */\n      jump\t// in\n    tag_320:\n        /* \"contracts/ecommerce.sol\":3221:3289  require(hasRole(AUDITOR_ROLE, msg.sender), \"Restricted to auditors\") */\n      tag_321\n      jumpi\n      mload(0x40)\n      0x08c379a000000000000000000000000000000000000000000000000000000000\n      dup2\n      mstore\n      0x04\n      add\n      tag_322\n      swap1\n      tag_323\n      jump\t// in\n    tag_322:\n      mload(0x40)\n      dup1\n      swap2\n      sub\n      swap1\n      revert\n    tag_321:\n        /* \"@openzeppelin/contracts/security/Pausable.sol\":1239:1258  _requireNotPaused() */\n      tag_325\n        /* \"@openzeppelin/contracts/security/Pausable.sol\":1239:1256  _requireNotPaused */\n      tag_240\n        /* \"@openzeppelin/contracts/security/Pausable.sol\":1239:1258  _requireNotPaused() */\n      jump\t// in\n    tag_325:\n        /* \"contracts/ecommerce.sol\":6435:6458  Product storage product */\n      0x00\n        /* \"contracts/ecommerce.sol\":6461:6469  products */\n      0x02\n        /* \"contracts/ecommerce.sol\":6461:6480  products[productId] */\n      0x00\n        /* \"contracts/ecommerce.sol\":6470:6479  productId */\n      dup4\n        /* \"contracts/ecommerce.sol\":6461:6480  products[productId] */\n      dup2\n      mstore\n      0x20\n      add\n      swap1\n      dup2\n      mstore\n      0x20\n      add\n      0x00\n      keccak256\n        /* \"contracts/ecommerce.sol\":6435:6480  Product storage product = products[productId] */\n      swap1\n      pop\n        /* \"contracts/ecommerce.sol\":6500:6507  product */\n      dup1\n        /* \"contracts/ecommerce.sol\":6500:6517  product.available */\n      0x02\n      add\n      0x14\n      swap1\n      sload\n      swap1\n      0x0100\n      exp\n      swap1\n      div\n      0xff\n      and\n        /* \"contracts/ecommerce.sol\":6499:6517  !product.available */\n      iszero\n        /* \"contracts/ecommerce.sol\":6491:6548  require(!product.available, \"Product is still available\") */\n      tag_327\n      jumpi\n      mload(0x40)\n      0x08c379a000000000000000000000000000000000000000000000000000000000\n      dup2\n      mstore\n      0x04\n      add\n      tag_328\n      swap1\n      tag_329\n      jump\t// in\n    tag_328:\n      mload(0x40)\n      dup1\n      swap2\n      sub\n      swap1\n      revert\n    tag_327:\n        /* \"contracts/ecommerce.sol\":6604:6615  icoContract */\n      0x04\n      0x00\n      swap1\n      sload\n      swap1\n      0x0100\n      exp\n      swap1\n      div\n      0xffffffffffffffffffffffffffffffffffffffff\n      and\n        /* \"contracts/ecommerce.sol\":6604:6628  icoContract.cancelEscrow */\n      0xffffffffffffffffffffffffffffffffffffffff\n      and\n      0xe0182436\n        /* \"contracts/ecommerce.sol\":6629:6638  productId */\n      dup4\n        /* \"contracts/ecommerce.sol\":6604:6639  icoContract.cancelEscrow(productId) */\n      mload(0x40)\n      dup3\n      0xffffffff\n      and\n      0xe0\n      shl\n      dup2\n      mstore\n      0x04\n      add\n      tag_330\n      swap2\n      swap1\n      tag_205\n      jump\t// in\n    tag_330:\n      0x00\n      mload(0x40)\n      dup1\n      dup4\n      sub\n      dup2\n      0x00\n      dup8\n      dup1\n      extcodesize\n      iszero\n      dup1\n      iszero\n      tag_331\n      jumpi\n      revert(0x00, 0x00)\n    tag_331:\n      pop\n      gas\n      call\n      iszero\n      dup1\n      iszero\n      tag_333\n      jumpi\n      returndatacopy(0x00, 0x00, returndatasize)\n      revert(0x00, returndatasize)\n    tag_333:\n      pop\n      pop\n      pop\n      pop\n        /* \"contracts/ecommerce.sol\":6715:6716  0 */\n      0x00\n        /* \"contracts/ecommerce.sol\":6691:6698  product */\n      dup2\n        /* \"contracts/ecommerce.sol\":6691:6704  product.buyer */\n      0x03\n      add\n      0x00\n        /* \"contracts/ecommerce.sol\":6691:6717  product.buyer = address(0) */\n      0x0100\n      exp\n      dup2\n      sload\n      dup2\n      0xffffffffffffffffffffffffffffffffffffffff\n      mul\n      not\n      and\n      swap1\n      dup4\n      0xffffffffffffffffffffffffffffffffffffffff\n      and\n      mul\n      or\n      swap1\n      sstore\n      pop\n        /* \"contracts/ecommerce.sol\":6748:6752  true */\n      0x01\n        /* \"contracts/ecommerce.sol\":6728:6735  product */\n      dup2\n        /* \"contracts/ecommerce.sol\":6728:6745  product.available */\n      0x02\n      add\n      0x14\n        /* \"contracts/ecommerce.sol\":6728:6752  product.available = true */\n      0x0100\n      exp\n      dup2\n      sload\n      dup2\n      0xff\n      mul\n      not\n      and\n      swap1\n      dup4\n      iszero\n      iszero\n      mul\n      or\n      swap1\n      sstore\n      pop\n        /* \"contracts/ecommerce.sol\":6770:6816  ProductPurchaseCanceled(productId, msg.sender) */\n      0x3beba936dd321ff968de436a80911f117e372ce719dab89e0f74a75f29b4c585\n        /* \"contracts/ecommerce.sol\":6794:6803  productId */\n      dup3\n        /* \"contracts/ecommerce.sol\":6805:6815  msg.sender */\n      caller\n        /* \"contracts/ecommerce.sol\":6770:6816  ProductPurchaseCanceled(productId, msg.sender) */\n      mload(0x40)\n      tag_334\n      swap3\n      swap2\n      swap1\n      tag_251\n      jump\t// in\n    tag_334:\n      mload(0x40)\n      dup1\n      swap2\n      sub\n      swap1\n      log1\n        /* \"contracts/ecommerce.sol\":6424:6824  {... */\n      pop\n        /* \"contracts/ecommerce.sol\":6346:6824  function cancelPurchase(uint256 productId) external onlyAuditor whenNotPaused {... */\n      pop\n      jump\t// out\n        /* \"contracts/ecommerce.sol\":1548:1571  IICO public icoContract */\n    tag_181:\n      0x04\n      0x00\n      swap1\n      sload\n      swap1\n      0x0100\n      exp\n      swap1\n      div\n      0xffffffffffffffffffffffffffffffffffffffff\n      and\n      dup2\n      jump\t// out\n        /* \"@openzeppelin/contracts/access/AccessControl.sol\":4642:4780  function revokeRole(bytes32 role, address account) public virtual onlyRole(getRoleAdmin(role)) {... */\n    tag_187:\n        /* \"@openzeppelin/contracts/access/AccessControl.sol\":4717:4735  getRoleAdmin(role) */\n      tag_335\n        /* \"@openzeppelin/contracts/access/AccessControl.sol\":4730:4734  role */\n      dup3\n        /* \"@openzeppelin/contracts/access/AccessControl.sol\":4717:4729  getRoleAdmin */\n      tag_70\n        /* \"@openzeppelin/contracts/access/AccessControl.sol\":4717:4735  getRoleAdmin(role) */\n      jump\t// in\n    tag_335:\n        /* \"@openzeppelin/contracts/access/AccessControl.sol\":2464:2480  _checkRole(role) */\n      tag_337\n        /* \"@openzeppelin/contracts/access/AccessControl.sol\":2475:2479  role */\n      dup2\n        /* \"@openzeppelin/contracts/access/AccessControl.sol\":2464:2474  _checkRole */\n      tag_222\n        /* \"@openzeppelin/contracts/access/AccessControl.sol\":2464:2480  _checkRole(role) */\n      jump\t// in\n    tag_337:\n        /* \"@openzeppelin/contracts/access/AccessControl.sol\":4747:4773  _revokeRole(role, account) */\n      tag_339\n        /* \"@openzeppelin/contracts/access/AccessControl.sol\":4759:4763  role */\n      dup4\n        /* \"@openzeppelin/contracts/access/AccessControl.sol\":4765:4772  account */\n      dup4\n        /* \"@openzeppelin/contracts/access/AccessControl.sol\":4747:4758  _revokeRole */\n      tag_232\n        /* \"@openzeppelin/contracts/access/AccessControl.sol\":4747:4773  _revokeRole(role, account) */\n      jump\t// in\n    tag_339:\n      pop\n        /* \"@openzeppelin/contracts/access/AccessControl.sol\":4642:4780  function revokeRole(bytes32 role, address account) public virtual onlyRole(getRoleAdmin(role)) {... */\n      pop\n      pop\n      pop\n      jump\t// out\n        /* \"contracts/ecommerce.sol\":3341:3446  function addSeller(address account) external onlyAdmin {... */\n    tag_191:\n        /* \"contracts/ecommerce.sol\":2704:2735  hasRole(ADMIN_ROLE, msg.sender) */\n      tag_341\n        /* \"contracts/ecommerce.sol\":545:568  keccak256(\"ADMIN_ROLE\") */\n      0xa49807205ce4d355092ef5a8a18f56e8913cf4a201fbe287825b095693c21775\n        /* \"contracts/ecommerce.sol\":2724:2734  msg.sender */\n      caller\n        /* \"contracts/ecommerce.sol\":2704:2711  hasRole */\n      tag_148\n        /* \"contracts/ecommerce.sol\":2704:2735  hasRole(ADMIN_ROLE, msg.sender) */\n      jump\t// in\n    tag_341:\n        /* \"contracts/ecommerce.sol\":2696:2760  require(hasRole(ADMIN_ROLE, msg.sender), \"Restricted to admins\") */\n      tag_342\n      jumpi\n      mload(0x40)\n      0x08c379a000000000000000000000000000000000000000000000000000000000\n      dup2\n      mstore\n      0x04\n      add\n      tag_343\n      swap1\n      tag_261\n      jump\t// in\n    tag_343:\n      mload(0x40)\n      dup1\n      swap2\n      sub\n      swap1\n      revert\n    tag_342:\n        /* \"contracts/ecommerce.sol\":3407:3438  grantRole(SELLER_ROLE, account) */\n      tag_345\n        /* \"contracts/ecommerce.sol\":613:637  keccak256(\"SELLER_ROLE\") */\n      0x43f25613eb2f15fb17222a5d424ca2655743e71265d98e4b93c05e5fb589ecde\n        /* \"contracts/ecommerce.sol\":3430:3437  account */\n      dup3\n        /* \"contracts/ecommerce.sol\":3407:3416  grantRole */\n      tag_77\n        /* \"contracts/ecommerce.sol\":3407:3438  grantRole(SELLER_ROLE, account) */\n      jump\t// in\n    tag_345:\n        /* \"contracts/ecommerce.sol\":3341:3446  function addSeller(address account) external onlyAdmin {... */\n      pop\n      jump\t// out\n        /* \"contracts/ecommerce.sol\":575:637  bytes32 public constant SELLER_ROLE = keccak256(\"SELLER_ROLE\") */\n    tag_194:\n        /* \"contracts/ecommerce.sol\":613:637  keccak256(\"SELLER_ROLE\") */\n      0x43f25613eb2f15fb17222a5d424ca2655743e71265d98e4b93c05e5fb589ecde\n        /* \"contracts/ecommerce.sol\":575:637  bytes32 public constant SELLER_ROLE = keccak256(\"SELLER_ROLE\") */\n      dup2\n      jump\t// out\n        /* \"contracts/ecommerce.sol\":5396:5755  function updateProductStatus(uint256 productId, bool available) external onlySeller whenNotPaused {... */\n    tag_200:\n        /* \"contracts/ecommerce.sol\":2829:2861  hasRole(SELLER_ROLE, msg.sender) */\n      tag_347\n        /* \"contracts/ecommerce.sol\":613:637  keccak256(\"SELLER_ROLE\") */\n      0x43f25613eb2f15fb17222a5d424ca2655743e71265d98e4b93c05e5fb589ecde\n        /* \"contracts/ecommerce.sol\":2850:2860  msg.sender */\n      caller\n        /* \"contracts/ecommerce.sol\":2829:2836  hasRole */\n      tag_148\n        /* \"contracts/ecommerce.sol\":2829:2861  hasRole(SELLER_ROLE, msg.sender) */\n      jump\t// in\n    tag_347:\n        /* \"contracts/ecommerce.sol\":2821:2887  require(hasRole(SELLER_ROLE, msg.sender), \"Restricted to sellers\") */\n      tag_348\n      jumpi\n      mload(0x40)\n      0x08c379a000000000000000000000000000000000000000000000000000000000\n      dup2\n      mstore\n      0x04\n      add\n      tag_349\n      swap1\n      tag_299\n      jump\t// in\n    tag_349:\n      mload(0x40)\n      dup1\n      swap2\n      sub\n      swap1\n      revert\n    tag_348:\n        /* \"@openzeppelin/contracts/security/Pausable.sol\":1239:1258  _requireNotPaused() */\n      tag_351\n        /* \"@openzeppelin/contracts/security/Pausable.sol\":1239:1256  _requireNotPaused */\n      tag_240\n        /* \"@openzeppelin/contracts/security/Pausable.sol\":1239:1258  _requireNotPaused() */\n      jump\t// in\n    tag_351:\n        /* \"contracts/ecommerce.sol\":5505:5528  Product storage product */\n      0x00\n        /* \"contracts/ecommerce.sol\":5531:5539  products */\n      0x02\n        /* \"contracts/ecommerce.sol\":5531:5550  products[productId] */\n      0x00\n        /* \"contracts/ecommerce.sol\":5540:5549  productId */\n      dup5\n        /* \"contracts/ecommerce.sol\":5531:5550  products[productId] */\n      dup2\n      mstore\n      0x20\n      add\n      swap1\n      dup2\n      mstore\n      0x20\n      add\n      0x00\n      keccak256\n        /* \"contracts/ecommerce.sol\":5505:5550  Product storage product = products[productId] */\n      swap1\n      pop\n        /* \"contracts/ecommerce.sol\":5583:5590  product */\n      dup1\n        /* \"contracts/ecommerce.sol\":5583:5597  product.seller */\n      0x02\n      add\n      0x00\n      swap1\n      sload\n      swap1\n      0x0100\n      exp\n      swap1\n      div\n      0xffffffffffffffffffffffffffffffffffffffff\n      and\n        /* \"contracts/ecommerce.sol\":5569:5597  msg.sender == product.seller */\n      0xffffffffffffffffffffffffffffffffffffffff\n      and\n        /* \"contracts/ecommerce.sol\":5569:5579  msg.sender */\n      caller\n        /* \"contracts/ecommerce.sol\":5569:5597  msg.sender == product.seller */\n      0xffffffffffffffffffffffffffffffffffffffff\n      and\n      eq\n        /* \"contracts/ecommerce.sol\":5561:5647  require(msg.sender == product.seller, \"Only the seller can update the product status\") */\n      tag_353\n      jumpi\n      mload(0x40)\n      0x08c379a000000000000000000000000000000000000000000000000000000000\n      dup2\n      mstore\n      0x04\n      add\n      tag_354\n      swap1\n      tag_355\n      jump\t// in\n    tag_354:\n      mload(0x40)\n      dup1\n      swap2\n      sub\n      swap1\n      revert\n    tag_353:\n        /* \"contracts/ecommerce.sol\":5678:5687  available */\n      dup2\n        /* \"contracts/ecommerce.sol\":5658:5665  product */\n      dup2\n        /* \"contracts/ecommerce.sol\":5658:5675  product.available */\n      0x02\n      add\n      0x14\n        /* \"contracts/ecommerce.sol\":5658:5687  product.available = available */\n      0x0100\n      exp\n      dup2\n      sload\n      dup2\n      0xff\n      mul\n      not\n      and\n      swap1\n      dup4\n      iszero\n      iszero\n      mul\n      or\n      swap1\n      sstore\n      pop\n        /* \"contracts/ecommerce.sol\":5705:5747  ProductStatusUpdated(productId, available) */\n      0x096fb264925a6e0e077f5e481cffac4e5c3aafb46b5209638a24360307f47669\n        /* \"contracts/ecommerce.sol\":5726:5735  productId */\n      dup4\n        /* \"contracts/ecommerce.sol\":5737:5746  available */\n      dup4\n        /* \"contracts/ecommerce.sol\":5705:5747  ProductStatusUpdated(productId, available) */\n      mload(0x40)\n      tag_356\n      swap3\n      swap2\n      swap1\n      tag_357\n      jump\t// in\n    tag_356:\n      mload(0x40)\n      dup1\n      swap2\n      sub\n      swap1\n      log1\n        /* \"contracts/ecommerce.sol\":5494:5755  {... */\n      pop\n        /* \"contracts/ecommerce.sol\":5396:5755  function updateProductStatus(uint256 productId, bool available) external onlySeller whenNotPaused {... */\n      pop\n      pop\n      jump\t// out\n        /* \"contracts/ecommerce.sol\":1512:1539  uint256 public productCount */\n    tag_203:\n      sload(0x03)\n      dup2\n      jump\t// out\n        /* \"contracts/ecommerce.sol\":4055:4162  function addAuditor(address account) external onlyAdmin {... */\n    tag_209:\n        /* \"contracts/ecommerce.sol\":2704:2735  hasRole(ADMIN_ROLE, msg.sender) */\n      tag_359\n        /* \"contracts/ecommerce.sol\":545:568  keccak256(\"ADMIN_ROLE\") */\n      0xa49807205ce4d355092ef5a8a18f56e8913cf4a201fbe287825b095693c21775\n        /* \"contracts/ecommerce.sol\":2724:2734  msg.sender */\n      caller\n        /* \"contracts/ecommerce.sol\":2704:2711  hasRole */\n      tag_148\n        /* \"contracts/ecommerce.sol\":2704:2735  hasRole(ADMIN_ROLE, msg.sender) */\n      jump\t// in\n    tag_359:\n        /* \"contracts/ecommerce.sol\":2696:2760  require(hasRole(ADMIN_ROLE, msg.sender), \"Restricted to admins\") */\n      tag_360\n      jumpi\n      mload(0x40)\n      0x08c379a000000000000000000000000000000000000000000000000000000000\n      dup2\n      mstore\n      0x04\n      add\n      tag_361\n      swap1\n      tag_261\n      jump\t// in\n    tag_361:\n      mload(0x40)\n      dup1\n      swap2\n      sub\n      swap1\n      revert\n    tag_360:\n        /* \"contracts/ecommerce.sol\":4122:4154  grantRole(AUDITOR_ROLE, account) */\n      tag_363\n        /* \"contracts/ecommerce.sol\":833:858  keccak256(\"AUDITOR_ROLE\") */\n      0x59a1c48e5837ad7a7f3dcedcbe129bf3249ec4fbf651fd4f5e2600ead39fe2f5\n        /* \"contracts/ecommerce.sol\":4146:4153  account */\n      dup3\n        /* \"contracts/ecommerce.sol\":4122:4131  grantRole */\n      tag_77\n        /* \"contracts/ecommerce.sol\":4122:4154  grantRole(AUDITOR_ROLE, account) */\n      jump\t// in\n    tag_363:\n        /* \"contracts/ecommerce.sol\":4055:4162  function addAuditor(address account) external onlyAdmin {... */\n      pop\n      jump\t// out\n        /* \"contracts/ecommerce.sol\":4170:4281  function removeAuditor(address account) external onlyAdmin {... */\n    tag_213:\n        /* \"contracts/ecommerce.sol\":2704:2735  hasRole(ADMIN_ROLE, msg.sender) */\n      tag_365\n        /* \"contracts/ecommerce.sol\":545:568  keccak256(\"ADMIN_ROLE\") */\n      0xa49807205ce4d355092ef5a8a18f56e8913cf4a201fbe287825b095693c21775\n        /* \"contracts/ecommerce.sol\":2724:2734  msg.sender */\n      caller\n        /* \"contracts/ecommerce.sol\":2704:2711  hasRole */\n      tag_148\n        /* \"contracts/ecommerce.sol\":2704:2735  hasRole(ADMIN_ROLE, msg.sender) */\n      jump\t// in\n    tag_365:\n        /* \"contracts/ecommerce.sol\":2696:2760  require(hasRole(ADMIN_ROLE, msg.sender), \"Restricted to admins\") */\n      tag_366\n      jumpi\n      mload(0x40)\n      0x08c379a000000000000000000000000000000000000000000000000000000000\n      dup2\n      mstore\n      0x04\n      add\n      tag_367\n      swap1\n      tag_261\n      jump\t// in\n    tag_367:\n      mload(0x40)\n      dup1\n      swap2\n      sub\n      swap1\n      revert\n    tag_366:\n        /* \"contracts/ecommerce.sol\":4240:4273  revokeRole(AUDITOR_ROLE, account) */\n      tag_369\n        /* \"contracts/ecommerce.sol\":833:858  keccak256(\"AUDITOR_ROLE\") */\n      0x59a1c48e5837ad7a7f3dcedcbe129bf3249ec4fbf651fd4f5e2600ead39fe2f5\n        /* \"contracts/ecommerce.sol\":4265:4272  account */\n      dup3\n        /* \"contracts/ecommerce.sol\":4240:4250  revokeRole */\n      tag_187\n        /* \"contracts/ecommerce.sol\":4240:4273  revokeRole(AUDITOR_ROLE, account) */\n      jump\t// in\n    tag_369:\n        /* \"contracts/ecommerce.sol\":4170:4281  function removeAuditor(address account) external onlyAdmin {... */\n      pop\n      jump\t// out\n        /* \"@openzeppelin/contracts/utils/introspection/ERC165.sol\":763:909  function supportsInterface(bytes4 interfaceId) public view virtual returns (bool) {... */\n    tag_217:\n        /* \"@openzeppelin/contracts/utils/introspection/ERC165.sol\":839:843  bool */\n      0x00\n        /* \"@openzeppelin/contracts/utils/introspection/ERC165.sol\":877:902  type(IERC165).interfaceId */\n      0x01ffc9a700000000000000000000000000000000000000000000000000000000\n        /* \"@openzeppelin/contracts/utils/introspection/ERC165.sol\":862:902  interfaceId == type(IERC165).interfaceId */\n      not(0xffffffffffffffffffffffffffffffffffffffffffffffffffffffff)\n      and\n        /* \"@openzeppelin/contracts/utils/introspection/ERC165.sol\":862:873  interfaceId */\n      dup3\n        /* \"@openzeppelin/contracts/utils/introspection/ERC165.sol\":862:902  interfaceId == type(IERC165).interfaceId */\n      not(0xffffffffffffffffffffffffffffffffffffffffffffffffffffffff)\n      and\n      eq\n        /* \"@openzeppelin/contracts/utils/introspection/ERC165.sol\":855:902  return interfaceId == type(IERC165).interfaceId */\n      swap1\n      pop\n        /* \"@openzeppelin/contracts/utils/introspection/ERC165.sol\":763:909  function supportsInterface(bytes4 interfaceId) public view virtual returns (bool) {... */\n      swap2\n      swap1\n      pop\n      jump\t// out\n        /* \"@openzeppelin/contracts/access/AccessControl.sol\":3199:3302  function _checkRole(bytes32 role) internal view virtual {... */\n    tag_222:\n        /* \"@openzeppelin/contracts/access/AccessControl.sol\":3265:3295  _checkRole(role, _msgSender()) */\n      tag_372\n        /* \"@openzeppelin/contracts/access/AccessControl.sol\":3276:3280  role */\n      dup2\n        /* \"@openzeppelin/contracts/access/AccessControl.sol\":3282:3294  _msgSender() */\n      tag_373\n        /* \"@openzeppelin/contracts/access/AccessControl.sol\":3282:3292  _msgSender */\n      tag_229\n        /* \"@openzeppelin/contracts/access/AccessControl.sol\":3282:3294  _msgSender() */\n      jump\t// in\n    tag_373:\n        /* \"@openzeppelin/contracts/access/AccessControl.sol\":3265:3275  _checkRole */\n      tag_374\n        /* \"@openzeppelin/contracts/access/AccessControl.sol\":3265:3295  _checkRole(role, _msgSender()) */\n      jump\t// in\n    tag_372:\n        /* \"@openzeppelin/contracts/access/AccessControl.sol\":3199:3302  function _checkRole(bytes32 role) internal view virtual {... */\n      pop\n      jump\t// out\n        /* \"@openzeppelin/contracts/access/AccessControl.sol\":6179:6495  function _grantRole(bytes32 role, address account) internal virtual returns (bool) {... */\n    tag_225:\n        /* \"@openzeppelin/contracts/access/AccessControl.sol\":6256:6260  bool */\n      0x00\n        /* \"@openzeppelin/contracts/access/AccessControl.sol\":6277:6299  hasRole(role, account) */\n      tag_376\n        /* \"@openzeppelin/contracts/access/AccessControl.sol\":6285:6289  role */\n      dup4\n        /* \"@openzeppelin/contracts/access/AccessControl.sol\":6291:6298  account */\n      dup4\n        /* \"@openzeppelin/contracts/access/AccessControl.sol\":6277:6284  hasRole */\n      tag_148\n        /* \"@openzeppelin/contracts/access/AccessControl.sol\":6277:6299  hasRole(role, account) */\n      jump\t// in\n    tag_376:\n        /* \"@openzeppelin/contracts/access/AccessControl.sol\":6272:6489  if (!hasRole(role, account)) {... */\n      tag_377\n      jumpi\n        /* \"@openzeppelin/contracts/access/AccessControl.sol\":6347:6351  true */\n      0x01\n        /* \"@openzeppelin/contracts/access/AccessControl.sol\":6315:6321  _roles */\n      0x00\n        /* \"@openzeppelin/contracts/access/AccessControl.sol\":6315:6327  _roles[role] */\n      0x00\n        /* \"@openzeppelin/contracts/access/AccessControl.sol\":6322:6326  role */\n      dup6\n        /* \"@openzeppelin/contracts/access/AccessControl.sol\":6315:6327  _roles[role] */\n      dup2\n      mstore\n      0x20\n      add\n      swap1\n      dup2\n      mstore\n      0x20\n      add\n      0x00\n      keccak256\n        /* \"@openzeppelin/contracts/access/AccessControl.sol\":6315:6335  _roles[role].hasRole */\n      0x00\n      add\n        /* \"@openzeppelin/contracts/access/AccessControl.sol\":6315:6344  _roles[role].hasRole[account] */\n      0x00\n        /* \"@openzeppelin/contracts/access/AccessControl.sol\":6336:6343  account */\n      dup5\n        /* \"@openzeppelin/contracts/access/AccessControl.sol\":6315:6344  _roles[role].hasRole[account] */\n      0xffffffffffffffffffffffffffffffffffffffff\n      and\n      0xffffffffffffffffffffffffffffffffffffffff\n      and\n      dup2\n      mstore\n      0x20\n      add\n      swap1\n      dup2\n      mstore\n      0x20\n      add\n      0x00\n      keccak256\n      0x00\n        /* \"@openzeppelin/contracts/access/AccessControl.sol\":6315:6351  _roles[role].hasRole[account] = true */\n      0x0100\n      exp\n      dup2\n      sload\n      dup2\n      0xff\n      mul\n      not\n      and\n      swap1\n      dup4\n      iszero\n      iszero\n      mul\n      or\n      swap1\n      sstore\n      pop\n        /* \"@openzeppelin/contracts/access/AccessControl.sol\":6397:6409  _msgSender() */\n      tag_378\n        /* \"@openzeppelin/contracts/access/AccessControl.sol\":6397:6407  _msgSender */\n      tag_229\n        /* \"@openzeppelin/contracts/access/AccessControl.sol\":6397:6409  _msgSender() */\n      jump\t// in\n    tag_378:\n        /* \"@openzeppelin/contracts/access/AccessControl.sol\":6370:6410  RoleGranted(role, account, _msgSender()) */\n      0xffffffffffffffffffffffffffffffffffffffff\n      and\n        /* \"@openzeppelin/contracts/access/AccessControl.sol\":6388:6395  account */\n      dup3\n        /* \"@openzeppelin/contracts/access/AccessControl.sol\":6370:6410  RoleGranted(role, account, _msgSender()) */\n      0xffffffffffffffffffffffffffffffffffffffff\n      and\n        /* \"@openzeppelin/contracts/access/AccessControl.sol\":6382:6386  role */\n      dup5\n        /* \"@openzeppelin/contracts/access/AccessControl.sol\":6370:6410  RoleGranted(role, account, _msgSender()) */\n      0x2f8788117e7eff1d82e926ec794901d17c78024a50270940304540a733656f0d\n      mload(0x40)\n      mload(0x40)\n      dup1\n      swap2\n      sub\n      swap1\n      log4\n        /* \"@openzeppelin/contracts/access/AccessControl.sol\":6431:6435  true */\n      0x01\n        /* \"@openzeppelin/contracts/access/AccessControl.sol\":6424:6435  return true */\n      swap1\n      pop\n      jump(tag_375)\n        /* \"@openzeppelin/contracts/access/AccessControl.sol\":6272:6489  if (!hasRole(role, account)) {... */\n    tag_377:\n        /* \"@openzeppelin/contracts/access/AccessControl.sol\":6473:6478  false */\n      0x00\n        /* \"@openzeppelin/contracts/access/AccessControl.sol\":6466:6478  return false */\n      swap1\n      pop\n        /* \"@openzeppelin/contracts/access/AccessControl.sol\":6179:6495  function _grantRole(bytes32 role, address account) internal virtual returns (bool) {... */\n    tag_375:\n      swap3\n      swap2\n      pop\n      pop\n      jump\t// out\n        /* \"@openzeppelin/contracts/utils/Context.sol\":656:752  function _msgSender() internal view virtual returns (address) {... */\n    tag_229:\n        /* \"@openzeppelin/contracts/utils/Context.sol\":709:716  address */\n      0x00\n        /* \"@openzeppelin/contracts/utils/Context.sol\":735:745  msg.sender */\n      caller\n        /* \"@openzeppelin/contracts/utils/Context.sol\":728:745  return msg.sender */\n      swap1\n      pop\n        /* \"@openzeppelin/contracts/utils/Context.sol\":656:752  function _msgSender() internal view virtual returns (address) {... */\n      swap1\n      jump\t// out\n        /* \"@openzeppelin/contracts/access/AccessControl.sol\":6730:7047  function _revokeRole(bytes32 role, address account) internal virtual returns (bool) {... */\n    tag_232:\n        /* \"@openzeppelin/contracts/access/AccessControl.sol\":6808:6812  bool */\n      0x00\n        /* \"@openzeppelin/contracts/access/AccessControl.sol\":6828:6850  hasRole(role, account) */\n      tag_382\n        /* \"@openzeppelin/contracts/access/AccessControl.sol\":6836:6840  role */\n      dup4\n        /* \"@openzeppelin/contracts/access/AccessControl.sol\":6842:6849  account */\n      dup4\n        /* \"@openzeppelin/contracts/access/AccessControl.sol\":6828:6835  hasRole */\n      tag_148\n        /* \"@openzeppelin/contracts/access/AccessControl.sol\":6828:6850  hasRole(role, account) */\n      jump\t// in\n    tag_382:\n        /* \"@openzeppelin/contracts/access/AccessControl.sol\":6824:7041  if (hasRole(role, account)) {... */\n      iszero\n      tag_383\n      jumpi\n        /* \"@openzeppelin/contracts/access/AccessControl.sol\":6898:6903  false */\n      0x00\n        /* \"@openzeppelin/contracts/access/AccessControl.sol\":6866:6872  _roles */\n      0x00\n        /* \"@openzeppelin/contracts/access/AccessControl.sol\":6866:6878  _roles[role] */\n      0x00\n        /* \"@openzeppelin/contracts/access/AccessControl.sol\":6873:6877  role */\n      dup6\n        /* \"@openzeppelin/contracts/access/AccessControl.sol\":6866:6878  _roles[role] */\n      dup2\n      mstore\n      0x20\n      add\n      swap1\n      dup2\n      mstore\n      0x20\n      add\n      0x00\n      keccak256\n        /* \"@openzeppelin/contracts/access/AccessControl.sol\":6866:6886  _roles[role].hasRole */\n      0x00\n      add\n        /* \"@openzeppelin/contracts/access/AccessControl.sol\":6866:6895  _roles[role].hasRole[account] */\n      0x00\n        /* \"@openzeppelin/contracts/access/AccessControl.sol\":6887:6894  account */\n      dup5\n        /* \"@openzeppelin/contracts/access/AccessControl.sol\":6866:6895  _roles[role].hasRole[account] */\n      0xffffffffffffffffffffffffffffffffffffffff\n      and\n      0xffffffffffffffffffffffffffffffffffffffff\n      and\n      dup2\n      mstore\n      0x20\n      add\n      swap1\n      dup2\n      mstore\n      0x20\n      add\n      0x00\n      keccak256\n      0x00\n        /* \"@openzeppelin/contracts/access/AccessControl.sol\":6866:6903  _roles[role].hasRole[account] = false */\n      0x0100\n      exp\n      dup2\n      sload\n      dup2\n      0xff\n      mul\n      not\n      and\n      swap1\n      dup4\n      iszero\n      iszero\n      mul\n      or\n      swap1\n      sstore\n      pop\n        /* \"@openzeppelin/contracts/access/AccessControl.sol\":6949:6961  _msgSender() */\n      tag_384\n        /* \"@openzeppelin/contracts/access/AccessControl.sol\":6949:6959  _msgSender */\n      tag_229\n        /* \"@openzeppelin/contracts/access/AccessControl.sol\":6949:6961  _msgSender() */\n      jump\t// in\n    tag_384:\n        /* \"@openzeppelin/contracts/access/AccessControl.sol\":6922:6962  RoleRevoked(role, account, _msgSender()) */\n      0xffffffffffffffffffffffffffffffffffffffff\n      and\n        /* \"@openzeppelin/contracts/access/AccessControl.sol\":6940:6947  account */\n      dup3\n        /* \"@openzeppelin/contracts/access/AccessControl.sol\":6922:6962  RoleRevoked(role, account, _msgSender()) */\n      0xffffffffffffffffffffffffffffffffffffffff\n      and\n        /* \"@openzeppelin/contracts/access/AccessControl.sol\":6934:6938  role */\n      dup5\n        /* \"@openzeppelin/contracts/access/AccessControl.sol\":6922:6962  RoleRevoked(role, account, _msgSender()) */\n      0xf6391f5c32d9c69d2a47ea670b442974b53935d1edc7fd64eb21e047a839171b\n      mload(0x40)\n      mload(0x40)\n      dup1\n      swap2\n      sub\n      swap1\n      log4\n        /* \"@openzeppelin/contracts/access/AccessControl.sol\":6983:6987  true */\n      0x01\n        /* \"@openzeppelin/contracts/access/AccessControl.sol\":6976:6987  return true */\n      swap1\n      pop\n      jump(tag_381)\n        /* \"@openzeppelin/contracts/access/AccessControl.sol\":6824:7041  if (hasRole(role, account)) {... */\n    tag_383:\n        /* \"@openzeppelin/contracts/access/AccessControl.sol\":7025:7030  false */\n      0x00\n        /* \"@openzeppelin/contracts/access/AccessControl.sol\":7018:7030  return false */\n      swap1\n      pop\n        /* \"@openzeppelin/contracts/access/AccessControl.sol\":6730:7047  function _revokeRole(bytes32 role, address account) internal virtual returns (bool) {... */\n    tag_381:\n      swap3\n      swap2\n      pop\n      pop\n      jump\t// out\n        /* \"@openzeppelin/contracts/security/Pausable.sol\":1767:1873  function _requireNotPaused() internal view virtual {... */\n    tag_240:\n        /* \"@openzeppelin/contracts/security/Pausable.sol\":1837:1845  paused() */\n      tag_387\n        /* \"@openzeppelin/contracts/security/Pausable.sol\":1837:1843  paused */\n      tag_110\n        /* \"@openzeppelin/contracts/security/Pausable.sol\":1837:1845  paused() */\n      jump\t// in\n    tag_387:\n        /* \"@openzeppelin/contracts/security/Pausable.sol\":1836:1845  !paused() */\n      iszero\n        /* \"@openzeppelin/contracts/security/Pausable.sol\":1828:1866  require(!paused(), \"Pausable: paused\") */\n      tag_388\n      jumpi\n      mload(0x40)\n      0x08c379a000000000000000000000000000000000000000000000000000000000\n      dup2\n      mstore\n      0x04\n      add\n      tag_389\n      swap1\n      tag_390\n      jump\t// in\n    tag_389:\n      mload(0x40)\n      dup1\n      swap2\n      sub\n      swap1\n      revert\n    tag_388:\n        /* \"@openzeppelin/contracts/security/Pausable.sol\":1767:1873  function _requireNotPaused() internal view virtual {... */\n      jump\t// out\n        /* \"@openzeppelin/contracts/security/Pausable.sol\":2433:2550  function _unpause() internal virtual whenPaused {... */\n    tag_256:\n        /* \"@openzeppelin/contracts/security/Pausable.sol\":1486:1502  _requirePaused() */\n      tag_392\n        /* \"@openzeppelin/contracts/security/Pausable.sol\":1486:1500  _requirePaused */\n      tag_393\n        /* \"@openzeppelin/contracts/security/Pausable.sol\":1486:1502  _requirePaused() */\n      jump\t// in\n    tag_392:\n        /* \"@openzeppelin/contracts/security/Pausable.sol\":2501:2506  false */\n      0x00\n        /* \"@openzeppelin/contracts/security/Pausable.sol\":2491:2498  _paused */\n      0x01\n      0x00\n        /* \"@openzeppelin/contracts/security/Pausable.sol\":2491:2506  _paused = false */\n      0x0100\n      exp\n      dup2\n      sload\n      dup2\n      0xff\n      mul\n      not\n      and\n      swap1\n      dup4\n      iszero\n      iszero\n      mul\n      or\n      swap1\n      sstore\n      pop\n        /* \"@openzeppelin/contracts/security/Pausable.sol\":2521:2543  Unpaused(_msgSender()) */\n      0x5db9ee0a495bf2e6ff9c91a7834c1ba4fdd244a5e8aa4e537bd38aeae4b073aa\n        /* \"@openzeppelin/contracts/security/Pausable.sol\":2530:2542  _msgSender() */\n      tag_395\n        /* \"@openzeppelin/contracts/security/Pausable.sol\":2530:2540  _msgSender */\n      tag_229\n        /* \"@openzeppelin/contracts/security/Pausable.sol\":2530:2542  _msgSender() */\n      jump\t// in\n    tag_395:\n        /* \"@openzeppelin/contracts/security/Pausable.sol\":2521:2543  Unpaused(_msgSender()) */\n      mload(0x40)\n      tag_396\n      swap2\n      swap1\n      tag_65\n      jump\t// in\n    tag_396:\n      mload(0x40)\n      dup1\n      swap2\n      sub\n      swap1\n      log1\n        /* \"@openzeppelin/contracts/security/Pausable.sol\":2433:2550  function _unpause() internal virtual whenPaused {... */\n      jump\t// out\n        /* \"@openzeppelin/contracts/security/Pausable.sol\":2186:2301  function _pause() internal virtual whenNotPaused {... */\n    tag_287:\n        /* \"@openzeppelin/contracts/security/Pausable.sol\":1239:1258  _requireNotPaused() */\n      tag_398\n        /* \"@openzeppelin/contracts/security/Pausable.sol\":1239:1256  _requireNotPaused */\n      tag_240\n        /* \"@openzeppelin/contracts/security/Pausable.sol\":1239:1258  _requireNotPaused() */\n      jump\t// in\n    tag_398:\n        /* \"@openzeppelin/contracts/security/Pausable.sol\":2255:2259  true */\n      0x01\n        /* \"@openzeppelin/contracts/security/Pausable.sol\":2245:2252  _paused */\n      dup1\n      0x00\n        /* \"@openzeppelin/contracts/security/Pausable.sol\":2245:2259  _paused = true */\n      0x0100\n      exp\n      dup2\n      sload\n      dup2\n      0xff\n      mul\n      not\n      and\n      swap1\n      dup4\n      iszero\n      iszero\n      mul\n      or\n      swap1\n      sstore\n      pop\n        /* \"@openzeppelin/contracts/security/Pausable.sol\":2274:2294  Paused(_msgSender()) */\n      0x62e78cea01bee320cd4e420270b5ea74000d11b0c9f74754ebdbfc544b05a258\n        /* \"@openzeppelin/contracts/security/Pausable.sol\":2281:2293  _msgSender() */\n      tag_400\n        /* \"@openzeppelin/contracts/security/Pausable.sol\":2281:2291  _msgSender */\n      tag_229\n        /* \"@openzeppelin/contracts/security/Pausable.sol\":2281:2293  _msgSender() */\n      jump\t// in\n    tag_400:\n        /* \"@openzeppelin/contracts/security/Pausable.sol\":2274:2294  Paused(_msgSender()) */\n      mload(0x40)\n      tag_401\n      swap2\n      swap1\n      tag_65\n      jump\t// in\n    tag_401:\n      mload(0x40)\n      dup1\n      swap2\n      sub\n      swap1\n      log1\n        /* \"@openzeppelin/contracts/security/Pausable.sol\":2186:2301  function _pause() internal virtual whenNotPaused {... */\n      jump\t// out\n        /* \"@openzeppelin/contracts/access/AccessControl.sol\":3432:3629  function _checkRole(bytes32 role, address account) internal view virtual {... */\n    tag_374:\n        /* \"@openzeppelin/contracts/access/AccessControl.sol\":3520:3542  hasRole(role, account) */\n      tag_403\n        /* \"@openzeppelin/contracts/access/AccessControl.sol\":3528:3532  role */\n      dup3\n        /* \"@openzeppelin/contracts/access/AccessControl.sol\":3534:3541  account */\n      dup3\n        /* \"@openzeppelin/contracts/access/AccessControl.sol\":3520:3527  hasRole */\n      tag_148\n        /* \"@openzeppelin/contracts/access/AccessControl.sol\":3520:3542  hasRole(role, account) */\n      jump\t// in\n    tag_403:\n        /* \"@openzeppelin/contracts/access/AccessControl.sol\":3515:3623  if (!hasRole(role, account)) {... */\n      tag_404\n      jumpi\n        /* \"@openzeppelin/contracts/access/AccessControl.sol\":3598:3605  account */\n      dup1\n        /* \"@openzeppelin/contracts/access/AccessControl.sol\":3607:3611  role */\n      dup3\n        /* \"@openzeppelin/contracts/access/AccessControl.sol\":3565:3612  AccessControlUnauthorizedAccount(account, role) */\n      mload(0x40)\n      0xe2517d3f00000000000000000000000000000000000000000000000000000000\n      dup2\n      mstore\n      0x04\n      add\n      tag_405\n      swap3\n      swap2\n      swap1\n      tag_406\n      jump\t// in\n    tag_405:\n      mload(0x40)\n      dup1\n      swap2\n      sub\n      swap1\n      revert\n        /* \"@openzeppelin/contracts/access/AccessControl.sol\":3515:3623  if (!hasRole(role, account)) {... */\n    tag_404:\n        /* \"@openzeppelin/contracts/access/AccessControl.sol\":3432:3629  function _checkRole(bytes32 role, address account) internal view virtual {... */\n      pop\n      pop\n      jump\t// out\n        /* \"@openzeppelin/contracts/security/Pausable.sol\":1945:2051  function _requirePaused() internal view virtual {... */\n    tag_393:\n        /* \"@openzeppelin/contracts/security/Pausable.sol\":2011:2019  paused() */\n      tag_408\n        /* \"@openzeppelin/contracts/security/Pausable.sol\":2011:2017  paused */\n      tag_110\n        /* \"@openzeppelin/contracts/security/Pausable.sol\":2011:2019  paused() */\n      jump\t// in\n    tag_408:\n        /* \"@openzeppelin/contracts/security/Pausable.sol\":2003:2044  require(paused(), \"Pausable: not paused\") */\n      tag_409\n      jumpi\n      mload(0x40)\n      0x08c379a000000000000000000000000000000000000000000000000000000000\n      dup2\n      mstore\n      0x04\n      add\n      tag_410\n      swap1\n      tag_411\n      jump\t// in\n    tag_410:\n      mload(0x40)\n      dup1\n      swap2\n      sub\n      swap1\n      revert\n    tag_409:\n        /* \"@openzeppelin/contracts/security/Pausable.sol\":1945:2051  function _requirePaused() internal view virtual {... */\n      jump\t// out\n        /* \"#utility.yul\":7:176   */\n    tag_412:\n        /* \"#utility.yul\":91:102   */\n      0x00\n        /* \"#utility.yul\":125:131   */\n      dup3\n        /* \"#utility.yul\":120:123   */\n      dup3\n        /* \"#utility.yul\":113:132   */\n      mstore\n        /* \"#utility.yul\":165:169   */\n      0x20\n        /* \"#utility.yul\":160:163   */\n      dup3\n        /* \"#utility.yul\":156:170   */\n      add\n        /* \"#utility.yul\":141:170   */\n      swap1\n      pop\n        /* \"#utility.yul\":7:176   */\n      swap3\n      swap2\n      pop\n      pop\n      jump\t// out\n        /* \"#utility.yul\":182:359   */\n    tag_413:\n        /* \"#utility.yul\":322:351   */\n      0x446972656374207061796d656e7473206e6f7420616c6c6f7765640000000000\n        /* \"#utility.yul\":318:319   */\n      0x00\n        /* \"#utility.yul\":310:316   */\n      dup3\n        /* \"#utility.yul\":306:320   */\n      add\n        /* \"#utility.yul\":299:352   */\n      mstore\n        /* \"#utility.yul\":182:359   */\n      pop\n      jump\t// out\n        /* \"#utility.yul\":365:731   */\n    tag_414:\n        /* \"#utility.yul\":507:510   */\n      0x00\n        /* \"#utility.yul\":528:595   */\n      tag_501\n        /* \"#utility.yul\":592:594   */\n      0x1b\n        /* \"#utility.yul\":587:590   */\n      dup4\n        /* \"#utility.yul\":528:595   */\n      tag_412\n      jump\t// in\n    tag_501:\n        /* \"#utility.yul\":521:595   */\n      swap2\n      pop\n        /* \"#utility.yul\":604:697   */\n      tag_502\n        /* \"#utility.yul\":693:696   */\n      dup3\n        /* \"#utility.yul\":604:697   */\n      tag_413\n      jump\t// in\n    tag_502:\n        /* \"#utility.yul\":722:724   */\n      0x20\n        /* \"#utility.yul\":717:720   */\n      dup3\n        /* \"#utility.yul\":713:725   */\n      add\n        /* \"#utility.yul\":706:725   */\n      swap1\n      pop\n        /* \"#utility.yul\":365:731   */\n      swap2\n      swap1\n      pop\n      jump\t// out\n        /* \"#utility.yul\":737:1156   */\n    tag_49:\n        /* \"#utility.yul\":903:907   */\n      0x00\n        /* \"#utility.yul\":941:943   */\n      0x20\n        /* \"#utility.yul\":930:939   */\n      dup3\n        /* \"#utility.yul\":926:944   */\n      add\n        /* \"#utility.yul\":918:944   */\n      swap1\n      pop\n        /* \"#utility.yul\":990:999   */\n      dup2\n        /* \"#utility.yul\":984:988   */\n      dup2\n        /* \"#utility.yul\":980:1000   */\n      sub\n        /* \"#utility.yul\":976:977   */\n      0x00\n        /* \"#utility.yul\":965:974   */\n      dup4\n        /* \"#utility.yul\":961:978   */\n      add\n        /* \"#utility.yul\":954:1001   */\n      mstore\n        /* \"#utility.yul\":1018:1149   */\n      tag_504\n        /* \"#utility.yul\":1144:1148   */\n      dup2\n        /* \"#utility.yul\":1018:1149   */\n      tag_414\n      jump\t// in\n    tag_504:\n        /* \"#utility.yul\":1010:1149   */\n      swap1\n      pop\n        /* \"#utility.yul\":737:1156   */\n      swap2\n      swap1\n      pop\n      jump\t// out\n        /* \"#utility.yul\":1162:1402   */\n    tag_415:\n        /* \"#utility.yul\":1302:1336   */\n      0x46756e6374696f6e20646f6573206e6f74206578697374206f72206469726563\n        /* \"#utility.yul\":1298:1299   */\n      0x00\n        /* \"#utility.yul\":1290:1296   */\n      dup3\n        /* \"#utility.yul\":1286:1300   */\n      add\n        /* \"#utility.yul\":1279:1337   */\n      mstore\n        /* \"#utility.yul\":1371:1394   */\n      0x74207061796d656e74206e6f7420616c6c6f7765640000000000000000000000\n        /* \"#utility.yul\":1366:1368   */\n      0x20\n        /* \"#utility.yul\":1358:1364   */\n      dup3\n        /* \"#utility.yul\":1354:1369   */\n      add\n        /* \"#utility.yul\":1347:1395   */\n      mstore\n        /* \"#utility.yul\":1162:1402   */\n      pop\n      jump\t// out\n        /* \"#utility.yul\":1408:1774   */\n    tag_416:\n        /* \"#utility.yul\":1550:1553   */\n      0x00\n        /* \"#utility.yul\":1571:1638   */\n      tag_507\n        /* \"#utility.yul\":1635:1637   */\n      0x35\n        /* \"#utility.yul\":1630:1633   */\n      dup4\n        /* \"#utility.yul\":1571:1638   */\n      tag_412\n      jump\t// in\n    tag_507:\n        /* \"#utility.yul\":1564:1638   */\n      swap2\n      pop\n        /* \"#utility.yul\":1647:1740   */\n      tag_508\n        /* \"#utility.yul\":1736:1739   */\n      dup3\n        /* \"#utility.yul\":1647:1740   */\n      tag_415\n      jump\t// in\n    tag_508:\n        /* \"#utility.yul\":1765:1767   */\n      0x40\n        /* \"#utility.yul\":1760:1763   */\n      dup3\n        /* \"#utility.yul\":1756:1768   */\n      add\n        /* \"#utility.yul\":1749:1768   */\n      swap1\n      pop\n        /* \"#utility.yul\":1408:1774   */\n      swap2\n      swap1\n      pop\n      jump\t// out\n        /* \"#utility.yul\":1780:2199   */\n    tag_53:\n        /* \"#utility.yul\":1946:1950   */\n      0x00\n        /* \"#utility.yul\":1984:1986   */\n      0x20\n        /* \"#utility.yul\":1973:1982   */\n      dup3\n        /* \"#utility.yul\":1969:1987   */\n      add\n        /* \"#utility.yul\":1961:1987   */\n      swap1\n      pop\n        /* \"#utility.yul\":2033:2042   */\n      dup2\n        /* \"#utility.yul\":2027:2031   */\n      dup2\n        /* \"#utility.yul\":2023:2043   */\n      sub\n        /* \"#utility.yul\":2019:2020   */\n      0x00\n        /* \"#utility.yul\":2008:2017   */\n      dup4\n        /* \"#utility.yul\":2004:2021   */\n      add\n        /* \"#utility.yul\":1997:2044   */\n      mstore\n        /* \"#utility.yul\":2061:2192   */\n      tag_510\n        /* \"#utility.yul\":2187:2191   */\n      dup2\n        /* \"#utility.yul\":2061:2192   */\n      tag_416\n      jump\t// in\n    tag_510:\n        /* \"#utility.yul\":2053:2192   */\n      swap1\n      pop\n        /* \"#utility.yul\":1780:2199   */\n      swap2\n      swap1\n      pop\n      jump\t// out\n        /* \"#utility.yul\":2205:2280   */\n    tag_417:\n        /* \"#utility.yul\":2238:2244   */\n      0x00\n        /* \"#utility.yul\":2271:2273   */\n      0x40\n        /* \"#utility.yul\":2265:2274   */\n      mload\n        /* \"#utility.yul\":2255:2274   */\n      swap1\n      pop\n        /* \"#utility.yul\":2205:2280   */\n      swap1\n      jump\t// out\n        /* \"#utility.yul\":2286:2403   */\n    tag_418:\n        /* \"#utility.yul\":2395:2396   */\n      0x00\n        /* \"#utility.yul\":2392:2393   */\n      0x00\n        /* \"#utility.yul\":2385:2397   */\n      revert\n        /* \"#utility.yul\":2409:2526   */\n    tag_419:\n        /* \"#utility.yul\":2518:2519   */\n      0x00\n        /* \"#utility.yul\":2515:2516   */\n      0x00\n        /* \"#utility.yul\":2508:2520   */\n      revert\n        /* \"#utility.yul\":2532:2681   */\n    tag_420:\n        /* \"#utility.yul\":2568:2575   */\n      0x00\n        /* \"#utility.yul\":2608:2674   */\n      0xffffffff00000000000000000000000000000000000000000000000000000000\n        /* \"#utility.yul\":2601:2606   */\n      dup3\n        /* \"#utility.yul\":2597:2675   */\n      and\n        /* \"#utility.yul\":2586:2675   */\n      swap1\n      pop\n        /* \"#utility.yul\":2532:2681   */\n      swap2\n      swap1\n      pop\n      jump\t// out\n        /* \"#utility.yul\":2687:2807   */\n    tag_421:\n        /* \"#utility.yul\":2759:2782   */\n      tag_516\n        /* \"#utility.yul\":2776:2781   */\n      dup2\n        /* \"#utility.yul\":2759:2782   */\n      tag_420\n      jump\t// in\n    tag_516:\n        /* \"#utility.yul\":2752:2757   */\n      dup2\n        /* \"#utility.yul\":2749:2783   */\n      eq\n        /* \"#utility.yul\":2739:2801   */\n      tag_517\n      jumpi\n        /* \"#utility.yul\":2797:2798   */\n      0x00\n        /* \"#utility.yul\":2794:2795   */\n      0x00\n        /* \"#utility.yul\":2787:2799   */\n      revert\n        /* \"#utility.yul\":2739:2801   */\n    tag_517:\n        /* \"#utility.yul\":2687:2807   */\n      pop\n      jump\t// out\n        /* \"#utility.yul\":2813:2950   */\n    tag_422:\n        /* \"#utility.yul\":2858:2863   */\n      0x00\n        /* \"#utility.yul\":2896:2902   */\n      dup2\n        /* \"#utility.yul\":2883:2903   */\n      calldataload\n        /* \"#utility.yul\":2874:2903   */\n      swap1\n      pop\n        /* \"#utility.yul\":2912:2944   */\n      tag_519\n        /* \"#utility.yul\":2938:2943   */\n      dup2\n        /* \"#utility.yul\":2912:2944   */\n      tag_421\n      jump\t// in\n    tag_519:\n        /* \"#utility.yul\":2813:2950   */\n      swap3\n      swap2\n      pop\n      pop\n      jump\t// out\n        /* \"#utility.yul\":2956:3283   */\n    tag_57:\n        /* \"#utility.yul\":3014:3020   */\n      0x00\n        /* \"#utility.yul\":3063:3065   */\n      0x20\n        /* \"#utility.yul\":3051:3060   */\n      dup3\n        /* \"#utility.yul\":3042:3049   */\n      dup5\n        /* \"#utility.yul\":3038:3061   */\n      sub\n        /* \"#utility.yul\":3034:3066   */\n      slt\n        /* \"#utility.yul\":3031:3150   */\n      iszero\n      tag_521\n      jumpi\n        /* \"#utility.yul\":3069:3148   */\n      tag_522\n      tag_418\n      jump\t// in\n    tag_522:\n        /* \"#utility.yul\":3031:3150   */\n    tag_521:\n        /* \"#utility.yul\":3189:3190   */\n      0x00\n        /* \"#utility.yul\":3214:3266   */\n      tag_523\n        /* \"#utility.yul\":3258:3265   */\n      dup5\n        /* \"#utility.yul\":3249:3255   */\n      dup3\n        /* \"#utility.yul\":3238:3247   */\n      dup6\n        /* \"#utility.yul\":3234:3256   */\n      add\n        /* \"#utility.yul\":3214:3266   */\n      tag_422\n      jump\t// in\n    tag_523:\n        /* \"#utility.yul\":3204:3266   */\n      swap2\n      pop\n        /* \"#utility.yul\":3160:3276   */\n      pop\n        /* \"#utility.yul\":2956:3283   */\n      swap3\n      swap2\n      pop\n      pop\n      jump\t// out\n        /* \"#utility.yul\":3289:3379   */\n    tag_423:\n        /* \"#utility.yul\":3323:3330   */\n      0x00\n        /* \"#utility.yul\":3366:3371   */\n      dup2\n        /* \"#utility.yul\":3359:3372   */\n      iszero\n        /* \"#utility.yul\":3352:3373   */\n      iszero\n        /* \"#utility.yul\":3341:3373   */\n      swap1\n      pop\n        /* \"#utility.yul\":3289:3379   */\n      swap2\n      swap1\n      pop\n      jump\t// out\n        /* \"#utility.yul\":3385:3494   */\n    tag_424:\n        /* \"#utility.yul\":3466:3487   */\n      tag_526\n        /* \"#utility.yul\":3481:3486   */\n      dup2\n        /* \"#utility.yul\":3466:3487   */\n      tag_423\n      jump\t// in\n    tag_526:\n        /* \"#utility.yul\":3461:3464   */\n      dup3\n        /* \"#utility.yul\":3454:3488   */\n      mstore\n        /* \"#utility.yul\":3385:3494   */\n      pop\n      pop\n      jump\t// out\n        /* \"#utility.yul\":3500:3710   */\n    tag_60:\n        /* \"#utility.yul\":3587:3591   */\n      0x00\n        /* \"#utility.yul\":3625:3627   */\n      0x20\n        /* \"#utility.yul\":3614:3623   */\n      dup3\n        /* \"#utility.yul\":3610:3628   */\n      add\n        /* \"#utility.yul\":3602:3628   */\n      swap1\n      pop\n        /* \"#utility.yul\":3638:3703   */\n      tag_528\n        /* \"#utility.yul\":3700:3701   */\n      0x00\n        /* \"#utility.yul\":3689:3698   */\n      dup4\n        /* \"#utility.yul\":3685:3702   */\n      add\n        /* \"#utility.yul\":3676:3682   */\n      dup5\n        /* \"#utility.yul\":3638:3703   */\n      tag_424\n      jump\t// in\n    tag_528:\n        /* \"#utility.yul\":3500:3710   */\n      swap3\n      swap2\n      pop\n      pop\n      jump\t// out\n        /* \"#utility.yul\":3716:3842   */\n    tag_425:\n        /* \"#utility.yul\":3753:3760   */\n      0x00\n        /* \"#utility.yul\":3793:3835   */\n      0xffffffffffffffffffffffffffffffffffffffff\n        /* \"#utility.yul\":3786:3791   */\n      dup3\n        /* \"#utility.yul\":3782:3836   */\n      and\n        /* \"#utility.yul\":3771:3836   */\n      swap1\n      pop\n        /* \"#utility.yul\":3716:3842   */\n      swap2\n      swap1\n      pop\n      jump\t// out\n        /* \"#utility.yul\":3848:3944   */\n    tag_426:\n        /* \"#utility.yul\":3885:3892   */\n      0x00\n        /* \"#utility.yul\":3914:3938   */\n      tag_531\n        /* \"#utility.yul\":3932:3937   */\n      dup3\n        /* \"#utility.yul\":3914:3938   */\n      tag_425\n      jump\t// in\n    tag_531:\n        /* \"#utility.yul\":3903:3938   */\n      swap1\n      pop\n        /* \"#utility.yul\":3848:3944   */\n      swap2\n      swap1\n      pop\n      jump\t// out\n        /* \"#utility.yul\":3950:4068   */\n    tag_427:\n        /* \"#utility.yul\":4037:4061   */\n      tag_533\n        /* \"#utility.yul\":4055:4060   */\n      dup2\n        /* \"#utility.yul\":4037:4061   */\n      tag_426\n      jump\t// in\n    tag_533:\n        /* \"#utility.yul\":4032:4035   */\n      dup3\n        /* \"#utility.yul\":4025:4062   */\n      mstore\n        /* \"#utility.yul\":3950:4068   */\n      pop\n      pop\n      jump\t// out\n        /* \"#utility.yul\":4074:4296   */\n    tag_65:\n        /* \"#utility.yul\":4167:4171   */\n      0x00\n        /* \"#utility.yul\":4205:4207   */\n      0x20\n        /* \"#utility.yul\":4194:4203   */\n      dup3\n        /* \"#utility.yul\":4190:4208   */\n      add\n        /* \"#utility.yul\":4182:4208   */\n      swap1\n      pop\n        /* \"#utility.yul\":4218:4289   */\n      tag_535\n        /* \"#utility.yul\":4286:4287   */\n      0x00\n        /* \"#utility.yul\":4275:4284   */\n      dup4\n        /* \"#utility.yul\":4271:4288   */\n      add\n        /* \"#utility.yul\":4262:4268   */\n      dup5\n        /* \"#utility.yul\":4218:4289   */\n      tag_427\n      jump\t// in\n    tag_535:\n        /* \"#utility.yul\":4074:4296   */\n      swap3\n      swap2\n      pop\n      pop\n      jump\t// out\n        /* \"#utility.yul\":4302:4379   */\n    tag_428:\n        /* \"#utility.yul\":4339:4346   */\n      0x00\n        /* \"#utility.yul\":4368:4373   */\n      dup2\n        /* \"#utility.yul\":4357:4373   */\n      swap1\n      pop\n        /* \"#utility.yul\":4302:4379   */\n      swap2\n      swap1\n      pop\n      jump\t// out\n        /* \"#utility.yul\":4385:4507   */\n    tag_429:\n        /* \"#utility.yul\":4458:4482   */\n      tag_538\n        /* \"#utility.yul\":4476:4481   */\n      dup2\n        /* \"#utility.yul\":4458:4482   */\n      tag_428\n      jump\t// in\n    tag_538:\n        /* \"#utility.yul\":4451:4456   */\n      dup2\n        /* \"#utility.yul\":4448:4483   */\n      eq\n        /* \"#utility.yul\":4438:4501   */\n      tag_539\n      jumpi\n        /* \"#utility.yul\":4497:4498   */\n      0x00\n        /* \"#utility.yul\":4494:4495   */\n      0x00\n        /* \"#utility.yul\":4487:4499   */\n      revert\n        /* \"#utility.yul\":4438:4501   */\n    tag_539:\n        /* \"#utility.yul\":4385:4507   */\n      pop\n      jump\t// out\n        /* \"#utility.yul\":4513:4652   */\n    tag_430:\n        /* \"#utility.yul\":4559:4564   */\n      0x00\n        /* \"#utility.yul\":4597:4603   */\n      dup2\n        /* \"#utility.yul\":4584:4604   */\n      calldataload\n        /* \"#utility.yul\":4575:4604   */\n      swap1\n      pop\n        /* \"#utility.yul\":4613:4646   */\n      tag_541\n        /* \"#utility.yul\":4640:4645   */\n      dup2\n        /* \"#utility.yul\":4613:4646   */\n      tag_429\n      jump\t// in\n    tag_541:\n        /* \"#utility.yul\":4513:4652   */\n      swap3\n      swap2\n      pop\n      pop\n      jump\t// out\n        /* \"#utility.yul\":4658:4987   */\n    tag_69:\n        /* \"#utility.yul\":4717:4723   */\n      0x00\n        /* \"#utility.yul\":4766:4768   */\n      0x20\n        /* \"#utility.yul\":4754:4763   */\n      dup3\n        /* \"#utility.yul\":4745:4752   */\n      dup5\n        /* \"#utility.yul\":4741:4764   */\n      sub\n        /* \"#utility.yul\":4737:4769   */\n      slt\n        /* \"#utility.yul\":4734:4853   */\n      iszero\n      tag_543\n      jumpi\n        /* \"#utility.yul\":4772:4851   */\n      tag_544\n      tag_418\n      jump\t// in\n    tag_544:\n        /* \"#utility.yul\":4734:4853   */\n    tag_543:\n        /* \"#utility.yul\":4892:4893   */\n      0x00\n        /* \"#utility.yul\":4917:4970   */\n      tag_545\n        /* \"#utility.yul\":4962:4969   */\n      dup5\n        /* \"#utility.yul\":4953:4959   */\n      dup3\n        /* \"#utility.yul\":4942:4951   */\n      dup6\n        /* \"#utility.yul\":4938:4960   */\n      add\n        /* \"#utility.yul\":4917:4970   */\n      tag_430\n      jump\t// in\n    tag_545:\n        /* \"#utility.yul\":4907:4970   */\n      swap2\n      pop\n        /* \"#utility.yul\":4863:4980   */\n      pop\n        /* \"#utility.yul\":4658:4987   */\n      swap3\n      swap2\n      pop\n      pop\n      jump\t// out\n        /* \"#utility.yul\":4993:5111   */\n    tag_431:\n        /* \"#utility.yul\":5080:5104   */\n      tag_547\n        /* \"#utility.yul\":5098:5103   */\n      dup2\n        /* \"#utility.yul\":5080:5104   */\n      tag_428\n      jump\t// in\n    tag_547:\n        /* \"#utility.yul\":5075:5078   */\n      dup3\n        /* \"#utility.yul\":5068:5105   */\n      mstore\n        /* \"#utility.yul\":4993:5111   */\n      pop\n      pop\n      jump\t// out\n        /* \"#utility.yul\":5117:5339   */\n    tag_72:\n        /* \"#utility.yul\":5210:5214   */\n      0x00\n        /* \"#utility.yul\":5248:5250   */\n      0x20\n        /* \"#utility.yul\":5237:5246   */\n      dup3\n        /* \"#utility.yul\":5233:5251   */\n      add\n        /* \"#utility.yul\":5225:5251   */\n      swap1\n      pop\n        /* \"#utility.yul\":5261:5332   */\n      tag_549\n        /* \"#utility.yul\":5329:5330   */\n      0x00\n        /* \"#utility.yul\":5318:5327   */\n      dup4\n        /* \"#utility.yul\":5314:5331   */\n      add\n        /* \"#utility.yul\":5305:5311   */\n      dup5\n        /* \"#utility.yul\":5261:5332   */\n      tag_431\n      jump\t// in\n    tag_549:\n        /* \"#utility.yul\":5117:5339   */\n      swap3\n      swap2\n      pop\n      pop\n      jump\t// out\n        /* \"#utility.yul\":5345:5467   */\n    tag_432:\n        /* \"#utility.yul\":5418:5442   */\n      tag_551\n        /* \"#utility.yul\":5436:5441   */\n      dup2\n        /* \"#utility.yul\":5418:5442   */\n      tag_426\n      jump\t// in\n    tag_551:\n        /* \"#utility.yul\":5411:5416   */\n      dup2\n        /* \"#utility.yul\":5408:5443   */\n      eq\n        /* \"#utility.yul\":5398:5461   */\n      tag_552\n      jumpi\n        /* \"#utility.yul\":5457:5458   */\n      0x00\n        /* \"#utility.yul\":5454:5455   */\n      0x00\n        /* \"#utility.yul\":5447:5459   */\n      revert\n        /* \"#utility.yul\":5398:5461   */\n    tag_552:\n        /* \"#utility.yul\":5345:5467   */\n      pop\n      jump\t// out\n        /* \"#utility.yul\":5473:5612   */\n    tag_433:\n        /* \"#utility.yul\":5519:5524   */\n      0x00\n        /* \"#utility.yul\":5557:5563   */\n      dup2\n        /* \"#utility.yul\":5544:5564   */\n      calldataload\n        /* \"#utility.yul\":5535:5564   */\n      swap1\n      pop\n        /* \"#utility.yul\":5573:5606   */\n      tag_554\n        /* \"#utility.yul\":5600:5605   */\n      dup2\n        /* \"#utility.yul\":5573:5606   */\n      tag_432\n      jump\t// in\n    tag_554:\n        /* \"#utility.yul\":5473:5612   */\n      swap3\n      swap2\n      pop\n      pop\n      jump\t// out\n        /* \"#utility.yul\":5618:6092   */\n    tag_76:\n        /* \"#utility.yul\":5686:5692   */\n      0x00\n        /* \"#utility.yul\":5694:5700   */\n      0x00\n        /* \"#utility.yul\":5743:5745   */\n      0x40\n        /* \"#utility.yul\":5731:5740   */\n      dup4\n        /* \"#utility.yul\":5722:5729   */\n      dup6\n        /* \"#utility.yul\":5718:5741   */\n      sub\n        /* \"#utility.yul\":5714:5746   */\n      slt\n        /* \"#utility.yul\":5711:5830   */\n      iszero\n      tag_556\n      jumpi\n        /* \"#utility.yul\":5749:5828   */\n      tag_557\n      tag_418\n      jump\t// in\n    tag_557:\n        /* \"#utility.yul\":5711:5830   */\n    tag_556:\n        /* \"#utility.yul\":5869:5870   */\n      0x00\n        /* \"#utility.yul\":5894:5947   */\n      tag_558\n        /* \"#utility.yul\":5939:5946   */\n      dup6\n        /* \"#utility.yul\":5930:5936   */\n      dup3\n        /* \"#utility.yul\":5919:5928   */\n      dup7\n        /* \"#utility.yul\":5915:5937   */\n      add\n        /* \"#utility.yul\":5894:5947   */\n      tag_430\n      jump\t// in\n    tag_558:\n        /* \"#utility.yul\":5884:5947   */\n      swap3\n      pop\n        /* \"#utility.yul\":5840:5957   */\n      pop\n        /* \"#utility.yul\":5996:5998   */\n      0x20\n        /* \"#utility.yul\":6022:6075   */\n      tag_559\n        /* \"#utility.yul\":6067:6074   */\n      dup6\n        /* \"#utility.yul\":6058:6064   */\n      dup3\n        /* \"#utility.yul\":6047:6056   */\n      dup7\n        /* \"#utility.yul\":6043:6065   */\n      add\n        /* \"#utility.yul\":6022:6075   */\n      tag_433\n      jump\t// in\n    tag_559:\n        /* \"#utility.yul\":6012:6075   */\n      swap2\n      pop\n        /* \"#utility.yul\":5967:6085   */\n      pop\n        /* \"#utility.yul\":5618:6092   */\n      swap3\n      pop\n      swap3\n      swap1\n      pop\n      jump\t// out\n        /* \"#utility.yul\":6098:6184   */\n    tag_434:\n        /* \"#utility.yul\":6133:6140   */\n      0x00\n        /* \"#utility.yul\":6173:6177   */\n      0xff\n        /* \"#utility.yul\":6166:6171   */\n      dup3\n        /* \"#utility.yul\":6162:6178   */\n      and\n        /* \"#utility.yul\":6151:6178   */\n      swap1\n      pop\n        /* \"#utility.yul\":6098:6184   */\n      swap2\n      swap1\n      pop\n      jump\t// out\n        /* \"#utility.yul\":6190:6302   */\n    tag_435:\n        /* \"#utility.yul\":6273:6295   */\n      tag_562\n        /* \"#utility.yul\":6289:6294   */\n      dup2\n        /* \"#utility.yul\":6273:6295   */\n      tag_434\n      jump\t// in\n    tag_562:\n        /* \"#utility.yul\":6268:6271   */\n      dup3\n        /* \"#utility.yul\":6261:6296   */\n      mstore\n        /* \"#utility.yul\":6190:6302   */\n      pop\n      pop\n      jump\t// out\n        /* \"#utility.yul\":6308:6522   */\n    tag_82:\n        /* \"#utility.yul\":6397:6401   */\n      0x00\n        /* \"#utility.yul\":6435:6437   */\n      0x20\n        /* \"#utility.yul\":6424:6433   */\n      dup3\n        /* \"#utility.yul\":6420:6438   */\n      add\n        /* \"#utility.yul\":6412:6438   */\n      swap1\n      pop\n        /* \"#utility.yul\":6448:6515   */\n      tag_564\n        /* \"#utility.yul\":6512:6513   */\n      0x00\n        /* \"#utility.yul\":6501:6510   */\n      dup4\n        /* \"#utility.yul\":6497:6514   */\n      add\n        /* \"#utility.yul\":6488:6494   */\n      dup5\n        /* \"#utility.yul\":6448:6515   */\n      tag_435\n      jump\t// in\n    tag_564:\n        /* \"#utility.yul\":6308:6522   */\n      swap3\n      swap2\n      pop\n      pop\n      jump\t// out\n        /* \"#utility.yul\":6528:6605   */\n    tag_436:\n        /* \"#utility.yul\":6565:6572   */\n      0x00\n        /* \"#utility.yul\":6594:6599   */\n      dup2\n        /* \"#utility.yul\":6583:6599   */\n      swap1\n      pop\n        /* \"#utility.yul\":6528:6605   */\n      swap2\n      swap1\n      pop\n      jump\t// out\n        /* \"#utility.yul\":6611:6733   */\n    tag_437:\n        /* \"#utility.yul\":6684:6708   */\n      tag_567\n        /* \"#utility.yul\":6702:6707   */\n      dup2\n        /* \"#utility.yul\":6684:6708   */\n      tag_436\n      jump\t// in\n    tag_567:\n        /* \"#utility.yul\":6677:6682   */\n      dup2\n        /* \"#utility.yul\":6674:6709   */\n      eq\n        /* \"#utility.yul\":6664:6727   */\n      tag_568\n      jumpi\n        /* \"#utility.yul\":6723:6724   */\n      0x00\n        /* \"#utility.yul\":6720:6721   */\n      0x00\n        /* \"#utility.yul\":6713:6725   */\n      revert\n        /* \"#utility.yul\":6664:6727   */\n    tag_568:\n        /* \"#utility.yul\":6611:6733   */\n      pop\n      jump\t// out\n        /* \"#utility.yul\":6739:6878   */\n    tag_438:\n        /* \"#utility.yul\":6785:6790   */\n      0x00\n        /* \"#utility.yul\":6823:6829   */\n      dup2\n        /* \"#utility.yul\":6810:6830   */\n      calldataload\n        /* \"#utility.yul\":6801:6830   */\n      swap1\n      pop\n        /* \"#utility.yul\":6839:6872   */\n      tag_570\n        /* \"#utility.yul\":6866:6871   */\n      dup2\n        /* \"#utility.yul\":6839:6872   */\n      tag_437\n      jump\t// in\n    tag_570:\n        /* \"#utility.yul\":6739:6878   */\n      swap3\n      swap2\n      pop\n      pop\n      jump\t// out\n        /* \"#utility.yul\":6884:7213   */\n    tag_90:\n        /* \"#utility.yul\":6943:6949   */\n      0x00\n        /* \"#utility.yul\":6992:6994   */\n      0x20\n        /* \"#utility.yul\":6980:6989   */\n      dup3\n        /* \"#utility.yul\":6971:6978   */\n      dup5\n        /* \"#utility.yul\":6967:6990   */\n      sub\n        /* \"#utility.yul\":6963:6995   */\n      slt\n        /* \"#utility.yul\":6960:7079   */\n      iszero\n      tag_572\n      jumpi\n        /* \"#utility.yul\":6998:7077   */\n      tag_573\n      tag_418\n      jump\t// in\n    tag_573:\n        /* \"#utility.yul\":6960:7079   */\n    tag_572:\n        /* \"#utility.yul\":7118:7119   */\n      0x00\n        /* \"#utility.yul\":7143:7196   */\n      tag_574\n        /* \"#utility.yul\":7188:7195   */\n      dup5\n        /* \"#utility.yul\":7179:7185   */\n      dup3\n        /* \"#utility.yul\":7168:7177   */\n      dup6\n        /* \"#utility.yul\":7164:7186   */\n      add\n        /* \"#utility.yul\":7143:7196   */\n      tag_438\n      jump\t// in\n    tag_574:\n        /* \"#utility.yul\":7133:7196   */\n      swap2\n      pop\n        /* \"#utility.yul\":7089:7206   */\n      pop\n        /* \"#utility.yul\":6884:7213   */\n      swap3\n      swap2\n      pop\n      pop\n      jump\t// out\n        /* \"#utility.yul\":7219:7548   */\n    tag_102:\n        /* \"#utility.yul\":7278:7284   */\n      0x00\n        /* \"#utility.yul\":7327:7329   */\n      0x20\n        /* \"#utility.yul\":7315:7324   */\n      dup3\n        /* \"#utility.yul\":7306:7313   */\n      dup5\n        /* \"#utility.yul\":7302:7325   */\n      sub\n        /* \"#utility.yul\":7298:7330   */\n      slt\n        /* \"#utility.yul\":7295:7414   */\n      iszero\n      tag_576\n      jumpi\n        /* \"#utility.yul\":7333:7412   */\n      tag_577\n      tag_418\n      jump\t// in\n    tag_577:\n        /* \"#utility.yul\":7295:7414   */\n    tag_576:\n        /* \"#utility.yul\":7453:7454   */\n      0x00\n        /* \"#utility.yul\":7478:7531   */\n      tag_578\n        /* \"#utility.yul\":7523:7530   */\n      dup5\n        /* \"#utility.yul\":7514:7520   */\n      dup3\n        /* \"#utility.yul\":7503:7512   */\n      dup6\n        /* \"#utility.yul\":7499:7521   */\n      add\n        /* \"#utility.yul\":7478:7531   */\n      tag_433\n      jump\t// in\n    tag_578:\n        /* \"#utility.yul\":7468:7531   */\n      swap2\n      pop\n        /* \"#utility.yul\":7424:7541   */\n      pop\n        /* \"#utility.yul\":7219:7548   */\n      swap3\n      swap2\n      pop\n      pop\n      jump\t// out\n        /* \"#utility.yul\":7554:7653   */\n    tag_439:\n        /* \"#utility.yul\":7606:7612   */\n      0x00\n        /* \"#utility.yul\":7640:7645   */\n      dup2\n        /* \"#utility.yul\":7634:7646   */\n      mload\n        /* \"#utility.yul\":7624:7646   */\n      swap1\n      pop\n        /* \"#utility.yul\":7554:7653   */\n      swap2\n      swap1\n      pop\n      jump\t// out\n        /* \"#utility.yul\":7659:7798   */\n    tag_440:\n        /* \"#utility.yul\":7748:7754   */\n      dup3\n        /* \"#utility.yul\":7743:7746   */\n      dup2\n        /* \"#utility.yul\":7738:7741   */\n      dup4\n        /* \"#utility.yul\":7732:7755   */\n      mcopy\n        /* \"#utility.yul\":7789:7790   */\n      0x00\n        /* \"#utility.yul\":7780:7786   */\n      dup4\n        /* \"#utility.yul\":7775:7778   */\n      dup4\n        /* \"#utility.yul\":7771:7787   */\n      add\n        /* \"#utility.yul\":7764:7791   */\n      mstore\n        /* \"#utility.yul\":7659:7798   */\n      pop\n      pop\n      pop\n      jump\t// out\n        /* \"#utility.yul\":7804:7906   */\n    tag_441:\n        /* \"#utility.yul\":7845:7851   */\n      0x00\n        /* \"#utility.yul\":7896:7898   */\n      0x1f\n        /* \"#utility.yul\":7892:7899   */\n      not\n        /* \"#utility.yul\":7887:7889   */\n      0x1f\n        /* \"#utility.yul\":7880:7885   */\n      dup4\n        /* \"#utility.yul\":7876:7890   */\n      add\n        /* \"#utility.yul\":7872:7900   */\n      and\n        /* \"#utility.yul\":7862:7900   */\n      swap1\n      pop\n        /* \"#utility.yul\":7804:7906   */\n      swap2\n      swap1\n      pop\n      jump\t// out\n        /* \"#utility.yul\":7912:8289   */\n    tag_442:\n        /* \"#utility.yul\":8000:8003   */\n      0x00\n        /* \"#utility.yul\":8028:8067   */\n      tag_583\n        /* \"#utility.yul\":8061:8066   */\n      dup3\n        /* \"#utility.yul\":8028:8067   */\n      tag_439\n      jump\t// in\n    tag_583:\n        /* \"#utility.yul\":8083:8154   */\n      tag_584\n        /* \"#utility.yul\":8147:8153   */\n      dup2\n        /* \"#utility.yul\":8142:8145   */\n      dup6\n        /* \"#utility.yul\":8083:8154   */\n      tag_412\n      jump\t// in\n    tag_584:\n        /* \"#utility.yul\":8076:8154   */\n      swap4\n      pop\n        /* \"#utility.yul\":8163:8228   */\n      tag_585\n        /* \"#utility.yul\":8221:8227   */\n      dup2\n        /* \"#utility.yul\":8216:8219   */\n      dup6\n        /* \"#utility.yul\":8209:8213   */\n      0x20\n        /* \"#utility.yul\":8202:8207   */\n      dup7\n        /* \"#utility.yul\":8198:8214   */\n      add\n        /* \"#utility.yul\":8163:8228   */\n      tag_440\n      jump\t// in\n    tag_585:\n        /* \"#utility.yul\":8253:8282   */\n      tag_586\n        /* \"#utility.yul\":8275:8281   */\n      dup2\n        /* \"#utility.yul\":8253:8282   */\n      tag_441\n      jump\t// in\n    tag_586:\n        /* \"#utility.yul\":8248:8251   */\n      dup5\n        /* \"#utility.yul\":8244:8283   */\n      add\n        /* \"#utility.yul\":8237:8283   */\n      swap2\n      pop\n        /* \"#utility.yul\":8004:8289   */\n      pop\n        /* \"#utility.yul\":7912:8289   */\n      swap3\n      swap2\n      pop\n      pop\n      jump\t// out\n        /* \"#utility.yul\":8295:8413   */\n    tag_443:\n        /* \"#utility.yul\":8382:8406   */\n      tag_588\n        /* \"#utility.yul\":8400:8405   */\n      dup2\n        /* \"#utility.yul\":8382:8406   */\n      tag_436\n      jump\t// in\n    tag_588:\n        /* \"#utility.yul\":8377:8380   */\n      dup3\n        /* \"#utility.yul\":8370:8407   */\n      mstore\n        /* \"#utility.yul\":8295:8413   */\n      pop\n      pop\n      jump\t// out\n        /* \"#utility.yul\":8419:9162   */\n    tag_137:\n        /* \"#utility.yul\":8638:8642   */\n      0x00\n        /* \"#utility.yul\":8676:8679   */\n      0xa0\n        /* \"#utility.yul\":8665:8674   */\n      dup3\n        /* \"#utility.yul\":8661:8680   */\n      add\n        /* \"#utility.yul\":8653:8680   */\n      swap1\n      pop\n        /* \"#utility.yul\":8726:8735   */\n      dup2\n        /* \"#utility.yul\":8720:8724   */\n      dup2\n        /* \"#utility.yul\":8716:8736   */\n      sub\n        /* \"#utility.yul\":8712:8713   */\n      0x00\n        /* \"#utility.yul\":8701:8710   */\n      dup4\n        /* \"#utility.yul\":8697:8714   */\n      add\n        /* \"#utility.yul\":8690:8737   */\n      mstore\n        /* \"#utility.yul\":8754:8832   */\n      tag_590\n        /* \"#utility.yul\":8827:8831   */\n      dup2\n        /* \"#utility.yul\":8818:8824   */\n      dup9\n        /* \"#utility.yul\":8754:8832   */\n      tag_442\n      jump\t// in\n    tag_590:\n        /* \"#utility.yul\":8746:8832   */\n      swap1\n      pop\n        /* \"#utility.yul\":8842:8914   */\n      tag_591\n        /* \"#utility.yul\":8910:8912   */\n      0x20\n        /* \"#utility.yul\":8899:8908   */\n      dup4\n        /* \"#utility.yul\":8895:8913   */\n      add\n        /* \"#utility.yul\":8886:8892   */\n      dup8\n        /* \"#utility.yul\":8842:8914   */\n      tag_443\n      jump\t// in\n    tag_591:\n        /* \"#utility.yul\":8924:8996   */\n      tag_592\n        /* \"#utility.yul\":8992:8994   */\n      0x40\n        /* \"#utility.yul\":8981:8990   */\n      dup4\n        /* \"#utility.yul\":8977:8995   */\n      add\n        /* \"#utility.yul\":8968:8974   */\n      dup7\n        /* \"#utility.yul\":8924:8996   */\n      tag_427\n      jump\t// in\n    tag_592:\n        /* \"#utility.yul\":9006:9072   */\n      tag_593\n        /* \"#utility.yul\":9068:9070   */\n      0x60\n        /* \"#utility.yul\":9057:9066   */\n      dup4\n        /* \"#utility.yul\":9053:9071   */\n      add\n        /* \"#utility.yul\":9044:9050   */\n      dup6\n        /* \"#utility.yul\":9006:9072   */\n      tag_424\n      jump\t// in\n    tag_593:\n        /* \"#utility.yul\":9082:9155   */\n      tag_594\n        /* \"#utility.yul\":9150:9153   */\n      0x80\n        /* \"#utility.yul\":9139:9148   */\n      dup4\n        /* \"#utility.yul\":9135:9154   */\n      add\n        /* \"#utility.yul\":9126:9132   */\n      dup5\n        /* \"#utility.yul\":9082:9155   */\n      tag_427\n      jump\t// in\n    tag_594:\n        /* \"#utility.yul\":8419:9162   */\n      swap7\n      swap6\n      pop\n      pop\n      pop\n      pop\n      pop\n      pop\n      jump\t// out\n        /* \"#utility.yul\":9168:9285   */\n    tag_444:\n        /* \"#utility.yul\":9277:9278   */\n      0x00\n        /* \"#utility.yul\":9274:9275   */\n      0x00\n        /* \"#utility.yul\":9267:9279   */\n      revert\n        /* \"#utility.yul\":9291:9408   */\n    tag_445:\n        /* \"#utility.yul\":9400:9401   */\n      0x00\n        /* \"#utility.yul\":9397:9398   */\n      0x00\n        /* \"#utility.yul\":9390:9402   */\n      revert\n        /* \"#utility.yul\":9414:9594   */\n    tag_446:\n        /* \"#utility.yul\":9462:9539   */\n      0x4e487b7100000000000000000000000000000000000000000000000000000000\n        /* \"#utility.yul\":9459:9460   */\n      0x00\n        /* \"#utility.yul\":9452:9540   */\n      mstore\n        /* \"#utility.yul\":9559:9563   */\n      0x41\n        /* \"#utility.yul\":9556:9557   */\n      0x04\n        /* \"#utility.yul\":9549:9564   */\n      mstore\n        /* \"#utility.yul\":9583:9587   */\n      0x24\n        /* \"#utility.yul\":9580:9581   */\n      0x00\n        /* \"#utility.yul\":9573:9588   */\n      revert\n        /* \"#utility.yul\":9600:9881   */\n    tag_447:\n        /* \"#utility.yul\":9683:9710   */\n      tag_599\n        /* \"#utility.yul\":9705:9709   */\n      dup3\n        /* \"#utility.yul\":9683:9710   */\n      tag_441\n      jump\t// in\n    tag_599:\n        /* \"#utility.yul\":9675:9681   */\n      dup2\n        /* \"#utility.yul\":9671:9711   */\n      add\n        /* \"#utility.yul\":9813:9819   */\n      dup2\n        /* \"#utility.yul\":9801:9811   */\n      dup2\n        /* \"#utility.yul\":9798:9820   */\n      lt\n        /* \"#utility.yul\":9777:9795   */\n      0xffffffffffffffff\n        /* \"#utility.yul\":9765:9775   */\n      dup3\n        /* \"#utility.yul\":9762:9796   */\n      gt\n        /* \"#utility.yul\":9759:9821   */\n      or\n        /* \"#utility.yul\":9756:9844   */\n      iszero\n      tag_600\n      jumpi\n        /* \"#utility.yul\":9824:9842   */\n      tag_601\n      tag_446\n      jump\t// in\n    tag_601:\n        /* \"#utility.yul\":9756:9844   */\n    tag_600:\n        /* \"#utility.yul\":9864:9874   */\n      dup1\n        /* \"#utility.yul\":9860:9862   */\n      0x40\n        /* \"#utility.yul\":9853:9875   */\n      mstore\n        /* \"#utility.yul\":9643:9881   */\n      pop\n        /* \"#utility.yul\":9600:9881   */\n      pop\n      pop\n      jump\t// out\n        /* \"#utility.yul\":9887:10016   */\n    tag_448:\n        /* \"#utility.yul\":9921:9927   */\n      0x00\n        /* \"#utility.yul\":9948:9968   */\n      tag_603\n      tag_417\n      jump\t// in\n    tag_603:\n        /* \"#utility.yul\":9938:9968   */\n      swap1\n      pop\n        /* \"#utility.yul\":9977:10010   */\n      tag_604\n        /* \"#utility.yul\":10005:10009   */\n      dup3\n        /* \"#utility.yul\":9997:10003   */\n      dup3\n        /* \"#utility.yul\":9977:10010   */\n      tag_447\n      jump\t// in\n    tag_604:\n        /* \"#utility.yul\":9887:10016   */\n      swap2\n      swap1\n      pop\n      jump\t// out\n        /* \"#utility.yul\":10022:10330   */\n    tag_449:\n        /* \"#utility.yul\":10084:10088   */\n      0x00\n        /* \"#utility.yul\":10174:10192   */\n      0xffffffffffffffff\n        /* \"#utility.yul\":10166:10172   */\n      dup3\n        /* \"#utility.yul\":10163:10193   */\n      gt\n        /* \"#utility.yul\":10160:10216   */\n      iszero\n      tag_606\n      jumpi\n        /* \"#utility.yul\":10196:10214   */\n      tag_607\n      tag_446\n      jump\t// in\n    tag_607:\n        /* \"#utility.yul\":10160:10216   */\n    tag_606:\n        /* \"#utility.yul\":10234:10263   */\n      tag_608\n        /* \"#utility.yul\":10256:10262   */\n      dup3\n        /* \"#utility.yul\":10234:10263   */\n      tag_441\n      jump\t// in\n    tag_608:\n        /* \"#utility.yul\":10226:10263   */\n      swap1\n      pop\n        /* \"#utility.yul\":10318:10322   */\n      0x20\n        /* \"#utility.yul\":10312:10316   */\n      dup2\n        /* \"#utility.yul\":10308:10323   */\n      add\n        /* \"#utility.yul\":10300:10323   */\n      swap1\n      pop\n        /* \"#utility.yul\":10022:10330   */\n      swap2\n      swap1\n      pop\n      jump\t// out\n        /* \"#utility.yul\":10336:10484   */\n    tag_450:\n        /* \"#utility.yul\":10434:10440   */\n      dup3\n        /* \"#utility.yul\":10429:10432   */\n      dup2\n        /* \"#utility.yul\":10424:10427   */\n      dup4\n        /* \"#utility.yul\":10411:10441   */\n      calldatacopy\n        /* \"#utility.yul\":10475:10476   */\n      0x00\n        /* \"#utility.yul\":10466:10472   */\n      dup4\n        /* \"#utility.yul\":10461:10464   */\n      dup4\n        /* \"#utility.yul\":10457:10473   */\n      add\n        /* \"#utility.yul\":10450:10477   */\n      mstore\n        /* \"#utility.yul\":10336:10484   */\n      pop\n      pop\n      pop\n      jump\t// out\n        /* \"#utility.yul\":10490:10915   */\n    tag_451:\n        /* \"#utility.yul\":10568:10573   */\n      0x00\n        /* \"#utility.yul\":10593:10659   */\n      tag_611\n        /* \"#utility.yul\":10609:10658   */\n      tag_612\n        /* \"#utility.yul\":10651:10657   */\n      dup5\n        /* \"#utility.yul\":10609:10658   */\n      tag_449\n      jump\t// in\n    tag_612:\n        /* \"#utility.yul\":10593:10659   */\n      tag_448\n      jump\t// in\n    tag_611:\n        /* \"#utility.yul\":10584:10659   */\n      swap1\n      pop\n        /* \"#utility.yul\":10682:10688   */\n      dup3\n        /* \"#utility.yul\":10675:10680   */\n      dup2\n        /* \"#utility.yul\":10668:10689   */\n      mstore\n        /* \"#utility.yul\":10720:10724   */\n      0x20\n        /* \"#utility.yul\":10713:10718   */\n      dup2\n        /* \"#utility.yul\":10709:10725   */\n      add\n        /* \"#utility.yul\":10758:10761   */\n      dup5\n        /* \"#utility.yul\":10749:10755   */\n      dup5\n        /* \"#utility.yul\":10744:10747   */\n      dup5\n        /* \"#utility.yul\":10740:10756   */\n      add\n        /* \"#utility.yul\":10737:10762   */\n      gt\n        /* \"#utility.yul\":10734:10846   */\n      iszero\n      tag_613\n      jumpi\n        /* \"#utility.yul\":10765:10844   */\n      tag_614\n      tag_445\n      jump\t// in\n    tag_614:\n        /* \"#utility.yul\":10734:10846   */\n    tag_613:\n        /* \"#utility.yul\":10855:10909   */\n      tag_615\n        /* \"#utility.yul\":10902:10908   */\n      dup5\n        /* \"#utility.yul\":10897:10900   */\n      dup3\n        /* \"#utility.yul\":10892:10895   */\n      dup6\n        /* \"#utility.yul\":10855:10909   */\n      tag_450\n      jump\t// in\n    tag_615:\n        /* \"#utility.yul\":10574:10915   */\n      pop\n        /* \"#utility.yul\":10490:10915   */\n      swap4\n      swap3\n      pop\n      pop\n      pop\n      jump\t// out\n        /* \"#utility.yul\":10935:11275   */\n    tag_452:\n        /* \"#utility.yul\":10991:10996   */\n      0x00\n        /* \"#utility.yul\":11040:11043   */\n      dup3\n        /* \"#utility.yul\":11033:11037   */\n      0x1f\n        /* \"#utility.yul\":11025:11031   */\n      dup4\n        /* \"#utility.yul\":11021:11038   */\n      add\n        /* \"#utility.yul\":11017:11044   */\n      slt\n        /* \"#utility.yul\":11007:11129   */\n      tag_617\n      jumpi\n        /* \"#utility.yul\":11048:11127   */\n      tag_618\n      tag_444\n      jump\t// in\n    tag_618:\n        /* \"#utility.yul\":11007:11129   */\n    tag_617:\n        /* \"#utility.yul\":11165:11171   */\n      dup2\n        /* \"#utility.yul\":11152:11172   */\n      calldataload\n        /* \"#utility.yul\":11190:11269   */\n      tag_619\n        /* \"#utility.yul\":11265:11268   */\n      dup5\n        /* \"#utility.yul\":11257:11263   */\n      dup3\n        /* \"#utility.yul\":11250:11254   */\n      0x20\n        /* \"#utility.yul\":11242:11248   */\n      dup7\n        /* \"#utility.yul\":11238:11255   */\n      add\n        /* \"#utility.yul\":11190:11269   */\n      tag_451\n      jump\t// in\n    tag_619:\n        /* \"#utility.yul\":11181:11269   */\n      swap2\n      pop\n        /* \"#utility.yul\":10997:11275   */\n      pop\n        /* \"#utility.yul\":10935:11275   */\n      swap3\n      swap2\n      pop\n      pop\n      jump\t// out\n        /* \"#utility.yul\":11281:11935   */\n    tag_161:\n        /* \"#utility.yul\":11359:11365   */\n      0x00\n        /* \"#utility.yul\":11367:11373   */\n      0x00\n        /* \"#utility.yul\":11416:11418   */\n      0x40\n        /* \"#utility.yul\":11404:11413   */\n      dup4\n        /* \"#utility.yul\":11395:11402   */\n      dup6\n        /* \"#utility.yul\":11391:11414   */\n      sub\n        /* \"#utility.yul\":11387:11419   */\n      slt\n        /* \"#utility.yul\":11384:11503   */\n      iszero\n      tag_621\n      jumpi\n        /* \"#utility.yul\":11422:11501   */\n      tag_622\n      tag_418\n      jump\t// in\n    tag_622:\n        /* \"#utility.yul\":11384:11503   */\n    tag_621:\n        /* \"#utility.yul\":11570:11571   */\n      0x00\n        /* \"#utility.yul\":11559:11568   */\n      dup4\n        /* \"#utility.yul\":11555:11572   */\n      add\n        /* \"#utility.yul\":11542:11573   */\n      calldataload\n        /* \"#utility.yul\":11600:11618   */\n      0xffffffffffffffff\n        /* \"#utility.yul\":11592:11598   */\n      dup2\n        /* \"#utility.yul\":11589:11619   */\n      gt\n        /* \"#utility.yul\":11586:11703   */\n      iszero\n      tag_623\n      jumpi\n        /* \"#utility.yul\":11622:11701   */\n      tag_624\n      tag_419\n      jump\t// in\n    tag_624:\n        /* \"#utility.yul\":11586:11703   */\n    tag_623:\n        /* \"#utility.yul\":11727:11790   */\n      tag_625\n        /* \"#utility.yul\":11782:11789   */\n      dup6\n        /* \"#utility.yul\":11773:11779   */\n      dup3\n        /* \"#utility.yul\":11762:11771   */\n      dup7\n        /* \"#utility.yul\":11758:11780   */\n      add\n        /* \"#utility.yul\":11727:11790   */\n      tag_452\n      jump\t// in\n    tag_625:\n        /* \"#utility.yul\":11717:11790   */\n      swap3\n      pop\n        /* \"#utility.yul\":11513:11800   */\n      pop\n        /* \"#utility.yul\":11839:11841   */\n      0x20\n        /* \"#utility.yul\":11865:11918   */\n      tag_626\n        /* \"#utility.yul\":11910:11917   */\n      dup6\n        /* \"#utility.yul\":11901:11907   */\n      dup3\n        /* \"#utility.yul\":11890:11899   */\n      dup7\n        /* \"#utility.yul\":11886:11908   */\n      add\n        /* \"#utility.yul\":11865:11918   */\n      tag_438\n      jump\t// in\n    tag_626:\n        /* \"#utility.yul\":11855:11918   */\n      swap2\n      pop\n        /* \"#utility.yul\":11810:11928   */\n      pop\n        /* \"#utility.yul\":11281:11935   */\n      swap3\n      pop\n      swap3\n      swap1\n      pop\n      jump\t// out\n        /* \"#utility.yul\":11941:12001   */\n    tag_453:\n        /* \"#utility.yul\":11969:11972   */\n      0x00\n        /* \"#utility.yul\":11990:11995   */\n      dup2\n        /* \"#utility.yul\":11983:11995   */\n      swap1\n      pop\n        /* \"#utility.yul\":11941:12001   */\n      swap2\n      swap1\n      pop\n      jump\t// out\n        /* \"#utility.yul\":12007:12149   */\n    tag_454:\n        /* \"#utility.yul\":12057:12066   */\n      0x00\n        /* \"#utility.yul\":12090:12143   */\n      tag_629\n        /* \"#utility.yul\":12108:12142   */\n      tag_630\n        /* \"#utility.yul\":12117:12141   */\n      tag_631\n        /* \"#utility.yul\":12135:12140   */\n      dup5\n        /* \"#utility.yul\":12117:12141   */\n      tag_425\n      jump\t// in\n    tag_631:\n        /* \"#utility.yul\":12108:12142   */\n      tag_453\n      jump\t// in\n    tag_630:\n        /* \"#utility.yul\":12090:12143   */\n      tag_425\n      jump\t// in\n    tag_629:\n        /* \"#utility.yul\":12077:12143   */\n      swap1\n      pop\n        /* \"#utility.yul\":12007:12149   */\n      swap2\n      swap1\n      pop\n      jump\t// out\n        /* \"#utility.yul\":12155:12281   */\n    tag_455:\n        /* \"#utility.yul\":12205:12214   */\n      0x00\n        /* \"#utility.yul\":12238:12275   */\n      tag_633\n        /* \"#utility.yul\":12269:12274   */\n      dup3\n        /* \"#utility.yul\":12238:12275   */\n      tag_454\n      jump\t// in\n    tag_633:\n        /* \"#utility.yul\":12225:12275   */\n      swap1\n      pop\n        /* \"#utility.yul\":12155:12281   */\n      swap2\n      swap1\n      pop\n      jump\t// out\n        /* \"#utility.yul\":12287:12425   */\n    tag_456:\n        /* \"#utility.yul\":12349:12358   */\n      0x00\n        /* \"#utility.yul\":12382:12419   */\n      tag_635\n        /* \"#utility.yul\":12413:12418   */\n      dup3\n        /* \"#utility.yul\":12382:12419   */\n      tag_455\n      jump\t// in\n    tag_635:\n        /* \"#utility.yul\":12369:12419   */\n      swap1\n      pop\n        /* \"#utility.yul\":12287:12425   */\n      swap2\n      swap1\n      pop\n      jump\t// out\n        /* \"#utility.yul\":12431:12586   */\n    tag_457:\n        /* \"#utility.yul\":12530:12579   */\n      tag_637\n        /* \"#utility.yul\":12573:12578   */\n      dup2\n        /* \"#utility.yul\":12530:12579   */\n      tag_456\n      jump\t// in\n    tag_637:\n        /* \"#utility.yul\":12525:12528   */\n      dup3\n        /* \"#utility.yul\":12518:12580   */\n      mstore\n        /* \"#utility.yul\":12431:12586   */\n      pop\n      pop\n      jump\t// out\n        /* \"#utility.yul\":12592:12838   */\n    tag_183:\n        /* \"#utility.yul\":12697:12701   */\n      0x00\n        /* \"#utility.yul\":12735:12737   */\n      0x20\n        /* \"#utility.yul\":12724:12733   */\n      dup3\n        /* \"#utility.yul\":12720:12738   */\n      add\n        /* \"#utility.yul\":12712:12738   */\n      swap1\n      pop\n        /* \"#utility.yul\":12748:12831   */\n      tag_639\n        /* \"#utility.yul\":12828:12829   */\n      0x00\n        /* \"#utility.yul\":12817:12826   */\n      dup4\n        /* \"#utility.yul\":12813:12830   */\n      add\n        /* \"#utility.yul\":12804:12810   */\n      dup5\n        /* \"#utility.yul\":12748:12831   */\n      tag_457\n      jump\t// in\n    tag_639:\n        /* \"#utility.yul\":12592:12838   */\n      swap3\n      swap2\n      pop\n      pop\n      jump\t// out\n        /* \"#utility.yul\":12844:12960   */\n    tag_458:\n        /* \"#utility.yul\":12914:12935   */\n      tag_641\n        /* \"#utility.yul\":12929:12934   */\n      dup2\n        /* \"#utility.yul\":12914:12935   */\n      tag_423\n      jump\t// in\n    tag_641:\n        /* \"#utility.yul\":12907:12912   */\n      dup2\n        /* \"#utility.yul\":12904:12936   */\n      eq\n        /* \"#utility.yul\":12894:12954   */\n      tag_642\n      jumpi\n        /* \"#utility.yul\":12950:12951   */\n      0x00\n        /* \"#utility.yul\":12947:12948   */\n      0x00\n        /* \"#utility.yul\":12940:12952   */\n      revert\n        /* \"#utility.yul\":12894:12954   */\n    tag_642:\n        /* \"#utility.yul\":12844:12960   */\n      pop\n      jump\t// out\n        /* \"#utility.yul\":12966:13099   */\n    tag_459:\n        /* \"#utility.yul\":13009:13014   */\n      0x00\n        /* \"#utility.yul\":13047:13053   */\n      dup2\n        /* \"#utility.yul\":13034:13054   */\n      calldataload\n        /* \"#utility.yul\":13025:13054   */\n      swap1\n      pop\n        /* \"#utility.yul\":13063:13093   */\n      tag_644\n        /* \"#utility.yul\":13087:13092   */\n      dup2\n        /* \"#utility.yul\":13063:13093   */\n      tag_458\n      jump\t// in\n    tag_644:\n        /* \"#utility.yul\":12966:13099   */\n      swap3\n      swap2\n      pop\n      pop\n      jump\t// out\n        /* \"#utility.yul\":13105:13573   */\n    tag_199:\n        /* \"#utility.yul\":13170:13176   */\n      0x00\n        /* \"#utility.yul\":13178:13184   */\n      0x00\n        /* \"#utility.yul\":13227:13229   */\n      0x40\n        /* \"#utility.yul\":13215:13224   */\n      dup4\n        /* \"#utility.yul\":13206:13213   */\n      dup6\n        /* \"#utility.yul\":13202:13225   */\n      sub\n        /* \"#utility.yul\":13198:13230   */\n      slt\n        /* \"#utility.yul\":13195:13314   */\n      iszero\n      tag_646\n      jumpi\n        /* \"#utility.yul\":13233:13312   */\n      tag_647\n      tag_418\n      jump\t// in\n    tag_647:\n        /* \"#utility.yul\":13195:13314   */\n    tag_646:\n        /* \"#utility.yul\":13353:13354   */\n      0x00\n        /* \"#utility.yul\":13378:13431   */\n      tag_648\n        /* \"#utility.yul\":13423:13430   */\n      dup6\n        /* \"#utility.yul\":13414:13420   */\n      dup3\n        /* \"#utility.yul\":13403:13412   */\n      dup7\n        /* \"#utility.yul\":13399:13421   */\n      add\n        /* \"#utility.yul\":13378:13431   */\n      tag_438\n      jump\t// in\n    tag_648:\n        /* \"#utility.yul\":13368:13431   */\n      swap3\n      pop\n        /* \"#utility.yul\":13324:13441   */\n      pop\n        /* \"#utility.yul\":13480:13482   */\n      0x20\n        /* \"#utility.yul\":13506:13556   */\n      tag_649\n        /* \"#utility.yul\":13548:13555   */\n      dup6\n        /* \"#utility.yul\":13539:13545   */\n      dup3\n        /* \"#utility.yul\":13528:13537   */\n      dup7\n        /* \"#utility.yul\":13524:13546   */\n      add\n        /* \"#utility.yul\":13506:13556   */\n      tag_459\n      jump\t// in\n    tag_649:\n        /* \"#utility.yul\":13496:13556   */\n      swap2\n      pop\n        /* \"#utility.yul\":13451:13566   */\n      pop\n        /* \"#utility.yul\":13105:13573   */\n      swap3\n      pop\n      swap3\n      swap1\n      pop\n      jump\t// out\n        /* \"#utility.yul\":13579:13801   */\n    tag_205:\n        /* \"#utility.yul\":13672:13676   */\n      0x00\n        /* \"#utility.yul\":13710:13712   */\n      0x20\n        /* \"#utility.yul\":13699:13708   */\n      dup3\n        /* \"#utility.yul\":13695:13713   */\n      add\n        /* \"#utility.yul\":13687:13713   */\n      swap1\n      pop\n        /* \"#utility.yul\":13723:13794   */\n      tag_651\n        /* \"#utility.yul\":13791:13792   */\n      0x00\n        /* \"#utility.yul\":13780:13789   */\n      dup4\n        /* \"#utility.yul\":13776:13793   */\n      add\n        /* \"#utility.yul\":13767:13773   */\n      dup5\n        /* \"#utility.yul\":13723:13794   */\n      tag_443\n      jump\t// in\n    tag_651:\n        /* \"#utility.yul\":13579:13801   */\n      swap3\n      swap2\n      pop\n      pop\n      jump\t// out\n        /* \"#utility.yul\":13807:13977   */\n    tag_460:\n        /* \"#utility.yul\":13947:13969   */\n      0x5265737472696374656420746f20627579657273000000000000000000000000\n        /* \"#utility.yul\":13943:13944   */\n      0x00\n        /* \"#utility.yul\":13935:13941   */\n      dup3\n        /* \"#utility.yul\":13931:13945   */\n      add\n        /* \"#utility.yul\":13924:13970   */\n      mstore\n        /* \"#utility.yul\":13807:13977   */\n      pop\n      jump\t// out\n        /* \"#utility.yul\":13983:14349   */\n    tag_461:\n        /* \"#utility.yul\":14125:14128   */\n      0x00\n        /* \"#utility.yul\":14146:14213   */\n      tag_654\n        /* \"#utility.yul\":14210:14212   */\n      0x14\n        /* \"#utility.yul\":14205:14208   */\n      dup4\n        /* \"#utility.yul\":14146:14213   */\n      tag_412\n      jump\t// in\n    tag_654:\n        /* \"#utility.yul\":14139:14213   */\n      swap2\n      pop\n        /* \"#utility.yul\":14222:14315   */\n      tag_655\n        /* \"#utility.yul\":14311:14314   */\n      dup3\n        /* \"#utility.yul\":14222:14315   */\n      tag_460\n      jump\t// in\n    tag_655:\n        /* \"#utility.yul\":14340:14342   */\n      0x20\n        /* \"#utility.yul\":14335:14338   */\n      dup3\n        /* \"#utility.yul\":14331:14343   */\n      add\n        /* \"#utility.yul\":14324:14343   */\n      swap1\n      pop\n        /* \"#utility.yul\":13983:14349   */\n      swap2\n      swap1\n      pop\n      jump\t// out\n        /* \"#utility.yul\":14355:14774   */\n    tag_237:\n        /* \"#utility.yul\":14521:14525   */\n      0x00\n        /* \"#utility.yul\":14559:14561   */\n      0x20\n        /* \"#utility.yul\":14548:14557   */\n      dup3\n        /* \"#utility.yul\":14544:14562   */\n      add\n        /* \"#utility.yul\":14536:14562   */\n      swap1\n      pop\n        /* \"#utility.yul\":14608:14617   */\n      dup2\n        /* \"#utility.yul\":14602:14606   */\n      dup2\n        /* \"#utility.yul\":14598:14618   */\n      sub\n        /* \"#utility.yul\":14594:14595   */\n      0x00\n        /* \"#utility.yul\":14583:14592   */\n      dup4\n        /* \"#utility.yul\":14579:14596   */\n      add\n        /* \"#utility.yul\":14572:14619   */\n      mstore\n        /* \"#utility.yul\":14636:14767   */\n      tag_657\n        /* \"#utility.yul\":14762:14766   */\n      dup2\n        /* \"#utility.yul\":14636:14767   */\n      tag_461\n      jump\t// in\n    tag_657:\n        /* \"#utility.yul\":14628:14767   */\n      swap1\n      pop\n        /* \"#utility.yul\":14355:14774   */\n      swap2\n      swap1\n      pop\n      jump\t// out\n        /* \"#utility.yul\":14780:14954   */\n    tag_462:\n        /* \"#utility.yul\":14920:14946   */\n      0x50726f64756374206973206e6f7420617661696c61626c650000000000000000\n        /* \"#utility.yul\":14916:14917   */\n      0x00\n        /* \"#utility.yul\":14908:14914   */\n      dup3\n        /* \"#utility.yul\":14904:14918   */\n      add\n        /* \"#utility.yul\":14897:14947   */\n      mstore\n        /* \"#utility.yul\":14780:14954   */\n      pop\n      jump\t// out\n        /* \"#utility.yul\":14960:15326   */\n    tag_463:\n        /* \"#utility.yul\":15102:15105   */\n      0x00\n        /* \"#utility.yul\":15123:15190   */\n      tag_660\n        /* \"#utility.yul\":15187:15189   */\n      0x18\n        /* \"#utility.yul\":15182:15185   */\n      dup4\n        /* \"#utility.yul\":15123:15190   */\n      tag_412\n      jump\t// in\n    tag_660:\n        /* \"#utility.yul\":15116:15190   */\n      swap2\n      pop\n        /* \"#utility.yul\":15199:15292   */\n      tag_661\n        /* \"#utility.yul\":15288:15291   */\n      dup3\n        /* \"#utility.yul\":15199:15292   */\n      tag_462\n      jump\t// in\n    tag_661:\n        /* \"#utility.yul\":15317:15319   */\n      0x20\n        /* \"#utility.yul\":15312:15315   */\n      dup3\n        /* \"#utility.yul\":15308:15320   */\n      add\n        /* \"#utility.yul\":15301:15320   */\n      swap1\n      pop\n        /* \"#utility.yul\":14960:15326   */\n      swap2\n      swap1\n      pop\n      jump\t// out\n        /* \"#utility.yul\":15332:15751   */\n    tag_244:\n        /* \"#utility.yul\":15498:15502   */\n      0x00\n        /* \"#utility.yul\":15536:15538   */\n      0x20\n        /* \"#utility.yul\":15525:15534   */\n      dup3\n        /* \"#utility.yul\":15521:15539   */\n      add\n        /* \"#utility.yul\":15513:15539   */\n      swap1\n      pop\n        /* \"#utility.yul\":15585:15594   */\n      dup2\n        /* \"#utility.yul\":15579:15583   */\n      dup2\n        /* \"#utility.yul\":15575:15595   */\n      sub\n        /* \"#utility.yul\":15571:15572   */\n      0x00\n        /* \"#utility.yul\":15560:15569   */\n      dup4\n        /* \"#utility.yul\":15556:15573   */\n      add\n        /* \"#utility.yul\":15549:15596   */\n      mstore\n        /* \"#utility.yul\":15613:15744   */\n      tag_663\n        /* \"#utility.yul\":15739:15743   */\n      dup2\n        /* \"#utility.yul\":15613:15744   */\n      tag_463\n      jump\t// in\n    tag_663:\n        /* \"#utility.yul\":15605:15744   */\n      swap1\n      pop\n        /* \"#utility.yul\":15332:15751   */\n      swap2\n      swap1\n      pop\n      jump\t// out\n        /* \"#utility.yul\":15757:16199   */\n    tag_246:\n        /* \"#utility.yul\":15906:15910   */\n      0x00\n        /* \"#utility.yul\":15944:15946   */\n      0x60\n        /* \"#utility.yul\":15933:15942   */\n      dup3\n        /* \"#utility.yul\":15929:15947   */\n      add\n        /* \"#utility.yul\":15921:15947   */\n      swap1\n      pop\n        /* \"#utility.yul\":15957:16028   */\n      tag_665\n        /* \"#utility.yul\":16025:16026   */\n      0x00\n        /* \"#utility.yul\":16014:16023   */\n      dup4\n        /* \"#utility.yul\":16010:16027   */\n      add\n        /* \"#utility.yul\":16001:16007   */\n      dup7\n        /* \"#utility.yul\":15957:16028   */\n      tag_443\n      jump\t// in\n    tag_665:\n        /* \"#utility.yul\":16038:16110   */\n      tag_666\n        /* \"#utility.yul\":16106:16108   */\n      0x20\n        /* \"#utility.yul\":16095:16104   */\n      dup4\n        /* \"#utility.yul\":16091:16109   */\n      add\n        /* \"#utility.yul\":16082:16088   */\n      dup6\n        /* \"#utility.yul\":16038:16110   */\n      tag_443\n      jump\t// in\n    tag_666:\n        /* \"#utility.yul\":16120:16192   */\n      tag_667\n        /* \"#utility.yul\":16188:16190   */\n      0x40\n        /* \"#utility.yul\":16177:16186   */\n      dup4\n        /* \"#utility.yul\":16173:16191   */\n      add\n        /* \"#utility.yul\":16164:16170   */\n      dup5\n        /* \"#utility.yul\":16120:16192   */\n      tag_427\n      jump\t// in\n    tag_667:\n        /* \"#utility.yul\":15757:16199   */\n      swap5\n      swap4\n      pop\n      pop\n      pop\n      pop\n      jump\t// out\n        /* \"#utility.yul\":16205:16537   */\n    tag_251:\n        /* \"#utility.yul\":16326:16330   */\n      0x00\n        /* \"#utility.yul\":16364:16366   */\n      0x40\n        /* \"#utility.yul\":16353:16362   */\n      dup3\n        /* \"#utility.yul\":16349:16367   */\n      add\n        /* \"#utility.yul\":16341:16367   */\n      swap1\n      pop\n        /* \"#utility.yul\":16377:16448   */\n      tag_669\n        /* \"#utility.yul\":16445:16446   */\n      0x00\n        /* \"#utility.yul\":16434:16443   */\n      dup4\n        /* \"#utility.yul\":16430:16447   */\n      add\n        /* \"#utility.yul\":16421:16427   */\n      dup6\n        /* \"#utility.yul\":16377:16448   */\n      tag_443\n      jump\t// in\n    tag_669:\n        /* \"#utility.yul\":16458:16530   */\n      tag_670\n        /* \"#utility.yul\":16526:16528   */\n      0x20\n        /* \"#utility.yul\":16515:16524   */\n      dup4\n        /* \"#utility.yul\":16511:16529   */\n      add\n        /* \"#utility.yul\":16502:16508   */\n      dup5\n        /* \"#utility.yul\":16458:16530   */\n      tag_427\n      jump\t// in\n    tag_670:\n        /* \"#utility.yul\":16205:16537   */\n      swap4\n      swap3\n      pop\n      pop\n      pop\n      jump\t// out\n        /* \"#utility.yul\":16543:16713   */\n    tag_464:\n        /* \"#utility.yul\":16683:16705   */\n      0x5265737472696374656420746f2061646d696e73000000000000000000000000\n        /* \"#utility.yul\":16679:16680   */\n      0x00\n        /* \"#utility.yul\":16671:16677   */\n      dup3\n        /* \"#utility.yul\":16667:16681   */\n      add\n        /* \"#utility.yul\":16660:16706   */\n      mstore\n        /* \"#utility.yul\":16543:16713   */\n      pop\n      jump\t// out\n        /* \"#utility.yul\":16719:17085   */\n    tag_465:\n        /* \"#utility.yul\":16861:16864   */\n      0x00\n        /* \"#utility.yul\":16882:16949   */\n      tag_673\n        /* \"#utility.yul\":16946:16948   */\n      0x14\n        /* \"#utility.yul\":16941:16944   */\n      dup4\n        /* \"#utility.yul\":16882:16949   */\n      tag_412\n      jump\t// in\n    tag_673:\n        /* \"#utility.yul\":16875:16949   */\n      swap2\n      pop\n        /* \"#utility.yul\":16958:17051   */\n      tag_674\n        /* \"#utility.yul\":17047:17050   */\n      dup3\n        /* \"#utility.yul\":16958:17051   */\n      tag_464\n      jump\t// in\n    tag_674:\n        /* \"#utility.yul\":17076:17078   */\n      0x20\n        /* \"#utility.yul\":17071:17074   */\n      dup3\n        /* \"#utility.yul\":17067:17079   */\n      add\n        /* \"#utility.yul\":17060:17079   */\n      swap1\n      pop\n        /* \"#utility.yul\":16719:17085   */\n      swap2\n      swap1\n      pop\n      jump\t// out\n        /* \"#utility.yul\":17091:17510   */\n    tag_261:\n        /* \"#utility.yul\":17257:17261   */\n      0x00\n        /* \"#utility.yul\":17295:17297   */\n      0x20\n        /* \"#utility.yul\":17284:17293   */\n      dup3\n        /* \"#utility.yul\":17280:17298   */\n      add\n        /* \"#utility.yul\":17272:17298   */\n      swap1\n      pop\n        /* \"#utility.yul\":17344:17353   */\n      dup2\n        /* \"#utility.yul\":17338:17342   */\n      dup2\n        /* \"#utility.yul\":17334:17354   */\n      sub\n        /* \"#utility.yul\":17330:17331   */\n      0x00\n        /* \"#utility.yul\":17319:17328   */\n      dup4\n        /* \"#utility.yul\":17315:17332   */\n      add\n        /* \"#utility.yul\":17308:17355   */\n      mstore\n        /* \"#utility.yul\":17372:17503   */\n      tag_676\n        /* \"#utility.yul\":17498:17502   */\n      dup2\n        /* \"#utility.yul\":17372:17503   */\n      tag_465\n      jump\t// in\n    tag_676:\n        /* \"#utility.yul\":17364:17503   */\n      swap1\n      pop\n        /* \"#utility.yul\":17091:17510   */\n      swap2\n      swap1\n      pop\n      jump\t// out\n        /* \"#utility.yul\":17516:17696   */\n    tag_466:\n        /* \"#utility.yul\":17564:17641   */\n      0x4e487b7100000000000000000000000000000000000000000000000000000000\n        /* \"#utility.yul\":17561:17562   */\n      0x00\n        /* \"#utility.yul\":17554:17642   */\n      mstore\n        /* \"#utility.yul\":17661:17665   */\n      0x22\n        /* \"#utility.yul\":17658:17659   */\n      0x04\n        /* \"#utility.yul\":17651:17666   */\n      mstore\n        /* \"#utility.yul\":17685:17689   */\n      0x24\n        /* \"#utility.yul\":17682:17683   */\n      0x00\n        /* \"#utility.yul\":17675:17690   */\n      revert\n        /* \"#utility.yul\":17702:18022   */\n    tag_272:\n        /* \"#utility.yul\":17746:17752   */\n      0x00\n        /* \"#utility.yul\":17783:17784   */\n      0x02\n        /* \"#utility.yul\":17777:17781   */\n      dup3\n        /* \"#utility.yul\":17773:17785   */\n      div\n        /* \"#utility.yul\":17763:17785   */\n      swap1\n      pop\n        /* \"#utility.yul\":17830:17831   */\n      0x01\n        /* \"#utility.yul\":17824:17828   */\n      dup3\n        /* \"#utility.yul\":17820:17832   */\n      and\n        /* \"#utility.yul\":17851:17869   */\n      dup1\n        /* \"#utility.yul\":17841:17922   */\n      tag_679\n      jumpi\n        /* \"#utility.yul\":17907:17911   */\n      0x7f\n        /* \"#utility.yul\":17899:17905   */\n      dup3\n        /* \"#utility.yul\":17895:17912   */\n      and\n        /* \"#utility.yul\":17885:17912   */\n      swap2\n      pop\n        /* \"#utility.yul\":17841:17922   */\n    tag_679:\n        /* \"#utility.yul\":17969:17971   */\n      0x20\n        /* \"#utility.yul\":17961:17967   */\n      dup3\n        /* \"#utility.yul\":17958:17972   */\n      lt\n        /* \"#utility.yul\":17938:17956   */\n      dup2\n        /* \"#utility.yul\":17935:17973   */\n      sub\n        /* \"#utility.yul\":17932:18016   */\n      tag_680\n      jumpi\n        /* \"#utility.yul\":17988:18006   */\n      tag_681\n      tag_466\n      jump\t// in\n    tag_681:\n        /* \"#utility.yul\":17932:18016   */\n    tag_680:\n        /* \"#utility.yul\":17753:18022   */\n      pop\n        /* \"#utility.yul\":17702:18022   */\n      swap2\n      swap1\n      pop\n      jump\t// out\n        /* \"#utility.yul\":18028:18199   */\n    tag_467:\n        /* \"#utility.yul\":18168:18191   */\n      0x5265737472696374656420746f2073656c6c6572730000000000000000000000\n        /* \"#utility.yul\":18164:18165   */\n      0x00\n        /* \"#utility.yul\":18156:18162   */\n      dup3\n        /* \"#utility.yul\":18152:18166   */\n      add\n        /* \"#utility.yul\":18145:18192   */\n      mstore\n        /* \"#utility.yul\":18028:18199   */\n      pop\n      jump\t// out\n        /* \"#utility.yul\":18205:18571   */\n    tag_468:\n        /* \"#utility.yul\":18347:18350   */\n      0x00\n        /* \"#utility.yul\":18368:18435   */\n      tag_684\n        /* \"#utility.yul\":18432:18434   */\n      0x15\n        /* \"#utility.yul\":18427:18430   */\n      dup4\n        /* \"#utility.yul\":18368:18435   */\n      tag_412\n      jump\t// in\n    tag_684:\n        /* \"#utility.yul\":18361:18435   */\n      swap2\n      pop\n        /* \"#utility.yul\":18444:18537   */\n      tag_685\n        /* \"#utility.yul\":18533:18536   */\n      dup3\n        /* \"#utility.yul\":18444:18537   */\n      tag_467\n      jump\t// in\n    tag_685:\n        /* \"#utility.yul\":18562:18564   */\n      0x20\n        /* \"#utility.yul\":18557:18560   */\n      dup3\n        /* \"#utility.yul\":18553:18565   */\n      add\n        /* \"#utility.yul\":18546:18565   */\n      swap1\n      pop\n        /* \"#utility.yul\":18205:18571   */\n      swap2\n      swap1\n      pop\n      jump\t// out\n        /* \"#utility.yul\":18577:18996   */\n    tag_299:\n        /* \"#utility.yul\":18743:18747   */\n      0x00\n        /* \"#utility.yul\":18781:18783   */\n      0x20\n        /* \"#utility.yul\":18770:18779   */\n      dup3\n        /* \"#utility.yul\":18766:18784   */\n      add\n        /* \"#utility.yul\":18758:18784   */\n      swap1\n      pop\n        /* \"#utility.yul\":18830:18839   */\n      dup2\n        /* \"#utility.yul\":18824:18828   */\n      dup2\n        /* \"#utility.yul\":18820:18840   */\n      sub\n        /* \"#utility.yul\":18816:18817   */\n      0x00\n        /* \"#utility.yul\":18805:18814   */\n      dup4\n        /* \"#utility.yul\":18801:18818   */\n      add\n        /* \"#utility.yul\":18794:18841   */\n      mstore\n        /* \"#utility.yul\":18858:18989   */\n      tag_687\n        /* \"#utility.yul\":18984:18988   */\n      dup2\n        /* \"#utility.yul\":18858:18989   */\n      tag_468\n      jump\t// in\n    tag_687:\n        /* \"#utility.yul\":18850:18989   */\n      swap1\n      pop\n        /* \"#utility.yul\":18577:18996   */\n      swap2\n      swap1\n      pop\n      jump\t// out\n        /* \"#utility.yul\":19002:19176   */\n    tag_469:\n        /* \"#utility.yul\":19142:19168   */\n      0x50726f64756374206e616d652069732072657175697265640000000000000000\n        /* \"#utility.yul\":19138:19139   */\n      0x00\n        /* \"#utility.yul\":19130:19136   */\n      dup3\n        /* \"#utility.yul\":19126:19140   */\n      add\n        /* \"#utility.yul\":19119:19169   */\n      mstore\n        /* \"#utility.yul\":19002:19176   */\n      pop\n      jump\t// out\n        /* \"#utility.yul\":19182:19548   */\n    tag_470:\n        /* \"#utility.yul\":19324:19327   */\n      0x00\n        /* \"#utility.yul\":19345:19412   */\n      tag_690\n        /* \"#utility.yul\":19409:19411   */\n      0x18\n        /* \"#utility.yul\":19404:19407   */\n      dup4\n        /* \"#utility.yul\":19345:19412   */\n      tag_412\n      jump\t// in\n    tag_690:\n        /* \"#utility.yul\":19338:19412   */\n      swap2\n      pop\n        /* \"#utility.yul\":19421:19514   */\n      tag_691\n        /* \"#utility.yul\":19510:19513   */\n      dup3\n        /* \"#utility.yul\":19421:19514   */\n      tag_469\n      jump\t// in\n    tag_691:\n        /* \"#utility.yul\":19539:19541   */\n      0x20\n        /* \"#utility.yul\":19534:19537   */\n      dup3\n        /* \"#utility.yul\":19530:19542   */\n      add\n        /* \"#utility.yul\":19523:19542   */\n      swap1\n      pop\n        /* \"#utility.yul\":19182:19548   */\n      swap2\n      swap1\n      pop\n      jump\t// out\n        /* \"#utility.yul\":19554:19973   */\n    tag_305:\n        /* \"#utility.yul\":19720:19724   */\n      0x00\n        /* \"#utility.yul\":19758:19760   */\n      0x20\n        /* \"#utility.yul\":19747:19756   */\n      dup3\n        /* \"#utility.yul\":19743:19761   */\n      add\n        /* \"#utility.yul\":19735:19761   */\n      swap1\n      pop\n        /* \"#utility.yul\":19807:19816   */\n      dup2\n        /* \"#utility.yul\":19801:19805   */\n      dup2\n        /* \"#utility.yul\":19797:19817   */\n      sub\n        /* \"#utility.yul\":19793:19794   */\n      0x00\n        /* \"#utility.yul\":19782:19791   */\n      dup4\n        /* \"#utility.yul\":19778:19795   */\n      add\n        /* \"#utility.yul\":19771:19818   */\n      mstore\n        /* \"#utility.yul\":19835:19966   */\n      tag_693\n        /* \"#utility.yul\":19961:19965   */\n      dup2\n        /* \"#utility.yul\":19835:19966   */\n      tag_470\n      jump\t// in\n    tag_693:\n        /* \"#utility.yul\":19827:19966   */\n      swap1\n      pop\n        /* \"#utility.yul\":19554:19973   */\n      swap2\n      swap1\n      pop\n      jump\t// out\n        /* \"#utility.yul\":19979:20157   */\n    tag_471:\n        /* \"#utility.yul\":20119:20149   */\n      0x5072696365206d7573742062652067726561746572207468616e203000000000\n        /* \"#utility.yul\":20115:20116   */\n      0x00\n        /* \"#utility.yul\":20107:20113   */\n      dup3\n        /* \"#utility.yul\":20103:20117   */\n      add\n        /* \"#utility.yul\":20096:20150   */\n      mstore\n        /* \"#utility.yul\":19979:20157   */\n      pop\n      jump\t// out\n        /* \"#utility.yul\":20163:20529   */\n    tag_472:\n        /* \"#utility.yul\":20305:20308   */\n      0x00\n        /* \"#utility.yul\":20326:20393   */\n      tag_696\n        /* \"#utility.yul\":20390:20392   */\n      0x1c\n        /* \"#utility.yul\":20385:20388   */\n      dup4\n        /* \"#utility.yul\":20326:20393   */\n      tag_412\n      jump\t// in\n    tag_696:\n        /* \"#utility.yul\":20319:20393   */\n      swap2\n      pop\n        /* \"#utility.yul\":20402:20495   */\n      tag_697\n        /* \"#utility.yul\":20491:20494   */\n      dup3\n        /* \"#utility.yul\":20402:20495   */\n      tag_471\n      jump\t// in\n    tag_697:\n        /* \"#utility.yul\":20520:20522   */\n      0x20\n        /* \"#utility.yul\":20515:20518   */\n      dup3\n        /* \"#utility.yul\":20511:20523   */\n      add\n        /* \"#utility.yul\":20504:20523   */\n      swap1\n      pop\n        /* \"#utility.yul\":20163:20529   */\n      swap2\n      swap1\n      pop\n      jump\t// out\n        /* \"#utility.yul\":20535:20954   */\n    tag_308:\n        /* \"#utility.yul\":20701:20705   */\n      0x00\n        /* \"#utility.yul\":20739:20741   */\n      0x20\n        /* \"#utility.yul\":20728:20737   */\n      dup3\n        /* \"#utility.yul\":20724:20742   */\n      add\n        /* \"#utility.yul\":20716:20742   */\n      swap1\n      pop\n        /* \"#utility.yul\":20788:20797   */\n      dup2\n        /* \"#utility.yul\":20782:20786   */\n      dup2\n        /* \"#utility.yul\":20778:20798   */\n      sub\n        /* \"#utility.yul\":20774:20775   */\n      0x00\n        /* \"#utility.yul\":20763:20772   */\n      dup4\n        /* \"#utility.yul\":20759:20776   */\n      add\n        /* \"#utility.yul\":20752:20799   */\n      mstore\n        /* \"#utility.yul\":20816:20947   */\n      tag_699\n        /* \"#utility.yul\":20942:20946   */\n      dup2\n        /* \"#utility.yul\":20816:20947   */\n      tag_472\n      jump\t// in\n    tag_699:\n        /* \"#utility.yul\":20808:20947   */\n      swap1\n      pop\n        /* \"#utility.yul\":20535:20954   */\n      swap2\n      swap1\n      pop\n      jump\t// out\n        /* \"#utility.yul\":20960:21101   */\n    tag_473:\n        /* \"#utility.yul\":21009:21013   */\n      0x00\n        /* \"#utility.yul\":21032:21035   */\n      dup2\n        /* \"#utility.yul\":21024:21035   */\n      swap1\n      pop\n        /* \"#utility.yul\":21055:21058   */\n      dup2\n        /* \"#utility.yul\":21052:21053   */\n      0x00\n        /* \"#utility.yul\":21045:21059   */\n      mstore\n        /* \"#utility.yul\":21089:21093   */\n      0x20\n        /* \"#utility.yul\":21086:21087   */\n      0x00\n        /* \"#utility.yul\":21076:21094   */\n      keccak256\n        /* \"#utility.yul\":21068:21094   */\n      swap1\n      pop\n        /* \"#utility.yul\":20960:21101   */\n      swap2\n      swap1\n      pop\n      jump\t// out\n        /* \"#utility.yul\":21107:21200   */\n    tag_474:\n        /* \"#utility.yul\":21144:21150   */\n      0x00\n        /* \"#utility.yul\":21191:21193   */\n      0x20\n        /* \"#utility.yul\":21186:21188   */\n      0x1f\n        /* \"#utility.yul\":21179:21184   */\n      dup4\n        /* \"#utility.yul\":21175:21189   */\n      add\n        /* \"#utility.yul\":21171:21194   */\n      div\n        /* \"#utility.yul\":21161:21194   */\n      swap1\n      pop\n        /* \"#utility.yul\":21107:21200   */\n      swap2\n      swap1\n      pop\n      jump\t// out\n        /* \"#utility.yul\":21206:21313   */\n    tag_475:\n        /* \"#utility.yul\":21250:21258   */\n      0x00\n        /* \"#utility.yul\":21300:21305   */\n      dup3\n        /* \"#utility.yul\":21294:21298   */\n      dup3\n        /* \"#utility.yul\":21290:21306   */\n      shl\n        /* \"#utility.yul\":21269:21306   */\n      swap1\n      pop\n        /* \"#utility.yul\":21206:21313   */\n      swap3\n      swap2\n      pop\n      pop\n      jump\t// out\n        /* \"#utility.yul\":21319:21712   */\n    tag_476:\n        /* \"#utility.yul\":21388:21394   */\n      0x00\n        /* \"#utility.yul\":21438:21439   */\n      0x08\n        /* \"#utility.yul\":21426:21436   */\n      dup4\n        /* \"#utility.yul\":21422:21440   */\n      mul\n        /* \"#utility.yul\":21461:21558   */\n      tag_704\n        /* \"#utility.yul\":21491:21557   */\n      0xffffffffffffffffffffffffffffffffffffffffffffffffffffffffffffffff\n        /* \"#utility.yul\":21480:21489   */\n      dup3\n        /* \"#utility.yul\":21461:21558   */\n      tag_475\n      jump\t// in\n    tag_704:\n        /* \"#utility.yul\":21579:21618   */\n      tag_705\n        /* \"#utility.yul\":21609:21617   */\n      dup7\n        /* \"#utility.yul\":21598:21607   */\n      dup4\n        /* \"#utility.yul\":21579:21618   */\n      tag_475\n      jump\t// in\n    tag_705:\n        /* \"#utility.yul\":21567:21618   */\n      swap6\n      pop\n        /* \"#utility.yul\":21651:21655   */\n      dup1\n        /* \"#utility.yul\":21647:21656   */\n      not\n        /* \"#utility.yul\":21640:21645   */\n      dup5\n        /* \"#utility.yul\":21636:21657   */\n      and\n        /* \"#utility.yul\":21627:21657   */\n      swap4\n      pop\n        /* \"#utility.yul\":21700:21704   */\n      dup1\n        /* \"#utility.yul\":21690:21698   */\n      dup7\n        /* \"#utility.yul\":21686:21705   */\n      and\n        /* \"#utility.yul\":21679:21684   */\n      dup5\n        /* \"#utility.yul\":21676:21706   */\n      or\n        /* \"#utility.yul\":21666:21706   */\n      swap3\n      pop\n        /* \"#utility.yul\":21395:21712   */\n      pop\n      pop\n        /* \"#utility.yul\":21319:21712   */\n      swap4\n      swap3\n      pop\n      pop\n      pop\n      jump\t// out\n        /* \"#utility.yul\":21718:21860   */\n    tag_477:\n        /* \"#utility.yul\":21768:21777   */\n      0x00\n        /* \"#utility.yul\":21801:21854   */\n      tag_707\n        /* \"#utility.yul\":21819:21853   */\n      tag_708\n        /* \"#utility.yul\":21828:21852   */\n      tag_709\n        /* \"#utility.yul\":21846:21851   */\n      dup5\n        /* \"#utility.yul\":21828:21852   */\n      tag_436\n      jump\t// in\n    tag_709:\n        /* \"#utility.yul\":21819:21853   */\n      tag_453\n      jump\t// in\n    tag_708:\n        /* \"#utility.yul\":21801:21854   */\n      tag_436\n      jump\t// in\n    tag_707:\n        /* \"#utility.yul\":21788:21854   */\n      swap1\n      pop\n        /* \"#utility.yul\":21718:21860   */\n      swap2\n      swap1\n      pop\n      jump\t// out\n        /* \"#utility.yul\":21866:21941   */\n    tag_478:\n        /* \"#utility.yul\":21909:21912   */\n      0x00\n        /* \"#utility.yul\":21930:21935   */\n      dup2\n        /* \"#utility.yul\":21923:21935   */\n      swap1\n      pop\n        /* \"#utility.yul\":21866:21941   */\n      swap2\n      swap1\n      pop\n      jump\t// out\n        /* \"#utility.yul\":21947:22216   */\n    tag_479:\n        /* \"#utility.yul\":22057:22096   */\n      tag_712\n        /* \"#utility.yul\":22088:22095   */\n      dup4\n        /* \"#utility.yul\":22057:22096   */\n      tag_477\n      jump\t// in\n    tag_712:\n        /* \"#utility.yul\":22118:22209   */\n      tag_713\n        /* \"#utility.yul\":22167:22208   */\n      tag_714\n        /* \"#utility.yul\":22191:22207   */\n      dup3\n        /* \"#utility.yul\":22167:22208   */\n      tag_478\n      jump\t// in\n    tag_714:\n        /* \"#utility.yul\":22159:22165   */\n      dup5\n        /* \"#utility.yul\":22152:22156   */\n      dup5\n        /* \"#utility.yul\":22146:22157   */\n      sload\n        /* \"#utility.yul\":22118:22209   */\n      tag_476\n      jump\t// in\n    tag_713:\n        /* \"#utility.yul\":22112:22116   */\n      dup3\n        /* \"#utility.yul\":22105:22210   */\n      sstore\n        /* \"#utility.yul\":22023:22216   */\n      pop\n        /* \"#utility.yul\":21947:22216   */\n      pop\n      pop\n      pop\n      jump\t// out\n        /* \"#utility.yul\":22222:22295   */\n    tag_480:\n        /* \"#utility.yul\":22267:22270   */\n      0x00\n        /* \"#utility.yul\":22288:22289   */\n      0x00\n        /* \"#utility.yul\":22281:22289   */\n      swap1\n      pop\n        /* \"#utility.yul\":22222:22295   */\n      swap1\n      jump\t// out\n        /* \"#utility.yul\":22301:22490   */\n    tag_481:\n        /* \"#utility.yul\":22378:22410   */\n      tag_717\n      tag_480\n      jump\t// in\n    tag_717:\n        /* \"#utility.yul\":22419:22484   */\n      tag_718\n        /* \"#utility.yul\":22477:22483   */\n      dup2\n        /* \"#utility.yul\":22469:22475   */\n      dup5\n        /* \"#utility.yul\":22463:22467   */\n      dup5\n        /* \"#utility.yul\":22419:22484   */\n      tag_479\n      jump\t// in\n    tag_718:\n        /* \"#utility.yul\":22354:22490   */\n      pop\n        /* \"#utility.yul\":22301:22490   */\n      pop\n      pop\n      jump\t// out\n        /* \"#utility.yul\":22496:22682   */\n    tag_482:\n        /* \"#utility.yul\":22556:22676   */\n    tag_720:\n        /* \"#utility.yul\":22573:22576   */\n      dup2\n        /* \"#utility.yul\":22566:22571   */\n      dup2\n        /* \"#utility.yul\":22563:22577   */\n      lt\n        /* \"#utility.yul\":22556:22676   */\n      iszero\n      tag_722\n      jumpi\n        /* \"#utility.yul\":22627:22666   */\n      tag_723\n        /* \"#utility.yul\":22664:22665   */\n      0x00\n        /* \"#utility.yul\":22657:22662   */\n      dup3\n        /* \"#utility.yul\":22627:22666   */\n      tag_481\n      jump\t// in\n    tag_723:\n        /* \"#utility.yul\":22600:22601   */\n      0x01\n        /* \"#utility.yul\":22593:22598   */\n      dup2\n        /* \"#utility.yul\":22589:22602   */\n      add\n        /* \"#utility.yul\":22580:22602   */\n      swap1\n      pop\n        /* \"#utility.yul\":22556:22676   */\n      jump(tag_720)\n    tag_722:\n        /* \"#utility.yul\":22496:22682   */\n      pop\n      pop\n      jump\t// out\n        /* \"#utility.yul\":22688:23231   */\n    tag_483:\n        /* \"#utility.yul\":22789:22791   */\n      0x1f\n        /* \"#utility.yul\":22784:22787   */\n      dup3\n        /* \"#utility.yul\":22781:22792   */\n      gt\n        /* \"#utility.yul\":22778:23224   */\n      iszero\n      tag_725\n      jumpi\n        /* \"#utility.yul\":22823:22861   */\n      tag_726\n        /* \"#utility.yul\":22855:22860   */\n      dup2\n        /* \"#utility.yul\":22823:22861   */\n      tag_473\n      jump\t// in\n    tag_726:\n        /* \"#utility.yul\":22907:22936   */\n      tag_727\n        /* \"#utility.yul\":22925:22935   */\n      dup5\n        /* \"#utility.yul\":22907:22936   */\n      tag_474\n      jump\t// in\n    tag_727:\n        /* \"#utility.yul\":22897:22905   */\n      dup2\n        /* \"#utility.yul\":22893:22937   */\n      add\n        /* \"#utility.yul\":23090:23092   */\n      0x20\n        /* \"#utility.yul\":23078:23088   */\n      dup6\n        /* \"#utility.yul\":23075:23093   */\n      lt\n        /* \"#utility.yul\":23072:23121   */\n      iszero\n      tag_728\n      jumpi\n        /* \"#utility.yul\":23111:23119   */\n      dup2\n        /* \"#utility.yul\":23096:23119   */\n      swap1\n      pop\n        /* \"#utility.yul\":23072:23121   */\n    tag_728:\n        /* \"#utility.yul\":23134:23214   */\n      tag_729\n        /* \"#utility.yul\":23190:23212   */\n      tag_730\n        /* \"#utility.yul\":23208:23211   */\n      dup6\n        /* \"#utility.yul\":23190:23212   */\n      tag_474\n      jump\t// in\n    tag_730:\n        /* \"#utility.yul\":23180:23188   */\n      dup4\n        /* \"#utility.yul\":23176:23213   */\n      add\n        /* \"#utility.yul\":23163:23174   */\n      dup3\n        /* \"#utility.yul\":23134:23214   */\n      tag_482\n      jump\t// in\n    tag_729:\n        /* \"#utility.yul\":22793:23224   */\n      pop\n      pop\n        /* \"#utility.yul\":22778:23224   */\n    tag_725:\n        /* \"#utility.yul\":22688:23231   */\n      pop\n      pop\n      pop\n      jump\t// out\n        /* \"#utility.yul\":23237:23354   */\n    tag_484:\n        /* \"#utility.yul\":23291:23299   */\n      0x00\n        /* \"#utility.yul\":23341:23346   */\n      dup3\n        /* \"#utility.yul\":23335:23339   */\n      dup3\n        /* \"#utility.yul\":23331:23347   */\n      shr\n        /* \"#utility.yul\":23310:23347   */\n      swap1\n      pop\n        /* \"#utility.yul\":23237:23354   */\n      swap3\n      swap2\n      pop\n      pop\n      jump\t// out\n        /* \"#utility.yul\":23360:23529   */\n    tag_485:\n        /* \"#utility.yul\":23404:23410   */\n      0x00\n        /* \"#utility.yul\":23437:23488   */\n      tag_733\n        /* \"#utility.yul\":23485:23486   */\n      0x00\n        /* \"#utility.yul\":23481:23487   */\n      not\n        /* \"#utility.yul\":23473:23478   */\n      dup5\n        /* \"#utility.yul\":23470:23471   */\n      0x08\n        /* \"#utility.yul\":23466:23479   */\n      mul\n        /* \"#utility.yul\":23437:23488   */\n      tag_484\n      jump\t// in\n    tag_733:\n        /* \"#utility.yul\":23433:23489   */\n      not\n        /* \"#utility.yul\":23518:23522   */\n      dup1\n        /* \"#utility.yul\":23512:23516   */\n      dup4\n        /* \"#utility.yul\":23508:23523   */\n      and\n        /* \"#utility.yul\":23498:23523   */\n      swap2\n      pop\n        /* \"#utility.yul\":23411:23529   */\n      pop\n        /* \"#utility.yul\":23360:23529   */\n      swap3\n      swap2\n      pop\n      pop\n      jump\t// out\n        /* \"#utility.yul\":23534:23829   */\n    tag_486:\n        /* \"#utility.yul\":23610:23614   */\n      0x00\n        /* \"#utility.yul\":23756:23785   */\n      tag_735\n        /* \"#utility.yul\":23781:23784   */\n      dup4\n        /* \"#utility.yul\":23775:23779   */\n      dup4\n        /* \"#utility.yul\":23756:23785   */\n      tag_485\n      jump\t// in\n    tag_735:\n        /* \"#utility.yul\":23748:23785   */\n      swap2\n      pop\n        /* \"#utility.yul\":23818:23821   */\n      dup3\n        /* \"#utility.yul\":23815:23816   */\n      0x02\n        /* \"#utility.yul\":23811:23822   */\n      mul\n        /* \"#utility.yul\":23805:23809   */\n      dup3\n        /* \"#utility.yul\":23802:23823   */\n      or\n        /* \"#utility.yul\":23794:23823   */\n      swap1\n      pop\n        /* \"#utility.yul\":23534:23829   */\n      swap3\n      swap2\n      pop\n      pop\n      jump\t// out\n        /* \"#utility.yul\":23834:25229   */\n    tag_310:\n        /* \"#utility.yul\":23951:23988   */\n      tag_737\n        /* \"#utility.yul\":23984:23987   */\n      dup3\n        /* \"#utility.yul\":23951:23988   */\n      tag_439\n      jump\t// in\n    tag_737:\n        /* \"#utility.yul\":24053:24071   */\n      0xffffffffffffffff\n        /* \"#utility.yul\":24045:24051   */\n      dup2\n        /* \"#utility.yul\":24042:24072   */\n      gt\n        /* \"#utility.yul\":24039:24095   */\n      iszero\n      tag_738\n      jumpi\n        /* \"#utility.yul\":24075:24093   */\n      tag_739\n      tag_446\n      jump\t// in\n    tag_739:\n        /* \"#utility.yul\":24039:24095   */\n    tag_738:\n        /* \"#utility.yul\":24119:24157   */\n      tag_740\n        /* \"#utility.yul\":24151:24155   */\n      dup3\n        /* \"#utility.yul\":24145:24156   */\n      sload\n        /* \"#utility.yul\":24119:24157   */\n      tag_272\n      jump\t// in\n    tag_740:\n        /* \"#utility.yul\":24204:24271   */\n      tag_741\n        /* \"#utility.yul\":24264:24270   */\n      dup3\n        /* \"#utility.yul\":24256:24262   */\n      dup3\n        /* \"#utility.yul\":24250:24254   */\n      dup6\n        /* \"#utility.yul\":24204:24271   */\n      tag_483\n      jump\t// in\n    tag_741:\n        /* \"#utility.yul\":24298:24299   */\n      0x00\n        /* \"#utility.yul\":24322:24326   */\n      0x20\n        /* \"#utility.yul\":24309:24326   */\n      swap1\n      pop\n        /* \"#utility.yul\":24354:24356   */\n      0x1f\n        /* \"#utility.yul\":24346:24352   */\n      dup4\n        /* \"#utility.yul\":24343:24357   */\n      gt\n        /* \"#utility.yul\":24371:24372   */\n      0x01\n        /* \"#utility.yul\":24366:24984   */\n      dup2\n      eq\n      tag_743\n      jumpi\n        /* \"#utility.yul\":25028:25029   */\n      0x00\n        /* \"#utility.yul\":25045:25051   */\n      dup5\n        /* \"#utility.yul\":25042:25119   */\n      iszero\n      tag_744\n      jumpi\n        /* \"#utility.yul\":25094:25103   */\n      dup3\n        /* \"#utility.yul\":25089:25092   */\n      dup8\n        /* \"#utility.yul\":25085:25104   */\n      add\n        /* \"#utility.yul\":25079:25105   */\n      mload\n        /* \"#utility.yul\":25070:25105   */\n      swap1\n      pop\n        /* \"#utility.yul\":25042:25119   */\n    tag_744:\n        /* \"#utility.yul\":25145:25212   */\n      tag_745\n        /* \"#utility.yul\":25205:25211   */\n      dup6\n        /* \"#utility.yul\":25198:25203   */\n      dup3\n        /* \"#utility.yul\":25145:25212   */\n      tag_486\n      jump\t// in\n    tag_745:\n        /* \"#utility.yul\":25139:25143   */\n      dup7\n        /* \"#utility.yul\":25132:25213   */\n      sstore\n        /* \"#utility.yul\":25001:25223   */\n      pop\n        /* \"#utility.yul\":24336:25223   */\n      jump(tag_742)\n        /* \"#utility.yul\":24366:24984   */\n    tag_743:\n        /* \"#utility.yul\":24418:24422   */\n      0x1f\n        /* \"#utility.yul\":24414:24423   */\n      not\n        /* \"#utility.yul\":24406:24412   */\n      dup5\n        /* \"#utility.yul\":24402:24424   */\n      and\n        /* \"#utility.yul\":24452:24489   */\n      tag_746\n        /* \"#utility.yul\":24484:24488   */\n      dup7\n        /* \"#utility.yul\":24452:24489   */\n      tag_473\n      jump\t// in\n    tag_746:\n        /* \"#utility.yul\":24511:24512   */\n      0x00\n        /* \"#utility.yul\":24525:24733   */\n    tag_747:\n        /* \"#utility.yul\":24539:24546   */\n      dup3\n        /* \"#utility.yul\":24536:24537   */\n      dup2\n        /* \"#utility.yul\":24533:24547   */\n      lt\n        /* \"#utility.yul\":24525:24733   */\n      iszero\n      tag_749\n      jumpi\n        /* \"#utility.yul\":24618:24627   */\n      dup5\n        /* \"#utility.yul\":24613:24616   */\n      dup10\n        /* \"#utility.yul\":24609:24628   */\n      add\n        /* \"#utility.yul\":24603:24629   */\n      mload\n        /* \"#utility.yul\":24595:24601   */\n      dup3\n        /* \"#utility.yul\":24588:24630   */\n      sstore\n        /* \"#utility.yul\":24669:24670   */\n      0x01\n        /* \"#utility.yul\":24661:24667   */\n      dup3\n        /* \"#utility.yul\":24657:24671   */\n      add\n        /* \"#utility.yul\":24647:24671   */\n      swap2\n      pop\n        /* \"#utility.yul\":24716:24718   */\n      0x20\n        /* \"#utility.yul\":24705:24714   */\n      dup6\n        /* \"#utility.yul\":24701:24719   */\n      add\n        /* \"#utility.yul\":24688:24719   */\n      swap5\n      pop\n        /* \"#utility.yul\":24562:24566   */\n      0x20\n        /* \"#utility.yul\":24559:24560   */\n      dup2\n        /* \"#utility.yul\":24555:24567   */\n      add\n        /* \"#utility.yul\":24550:24567   */\n      swap1\n      pop\n        /* \"#utility.yul\":24525:24733   */\n      jump(tag_747)\n    tag_749:\n        /* \"#utility.yul\":24761:24767   */\n      dup7\n        /* \"#utility.yul\":24752:24759   */\n      dup4\n        /* \"#utility.yul\":24749:24768   */\n      lt\n        /* \"#utility.yul\":24746:24925   */\n      iszero\n      tag_750\n      jumpi\n        /* \"#utility.yul\":24819:24828   */\n      dup5\n        /* \"#utility.yul\":24814:24817   */\n      dup10\n        /* \"#utility.yul\":24810:24829   */\n      add\n        /* \"#utility.yul\":24804:24830   */\n      mload\n        /* \"#utility.yul\":24862:24910   */\n      tag_751\n        /* \"#utility.yul\":24904:24908   */\n      0x1f\n        /* \"#utility.yul\":24896:24902   */\n      dup10\n        /* \"#utility.yul\":24892:24909   */\n      and\n        /* \"#utility.yul\":24881:24890   */\n      dup3\n        /* \"#utility.yul\":24862:24910   */\n      tag_485\n      jump\t// in\n    tag_751:\n        /* \"#utility.yul\":24854:24860   */\n      dup4\n        /* \"#utility.yul\":24847:24911   */\n      sstore\n        /* \"#utility.yul\":24769:24925   */\n      pop\n        /* \"#utility.yul\":24746:24925   */\n    tag_750:\n        /* \"#utility.yul\":24971:24972   */\n      0x01\n        /* \"#utility.yul\":24967:24968   */\n      0x02\n        /* \"#utility.yul\":24959:24965   */\n      dup9\n        /* \"#utility.yul\":24955:24969   */\n      mul\n        /* \"#utility.yul\":24951:24973   */\n      add\n        /* \"#utility.yul\":24945:24949   */\n      dup9\n        /* \"#utility.yul\":24938:24974   */\n      sstore\n        /* \"#utility.yul\":24373:24984   */\n      pop\n      pop\n      pop\n        /* \"#utility.yul\":24336:25223   */\n    tag_742:\n      pop\n        /* \"#utility.yul\":23926:25229   */\n      pop\n      pop\n      pop\n        /* \"#utility.yul\":23834:25229   */\n      pop\n      pop\n      jump\t// out\n        /* \"#utility.yul\":25235:25879   */\n    tag_312:\n        /* \"#utility.yul\":25432:25436   */\n      0x00\n        /* \"#utility.yul\":25470:25473   */\n      0x80\n        /* \"#utility.yul\":25459:25468   */\n      dup3\n        /* \"#utility.yul\":25455:25474   */\n      add\n        /* \"#utility.yul\":25447:25474   */\n      swap1\n      pop\n        /* \"#utility.yul\":25484:25555   */\n      tag_753\n        /* \"#utility.yul\":25552:25553   */\n      0x00\n        /* \"#utility.yul\":25541:25550   */\n      dup4\n        /* \"#utility.yul\":25537:25554   */\n      add\n        /* \"#utility.yul\":25528:25534   */\n      dup8\n        /* \"#utility.yul\":25484:25555   */\n      tag_443\n      jump\t// in\n    tag_753:\n        /* \"#utility.yul\":25602:25611   */\n      dup2\n        /* \"#utility.yul\":25596:25600   */\n      dup2\n        /* \"#utility.yul\":25592:25612   */\n      sub\n        /* \"#utility.yul\":25587:25589   */\n      0x20\n        /* \"#utility.yul\":25576:25585   */\n      dup4\n        /* \"#utility.yul\":25572:25590   */\n      add\n        /* \"#utility.yul\":25565:25613   */\n      mstore\n        /* \"#utility.yul\":25630:25708   */\n      tag_754\n        /* \"#utility.yul\":25703:25707   */\n      dup2\n        /* \"#utility.yul\":25694:25700   */\n      dup7\n        /* \"#utility.yul\":25630:25708   */\n      tag_442\n      jump\t// in\n    tag_754:\n        /* \"#utility.yul\":25622:25708   */\n      swap1\n      pop\n        /* \"#utility.yul\":25718:25790   */\n      tag_755\n        /* \"#utility.yul\":25786:25788   */\n      0x40\n        /* \"#utility.yul\":25775:25784   */\n      dup4\n        /* \"#utility.yul\":25771:25789   */\n      add\n        /* \"#utility.yul\":25762:25768   */\n      dup6\n        /* \"#utility.yul\":25718:25790   */\n      tag_443\n      jump\t// in\n    tag_755:\n        /* \"#utility.yul\":25800:25872   */\n      tag_756\n        /* \"#utility.yul\":25868:25870   */\n      0x60\n        /* \"#utility.yul\":25857:25866   */\n      dup4\n        /* \"#utility.yul\":25853:25871   */\n      add\n        /* \"#utility.yul\":25844:25850   */\n      dup5\n        /* \"#utility.yul\":25800:25872   */\n      tag_427\n      jump\t// in\n    tag_756:\n        /* \"#utility.yul\":25235:25879   */\n      swap6\n      swap5\n      pop\n      pop\n      pop\n      pop\n      pop\n      jump\t// out\n        /* \"#utility.yul\":25885:26057   */\n    tag_487:\n        /* \"#utility.yul\":26025:26049   */\n      0x5265737472696374656420746f2061756469746f727300000000000000000000\n        /* \"#utility.yul\":26021:26022   */\n      0x00\n        /* \"#utility.yul\":26013:26019   */\n      dup3\n        /* \"#utility.yul\":26009:26023   */\n      add\n        /* \"#utility.yul\":26002:26050   */\n      mstore\n        /* \"#utility.yul\":25885:26057   */\n      pop\n      jump\t// out\n        /* \"#utility.yul\":26063:26429   */\n    tag_488:\n        /* \"#utility.yul\":26205:26208   */\n      0x00\n        /* \"#utility.yul\":26226:26293   */\n      tag_759\n        /* \"#utility.yul\":26290:26292   */\n      0x16\n        /* \"#utility.yul\":26285:26288   */\n      dup4\n        /* \"#utility.yul\":26226:26293   */\n      tag_412\n      jump\t// in\n    tag_759:\n        /* \"#utility.yul\":26219:26293   */\n      swap2\n      pop\n        /* \"#utility.yul\":26302:26395   */\n      tag_760\n        /* \"#utility.yul\":26391:26394   */\n      dup3\n        /* \"#utility.yul\":26302:26395   */\n      tag_487\n      jump\t// in\n    tag_760:\n        /* \"#utility.yul\":26420:26422   */\n      0x20\n        /* \"#utility.yul\":26415:26418   */\n      dup3\n        /* \"#utility.yul\":26411:26423   */\n      add\n        /* \"#utility.yul\":26404:26423   */\n      swap1\n      pop\n        /* \"#utility.yul\":26063:26429   */\n      swap2\n      swap1\n      pop\n      jump\t// out\n        /* \"#utility.yul\":26435:26854   */\n    tag_323:\n        /* \"#utility.yul\":26601:26605   */\n      0x00\n        /* \"#utility.yul\":26639:26641   */\n      0x20\n        /* \"#utility.yul\":26628:26637   */\n      dup3\n        /* \"#utility.yul\":26624:26642   */\n      add\n        /* \"#utility.yul\":26616:26642   */\n      swap1\n      pop\n        /* \"#utility.yul\":26688:26697   */\n      dup2\n        /* \"#utility.yul\":26682:26686   */\n      dup2\n        /* \"#utility.yul\":26678:26698   */\n      sub\n        /* \"#utility.yul\":26674:26675   */\n      0x00\n        /* \"#utility.yul\":26663:26672   */\n      dup4\n        /* \"#utility.yul\":26659:26676   */\n      add\n        /* \"#utility.yul\":26652:26699   */\n      mstore\n        /* \"#utility.yul\":26716:26847   */\n      tag_762\n        /* \"#utility.yul\":26842:26846   */\n      dup2\n        /* \"#utility.yul\":26716:26847   */\n      tag_488\n      jump\t// in\n    tag_762:\n        /* \"#utility.yul\":26708:26847   */\n      swap1\n      pop\n        /* \"#utility.yul\":26435:26854   */\n      swap2\n      swap1\n      pop\n      jump\t// out\n        /* \"#utility.yul\":26860:27036   */\n    tag_489:\n        /* \"#utility.yul\":27000:27028   */\n      0x50726f64756374206973207374696c6c20617661696c61626c65000000000000\n        /* \"#utility.yul\":26996:26997   */\n      0x00\n        /* \"#utility.yul\":26988:26994   */\n      dup3\n        /* \"#utility.yul\":26984:26998   */\n      add\n        /* \"#utility.yul\":26977:27029   */\n      mstore\n        /* \"#utility.yul\":26860:27036   */\n      pop\n      jump\t// out\n        /* \"#utility.yul\":27042:27408   */\n    tag_490:\n        /* \"#utility.yul\":27184:27187   */\n      0x00\n        /* \"#utility.yul\":27205:27272   */\n      tag_765\n        /* \"#utility.yul\":27269:27271   */\n      0x1a\n        /* \"#utility.yul\":27264:27267   */\n      dup4\n        /* \"#utility.yul\":27205:27272   */\n      tag_412\n      jump\t// in\n    tag_765:\n        /* \"#utility.yul\":27198:27272   */\n      swap2\n      pop\n        /* \"#utility.yul\":27281:27374   */\n      tag_766\n        /* \"#utility.yul\":27370:27373   */\n      dup3\n        /* \"#utility.yul\":27281:27374   */\n      tag_489\n      jump\t// in\n    tag_766:\n        /* \"#utility.yul\":27399:27401   */\n      0x20\n        /* \"#utility.yul\":27394:27397   */\n      dup3\n        /* \"#utility.yul\":27390:27402   */\n      add\n        /* \"#utility.yul\":27383:27402   */\n      swap1\n      pop\n        /* \"#utility.yul\":27042:27408   */\n      swap2\n      swap1\n      pop\n      jump\t// out\n        /* \"#utility.yul\":27414:27833   */\n    tag_329:\n        /* \"#utility.yul\":27580:27584   */\n      0x00\n        /* \"#utility.yul\":27618:27620   */\n      0x20\n        /* \"#utility.yul\":27607:27616   */\n      dup3\n        /* \"#utility.yul\":27603:27621   */\n      add\n        /* \"#utility.yul\":27595:27621   */\n      swap1\n      pop\n        /* \"#utility.yul\":27667:27676   */\n      dup2\n        /* \"#utility.yul\":27661:27665   */\n      dup2\n        /* \"#utility.yul\":27657:27677   */\n      sub\n        /* \"#utility.yul\":27653:27654   */\n      0x00\n        /* \"#utility.yul\":27642:27651   */\n      dup4\n        /* \"#utility.yul\":27638:27655   */\n      add\n        /* \"#utility.yul\":27631:27678   */\n      mstore\n        /* \"#utility.yul\":27695:27826   */\n      tag_768\n        /* \"#utility.yul\":27821:27825   */\n      dup2\n        /* \"#utility.yul\":27695:27826   */\n      tag_490\n      jump\t// in\n    tag_768:\n        /* \"#utility.yul\":27687:27826   */\n      swap1\n      pop\n        /* \"#utility.yul\":27414:27833   */\n      swap2\n      swap1\n      pop\n      jump\t// out\n        /* \"#utility.yul\":27839:28071   */\n    tag_491:\n        /* \"#utility.yul\":27979:28013   */\n      0x4f6e6c79207468652073656c6c65722063616e20757064617465207468652070\n        /* \"#utility.yul\":27975:27976   */\n      0x00\n        /* \"#utility.yul\":27967:27973   */\n      dup3\n        /* \"#utility.yul\":27963:27977   */\n      add\n        /* \"#utility.yul\":27956:28014   */\n      mstore\n        /* \"#utility.yul\":28048:28063   */\n      0x726f647563742073746174757300000000000000000000000000000000000000\n        /* \"#utility.yul\":28043:28045   */\n      0x20\n        /* \"#utility.yul\":28035:28041   */\n      dup3\n        /* \"#utility.yul\":28031:28046   */\n      add\n        /* \"#utility.yul\":28024:28064   */\n      mstore\n        /* \"#utility.yul\":27839:28071   */\n      pop\n      jump\t// out\n        /* \"#utility.yul\":28077:28443   */\n    tag_492:\n        /* \"#utility.yul\":28219:28222   */\n      0x00\n        /* \"#utility.yul\":28240:28307   */\n      tag_771\n        /* \"#utility.yul\":28304:28306   */\n      0x2d\n        /* \"#utility.yul\":28299:28302   */\n      dup4\n        /* \"#utility.yul\":28240:28307   */\n      tag_412\n      jump\t// in\n    tag_771:\n        /* \"#utility.yul\":28233:28307   */\n      swap2\n      pop\n        /* \"#utility.yul\":28316:28409   */\n      tag_772\n        /* \"#utility.yul\":28405:28408   */\n      dup3\n        /* \"#utility.yul\":28316:28409   */\n      tag_491\n      jump\t// in\n    tag_772:\n        /* \"#utility.yul\":28434:28436   */\n      0x40\n        /* \"#utility.yul\":28429:28432   */\n      dup3\n        /* \"#utility.yul\":28425:28437   */\n      add\n        /* \"#utility.yul\":28418:28437   */\n      swap1\n      pop\n        /* \"#utility.yul\":28077:28443   */\n      swap2\n      swap1\n      pop\n      jump\t// out\n        /* \"#utility.yul\":28449:28868   */\n    tag_355:\n        /* \"#utility.yul\":28615:28619   */\n      0x00\n        /* \"#utility.yul\":28653:28655   */\n      0x20\n        /* \"#utility.yul\":28642:28651   */\n      dup3\n        /* \"#utility.yul\":28638:28656   */\n      add\n        /* \"#utility.yul\":28630:28656   */\n      swap1\n      pop\n        /* \"#utility.yul\":28702:28711   */\n      dup2\n        /* \"#utility.yul\":28696:28700   */\n      dup2\n        /* \"#utility.yul\":28692:28712   */\n      sub\n        /* \"#utility.yul\":28688:28689   */\n      0x00\n        /* \"#utility.yul\":28677:28686   */\n      dup4\n        /* \"#utility.yul\":28673:28690   */\n      add\n        /* \"#utility.yul\":28666:28713   */\n      mstore\n        /* \"#utility.yul\":28730:28861   */\n      tag_774\n        /* \"#utility.yul\":28856:28860   */\n      dup2\n        /* \"#utility.yul\":28730:28861   */\n      tag_492\n      jump\t// in\n    tag_774:\n        /* \"#utility.yul\":28722:28861   */\n      swap1\n      pop\n        /* \"#utility.yul\":28449:28868   */\n      swap2\n      swap1\n      pop\n      jump\t// out\n        /* \"#utility.yul\":28874:29194   */\n    tag_357:\n        /* \"#utility.yul\":28989:28993   */\n      0x00\n        /* \"#utility.yul\":29027:29029   */\n      0x40\n        /* \"#utility.yul\":29016:29025   */\n      dup3\n        /* \"#utility.yul\":29012:29030   */\n      add\n        /* \"#utility.yul\":29004:29030   */\n      swap1\n      pop\n        /* \"#utility.yul\":29040:29111   */\n      tag_776\n        /* \"#utility.yul\":29108:29109   */\n      0x00\n        /* \"#utility.yul\":29097:29106   */\n      dup4\n        /* \"#utility.yul\":29093:29110   */\n      add\n        /* \"#utility.yul\":29084:29090   */\n      dup6\n        /* \"#utility.yul\":29040:29111   */\n      tag_443\n      jump\t// in\n    tag_776:\n        /* \"#utility.yul\":29121:29187   */\n      tag_777\n        /* \"#utility.yul\":29183:29185   */\n      0x20\n        /* \"#utility.yul\":29172:29181   */\n      dup4\n        /* \"#utility.yul\":29168:29186   */\n      add\n        /* \"#utility.yul\":29159:29165   */\n      dup5\n        /* \"#utility.yul\":29121:29187   */\n      tag_424\n      jump\t// in\n    tag_777:\n        /* \"#utility.yul\":28874:29194   */\n      swap4\n      swap3\n      pop\n      pop\n      pop\n      jump\t// out\n        /* \"#utility.yul\":29200:29366   */\n    tag_493:\n        /* \"#utility.yul\":29340:29358   */\n      0x5061757361626c653a2070617573656400000000000000000000000000000000\n        /* \"#utility.yul\":29336:29337   */\n      0x00\n        /* \"#utility.yul\":29328:29334   */\n      dup3\n        /* \"#utility.yul\":29324:29338   */\n      add\n        /* \"#utility.yul\":29317:29359   */\n      mstore\n        /* \"#utility.yul\":29200:29366   */\n      pop\n      jump\t// out\n        /* \"#utility.yul\":29372:29738   */\n    tag_494:\n        /* \"#utility.yul\":29514:29517   */\n      0x00\n        /* \"#utility.yul\":29535:29602   */\n      tag_780\n        /* \"#utility.yul\":29599:29601   */\n      0x10\n        /* \"#utility.yul\":29594:29597   */\n      dup4\n        /* \"#utility.yul\":29535:29602   */\n      tag_412\n      jump\t// in\n    tag_780:\n        /* \"#utility.yul\":29528:29602   */\n      swap2\n      pop\n        /* \"#utility.yul\":29611:29704   */\n      tag_781\n        /* \"#utility.yul\":29700:29703   */\n      dup3\n        /* \"#utility.yul\":29611:29704   */\n      tag_493\n      jump\t// in\n    tag_781:\n        /* \"#utility.yul\":29729:29731   */\n      0x20\n        /* \"#utility.yul\":29724:29727   */\n      dup3\n        /* \"#utility.yul\":29720:29732   */\n      add\n        /* \"#utility.yul\":29713:29732   */\n      swap1\n      pop\n        /* \"#utility.yul\":29372:29738   */\n      swap2\n      swap1\n      pop\n      jump\t// out\n        /* \"#utility.yul\":29744:30163   */\n    tag_390:\n        /* \"#utility.yul\":29910:29914   */\n      0x00\n        /* \"#utility.yul\":29948:29950   */\n      0x20\n        /* \"#utility.yul\":29937:29946   */\n      dup3\n        /* \"#utility.yul\":29933:29951   */\n      add\n        /* \"#utility.yul\":29925:29951   */\n      swap1\n      pop\n        /* \"#utility.yul\":29997:30006   */\n      dup2\n        /* \"#utility.yul\":29991:29995   */\n      dup2\n        /* \"#utility.yul\":29987:30007   */\n      sub\n        /* \"#utility.yul\":29983:29984   */\n      0x00\n        /* \"#utility.yul\":29972:29981   */\n      dup4\n        /* \"#utility.yul\":29968:29985   */\n      add\n        /* \"#utility.yul\":29961:30008   */\n      mstore\n        /* \"#utility.yul\":30025:30156   */\n      tag_783\n        /* \"#utility.yul\":30151:30155   */\n      dup2\n        /* \"#utility.yul\":30025:30156   */\n      tag_494\n      jump\t// in\n    tag_783:\n        /* \"#utility.yul\":30017:30156   */\n      swap1\n      pop\n        /* \"#utility.yul\":29744:30163   */\n      swap2\n      swap1\n      pop\n      jump\t// out\n        /* \"#utility.yul\":30169:30501   */\n    tag_406:\n        /* \"#utility.yul\":30290:30294   */\n      0x00\n        /* \"#utility.yul\":30328:30330   */\n      0x40\n        /* \"#utility.yul\":30317:30326   */\n      dup3\n        /* \"#utility.yul\":30313:30331   */\n      add\n        /* \"#utility.yul\":30305:30331   */\n      swap1\n      pop\n        /* \"#utility.yul\":30341:30412   */\n      tag_785\n        /* \"#utility.yul\":30409:30410   */\n      0x00\n        /* \"#utility.yul\":30398:30407   */\n      dup4\n        /* \"#utility.yul\":30394:30411   */\n      add\n        /* \"#utility.yul\":30385:30391   */\n      dup6\n        /* \"#utility.yul\":30341:30412   */\n      tag_427\n      jump\t// in\n    tag_785:\n        /* \"#utility.yul\":30422:30494   */\n      tag_786\n        /* \"#utility.yul\":30490:30492   */\n      0x20\n        /* \"#utility.yul\":30479:30488   */\n      dup4\n        /* \"#utility.yul\":30475:30493   */\n      add\n        /* \"#utility.yul\":30466:30472   */\n      dup5\n        /* \"#utility.yul\":30422:30494   */\n      tag_431\n      jump\t// in\n    tag_786:\n        /* \"#utility.yul\":30169:30501   */\n      swap4\n      swap3\n      pop\n      pop\n      pop\n      jump\t// out\n        /* \"#utility.yul\":30507:30677   */\n    tag_495:\n        /* \"#utility.yul\":30647:30669   */\n      0x5061757361626c653a206e6f7420706175736564000000000000000000000000\n        /* \"#utility.yul\":30643:30644   */\n      0x00\n        /* \"#utility.yul\":30635:30641   */\n      dup3\n        /* \"#utility.yul\":30631:30645   */\n      add\n        /* \"#utility.yul\":30624:30670   */\n      mstore\n        /* \"#utility.yul\":30507:30677   */\n      pop\n      jump\t// out\n        /* \"#utility.yul\":30683:31049   */\n    tag_496:\n        /* \"#utility.yul\":30825:30828   */\n      0x00\n        /* \"#utility.yul\":30846:30913   */\n      tag_789\n        /* \"#utility.yul\":30910:30912   */\n      0x14\n        /* \"#utility.yul\":30905:30908   */\n      dup4\n        /* \"#utility.yul\":30846:30913   */\n      tag_412\n      jump\t// in\n    tag_789:\n        /* \"#utility.yul\":30839:30913   */\n      swap2\n      pop\n        /* \"#utility.yul\":30922:31015   */\n      tag_790\n        /* \"#utility.yul\":31011:31014   */\n      dup3\n        /* \"#utility.yul\":30922:31015   */\n      tag_495\n      jump\t// in\n    tag_790:\n        /* \"#utility.yul\":31040:31042   */\n      0x20\n        /* \"#utility.yul\":31035:31038   */\n      dup3\n        /* \"#utility.yul\":31031:31043   */\n      add\n        /* \"#utility.yul\":31024:31043   */\n      swap1\n      pop\n        /* \"#utility.yul\":30683:31049   */\n      swap2\n      swap1\n      pop\n      jump\t// out\n        /* \"#utility.yul\":31055:31474   */\n    tag_411:\n        /* \"#utility.yul\":31221:31225   */\n      0x00\n        /* \"#utility.yul\":31259:31261   */\n      0x20\n        /* \"#utility.yul\":31248:31257   */\n      dup3\n        /* \"#utility.yul\":31244:31262   */\n      add\n        /* \"#utility.yul\":31236:31262   */\n      swap1\n      pop\n        /* \"#utility.yul\":31308:31317   */\n      dup2\n        /* \"#utility.yul\":31302:31306   */\n      dup2\n        /* \"#utility.yul\":31298:31318   */\n      sub\n        /* \"#utility.yul\":31294:31295   */\n      0x00\n        /* \"#utility.yul\":31283:31292   */\n      dup4\n        /* \"#utility.yul\":31279:31296   */\n      add\n        /* \"#utility.yul\":31272:31319   */\n      mstore\n        /* \"#utility.yul\":31336:31467   */\n      tag_792\n        /* \"#utility.yul\":31462:31466   */\n      dup2\n        /* \"#utility.yul\":31336:31467   */\n      tag_496\n      jump\t// in\n    tag_792:\n        /* \"#utility.yul\":31328:31467   */\n      swap1\n      pop\n        /* \"#utility.yul\":31055:31474   */\n      swap2\n      swap1\n      pop\n      jump\t// out\n\n    auxdata: 0xa2646970667358221220b9614071285a4b36dbddccae3c012b7cfb0eb068a8b5c0cc04b7ece5a0b71eab64736f6c634300081c0033\n}\n",
				"bytecode": {
					"linkReferences": {},
					"object": "608060405234801561000f575f5ffd5b5060405161338f38038061338f833981810160405281019061003191906105ba565b5f60015f6101000a81548160ff0219169083151502179055505f73ffffffffffffffffffffffffffffffffffffffff168173ffffffffffffffffffffffffffffffffffffffff16036100b8576040517f08c379a00000000000000000000000000000000000000000000000000000000081526004016100af9061063f565b60405180910390fd5b8060045f6101000a81548173ffffffffffffffffffffffffffffffffffffffff021916908373ffffffffffffffffffffffffffffffffffffffff1602179055506101287fa49807205ce4d355092ef5a8a18f56e8913cf4a201fbe287825b095693c217753361038360201b60201c565b5061016d7f43f25613eb2f15fb17222a5d424ca2655743e71265d98e4b93c05e5fb589ecde735b38da6a701c568545dcfcb03fcb875f56beddc461038360201b60201c565b506101b27ff8cd32ed93fc2f9fc78152a14807c9609af3d99c5fe4dc6b106a801aaddfe90e734b20993bc481177ec7e8f571cecae8a9e22c02db61038360201b60201c565b506101f77f190acb99f29d9641c9ad47655049f2d7c78fcbc837d62e7981d28c871f7220817378731d3ca6b7e34ac0f824c42a7cc18a495cabab61038360201b60201c565b5061023c7f59a1c48e5837ad7a7f3dcedcbe129bf3249ec4fbf651fd4f5e2600ead39fe2f57378731d3ca6b7e34ac0f824c42a7cc18a495cabab61038360201b60201c565b5061028d7f43f25613eb2f15fb17222a5d424ca2655743e71265d98e4b93c05e5fb589ecde7fa49807205ce4d355092ef5a8a18f56e8913cf4a201fbe287825b095693c2177561047860201b60201c565b6102dd7ff8cd32ed93fc2f9fc78152a14807c9609af3d99c5fe4dc6b106a801aaddfe90e7fa49807205ce4d355092ef5a8a18f56e8913cf4a201fbe287825b095693c2177561047860201b60201c565b61032d7f190acb99f29d9641c9ad47655049f2d7c78fcbc837d62e7981d28c871f7220817fa49807205ce4d355092ef5a8a18f56e8913cf4a201fbe287825b095693c2177561047860201b60201c565b61037d7f59a1c48e5837ad7a7f3dcedcbe129bf3249ec4fbf651fd4f5e2600ead39fe2f57fa49807205ce4d355092ef5a8a18f56e8913cf4a201fbe287825b095693c2177561047860201b60201c565b5061065d565b5f61039483836104d660201b60201c565b61046e5760015f5f8581526020019081526020015f205f015f8473ffffffffffffffffffffffffffffffffffffffff1673ffffffffffffffffffffffffffffffffffffffff1681526020019081526020015f205f6101000a81548160ff02191690831515021790555061040b61053960201b60201c565b73ffffffffffffffffffffffffffffffffffffffff168273ffffffffffffffffffffffffffffffffffffffff16847f2f8788117e7eff1d82e926ec794901d17c78024a50270940304540a733656f0d60405160405180910390a460019050610472565b5f90505b92915050565b5f6104888361054060201b60201c565b9050815f5f8581526020019081526020015f20600101819055508181847fbd79b86ffe0ab8e8776151514217cd7cacd52c909f66475c3af44e129f0b00ff60405160405180910390a4505050565b5f5f5f8481526020019081526020015f205f015f8373ffffffffffffffffffffffffffffffffffffffff1673ffffffffffffffffffffffffffffffffffffffff1681526020019081526020015f205f9054906101000a900460ff16905092915050565b5f33905090565b5f5f5f8381526020019081526020015f20600101549050919050565b5f5ffd5b5f73ffffffffffffffffffffffffffffffffffffffff82169050919050565b5f61058982610560565b9050919050565b6105998161057f565b81146105a3575f5ffd5b50565b5f815190506105b481610590565b92915050565b5f602082840312156105cf576105ce61055c565b5b5f6105dc848285016105a6565b91505092915050565b5f82825260208201905092915050565b7f496e76616c69642049434f20636f6e74726163742061646472657373000000005f82015250565b5f610629601c836105e5565b9150610634826105f5565b602082019050919050565b5f6020820190508181035f8301526106568161061d565b9050919050565b612d258061066a5f395ff3fe608060405260043610610212575f3560e01c80637cb9cf5411610117578063c3634ddc1161009f578063dbe4613d1161006e578063dbe4613d146107af578063e08903b1146107d9578063e0f6ef8714610801578063e429cef11461082b578063e6116cfd1461085357610252565b8063c3634ddc1461070d578063c66e409514610735578063d547741f1461075f578063d93fabfa1461078757610252565b8063a217fddf116100e6578063a217fddf1461063f578063b15247d914610669578063b235ce8514610691578063b65c5e8d146106bb578063bbf89803146106e557610252565b80637cb9cf541461059d5780638456cb59146105c557806391d14854146105db5780639699a82d1461061757610252565b8063410b27241161019a5780636f75b00c116101695780636f75b00c146104b757806375b238fc146104df57806376809ce3146105095780637a01a1da146105335780637acc0b201461055d57610252565b8063410b27241461041157806344834aca146104395780635c975abb146104635780636e1d616e1461048d57610252565b8063313ce567116101e1578063313ce5671461035757806336568abe1461038157806338e76a03146103a95780633d9b2ae6146103d15780633f4ba83a146103fb57610252565b806301ffc9a71461028d5780631fc6cf22146102c9578063248a9ca3146102f35780632f2ff15d1461032f57610252565b36610252576040517f08c379a000000000000000000000000000000000000000000000000000000000815260040161024990611de5565b60405180910390fd5b6040517f08c379a000000000000000000000000000000000000000000000000000000000815260040161028490611e73565b60405180910390fd5b348015610298575f5ffd5b506102b360048036038101906102ae9190611ef7565b61087b565b6040516102c09190611f3c565b60405180910390f35b3480156102d4575f5ffd5b506102dd6108f4565b6040516102ea9190611f94565b60405180910390f35b3480156102fe575f5ffd5b5061031960048036038101906103149190611fe0565b61090c565b604051610326919061201a565b60405180910390f35b34801561033a575f5ffd5b506103556004803603810190610350919061205d565b610928565b005b348015610362575f5ffd5b5061036b61094a565b60405161037891906120b6565b60405180910390f35b34801561038c575f5ffd5b506103a760048036038101906103a2919061205d565b610952565b005b3480156103b4575f5ffd5b506103cf60048036038101906103ca9190612102565b6109cd565b005b3480156103dc575f5ffd5b506103e5610bcd565b6040516103f29190611f94565b60405180910390f35b348015610406575f5ffd5b5061040f610be5565b005b34801561041c575f5ffd5b506104376004803603810190610432919061212d565b610c1a565b005b348015610444575f5ffd5b5061044d610cb0565b60405161045a9190611f94565b60405180910390f35b34801561046e575f5ffd5b50610477610cc8565b6040516104849190611f3c565b60405180910390f35b348015610498575f5ffd5b506104a1610cdd565b6040516104ae919061201a565b60405180910390f35b3480156104c2575f5ffd5b506104dd60048036038101906104d8919061212d565b610d01565b005b3480156104ea575f5ffd5b506104f3610d97565b604051610500919061201a565b60405180910390f35b348015610514575f5ffd5b5061051d610dbb565b60405161052a91906120b6565b60405180910390f35b34801561053e575f5ffd5b50610547610dc0565b604051610554919061201a565b60405180910390f35b348015610568575f5ffd5b50610583600480360381019061057e9190612102565b610de4565b6040516105949594939291906121c7565b60405180910390f35b3480156105a8575f5ffd5b506105c360048036038101906105be919061212d565b610ee7565b005b3480156105d0575f5ffd5b506105d9610f7d565b005b3480156105e6575f5ffd5b5061060160048036038101906105fc919061205d565b610fb2565b60405161060e9190611f3c565b60405180910390f35b348015610622575f5ffd5b5061063d6004803603810190610638919061212d565b611015565b005b34801561064a575f5ffd5b506106536110ab565b604051610660919061201a565b60405180910390f35b348015610674575f5ffd5b5061068f600480360381019061068a919061234b565b6110b1565b005b34801561069c575f5ffd5b506106a5611320565b6040516106b29190611f94565b60405180910390f35b3480156106c6575f5ffd5b506106cf611338565b6040516106dc919061201a565b60405180910390f35b3480156106f0575f5ffd5b5061070b6004803603810190610706919061212d565b61135c565b005b348015610718575f5ffd5b50610733600480360381019061072e9190612102565b6113f2565b005b348015610740575f5ffd5b506107496115ec565b6040516107569190612400565b60405180910390f35b34801561076a575f5ffd5b506107856004803603810190610780919061205d565b611611565b005b348015610792575f5ffd5b506107ad60048036038101906107a8919061212d565b611633565b005b3480156107ba575f5ffd5b506107c36116c9565b6040516107d0919061201a565b60405180910390f35b3480156107e4575f5ffd5b506107ff60048036038101906107fa9190612443565b6116ed565b005b34801561080c575f5ffd5b5061081561185d565b6040516108229190612481565b60405180910390f35b348015610836575f5ffd5b50610851600480360381019061084c919061212d565b611863565b005b34801561085e575f5ffd5b506108796004803603810190610874919061212d565b6118f9565b005b5f7f7965db0b000000000000000000000000000000000000000000000000000000007bffffffffffffffffffffffffffffffffffffffffffffffffffffffff1916827bffffffffffffffffffffffffffffffffffffffffffffffffffffffff191614806108ed57506108ec8261198f565b5b9050919050565b7378731d3ca6b7e34ac0f824c42a7cc18a495cabab81565b5f5f5f8381526020019081526020015f20600101549050919050565b6109318261090c565b61093a816119f8565b6109448383611a0c565b50505050565b5f6012905090565b61095a611af5565b73ffffffffffffffffffffffffffffffffffffffff168173ffffffffffffffffffffffffffffffffffffffff16146109be576040517f6697b23200000000000000000000000000000000000000000000000000000000815260040160405180910390fd5b6109c88282611afc565b505050565b6109f77ff8cd32ed93fc2f9fc78152a14807c9609af3d99c5fe4dc6b106a801aaddfe90e33610fb2565b610a36576040517f08c379a0000000000000000000000000000000000000000000000000000000008152600401610a2d906124e4565b60405180910390fd5b610a3e611be5565b5f60025f8381526020019081526020015f2090508060020160149054906101000a900460ff16610aa3576040517f08c379a0000000000000000000000000000000000000000000000000000000008152600401610a9a9061254c565b60405180910390fd5b60045f9054906101000a900473ffffffffffffffffffffffffffffffffffffffff1673ffffffffffffffffffffffffffffffffffffffff1663f04a72b3838360010154336040518463ffffffff1660e01b8152600401610b059392919061256a565b5f604051808303815f87803b158015610b1c575f5ffd5b505af1158015610b2e573d5f5f3e3d5ffd5b5050505033816003015f6101000a81548173ffffffffffffffffffffffffffffffffffffffff021916908373ffffffffffffffffffffffffffffffffffffffff1602179055505f8160020160146101000a81548160ff0219169083151502179055507f9ad4ecfaf27ea0cbeebee0ed92fe15c8a84975f1e3d45ccfc526d7751dcf98ff8233604051610bc192919061259f565b60405180910390a15050565b735b38da6a701c568545dcfcb03fcb875f56beddc481565b7fa49807205ce4d355092ef5a8a18f56e8913cf4a201fbe287825b095693c21775610c0f816119f8565b610c17611c2f565b50565b610c447fa49807205ce4d355092ef5a8a18f56e8913cf4a201fbe287825b095693c2177533610fb2565b610c83576040517f08c379a0000000000000000000000000000000000000000000000000000000008152600401610c7a90612610565b60405180910390fd5b610cad7f190acb99f29d9641c9ad47655049f2d7c78fcbc837d62e7981d28c871f72208182610928565b50565b734b20993bc481177ec7e8f571cecae8a9e22c02db81565b5f60015f9054906101000a900460ff16905090565b7f59a1c48e5837ad7a7f3dcedcbe129bf3249ec4fbf651fd4f5e2600ead39fe2f581565b610d2b7fa49807205ce4d355092ef5a8a18f56e8913cf4a201fbe287825b095693c2177533610fb2565b610d6a576040517f08c379a0000000000000000000000000000000000000000000000000000000008152600401610d6190612610565b60405180910390fd5b610d947ff8cd32ed93fc2f9fc78152a14807c9609af3d99c5fe4dc6b106a801aaddfe90e82611611565b50565b7fa49807205ce4d355092ef5a8a18f56e8913cf4a201fbe287825b095693c2177581565b601281565b7ff8cd32ed93fc2f9fc78152a14807c9609af3d99c5fe4dc6b106a801aaddfe90e81565b6002602052805f5260405f205f91509050805f018054610e039061265b565b80601f0160208091040260200160405190810160405280929190818152602001828054610e2f9061265b565b8015610e7a5780601f10610e5157610100808354040283529160200191610e7a565b820191905f5260205f20905b815481529060010190602001808311610e5d57829003601f168201915b505050505090806001015490806002015f9054906101000a900473ffffffffffffffffffffffffffffffffffffffff16908060020160149054906101000a900460ff1690806003015f9054906101000a900473ffffffffffffffffffffffffffffffffffffffff16905085565b610f117fa49807205ce4d355092ef5a8a18f56e8913cf4a201fbe287825b095693c2177533610fb2565b610f50576040517f08c379a0000000000000000000000000000000000000000000000000000000008152600401610f4790612610565b60405180910390fd5b610f7a7f43f25613eb2f15fb17222a5d424ca2655743e71265d98e4b93c05e5fb589ecde82611611565b50565b7fa49807205ce4d355092ef5a8a18f56e8913cf4a201fbe287825b095693c21775610fa7816119f8565b610faf611c90565b50565b5f5f5f8481526020019081526020015f205f015f8373ffffffffffffffffffffffffffffffffffffffff1673ffffffffffffffffffffffffffffffffffffffff1681526020019081526020015f205f9054906101000a900460ff16905092915050565b61103f7fa49807205ce4d355092ef5a8a18f56e8913cf4a201fbe287825b095693c2177533610fb2565b61107e576040517f08c379a000000000000000000000000000000000000000000000000000000000815260040161107590612610565b60405180910390fd5b6110a87f190acb99f29d9641c9ad47655049f2d7c78fcbc837d62e7981d28c871f72208182611611565b50565b5f5f1b81565b6110db7f43f25613eb2f15fb17222a5d424ca2655743e71265d98e4b93c05e5fb589ecde33610fb2565b61111a576040517f08c379a0000000000000000000000000000000000000000000000000000000008152600401611111906126d5565b60405180910390fd5b611122611be5565b5f825111611165576040517f08c379a000000000000000000000000000000000000000000000000000000000815260040161115c9061273d565b60405180910390fd5b5f81116111a7576040517f08c379a000000000000000000000000000000000000000000000000000000000815260040161119e906127a5565b60405180910390fd5b6040518060a001604052808381526020018281526020013373ffffffffffffffffffffffffffffffffffffffff1681526020016001151581526020015f73ffffffffffffffffffffffffffffffffffffffff1681525060025f60035481526020019081526020015f205f820151815f019081611223919061295a565b50602082015181600101556040820151816002015f6101000a81548173ffffffffffffffffffffffffffffffffffffffff021916908373ffffffffffffffffffffffffffffffffffffffff16021790555060608201518160020160146101000a81548160ff0219169083151502179055506080820151816003015f6101000a81548173ffffffffffffffffffffffffffffffffffffffff021916908373ffffffffffffffffffffffffffffffffffffffff1602179055509050507f52402cafb2ecec722b103e8f203f83362148c168659dc96678c2c6850d12dd9f6003548383336040516113149493929190612a29565b60405180910390a15050565b7378731d3ca6b7e34ac0f824c42a7cc18a495cabab81565b7f190acb99f29d9641c9ad47655049f2d7c78fcbc837d62e7981d28c871f72208181565b6113867fa49807205ce4d355092ef5a8a18f56e8913cf4a201fbe287825b095693c2177533610fb2565b6113c5576040517f08c379a00000000000000000000000000000000000000000000000000000000081526004016113bc90612610565b60405180910390fd5b6113ef7ff8cd32ed93fc2f9fc78152a14807c9609af3d99c5fe4dc6b106a801aaddfe90e82610928565b50565b61141c7f59a1c48e5837ad7a7f3dcedcbe129bf3249ec4fbf651fd4f5e2600ead39fe2f533610fb2565b61145b576040517f08c379a000000000000000000000000000000000000000000000000000000000815260040161145290612abd565b60405180910390fd5b611463611be5565b5f60025f8381526020019081526020015f2090508060020160149054906101000a900460ff16156114c9576040517f08c379a00000000000000000000000000000000000000000000000000000000081526004016114c090612b25565b60405180910390fd5b60045f9054906101000a900473ffffffffffffffffffffffffffffffffffffffff1673ffffffffffffffffffffffffffffffffffffffff1663e0182436836040518263ffffffff1660e01b81526004016115239190612481565b5f604051808303815f87803b15801561153a575f5ffd5b505af115801561154c573d5f5f3e3d5ffd5b505050505f816003015f6101000a81548173ffffffffffffffffffffffffffffffffffffffff021916908373ffffffffffffffffffffffffffffffffffffffff16021790555060018160020160146101000a81548160ff0219169083151502179055507f3beba936dd321ff968de436a80911f117e372ce719dab89e0f74a75f29b4c58582336040516115e092919061259f565b60405180910390a15050565b60045f9054906101000a900473ffffffffffffffffffffffffffffffffffffffff1681565b61161a8261090c565b611623816119f8565b61162d8383611afc565b50505050565b61165d7fa49807205ce4d355092ef5a8a18f56e8913cf4a201fbe287825b095693c2177533610fb2565b61169c576040517f08c379a000000000000000000000000000000000000000000000000000000000815260040161169390612610565b60405180910390fd5b6116c67f43f25613eb2f15fb17222a5d424ca2655743e71265d98e4b93c05e5fb589ecde82610928565b50565b7f43f25613eb2f15fb17222a5d424ca2655743e71265d98e4b93c05e5fb589ecde81565b6117177f43f25613eb2f15fb17222a5d424ca2655743e71265d98e4b93c05e5fb589ecde33610fb2565b611756576040517f08c379a000000000000000000000000000000000000000000000000000000000815260040161174d906126d5565b60405180910390fd5b61175e611be5565b5f60025f8481526020019081526020015f209050806002015f9054906101000a900473ffffffffffffffffffffffffffffffffffffffff1673ffffffffffffffffffffffffffffffffffffffff163373ffffffffffffffffffffffffffffffffffffffff1614611803576040517f08c379a00000000000000000000000000000000000000000000000000000000081526004016117fa90612bb3565b60405180910390fd5b818160020160146101000a81548160ff0219169083151502179055507f096fb264925a6e0e077f5e481cffac4e5c3aafb46b5209638a24360307f476698383604051611850929190612bd1565b60405180910390a1505050565b60035481565b61188d7fa49807205ce4d355092ef5a8a18f56e8913cf4a201fbe287825b095693c2177533610fb2565b6118cc576040517f08c379a00000000000000000000000000000000000000000000000000000000081526004016118c390612610565b60405180910390fd5b6118f67f59a1c48e5837ad7a7f3dcedcbe129bf3249ec4fbf651fd4f5e2600ead39fe2f582610928565b50565b6119237fa49807205ce4d355092ef5a8a18f56e8913cf4a201fbe287825b095693c2177533610fb2565b611962576040517f08c379a000000000000000000000000000000000000000000000000000000000815260040161195990612610565b60405180910390fd5b61198c7f59a1c48e5837ad7a7f3dcedcbe129bf3249ec4fbf651fd4f5e2600ead39fe2f582611611565b50565b5f7f01ffc9a7000000000000000000000000000000000000000000000000000000007bffffffffffffffffffffffffffffffffffffffffffffffffffffffff1916827bffffffffffffffffffffffffffffffffffffffffffffffffffffffff1916149050919050565b611a0981611a04611af5565b611cf1565b50565b5f611a178383610fb2565b611aeb5760015f5f8581526020019081526020015f205f015f8473ffffffffffffffffffffffffffffffffffffffff1673ffffffffffffffffffffffffffffffffffffffff1681526020019081526020015f205f6101000a81548160ff021916908315150217905550611a88611af5565b73ffffffffffffffffffffffffffffffffffffffff168273ffffffffffffffffffffffffffffffffffffffff16847f2f8788117e7eff1d82e926ec794901d17c78024a50270940304540a733656f0d60405160405180910390a460019050611aef565b5f90505b92915050565b5f33905090565b5f611b078383610fb2565b15611bdb575f5f5f8581526020019081526020015f205f015f8473ffffffffffffffffffffffffffffffffffffffff1673ffffffffffffffffffffffffffffffffffffffff1681526020019081526020015f205f6101000a81548160ff021916908315150217905550611b78611af5565b73ffffffffffffffffffffffffffffffffffffffff168273ffffffffffffffffffffffffffffffffffffffff16847ff6391f5c32d9c69d2a47ea670b442974b53935d1edc7fd64eb21e047a839171b60405160405180910390a460019050611bdf565b5f90505b92915050565b611bed610cc8565b15611c2d576040517f08c379a0000000000000000000000000000000000000000000000000000000008152600401611c2490612c42565b60405180910390fd5b565b611c37611d42565b5f60015f6101000a81548160ff0219169083151502179055507f5db9ee0a495bf2e6ff9c91a7834c1ba4fdd244a5e8aa4e537bd38aeae4b073aa611c79611af5565b604051611c869190611f94565b60405180910390a1565b611c98611be5565b6001805f6101000a81548160ff0219169083151502179055507f62e78cea01bee320cd4e420270b5ea74000d11b0c9f74754ebdbfc544b05a258611cda611af5565b604051611ce79190611f94565b60405180910390a1565b611cfb8282610fb2565b611d3e5780826040517fe2517d3f000000000000000000000000000000000000000000000000000000008152600401611d35929190612c60565b60405180910390fd5b5050565b611d4a610cc8565b611d89576040517f08c379a0000000000000000000000000000000000000000000000000000000008152600401611d8090612cd1565b60405180910390fd5b565b5f82825260208201905092915050565b7f446972656374207061796d656e7473206e6f7420616c6c6f77656400000000005f82015250565b5f611dcf601b83611d8b565b9150611dda82611d9b565b602082019050919050565b5f6020820190508181035f830152611dfc81611dc3565b9050919050565b7f46756e6374696f6e20646f6573206e6f74206578697374206f722064697265635f8201527f74207061796d656e74206e6f7420616c6c6f7765640000000000000000000000602082015250565b5f611e5d603583611d8b565b9150611e6882611e03565b604082019050919050565b5f6020820190508181035f830152611e8a81611e51565b9050919050565b5f604051905090565b5f5ffd5b5f5ffd5b5f7fffffffff0000000000000000000000000000000000000000000000000000000082169050919050565b611ed681611ea2565b8114611ee0575f5ffd5b50565b5f81359050611ef181611ecd565b92915050565b5f60208284031215611f0c57611f0b611e9a565b5b5f611f1984828501611ee3565b91505092915050565b5f8115159050919050565b611f3681611f22565b82525050565b5f602082019050611f4f5f830184611f2d565b92915050565b5f73ffffffffffffffffffffffffffffffffffffffff82169050919050565b5f611f7e82611f55565b9050919050565b611f8e81611f74565b82525050565b5f602082019050611fa75f830184611f85565b92915050565b5f819050919050565b611fbf81611fad565b8114611fc9575f5ffd5b50565b5f81359050611fda81611fb6565b92915050565b5f60208284031215611ff557611ff4611e9a565b5b5f61200284828501611fcc565b91505092915050565b61201481611fad565b82525050565b5f60208201905061202d5f83018461200b565b92915050565b61203c81611f74565b8114612046575f5ffd5b50565b5f8135905061205781612033565b92915050565b5f5f6040838503121561207357612072611e9a565b5b5f61208085828601611fcc565b925050602061209185828601612049565b9150509250929050565b5f60ff82169050919050565b6120b08161209b565b82525050565b5f6020820190506120c95f8301846120a7565b92915050565b5f819050919050565b6120e1816120cf565b81146120eb575f5ffd5b50565b5f813590506120fc816120d8565b92915050565b5f6020828403121561211757612116611e9a565b5b5f612124848285016120ee565b91505092915050565b5f6020828403121561214257612141611e9a565b5b5f61214f84828501612049565b91505092915050565b5f81519050919050565b8281835e5f83830152505050565b5f601f19601f8301169050919050565b5f61218a82612158565b6121948185611d8b565b93506121a4818560208601612162565b6121ad81612170565b840191505092915050565b6121c1816120cf565b82525050565b5f60a0820190508181035f8301526121df8188612180565b90506121ee60208301876121b8565b6121fb6040830186611f85565b6122086060830185611f2d565b6122156080830184611f85565b9695505050505050565b5f5ffd5b5f5ffd5b7f4e487b71000000000000000000000000000000000000000000000000000000005f52604160045260245ffd5b61225d82612170565b810181811067ffffffffffffffff8211171561227c5761227b612227565b5b80604052505050565b5f61228e611e91565b905061229a8282612254565b919050565b5f67ffffffffffffffff8211156122b9576122b8612227565b5b6122c282612170565b9050602081019050919050565b828183375f83830152505050565b5f6122ef6122ea8461229f565b612285565b90508281526020810184848401111561230b5761230a612223565b5b6123168482856122cf565b509392505050565b5f82601f8301126123325761233161221f565b5b81356123428482602086016122dd565b91505092915050565b5f5f6040838503121561236157612360611e9a565b5b5f83013567ffffffffffffffff81111561237e5761237d611e9e565b5b61238a8582860161231e565b925050602061239b858286016120ee565b9150509250929050565b5f819050919050565b5f6123c86123c36123be84611f55565b6123a5565b611f55565b9050919050565b5f6123d9826123ae565b9050919050565b5f6123ea826123cf565b9050919050565b6123fa816123e0565b82525050565b5f6020820190506124135f8301846123f1565b92915050565b61242281611f22565b811461242c575f5ffd5b50565b5f8135905061243d81612419565b92915050565b5f5f6040838503121561245957612458611e9a565b5b5f612466858286016120ee565b92505060206124778582860161242f565b9150509250929050565b5f6020820190506124945f8301846121b8565b92915050565b7f5265737472696374656420746f206275796572730000000000000000000000005f82015250565b5f6124ce601483611d8b565b91506124d98261249a565b602082019050919050565b5f6020820190508181035f8301526124fb816124c2565b9050919050565b7f50726f64756374206973206e6f7420617661696c61626c6500000000000000005f82015250565b5f612536601883611d8b565b915061254182612502565b602082019050919050565b5f6020820190508181035f8301526125638161252a565b9050919050565b5f60608201905061257d5f8301866121b8565b61258a60208301856121b8565b6125976040830184611f85565b949350505050565b5f6040820190506125b25f8301856121b8565b6125bf6020830184611f85565b9392505050565b7f5265737472696374656420746f2061646d696e730000000000000000000000005f82015250565b5f6125fa601483611d8b565b9150612605826125c6565b602082019050919050565b5f6020820190508181035f830152612627816125ee565b9050919050565b7f4e487b71000000000000000000000000000000000000000000000000000000005f52602260045260245ffd5b5f600282049050600182168061267257607f821691505b6020821081036126855761268461262e565b5b50919050565b7f5265737472696374656420746f2073656c6c65727300000000000000000000005f82015250565b5f6126bf601583611d8b565b91506126ca8261268b565b602082019050919050565b5f6020820190508181035f8301526126ec816126b3565b9050919050565b7f50726f64756374206e616d6520697320726571756972656400000000000000005f82015250565b5f612727601883611d8b565b9150612732826126f3565b602082019050919050565b5f6020820190508181035f8301526127548161271b565b9050919050565b7f5072696365206d7573742062652067726561746572207468616e2030000000005f82015250565b5f61278f601c83611d8b565b915061279a8261275b565b602082019050919050565b5f6020820190508181035f8301526127bc81612783565b9050919050565b5f819050815f5260205f209050919050565b5f6020601f8301049050919050565b5f82821b905092915050565b5f6008830261281f7fffffffffffffffffffffffffffffffffffffffffffffffffffffffffffffffff826127e4565b61282986836127e4565b95508019841693508086168417925050509392505050565b5f61285b612856612851846120cf565b6123a5565b6120cf565b9050919050565b5f819050919050565b61287483612841565b61288861288082612862565b8484546127f0565b825550505050565b5f5f905090565b61289f612890565b6128aa81848461286b565b505050565b5b818110156128cd576128c25f82612897565b6001810190506128b0565b5050565b601f821115612912576128e3816127c3565b6128ec846127d5565b810160208510156128fb578190505b61290f612907856127d5565b8301826128af565b50505b505050565b5f82821c905092915050565b5f6129325f1984600802612917565b1980831691505092915050565b5f61294a8383612923565b9150826002028217905092915050565b61296382612158565b67ffffffffffffffff81111561297c5761297b612227565b5b612986825461265b565b6129918282856128d1565b5f60209050601f8311600181146129c2575f84156129b0578287015190505b6129ba858261293f565b865550612a21565b601f1984166129d0866127c3565b5f5b828110156129f7578489015182556001820191506020850194506020810190506129d2565b86831015612a145784890151612a10601f891682612923565b8355505b6001600288020188555050505b505050505050565b5f608082019050612a3c5f8301876121b8565b8181036020830152612a4e8186612180565b9050612a5d60408301856121b8565b612a6a6060830184611f85565b95945050505050565b7f5265737472696374656420746f2061756469746f7273000000000000000000005f82015250565b5f612aa7601683611d8b565b9150612ab282612a73565b602082019050919050565b5f6020820190508181035f830152612ad481612a9b565b9050919050565b7f50726f64756374206973207374696c6c20617661696c61626c650000000000005f82015250565b5f612b0f601a83611d8b565b9150612b1a82612adb565b602082019050919050565b5f6020820190508181035f830152612b3c81612b03565b9050919050565b7f4f6e6c79207468652073656c6c65722063616e207570646174652074686520705f8201527f726f647563742073746174757300000000000000000000000000000000000000602082015250565b5f612b9d602d83611d8b565b9150612ba882612b43565b604082019050919050565b5f6020820190508181035f830152612bca81612b91565b9050919050565b5f604082019050612be45f8301856121b8565b612bf16020830184611f2d565b9392505050565b7f5061757361626c653a20706175736564000000000000000000000000000000005f82015250565b5f612c2c601083611d8b565b9150612c3782612bf8565b602082019050919050565b5f6020820190508181035f830152612c5981612c20565b9050919050565b5f604082019050612c735f830185611f85565b612c80602083018461200b565b9392505050565b7f5061757361626c653a206e6f74207061757365640000000000000000000000005f82015250565b5f612cbb601483611d8b565b9150612cc682612c87565b602082019050919050565b5f6020820190508181035f830152612ce881612caf565b905091905056fea2646970667358221220b9614071285a4b36dbddccae3c012b7cfb0eb068a8b5c0cc04b7ece5a0b71eab64736f6c634300081c0033",
					"opcodes": "PUSH1 0x80 PUSH1 0x40 MSTORE CALLVALUE DUP1 ISZERO PUSH2 0xF JUMPI PUSH0 PUSH0 REVERT JUMPDEST POP PUSH1 0x40 MLOAD PUSH2 0x338F CODESIZE SUB DUP1 PUSH2 0x338F DUP4 CODECOPY DUP2 DUP2 ADD PUSH1 0x40 MSTORE DUP2 ADD SWAP1 PUSH2 0x31 SWAP2 SWAP1 PUSH2 0x5BA JUMP JUMPDEST PUSH0 PUSH1 0x1 PUSH0 PUSH2 0x100 EXP DUP2 SLOAD DUP2 PUSH1 0xFF MUL NOT AND SWAP1 DUP4 ISZERO ISZERO MUL OR SWAP1 SSTORE POP PUSH0 PUSH20 0xFFFFFFFFFFFFFFFFFFFFFFFFFFFFFFFFFFFFFFFF AND DUP2 PUSH20 0xFFFFFFFFFFFFFFFFFFFFFFFFFFFFFFFFFFFFFFFF AND SUB PUSH2 0xB8 JUMPI PUSH1 0x40 MLOAD PUSH32 0x8C379A000000000000000000000000000000000000000000000000000000000 DUP2 MSTORE PUSH1 0x4 ADD PUSH2 0xAF SWAP1 PUSH2 0x63F JUMP JUMPDEST PUSH1 0x40 MLOAD DUP1 SWAP2 SUB SWAP1 REVERT JUMPDEST DUP1 PUSH1 0x4 PUSH0 PUSH2 0x100 EXP DUP2 SLOAD DUP2 PUSH20 0xFFFFFFFFFFFFFFFFFFFFFFFFFFFFFFFFFFFFFFFF MUL NOT AND SWAP1 DUP4 PUSH20 0xFFFFFFFFFFFFFFFFFFFFFFFFFFFFFFFFFFFFFFFF AND MUL OR SWAP1 SSTORE POP PUSH2 0x128 PUSH32 0xA49807205CE4D355092EF5A8A18F56E8913CF4A201FBE287825B095693C21775 CALLER PUSH2 0x383 PUSH1 0x20 SHL PUSH1 0x20 SHR JUMP JUMPDEST POP PUSH2 0x16D PUSH32 0x43F25613EB2F15FB17222A5D424CA2655743E71265D98E4B93C05E5FB589ECDE PUSH20 0x5B38DA6A701C568545DCFCB03FCB875F56BEDDC4 PUSH2 0x383 PUSH1 0x20 SHL PUSH1 0x20 SHR JUMP JUMPDEST POP PUSH2 0x1B2 PUSH32 0xF8CD32ED93FC2F9FC78152A14807C9609AF3D99C5FE4DC6B106A801AADDFE90E PUSH20 0x4B20993BC481177EC7E8F571CECAE8A9E22C02DB PUSH2 0x383 PUSH1 0x20 SHL PUSH1 0x20 SHR JUMP JUMPDEST POP PUSH2 0x1F7 PUSH32 0x190ACB99F29D9641C9AD47655049F2D7C78FCBC837D62E7981D28C871F722081 PUSH20 0x78731D3CA6B7E34AC0F824C42A7CC18A495CABAB PUSH2 0x383 PUSH1 0x20 SHL PUSH1 0x20 SHR JUMP JUMPDEST POP PUSH2 0x23C PUSH32 0x59A1C48E5837AD7A7F3DCEDCBE129BF3249EC4FBF651FD4F5E2600EAD39FE2F5 PUSH20 0x78731D3CA6B7E34AC0F824C42A7CC18A495CABAB PUSH2 0x383 PUSH1 0x20 SHL PUSH1 0x20 SHR JUMP JUMPDEST POP PUSH2 0x28D PUSH32 0x43F25613EB2F15FB17222A5D424CA2655743E71265D98E4B93C05E5FB589ECDE PUSH32 0xA49807205CE4D355092EF5A8A18F56E8913CF4A201FBE287825B095693C21775 PUSH2 0x478 PUSH1 0x20 SHL PUSH1 0x20 SHR JUMP JUMPDEST PUSH2 0x2DD PUSH32 0xF8CD32ED93FC2F9FC78152A14807C9609AF3D99C5FE4DC6B106A801AADDFE90E PUSH32 0xA49807205CE4D355092EF5A8A18F56E8913CF4A201FBE287825B095693C21775 PUSH2 0x478 PUSH1 0x20 SHL PUSH1 0x20 SHR JUMP JUMPDEST PUSH2 0x32D PUSH32 0x190ACB99F29D9641C9AD47655049F2D7C78FCBC837D62E7981D28C871F722081 PUSH32 0xA49807205CE4D355092EF5A8A18F56E8913CF4A201FBE287825B095693C21775 PUSH2 0x478 PUSH1 0x20 SHL PUSH1 0x20 SHR JUMP JUMPDEST PUSH2 0x37D PUSH32 0x59A1C48E5837AD7A7F3DCEDCBE129BF3249EC4FBF651FD4F5E2600EAD39FE2F5 PUSH32 0xA49807205CE4D355092EF5A8A18F56E8913CF4A201FBE287825B095693C21775 PUSH2 0x478 PUSH1 0x20 SHL PUSH1 0x20 SHR JUMP JUMPDEST POP PUSH2 0x65D JUMP JUMPDEST PUSH0 PUSH2 0x394 DUP4 DUP4 PUSH2 0x4D6 PUSH1 0x20 SHL PUSH1 0x20 SHR JUMP JUMPDEST PUSH2 0x46E JUMPI PUSH1 0x1 PUSH0 PUSH0 DUP6 DUP2 MSTORE PUSH1 0x20 ADD SWAP1 DUP2 MSTORE PUSH1 0x20 ADD PUSH0 KECCAK256 PUSH0 ADD PUSH0 DUP5 PUSH20 0xFFFFFFFFFFFFFFFFFFFFFFFFFFFFFFFFFFFFFFFF AND PUSH20 0xFFFFFFFFFFFFFFFFFFFFFFFFFFFFFFFFFFFFFFFF AND DUP2 MSTORE PUSH1 0x20 ADD SWAP1 DUP2 MSTORE PUSH1 0x20 ADD PUSH0 KECCAK256 PUSH0 PUSH2 0x100 EXP DUP2 SLOAD DUP2 PUSH1 0xFF MUL NOT AND SWAP1 DUP4 ISZERO ISZERO MUL OR SWAP1 SSTORE POP PUSH2 0x40B PUSH2 0x539 PUSH1 0x20 SHL PUSH1 0x20 SHR JUMP JUMPDEST PUSH20 0xFFFFFFFFFFFFFFFFFFFFFFFFFFFFFFFFFFFFFFFF AND DUP3 PUSH20 0xFFFFFFFFFFFFFFFFFFFFFFFFFFFFFFFFFFFFFFFF AND DUP5 PUSH32 0x2F8788117E7EFF1D82E926EC794901D17C78024A50270940304540A733656F0D PUSH1 0x40 MLOAD PUSH1 0x40 MLOAD DUP1 SWAP2 SUB SWAP1 LOG4 PUSH1 0x1 SWAP1 POP PUSH2 0x472 JUMP JUMPDEST PUSH0 SWAP1 POP JUMPDEST SWAP3 SWAP2 POP POP JUMP JUMPDEST PUSH0 PUSH2 0x488 DUP4 PUSH2 0x540 PUSH1 0x20 SHL PUSH1 0x20 SHR JUMP JUMPDEST SWAP1 POP DUP2 PUSH0 PUSH0 DUP6 DUP2 MSTORE PUSH1 0x20 ADD SWAP1 DUP2 MSTORE PUSH1 0x20 ADD PUSH0 KECCAK256 PUSH1 0x1 ADD DUP2 SWAP1 SSTORE POP DUP2 DUP2 DUP5 PUSH32 0xBD79B86FFE0AB8E8776151514217CD7CACD52C909F66475C3AF44E129F0B00FF PUSH1 0x40 MLOAD PUSH1 0x40 MLOAD DUP1 SWAP2 SUB SWAP1 LOG4 POP POP POP JUMP JUMPDEST PUSH0 PUSH0 PUSH0 DUP5 DUP2 MSTORE PUSH1 0x20 ADD SWAP1 DUP2 MSTORE PUSH1 0x20 ADD PUSH0 KECCAK256 PUSH0 ADD PUSH0 DUP4 PUSH20 0xFFFFFFFFFFFFFFFFFFFFFFFFFFFFFFFFFFFFFFFF AND PUSH20 0xFFFFFFFFFFFFFFFFFFFFFFFFFFFFFFFFFFFFFFFF AND DUP2 MSTORE PUSH1 0x20 ADD SWAP1 DUP2 MSTORE PUSH1 0x20 ADD PUSH0 KECCAK256 PUSH0 SWAP1 SLOAD SWAP1 PUSH2 0x100 EXP SWAP1 DIV PUSH1 0xFF AND SWAP1 POP SWAP3 SWAP2 POP POP JUMP JUMPDEST PUSH0 CALLER SWAP1 POP SWAP1 JUMP JUMPDEST PUSH0 PUSH0 PUSH0 DUP4 DUP2 MSTORE PUSH1 0x20 ADD SWAP1 DUP2 MSTORE PUSH1 0x20 ADD PUSH0 KECCAK256 PUSH1 0x1 ADD SLOAD SWAP1 POP SWAP2 SWAP1 POP JUMP JUMPDEST PUSH0 PUSH0 REVERT JUMPDEST PUSH0 PUSH20 0xFFFFFFFFFFFFFFFFFFFFFFFFFFFFFFFFFFFFFFFF DUP3 AND SWAP1 POP SWAP2 SWAP1 POP JUMP JUMPDEST PUSH0 PUSH2 0x589 DUP3 PUSH2 0x560 JUMP JUMPDEST SWAP1 POP SWAP2 SWAP1 POP JUMP JUMPDEST PUSH2 0x599 DUP2 PUSH2 0x57F JUMP JUMPDEST DUP2 EQ PUSH2 0x5A3 JUMPI PUSH0 PUSH0 REVERT JUMPDEST POP JUMP JUMPDEST PUSH0 DUP2 MLOAD SWAP1 POP PUSH2 0x5B4 DUP2 PUSH2 0x590 JUMP JUMPDEST SWAP3 SWAP2 POP POP JUMP JUMPDEST PUSH0 PUSH1 0x20 DUP3 DUP5 SUB SLT ISZERO PUSH2 0x5CF JUMPI PUSH2 0x5CE PUSH2 0x55C JUMP JUMPDEST JUMPDEST PUSH0 PUSH2 0x5DC DUP5 DUP3 DUP6 ADD PUSH2 0x5A6 JUMP JUMPDEST SWAP2 POP POP SWAP3 SWAP2 POP POP JUMP JUMPDEST PUSH0 DUP3 DUP3 MSTORE PUSH1 0x20 DUP3 ADD SWAP1 POP SWAP3 SWAP2 POP POP JUMP JUMPDEST PUSH32 0x496E76616C69642049434F20636F6E7472616374206164647265737300000000 PUSH0 DUP3 ADD MSTORE POP JUMP JUMPDEST PUSH0 PUSH2 0x629 PUSH1 0x1C DUP4 PUSH2 0x5E5 JUMP JUMPDEST SWAP2 POP PUSH2 0x634 DUP3 PUSH2 0x5F5 JUMP JUMPDEST PUSH1 0x20 DUP3 ADD SWAP1 POP SWAP2 SWAP1 POP JUMP JUMPDEST PUSH0 PUSH1 0x20 DUP3 ADD SWAP1 POP DUP2 DUP2 SUB PUSH0 DUP4 ADD MSTORE PUSH2 0x656 DUP2 PUSH2 0x61D JUMP JUMPDEST SWAP1 POP SWAP2 SWAP1 POP JUMP JUMPDEST PUSH2 0x2D25 DUP1 PUSH2 0x66A PUSH0 CODECOPY PUSH0 RETURN INVALID PUSH1 0x80 PUSH1 0x40 MSTORE PUSH1 0x4 CALLDATASIZE LT PUSH2 0x212 JUMPI PUSH0 CALLDATALOAD PUSH1 0xE0 SHR DUP1 PUSH4 0x7CB9CF54 GT PUSH2 0x117 JUMPI DUP1 PUSH4 0xC3634DDC GT PUSH2 0x9F JUMPI DUP1 PUSH4 0xDBE4613D GT PUSH2 0x6E JUMPI DUP1 PUSH4 0xDBE4613D EQ PUSH2 0x7AF JUMPI DUP1 PUSH4 0xE08903B1 EQ PUSH2 0x7D9 JUMPI DUP1 PUSH4 0xE0F6EF87 EQ PUSH2 0x801 JUMPI DUP1 PUSH4 0xE429CEF1 EQ PUSH2 0x82B JUMPI DUP1 PUSH4 0xE6116CFD EQ PUSH2 0x853 JUMPI PUSH2 0x252 JUMP JUMPDEST DUP1 PUSH4 0xC3634DDC EQ PUSH2 0x70D JUMPI DUP1 PUSH4 0xC66E4095 EQ PUSH2 0x735 JUMPI DUP1 PUSH4 0xD547741F EQ PUSH2 0x75F JUMPI DUP1 PUSH4 0xD93FABFA EQ PUSH2 0x787 JUMPI PUSH2 0x252 JUMP JUMPDEST DUP1 PUSH4 0xA217FDDF GT PUSH2 0xE6 JUMPI DUP1 PUSH4 0xA217FDDF EQ PUSH2 0x63F JUMPI DUP1 PUSH4 0xB15247D9 EQ PUSH2 0x669 JUMPI DUP1 PUSH4 0xB235CE85 EQ PUSH2 0x691 JUMPI DUP1 PUSH4 0xB65C5E8D EQ PUSH2 0x6BB JUMPI DUP1 PUSH4 0xBBF89803 EQ PUSH2 0x6E5 JUMPI PUSH2 0x252 JUMP JUMPDEST DUP1 PUSH4 0x7CB9CF54 EQ PUSH2 0x59D JUMPI DUP1 PUSH4 0x8456CB59 EQ PUSH2 0x5C5 JUMPI DUP1 PUSH4 0x91D14854 EQ PUSH2 0x5DB JUMPI DUP1 PUSH4 0x9699A82D EQ PUSH2 0x617 JUMPI PUSH2 0x252 JUMP JUMPDEST DUP1 PUSH4 0x410B2724 GT PUSH2 0x19A JUMPI DUP1 PUSH4 0x6F75B00C GT PUSH2 0x169 JUMPI DUP1 PUSH4 0x6F75B00C EQ PUSH2 0x4B7 JUMPI DUP1 PUSH4 0x75B238FC EQ PUSH2 0x4DF JUMPI DUP1 PUSH4 0x76809CE3 EQ PUSH2 0x509 JUMPI DUP1 PUSH4 0x7A01A1DA EQ PUSH2 0x533 JUMPI DUP1 PUSH4 0x7ACC0B20 EQ PUSH2 0x55D JUMPI PUSH2 0x252 JUMP JUMPDEST DUP1 PUSH4 0x410B2724 EQ PUSH2 0x411 JUMPI DUP1 PUSH4 0x44834ACA EQ PUSH2 0x439 JUMPI DUP1 PUSH4 0x5C975ABB EQ PUSH2 0x463 JUMPI DUP1 PUSH4 0x6E1D616E EQ PUSH2 0x48D JUMPI PUSH2 0x252 JUMP JUMPDEST DUP1 PUSH4 0x313CE567 GT PUSH2 0x1E1 JUMPI DUP1 PUSH4 0x313CE567 EQ PUSH2 0x357 JUMPI DUP1 PUSH4 0x36568ABE EQ PUSH2 0x381 JUMPI DUP1 PUSH4 0x38E76A03 EQ PUSH2 0x3A9 JUMPI DUP1 PUSH4 0x3D9B2AE6 EQ PUSH2 0x3D1 JUMPI DUP1 PUSH4 0x3F4BA83A EQ PUSH2 0x3FB JUMPI PUSH2 0x252 JUMP JUMPDEST DUP1 PUSH4 0x1FFC9A7 EQ PUSH2 0x28D JUMPI DUP1 PUSH4 0x1FC6CF22 EQ PUSH2 0x2C9 JUMPI DUP1 PUSH4 0x248A9CA3 EQ PUSH2 0x2F3 JUMPI DUP1 PUSH4 0x2F2FF15D EQ PUSH2 0x32F JUMPI PUSH2 0x252 JUMP JUMPDEST CALLDATASIZE PUSH2 0x252 JUMPI PUSH1 0x40 MLOAD PUSH32 0x8C379A000000000000000000000000000000000000000000000000000000000 DUP2 MSTORE PUSH1 0x4 ADD PUSH2 0x249 SWAP1 PUSH2 0x1DE5 JUMP JUMPDEST PUSH1 0x40 MLOAD DUP1 SWAP2 SUB SWAP1 REVERT JUMPDEST PUSH1 0x40 MLOAD PUSH32 0x8C379A000000000000000000000000000000000000000000000000000000000 DUP2 MSTORE PUSH1 0x4 ADD PUSH2 0x284 SWAP1 PUSH2 0x1E73 JUMP JUMPDEST PUSH1 0x40 MLOAD DUP1 SWAP2 SUB SWAP1 REVERT JUMPDEST CALLVALUE DUP1 ISZERO PUSH2 0x298 JUMPI PUSH0 PUSH0 REVERT JUMPDEST POP PUSH2 0x2B3 PUSH1 0x4 DUP1 CALLDATASIZE SUB DUP2 ADD SWAP1 PUSH2 0x2AE SWAP2 SWAP1 PUSH2 0x1EF7 JUMP JUMPDEST PUSH2 0x87B JUMP JUMPDEST PUSH1 0x40 MLOAD PUSH2 0x2C0 SWAP2 SWAP1 PUSH2 0x1F3C JUMP JUMPDEST PUSH1 0x40 MLOAD DUP1 SWAP2 SUB SWAP1 RETURN JUMPDEST CALLVALUE DUP1 ISZERO PUSH2 0x2D4 JUMPI PUSH0 PUSH0 REVERT JUMPDEST POP PUSH2 0x2DD PUSH2 0x8F4 JUMP JUMPDEST PUSH1 0x40 MLOAD PUSH2 0x2EA SWAP2 SWAP1 PUSH2 0x1F94 JUMP JUMPDEST PUSH1 0x40 MLOAD DUP1 SWAP2 SUB SWAP1 RETURN JUMPDEST CALLVALUE DUP1 ISZERO PUSH2 0x2FE JUMPI PUSH0 PUSH0 REVERT JUMPDEST POP PUSH2 0x319 PUSH1 0x4 DUP1 CALLDATASIZE SUB DUP2 ADD SWAP1 PUSH2 0x314 SWAP2 SWAP1 PUSH2 0x1FE0 JUMP JUMPDEST PUSH2 0x90C JUMP JUMPDEST PUSH1 0x40 MLOAD PUSH2 0x326 SWAP2 SWAP1 PUSH2 0x201A JUMP JUMPDEST PUSH1 0x40 MLOAD DUP1 SWAP2 SUB SWAP1 RETURN JUMPDEST CALLVALUE DUP1 ISZERO PUSH2 0x33A JUMPI PUSH0 PUSH0 REVERT JUMPDEST POP PUSH2 0x355 PUSH1 0x4 DUP1 CALLDATASIZE SUB DUP2 ADD SWAP1 PUSH2 0x350 SWAP2 SWAP1 PUSH2 0x205D JUMP JUMPDEST PUSH2 0x928 JUMP JUMPDEST STOP JUMPDEST CALLVALUE DUP1 ISZERO PUSH2 0x362 JUMPI PUSH0 PUSH0 REVERT JUMPDEST POP PUSH2 0x36B PUSH2 0x94A JUMP JUMPDEST PUSH1 0x40 MLOAD PUSH2 0x378 SWAP2 SWAP1 PUSH2 0x20B6 JUMP JUMPDEST PUSH1 0x40 MLOAD DUP1 SWAP2 SUB SWAP1 RETURN JUMPDEST CALLVALUE DUP1 ISZERO PUSH2 0x38C JUMPI PUSH0 PUSH0 REVERT JUMPDEST POP PUSH2 0x3A7 PUSH1 0x4 DUP1 CALLDATASIZE SUB DUP2 ADD SWAP1 PUSH2 0x3A2 SWAP2 SWAP1 PUSH2 0x205D JUMP JUMPDEST PUSH2 0x952 JUMP JUMPDEST STOP JUMPDEST CALLVALUE DUP1 ISZERO PUSH2 0x3B4 JUMPI PUSH0 PUSH0 REVERT JUMPDEST POP PUSH2 0x3CF PUSH1 0x4 DUP1 CALLDATASIZE SUB DUP2 ADD SWAP1 PUSH2 0x3CA SWAP2 SWAP1 PUSH2 0x2102 JUMP JUMPDEST PUSH2 0x9CD JUMP JUMPDEST STOP JUMPDEST CALLVALUE DUP1 ISZERO PUSH2 0x3DC JUMPI PUSH0 PUSH0 REVERT JUMPDEST POP PUSH2 0x3E5 PUSH2 0xBCD JUMP JUMPDEST PUSH1 0x40 MLOAD PUSH2 0x3F2 SWAP2 SWAP1 PUSH2 0x1F94 JUMP JUMPDEST PUSH1 0x40 MLOAD DUP1 SWAP2 SUB SWAP1 RETURN JUMPDEST CALLVALUE DUP1 ISZERO PUSH2 0x406 JUMPI PUSH0 PUSH0 REVERT JUMPDEST POP PUSH2 0x40F PUSH2 0xBE5 JUMP JUMPDEST STOP JUMPDEST CALLVALUE DUP1 ISZERO PUSH2 0x41C JUMPI PUSH0 PUSH0 REVERT JUMPDEST POP PUSH2 0x437 PUSH1 0x4 DUP1 CALLDATASIZE SUB DUP2 ADD SWAP1 PUSH2 0x432 SWAP2 SWAP1 PUSH2 0x212D JUMP JUMPDEST PUSH2 0xC1A JUMP JUMPDEST STOP JUMPDEST CALLVALUE DUP1 ISZERO PUSH2 0x444 JUMPI PUSH0 PUSH0 REVERT JUMPDEST POP PUSH2 0x44D PUSH2 0xCB0 JUMP JUMPDEST PUSH1 0x40 MLOAD PUSH2 0x45A SWAP2 SWAP1 PUSH2 0x1F94 JUMP JUMPDEST PUSH1 0x40 MLOAD DUP1 SWAP2 SUB SWAP1 RETURN JUMPDEST CALLVALUE DUP1 ISZERO PUSH2 0x46E JUMPI PUSH0 PUSH0 REVERT JUMPDEST POP PUSH2 0x477 PUSH2 0xCC8 JUMP JUMPDEST PUSH1 0x40 MLOAD PUSH2 0x484 SWAP2 SWAP1 PUSH2 0x1F3C JUMP JUMPDEST PUSH1 0x40 MLOAD DUP1 SWAP2 SUB SWAP1 RETURN JUMPDEST CALLVALUE DUP1 ISZERO PUSH2 0x498 JUMPI PUSH0 PUSH0 REVERT JUMPDEST POP PUSH2 0x4A1 PUSH2 0xCDD JUMP JUMPDEST PUSH1 0x40 MLOAD PUSH2 0x4AE SWAP2 SWAP1 PUSH2 0x201A JUMP JUMPDEST PUSH1 0x40 MLOAD DUP1 SWAP2 SUB SWAP1 RETURN JUMPDEST CALLVALUE DUP1 ISZERO PUSH2 0x4C2 JUMPI PUSH0 PUSH0 REVERT JUMPDEST POP PUSH2 0x4DD PUSH1 0x4 DUP1 CALLDATASIZE SUB DUP2 ADD SWAP1 PUSH2 0x4D8 SWAP2 SWAP1 PUSH2 0x212D JUMP JUMPDEST PUSH2 0xD01 JUMP JUMPDEST STOP JUMPDEST CALLVALUE DUP1 ISZERO PUSH2 0x4EA JUMPI PUSH0 PUSH0 REVERT JUMPDEST POP PUSH2 0x4F3 PUSH2 0xD97 JUMP JUMPDEST PUSH1 0x40 MLOAD PUSH2 0x500 SWAP2 SWAP1 PUSH2 0x201A JUMP JUMPDEST PUSH1 0x40 MLOAD DUP1 SWAP2 SUB SWAP1 RETURN JUMPDEST CALLVALUE DUP1 ISZERO PUSH2 0x514 JUMPI PUSH0 PUSH0 REVERT JUMPDEST POP PUSH2 0x51D PUSH2 0xDBB JUMP JUMPDEST PUSH1 0x40 MLOAD PUSH2 0x52A SWAP2 SWAP1 PUSH2 0x20B6 JUMP JUMPDEST PUSH1 0x40 MLOAD DUP1 SWAP2 SUB SWAP1 RETURN JUMPDEST CALLVALUE DUP1 ISZERO PUSH2 0x53E JUMPI PUSH0 PUSH0 REVERT JUMPDEST POP PUSH2 0x547 PUSH2 0xDC0 JUMP JUMPDEST PUSH1 0x40 MLOAD PUSH2 0x554 SWAP2 SWAP1 PUSH2 0x201A JUMP JUMPDEST PUSH1 0x40 MLOAD DUP1 SWAP2 SUB SWAP1 RETURN JUMPDEST CALLVALUE DUP1 ISZERO PUSH2 0x568 JUMPI PUSH0 PUSH0 REVERT JUMPDEST POP PUSH2 0x583 PUSH1 0x4 DUP1 CALLDATASIZE SUB DUP2 ADD SWAP1 PUSH2 0x57E SWAP2 SWAP1 PUSH2 0x2102 JUMP JUMPDEST PUSH2 0xDE4 JUMP JUMPDEST PUSH1 0x40 MLOAD PUSH2 0x594 SWAP6 SWAP5 SWAP4 SWAP3 SWAP2 SWAP1 PUSH2 0x21C7 JUMP JUMPDEST PUSH1 0x40 MLOAD DUP1 SWAP2 SUB SWAP1 RETURN JUMPDEST CALLVALUE DUP1 ISZERO PUSH2 0x5A8 JUMPI PUSH0 PUSH0 REVERT JUMPDEST POP PUSH2 0x5C3 PUSH1 0x4 DUP1 CALLDATASIZE SUB DUP2 ADD SWAP1 PUSH2 0x5BE SWAP2 SWAP1 PUSH2 0x212D JUMP JUMPDEST PUSH2 0xEE7 JUMP JUMPDEST STOP JUMPDEST CALLVALUE DUP1 ISZERO PUSH2 0x5D0 JUMPI PUSH0 PUSH0 REVERT JUMPDEST POP PUSH2 0x5D9 PUSH2 0xF7D JUMP JUMPDEST STOP JUMPDEST CALLVALUE DUP1 ISZERO PUSH2 0x5E6 JUMPI PUSH0 PUSH0 REVERT JUMPDEST POP PUSH2 0x601 PUSH1 0x4 DUP1 CALLDATASIZE SUB DUP2 ADD SWAP1 PUSH2 0x5FC SWAP2 SWAP1 PUSH2 0x205D JUMP JUMPDEST PUSH2 0xFB2 JUMP JUMPDEST PUSH1 0x40 MLOAD PUSH2 0x60E SWAP2 SWAP1 PUSH2 0x1F3C JUMP JUMPDEST PUSH1 0x40 MLOAD DUP1 SWAP2 SUB SWAP1 RETURN JUMPDEST CALLVALUE DUP1 ISZERO PUSH2 0x622 JUMPI PUSH0 PUSH0 REVERT JUMPDEST POP PUSH2 0x63D PUSH1 0x4 DUP1 CALLDATASIZE SUB DUP2 ADD SWAP1 PUSH2 0x638 SWAP2 SWAP1 PUSH2 0x212D JUMP JUMPDEST PUSH2 0x1015 JUMP JUMPDEST STOP JUMPDEST CALLVALUE DUP1 ISZERO PUSH2 0x64A JUMPI PUSH0 PUSH0 REVERT JUMPDEST POP PUSH2 0x653 PUSH2 0x10AB JUMP JUMPDEST PUSH1 0x40 MLOAD PUSH2 0x660 SWAP2 SWAP1 PUSH2 0x201A JUMP JUMPDEST PUSH1 0x40 MLOAD DUP1 SWAP2 SUB SWAP1 RETURN JUMPDEST CALLVALUE DUP1 ISZERO PUSH2 0x674 JUMPI PUSH0 PUSH0 REVERT JUMPDEST POP PUSH2 0x68F PUSH1 0x4 DUP1 CALLDATASIZE SUB DUP2 ADD SWAP1 PUSH2 0x68A SWAP2 SWAP1 PUSH2 0x234B JUMP JUMPDEST PUSH2 0x10B1 JUMP JUMPDEST STOP JUMPDEST CALLVALUE DUP1 ISZERO PUSH2 0x69C JUMPI PUSH0 PUSH0 REVERT JUMPDEST POP PUSH2 0x6A5 PUSH2 0x1320 JUMP JUMPDEST PUSH1 0x40 MLOAD PUSH2 0x6B2 SWAP2 SWAP1 PUSH2 0x1F94 JUMP JUMPDEST PUSH1 0x40 MLOAD DUP1 SWAP2 SUB SWAP1 RETURN JUMPDEST CALLVALUE DUP1 ISZERO PUSH2 0x6C6 JUMPI PUSH0 PUSH0 REVERT JUMPDEST POP PUSH2 0x6CF PUSH2 0x1338 JUMP JUMPDEST PUSH1 0x40 MLOAD PUSH2 0x6DC SWAP2 SWAP1 PUSH2 0x201A JUMP JUMPDEST PUSH1 0x40 MLOAD DUP1 SWAP2 SUB SWAP1 RETURN JUMPDEST CALLVALUE DUP1 ISZERO PUSH2 0x6F0 JUMPI PUSH0 PUSH0 REVERT JUMPDEST POP PUSH2 0x70B PUSH1 0x4 DUP1 CALLDATASIZE SUB DUP2 ADD SWAP1 PUSH2 0x706 SWAP2 SWAP1 PUSH2 0x212D JUMP JUMPDEST PUSH2 0x135C JUMP JUMPDEST STOP JUMPDEST CALLVALUE DUP1 ISZERO PUSH2 0x718 JUMPI PUSH0 PUSH0 REVERT JUMPDEST POP PUSH2 0x733 PUSH1 0x4 DUP1 CALLDATASIZE SUB DUP2 ADD SWAP1 PUSH2 0x72E SWAP2 SWAP1 PUSH2 0x2102 JUMP JUMPDEST PUSH2 0x13F2 JUMP JUMPDEST STOP JUMPDEST CALLVALUE DUP1 ISZERO PUSH2 0x740 JUMPI PUSH0 PUSH0 REVERT JUMPDEST POP PUSH2 0x749 PUSH2 0x15EC JUMP JUMPDEST PUSH1 0x40 MLOAD PUSH2 0x756 SWAP2 SWAP1 PUSH2 0x2400 JUMP JUMPDEST PUSH1 0x40 MLOAD DUP1 SWAP2 SUB SWAP1 RETURN JUMPDEST CALLVALUE DUP1 ISZERO PUSH2 0x76A JUMPI PUSH0 PUSH0 REVERT JUMPDEST POP PUSH2 0x785 PUSH1 0x4 DUP1 CALLDATASIZE SUB DUP2 ADD SWAP1 PUSH2 0x780 SWAP2 SWAP1 PUSH2 0x205D JUMP JUMPDEST PUSH2 0x1611 JUMP JUMPDEST STOP JUMPDEST CALLVALUE DUP1 ISZERO PUSH2 0x792 JUMPI PUSH0 PUSH0 REVERT JUMPDEST POP PUSH2 0x7AD PUSH1 0x4 DUP1 CALLDATASIZE SUB DUP2 ADD SWAP1 PUSH2 0x7A8 SWAP2 SWAP1 PUSH2 0x212D JUMP JUMPDEST PUSH2 0x1633 JUMP JUMPDEST STOP JUMPDEST CALLVALUE DUP1 ISZERO PUSH2 0x7BA JUMPI PUSH0 PUSH0 REVERT JUMPDEST POP PUSH2 0x7C3 PUSH2 0x16C9 JUMP JUMPDEST PUSH1 0x40 MLOAD PUSH2 0x7D0 SWAP2 SWAP1 PUSH2 0x201A JUMP JUMPDEST PUSH1 0x40 MLOAD DUP1 SWAP2 SUB SWAP1 RETURN JUMPDEST CALLVALUE DUP1 ISZERO PUSH2 0x7E4 JUMPI PUSH0 PUSH0 REVERT JUMPDEST POP PUSH2 0x7FF PUSH1 0x4 DUP1 CALLDATASIZE SUB DUP2 ADD SWAP1 PUSH2 0x7FA SWAP2 SWAP1 PUSH2 0x2443 JUMP JUMPDEST PUSH2 0x16ED JUMP JUMPDEST STOP JUMPDEST CALLVALUE DUP1 ISZERO PUSH2 0x80C JUMPI PUSH0 PUSH0 REVERT JUMPDEST POP PUSH2 0x815 PUSH2 0x185D JUMP JUMPDEST PUSH1 0x40 MLOAD PUSH2 0x822 SWAP2 SWAP1 PUSH2 0x2481 JUMP JUMPDEST PUSH1 0x40 MLOAD DUP1 SWAP2 SUB SWAP1 RETURN JUMPDEST CALLVALUE DUP1 ISZERO PUSH2 0x836 JUMPI PUSH0 PUSH0 REVERT JUMPDEST POP PUSH2 0x851 PUSH1 0x4 DUP1 CALLDATASIZE SUB DUP2 ADD SWAP1 PUSH2 0x84C SWAP2 SWAP1 PUSH2 0x212D JUMP JUMPDEST PUSH2 0x1863 JUMP JUMPDEST STOP JUMPDEST CALLVALUE DUP1 ISZERO PUSH2 0x85E JUMPI PUSH0 PUSH0 REVERT JUMPDEST POP PUSH2 0x879 PUSH1 0x4 DUP1 CALLDATASIZE SUB DUP2 ADD SWAP1 PUSH2 0x874 SWAP2 SWAP1 PUSH2 0x212D JUMP JUMPDEST PUSH2 0x18F9 JUMP JUMPDEST STOP JUMPDEST PUSH0 PUSH32 0x7965DB0B00000000000000000000000000000000000000000000000000000000 PUSH28 0xFFFFFFFFFFFFFFFFFFFFFFFFFFFFFFFFFFFFFFFFFFFFFFFFFFFFFFFF NOT AND DUP3 PUSH28 0xFFFFFFFFFFFFFFFFFFFFFFFFFFFFFFFFFFFFFFFFFFFFFFFFFFFFFFFF NOT AND EQ DUP1 PUSH2 0x8ED JUMPI POP PUSH2 0x8EC DUP3 PUSH2 0x198F JUMP JUMPDEST JUMPDEST SWAP1 POP SWAP2 SWAP1 POP JUMP JUMPDEST PUSH20 0x78731D3CA6B7E34AC0F824C42A7CC18A495CABAB DUP2 JUMP JUMPDEST PUSH0 PUSH0 PUSH0 DUP4 DUP2 MSTORE PUSH1 0x20 ADD SWAP1 DUP2 MSTORE PUSH1 0x20 ADD PUSH0 KECCAK256 PUSH1 0x1 ADD SLOAD SWAP1 POP SWAP2 SWAP1 POP JUMP JUMPDEST PUSH2 0x931 DUP3 PUSH2 0x90C JUMP JUMPDEST PUSH2 0x93A DUP2 PUSH2 0x19F8 JUMP JUMPDEST PUSH2 0x944 DUP4 DUP4 PUSH2 0x1A0C JUMP JUMPDEST POP POP POP POP JUMP JUMPDEST PUSH0 PUSH1 0x12 SWAP1 POP SWAP1 JUMP JUMPDEST PUSH2 0x95A PUSH2 0x1AF5 JUMP JUMPDEST PUSH20 0xFFFFFFFFFFFFFFFFFFFFFFFFFFFFFFFFFFFFFFFF AND DUP2 PUSH20 0xFFFFFFFFFFFFFFFFFFFFFFFFFFFFFFFFFFFFFFFF AND EQ PUSH2 0x9BE JUMPI PUSH1 0x40 MLOAD PUSH32 0x6697B23200000000000000000000000000000000000000000000000000000000 DUP2 MSTORE PUSH1 0x4 ADD PUSH1 0x40 MLOAD DUP1 SWAP2 SUB SWAP1 REVERT JUMPDEST PUSH2 0x9C8 DUP3 DUP3 PUSH2 0x1AFC JUMP JUMPDEST POP POP POP JUMP JUMPDEST PUSH2 0x9F7 PUSH32 0xF8CD32ED93FC2F9FC78152A14807C9609AF3D99C5FE4DC6B106A801AADDFE90E CALLER PUSH2 0xFB2 JUMP JUMPDEST PUSH2 0xA36 JUMPI PUSH1 0x40 MLOAD PUSH32 0x8C379A000000000000000000000000000000000000000000000000000000000 DUP2 MSTORE PUSH1 0x4 ADD PUSH2 0xA2D SWAP1 PUSH2 0x24E4 JUMP JUMPDEST PUSH1 0x40 MLOAD DUP1 SWAP2 SUB SWAP1 REVERT JUMPDEST PUSH2 0xA3E PUSH2 0x1BE5 JUMP JUMPDEST PUSH0 PUSH1 0x2 PUSH0 DUP4 DUP2 MSTORE PUSH1 0x20 ADD SWAP1 DUP2 MSTORE PUSH1 0x20 ADD PUSH0 KECCAK256 SWAP1 POP DUP1 PUSH1 0x2 ADD PUSH1 0x14 SWAP1 SLOAD SWAP1 PUSH2 0x100 EXP SWAP1 DIV PUSH1 0xFF AND PUSH2 0xAA3 JUMPI PUSH1 0x40 MLOAD PUSH32 0x8C379A000000000000000000000000000000000000000000000000000000000 DUP2 MSTORE PUSH1 0x4 ADD PUSH2 0xA9A SWAP1 PUSH2 0x254C JUMP JUMPDEST PUSH1 0x40 MLOAD DUP1 SWAP2 SUB SWAP1 REVERT JUMPDEST PUSH1 0x4 PUSH0 SWAP1 SLOAD SWAP1 PUSH2 0x100 EXP SWAP1 DIV PUSH20 0xFFFFFFFFFFFFFFFFFFFFFFFFFFFFFFFFFFFFFFFF AND PUSH20 0xFFFFFFFFFFFFFFFFFFFFFFFFFFFFFFFFFFFFFFFF AND PUSH4 0xF04A72B3 DUP4 DUP4 PUSH1 0x1 ADD SLOAD CALLER PUSH1 0x40 MLOAD DUP5 PUSH4 0xFFFFFFFF AND PUSH1 0xE0 SHL DUP2 MSTORE PUSH1 0x4 ADD PUSH2 0xB05 SWAP4 SWAP3 SWAP2 SWAP1 PUSH2 0x256A JUMP JUMPDEST PUSH0 PUSH1 0x40 MLOAD DUP1 DUP4 SUB DUP2 PUSH0 DUP8 DUP1 EXTCODESIZE ISZERO DUP1 ISZERO PUSH2 0xB1C JUMPI PUSH0 PUSH0 REVERT JUMPDEST POP GAS CALL ISZERO DUP1 ISZERO PUSH2 0xB2E JUMPI RETURNDATASIZE PUSH0 PUSH0 RETURNDATACOPY RETURNDATASIZE PUSH0 REVERT JUMPDEST POP POP POP POP CALLER DUP2 PUSH1 0x3 ADD PUSH0 PUSH2 0x100 EXP DUP2 SLOAD DUP2 PUSH20 0xFFFFFFFFFFFFFFFFFFFFFFFFFFFFFFFFFFFFFFFF MUL NOT AND SWAP1 DUP4 PUSH20 0xFFFFFFFFFFFFFFFFFFFFFFFFFFFFFFFFFFFFFFFF AND MUL OR SWAP1 SSTORE POP PUSH0 DUP2 PUSH1 0x2 ADD PUSH1 0x14 PUSH2 0x100 EXP DUP2 SLOAD DUP2 PUSH1 0xFF MUL NOT AND SWAP1 DUP4 ISZERO ISZERO MUL OR SWAP1 SSTORE POP PUSH32 0x9AD4ECFAF27EA0CBEEBEE0ED92FE15C8A84975F1E3D45CCFC526D7751DCF98FF DUP3 CALLER PUSH1 0x40 MLOAD PUSH2 0xBC1 SWAP3 SWAP2 SWAP1 PUSH2 0x259F JUMP JUMPDEST PUSH1 0x40 MLOAD DUP1 SWAP2 SUB SWAP1 LOG1 POP POP JUMP JUMPDEST PUSH20 0x5B38DA6A701C568545DCFCB03FCB875F56BEDDC4 DUP2 JUMP JUMPDEST PUSH32 0xA49807205CE4D355092EF5A8A18F56E8913CF4A201FBE287825B095693C21775 PUSH2 0xC0F DUP2 PUSH2 0x19F8 JUMP JUMPDEST PUSH2 0xC17 PUSH2 0x1C2F JUMP JUMPDEST POP JUMP JUMPDEST PUSH2 0xC44 PUSH32 0xA49807205CE4D355092EF5A8A18F56E8913CF4A201FBE287825B095693C21775 CALLER PUSH2 0xFB2 JUMP JUMPDEST PUSH2 0xC83 JUMPI PUSH1 0x40 MLOAD PUSH32 0x8C379A000000000000000000000000000000000000000000000000000000000 DUP2 MSTORE PUSH1 0x4 ADD PUSH2 0xC7A SWAP1 PUSH2 0x2610 JUMP JUMPDEST PUSH1 0x40 MLOAD DUP1 SWAP2 SUB SWAP1 REVERT JUMPDEST PUSH2 0xCAD PUSH32 0x190ACB99F29D9641C9AD47655049F2D7C78FCBC837D62E7981D28C871F722081 DUP3 PUSH2 0x928 JUMP JUMPDEST POP JUMP JUMPDEST PUSH20 0x4B20993BC481177EC7E8F571CECAE8A9E22C02DB DUP2 JUMP JUMPDEST PUSH0 PUSH1 0x1 PUSH0 SWAP1 SLOAD SWAP1 PUSH2 0x100 EXP SWAP1 DIV PUSH1 0xFF AND SWAP1 POP SWAP1 JUMP JUMPDEST PUSH32 0x59A1C48E5837AD7A7F3DCEDCBE129BF3249EC4FBF651FD4F5E2600EAD39FE2F5 DUP2 JUMP JUMPDEST PUSH2 0xD2B PUSH32 0xA49807205CE4D355092EF5A8A18F56E8913CF4A201FBE287825B095693C21775 CALLER PUSH2 0xFB2 JUMP JUMPDEST PUSH2 0xD6A JUMPI PUSH1 0x40 MLOAD PUSH32 0x8C379A000000000000000000000000000000000000000000000000000000000 DUP2 MSTORE PUSH1 0x4 ADD PUSH2 0xD61 SWAP1 PUSH2 0x2610 JUMP JUMPDEST PUSH1 0x40 MLOAD DUP1 SWAP2 SUB SWAP1 REVERT JUMPDEST PUSH2 0xD94 PUSH32 0xF8CD32ED93FC2F9FC78152A14807C9609AF3D99C5FE4DC6B106A801AADDFE90E DUP3 PUSH2 0x1611 JUMP JUMPDEST POP JUMP JUMPDEST PUSH32 0xA49807205CE4D355092EF5A8A18F56E8913CF4A201FBE287825B095693C21775 DUP2 JUMP JUMPDEST PUSH1 0x12 DUP2 JUMP JUMPDEST PUSH32 0xF8CD32ED93FC2F9FC78152A14807C9609AF3D99C5FE4DC6B106A801AADDFE90E DUP2 JUMP JUMPDEST PUSH1 0x2 PUSH1 0x20 MSTORE DUP1 PUSH0 MSTORE PUSH1 0x40 PUSH0 KECCAK256 PUSH0 SWAP2 POP SWAP1 POP DUP1 PUSH0 ADD DUP1 SLOAD PUSH2 0xE03 SWAP1 PUSH2 0x265B JUMP JUMPDEST DUP1 PUSH1 0x1F ADD PUSH1 0x20 DUP1 SWAP2 DIV MUL PUSH1 0x20 ADD PUSH1 0x40 MLOAD SWAP1 DUP2 ADD PUSH1 0x40 MSTORE DUP1 SWAP3 SWAP2 SWAP1 DUP2 DUP2 MSTORE PUSH1 0x20 ADD DUP3 DUP1 SLOAD PUSH2 0xE2F SWAP1 PUSH2 0x265B JUMP JUMPDEST DUP1 ISZERO PUSH2 0xE7A JUMPI DUP1 PUSH1 0x1F LT PUSH2 0xE51 JUMPI PUSH2 0x100 DUP1 DUP4 SLOAD DIV MUL DUP4 MSTORE SWAP2 PUSH1 0x20 ADD SWAP2 PUSH2 0xE7A JUMP JUMPDEST DUP3 ADD SWAP2 SWAP1 PUSH0 MSTORE PUSH1 0x20 PUSH0 KECCAK256 SWAP1 JUMPDEST DUP2 SLOAD DUP2 MSTORE SWAP1 PUSH1 0x1 ADD SWAP1 PUSH1 0x20 ADD DUP1 DUP4 GT PUSH2 0xE5D JUMPI DUP3 SWAP1 SUB PUSH1 0x1F AND DUP3 ADD SWAP2 JUMPDEST POP POP POP POP POP SWAP1 DUP1 PUSH1 0x1 ADD SLOAD SWAP1 DUP1 PUSH1 0x2 ADD PUSH0 SWAP1 SLOAD SWAP1 PUSH2 0x100 EXP SWAP1 DIV PUSH20 0xFFFFFFFFFFFFFFFFFFFFFFFFFFFFFFFFFFFFFFFF AND SWAP1 DUP1 PUSH1 0x2 ADD PUSH1 0x14 SWAP1 SLOAD SWAP1 PUSH2 0x100 EXP SWAP1 DIV PUSH1 0xFF AND SWAP1 DUP1 PUSH1 0x3 ADD PUSH0 SWAP1 SLOAD SWAP1 PUSH2 0x100 EXP SWAP1 DIV PUSH20 0xFFFFFFFFFFFFFFFFFFFFFFFFFFFFFFFFFFFFFFFF AND SWAP1 POP DUP6 JUMP JUMPDEST PUSH2 0xF11 PUSH32 0xA49807205CE4D355092EF5A8A18F56E8913CF4A201FBE287825B095693C21775 CALLER PUSH2 0xFB2 JUMP JUMPDEST PUSH2 0xF50 JUMPI PUSH1 0x40 MLOAD PUSH32 0x8C379A000000000000000000000000000000000000000000000000000000000 DUP2 MSTORE PUSH1 0x4 ADD PUSH2 0xF47 SWAP1 PUSH2 0x2610 JUMP JUMPDEST PUSH1 0x40 MLOAD DUP1 SWAP2 SUB SWAP1 REVERT JUMPDEST PUSH2 0xF7A PUSH32 0x43F25613EB2F15FB17222A5D424CA2655743E71265D98E4B93C05E5FB589ECDE DUP3 PUSH2 0x1611 JUMP JUMPDEST POP JUMP JUMPDEST PUSH32 0xA49807205CE4D355092EF5A8A18F56E8913CF4A201FBE287825B095693C21775 PUSH2 0xFA7 DUP2 PUSH2 0x19F8 JUMP JUMPDEST PUSH2 0xFAF PUSH2 0x1C90 JUMP JUMPDEST POP JUMP JUMPDEST PUSH0 PUSH0 PUSH0 DUP5 DUP2 MSTORE PUSH1 0x20 ADD SWAP1 DUP2 MSTORE PUSH1 0x20 ADD PUSH0 KECCAK256 PUSH0 ADD PUSH0 DUP4 PUSH20 0xFFFFFFFFFFFFFFFFFFFFFFFFFFFFFFFFFFFFFFFF AND PUSH20 0xFFFFFFFFFFFFFFFFFFFFFFFFFFFFFFFFFFFFFFFF AND DUP2 MSTORE PUSH1 0x20 ADD SWAP1 DUP2 MSTORE PUSH1 0x20 ADD PUSH0 KECCAK256 PUSH0 SWAP1 SLOAD SWAP1 PUSH2 0x100 EXP SWAP1 DIV PUSH1 0xFF AND SWAP1 POP SWAP3 SWAP2 POP POP JUMP JUMPDEST PUSH2 0x103F PUSH32 0xA49807205CE4D355092EF5A8A18F56E8913CF4A201FBE287825B095693C21775 CALLER PUSH2 0xFB2 JUMP JUMPDEST PUSH2 0x107E JUMPI PUSH1 0x40 MLOAD PUSH32 0x8C379A000000000000000000000000000000000000000000000000000000000 DUP2 MSTORE PUSH1 0x4 ADD PUSH2 0x1075 SWAP1 PUSH2 0x2610 JUMP JUMPDEST PUSH1 0x40 MLOAD DUP1 SWAP2 SUB SWAP1 REVERT JUMPDEST PUSH2 0x10A8 PUSH32 0x190ACB99F29D9641C9AD47655049F2D7C78FCBC837D62E7981D28C871F722081 DUP3 PUSH2 0x1611 JUMP JUMPDEST POP JUMP JUMPDEST PUSH0 PUSH0 SHL DUP2 JUMP JUMPDEST PUSH2 0x10DB PUSH32 0x43F25613EB2F15FB17222A5D424CA2655743E71265D98E4B93C05E5FB589ECDE CALLER PUSH2 0xFB2 JUMP JUMPDEST PUSH2 0x111A JUMPI PUSH1 0x40 MLOAD PUSH32 0x8C379A000000000000000000000000000000000000000000000000000000000 DUP2 MSTORE PUSH1 0x4 ADD PUSH2 0x1111 SWAP1 PUSH2 0x26D5 JUMP JUMPDEST PUSH1 0x40 MLOAD DUP1 SWAP2 SUB SWAP1 REVERT JUMPDEST PUSH2 0x1122 PUSH2 0x1BE5 JUMP JUMPDEST PUSH0 DUP3 MLOAD GT PUSH2 0x1165 JUMPI PUSH1 0x40 MLOAD PUSH32 0x8C379A000000000000000000000000000000000000000000000000000000000 DUP2 MSTORE PUSH1 0x4 ADD PUSH2 0x115C SWAP1 PUSH2 0x273D JUMP JUMPDEST PUSH1 0x40 MLOAD DUP1 SWAP2 SUB SWAP1 REVERT JUMPDEST PUSH0 DUP2 GT PUSH2 0x11A7 JUMPI PUSH1 0x40 MLOAD PUSH32 0x8C379A000000000000000000000000000000000000000000000000000000000 DUP2 MSTORE PUSH1 0x4 ADD PUSH2 0x119E SWAP1 PUSH2 0x27A5 JUMP JUMPDEST PUSH1 0x40 MLOAD DUP1 SWAP2 SUB SWAP1 REVERT JUMPDEST PUSH1 0x40 MLOAD DUP1 PUSH1 0xA0 ADD PUSH1 0x40 MSTORE DUP1 DUP4 DUP2 MSTORE PUSH1 0x20 ADD DUP3 DUP2 MSTORE PUSH1 0x20 ADD CALLER PUSH20 0xFFFFFFFFFFFFFFFFFFFFFFFFFFFFFFFFFFFFFFFF AND DUP2 MSTORE PUSH1 0x20 ADD PUSH1 0x1 ISZERO ISZERO DUP2 MSTORE PUSH1 0x20 ADD PUSH0 PUSH20 0xFFFFFFFFFFFFFFFFFFFFFFFFFFFFFFFFFFFFFFFF AND DUP2 MSTORE POP PUSH1 0x2 PUSH0 PUSH1 0x3 SLOAD DUP2 MSTORE PUSH1 0x20 ADD SWAP1 DUP2 MSTORE PUSH1 0x20 ADD PUSH0 KECCAK256 PUSH0 DUP3 ADD MLOAD DUP2 PUSH0 ADD SWAP1 DUP2 PUSH2 0x1223 SWAP2 SWAP1 PUSH2 0x295A JUMP JUMPDEST POP PUSH1 0x20 DUP3 ADD MLOAD DUP2 PUSH1 0x1 ADD SSTORE PUSH1 0x40 DUP3 ADD MLOAD DUP2 PUSH1 0x2 ADD PUSH0 PUSH2 0x100 EXP DUP2 SLOAD DUP2 PUSH20 0xFFFFFFFFFFFFFFFFFFFFFFFFFFFFFFFFFFFFFFFF MUL NOT AND SWAP1 DUP4 PUSH20 0xFFFFFFFFFFFFFFFFFFFFFFFFFFFFFFFFFFFFFFFF AND MUL OR SWAP1 SSTORE POP PUSH1 0x60 DUP3 ADD MLOAD DUP2 PUSH1 0x2 ADD PUSH1 0x14 PUSH2 0x100 EXP DUP2 SLOAD DUP2 PUSH1 0xFF MUL NOT AND SWAP1 DUP4 ISZERO ISZERO MUL OR SWAP1 SSTORE POP PUSH1 0x80 DUP3 ADD MLOAD DUP2 PUSH1 0x3 ADD PUSH0 PUSH2 0x100 EXP DUP2 SLOAD DUP2 PUSH20 0xFFFFFFFFFFFFFFFFFFFFFFFFFFFFFFFFFFFFFFFF MUL NOT AND SWAP1 DUP4 PUSH20 0xFFFFFFFFFFFFFFFFFFFFFFFFFFFFFFFFFFFFFFFF AND MUL OR SWAP1 SSTORE POP SWAP1 POP POP PUSH32 0x52402CAFB2ECEC722B103E8F203F83362148C168659DC96678C2C6850D12DD9F PUSH1 0x3 SLOAD DUP4 DUP4 CALLER PUSH1 0x40 MLOAD PUSH2 0x1314 SWAP5 SWAP4 SWAP3 SWAP2 SWAP1 PUSH2 0x2A29 JUMP JUMPDEST PUSH1 0x40 MLOAD DUP1 SWAP2 SUB SWAP1 LOG1 POP POP JUMP JUMPDEST PUSH20 0x78731D3CA6B7E34AC0F824C42A7CC18A495CABAB DUP2 JUMP JUMPDEST PUSH32 0x190ACB99F29D9641C9AD47655049F2D7C78FCBC837D62E7981D28C871F722081 DUP2 JUMP JUMPDEST PUSH2 0x1386 PUSH32 0xA49807205CE4D355092EF5A8A18F56E8913CF4A201FBE287825B095693C21775 CALLER PUSH2 0xFB2 JUMP JUMPDEST PUSH2 0x13C5 JUMPI PUSH1 0x40 MLOAD PUSH32 0x8C379A000000000000000000000000000000000000000000000000000000000 DUP2 MSTORE PUSH1 0x4 ADD PUSH2 0x13BC SWAP1 PUSH2 0x2610 JUMP JUMPDEST PUSH1 0x40 MLOAD DUP1 SWAP2 SUB SWAP1 REVERT JUMPDEST PUSH2 0x13EF PUSH32 0xF8CD32ED93FC2F9FC78152A14807C9609AF3D99C5FE4DC6B106A801AADDFE90E DUP3 PUSH2 0x928 JUMP JUMPDEST POP JUMP JUMPDEST PUSH2 0x141C PUSH32 0x59A1C48E5837AD7A7F3DCEDCBE129BF3249EC4FBF651FD4F5E2600EAD39FE2F5 CALLER PUSH2 0xFB2 JUMP JUMPDEST PUSH2 0x145B JUMPI PUSH1 0x40 MLOAD PUSH32 0x8C379A000000000000000000000000000000000000000000000000000000000 DUP2 MSTORE PUSH1 0x4 ADD PUSH2 0x1452 SWAP1 PUSH2 0x2ABD JUMP JUMPDEST PUSH1 0x40 MLOAD DUP1 SWAP2 SUB SWAP1 REVERT JUMPDEST PUSH2 0x1463 PUSH2 0x1BE5 JUMP JUMPDEST PUSH0 PUSH1 0x2 PUSH0 DUP4 DUP2 MSTORE PUSH1 0x20 ADD SWAP1 DUP2 MSTORE PUSH1 0x20 ADD PUSH0 KECCAK256 SWAP1 POP DUP1 PUSH1 0x2 ADD PUSH1 0x14 SWAP1 SLOAD SWAP1 PUSH2 0x100 EXP SWAP1 DIV PUSH1 0xFF AND ISZERO PUSH2 0x14C9 JUMPI PUSH1 0x40 MLOAD PUSH32 0x8C379A000000000000000000000000000000000000000000000000000000000 DUP2 MSTORE PUSH1 0x4 ADD PUSH2 0x14C0 SWAP1 PUSH2 0x2B25 JUMP JUMPDEST PUSH1 0x40 MLOAD DUP1 SWAP2 SUB SWAP1 REVERT JUMPDEST PUSH1 0x4 PUSH0 SWAP1 SLOAD SWAP1 PUSH2 0x100 EXP SWAP1 DIV PUSH20 0xFFFFFFFFFFFFFFFFFFFFFFFFFFFFFFFFFFFFFFFF AND PUSH20 0xFFFFFFFFFFFFFFFFFFFFFFFFFFFFFFFFFFFFFFFF AND PUSH4 0xE0182436 DUP4 PUSH1 0x40 MLOAD DUP3 PUSH4 0xFFFFFFFF AND PUSH1 0xE0 SHL DUP2 MSTORE PUSH1 0x4 ADD PUSH2 0x1523 SWAP2 SWAP1 PUSH2 0x2481 JUMP JUMPDEST PUSH0 PUSH1 0x40 MLOAD DUP1 DUP4 SUB DUP2 PUSH0 DUP8 DUP1 EXTCODESIZE ISZERO DUP1 ISZERO PUSH2 0x153A JUMPI PUSH0 PUSH0 REVERT JUMPDEST POP GAS CALL ISZERO DUP1 ISZERO PUSH2 0x154C JUMPI RETURNDATASIZE PUSH0 PUSH0 RETURNDATACOPY RETURNDATASIZE PUSH0 REVERT JUMPDEST POP POP POP POP PUSH0 DUP2 PUSH1 0x3 ADD PUSH0 PUSH2 0x100 EXP DUP2 SLOAD DUP2 PUSH20 0xFFFFFFFFFFFFFFFFFFFFFFFFFFFFFFFFFFFFFFFF MUL NOT AND SWAP1 DUP4 PUSH20 0xFFFFFFFFFFFFFFFFFFFFFFFFFFFFFFFFFFFFFFFF AND MUL OR SWAP1 SSTORE POP PUSH1 0x1 DUP2 PUSH1 0x2 ADD PUSH1 0x14 PUSH2 0x100 EXP DUP2 SLOAD DUP2 PUSH1 0xFF MUL NOT AND SWAP1 DUP4 ISZERO ISZERO MUL OR SWAP1 SSTORE POP PUSH32 0x3BEBA936DD321FF968DE436A80911F117E372CE719DAB89E0F74A75F29B4C585 DUP3 CALLER PUSH1 0x40 MLOAD PUSH2 0x15E0 SWAP3 SWAP2 SWAP1 PUSH2 0x259F JUMP JUMPDEST PUSH1 0x40 MLOAD DUP1 SWAP2 SUB SWAP1 LOG1 POP POP JUMP JUMPDEST PUSH1 0x4 PUSH0 SWAP1 SLOAD SWAP1 PUSH2 0x100 EXP SWAP1 DIV PUSH20 0xFFFFFFFFFFFFFFFFFFFFFFFFFFFFFFFFFFFFFFFF AND DUP2 JUMP JUMPDEST PUSH2 0x161A DUP3 PUSH2 0x90C JUMP JUMPDEST PUSH2 0x1623 DUP2 PUSH2 0x19F8 JUMP JUMPDEST PUSH2 0x162D DUP4 DUP4 PUSH2 0x1AFC JUMP JUMPDEST POP POP POP POP JUMP JUMPDEST PUSH2 0x165D PUSH32 0xA49807205CE4D355092EF5A8A18F56E8913CF4A201FBE287825B095693C21775 CALLER PUSH2 0xFB2 JUMP JUMPDEST PUSH2 0x169C JUMPI PUSH1 0x40 MLOAD PUSH32 0x8C379A000000000000000000000000000000000000000000000000000000000 DUP2 MSTORE PUSH1 0x4 ADD PUSH2 0x1693 SWAP1 PUSH2 0x2610 JUMP JUMPDEST PUSH1 0x40 MLOAD DUP1 SWAP2 SUB SWAP1 REVERT JUMPDEST PUSH2 0x16C6 PUSH32 0x43F25613EB2F15FB17222A5D424CA2655743E71265D98E4B93C05E5FB589ECDE DUP3 PUSH2 0x928 JUMP JUMPDEST POP JUMP JUMPDEST PUSH32 0x43F25613EB2F15FB17222A5D424CA2655743E71265D98E4B93C05E5FB589ECDE DUP2 JUMP JUMPDEST PUSH2 0x1717 PUSH32 0x43F25613EB2F15FB17222A5D424CA2655743E71265D98E4B93C05E5FB589ECDE CALLER PUSH2 0xFB2 JUMP JUMPDEST PUSH2 0x1756 JUMPI PUSH1 0x40 MLOAD PUSH32 0x8C379A000000000000000000000000000000000000000000000000000000000 DUP2 MSTORE PUSH1 0x4 ADD PUSH2 0x174D SWAP1 PUSH2 0x26D5 JUMP JUMPDEST PUSH1 0x40 MLOAD DUP1 SWAP2 SUB SWAP1 REVERT JUMPDEST PUSH2 0x175E PUSH2 0x1BE5 JUMP JUMPDEST PUSH0 PUSH1 0x2 PUSH0 DUP5 DUP2 MSTORE PUSH1 0x20 ADD SWAP1 DUP2 MSTORE PUSH1 0x20 ADD PUSH0 KECCAK256 SWAP1 POP DUP1 PUSH1 0x2 ADD PUSH0 SWAP1 SLOAD SWAP1 PUSH2 0x100 EXP SWAP1 DIV PUSH20 0xFFFFFFFFFFFFFFFFFFFFFFFFFFFFFFFFFFFFFFFF AND PUSH20 0xFFFFFFFFFFFFFFFFFFFFFFFFFFFFFFFFFFFFFFFF AND CALLER PUSH20 0xFFFFFFFFFFFFFFFFFFFFFFFFFFFFFFFFFFFFFFFF AND EQ PUSH2 0x1803 JUMPI PUSH1 0x40 MLOAD PUSH32 0x8C379A000000000000000000000000000000000000000000000000000000000 DUP2 MSTORE PUSH1 0x4 ADD PUSH2 0x17FA SWAP1 PUSH2 0x2BB3 JUMP JUMPDEST PUSH1 0x40 MLOAD DUP1 SWAP2 SUB SWAP1 REVERT JUMPDEST DUP2 DUP2 PUSH1 0x2 ADD PUSH1 0x14 PUSH2 0x100 EXP DUP2 SLOAD DUP2 PUSH1 0xFF MUL NOT AND SWAP1 DUP4 ISZERO ISZERO MUL OR SWAP1 SSTORE POP PUSH32 0x96FB264925A6E0E077F5E481CFFAC4E5C3AAFB46B5209638A24360307F47669 DUP4 DUP4 PUSH1 0x40 MLOAD PUSH2 0x1850 SWAP3 SWAP2 SWAP1 PUSH2 0x2BD1 JUMP JUMPDEST PUSH1 0x40 MLOAD DUP1 SWAP2 SUB SWAP1 LOG1 POP POP POP JUMP JUMPDEST PUSH1 0x3 SLOAD DUP2 JUMP JUMPDEST PUSH2 0x188D PUSH32 0xA49807205CE4D355092EF5A8A18F56E8913CF4A201FBE287825B095693C21775 CALLER PUSH2 0xFB2 JUMP JUMPDEST PUSH2 0x18CC JUMPI PUSH1 0x40 MLOAD PUSH32 0x8C379A000000000000000000000000000000000000000000000000000000000 DUP2 MSTORE PUSH1 0x4 ADD PUSH2 0x18C3 SWAP1 PUSH2 0x2610 JUMP JUMPDEST PUSH1 0x40 MLOAD DUP1 SWAP2 SUB SWAP1 REVERT JUMPDEST PUSH2 0x18F6 PUSH32 0x59A1C48E5837AD7A7F3DCEDCBE129BF3249EC4FBF651FD4F5E2600EAD39FE2F5 DUP3 PUSH2 0x928 JUMP JUMPDEST POP JUMP JUMPDEST PUSH2 0x1923 PUSH32 0xA49807205CE4D355092EF5A8A18F56E8913CF4A201FBE287825B095693C21775 CALLER PUSH2 0xFB2 JUMP JUMPDEST PUSH2 0x1962 JUMPI PUSH1 0x40 MLOAD PUSH32 0x8C379A000000000000000000000000000000000000000000000000000000000 DUP2 MSTORE PUSH1 0x4 ADD PUSH2 0x1959 SWAP1 PUSH2 0x2610 JUMP JUMPDEST PUSH1 0x40 MLOAD DUP1 SWAP2 SUB SWAP1 REVERT JUMPDEST PUSH2 0x198C PUSH32 0x59A1C48E5837AD7A7F3DCEDCBE129BF3249EC4FBF651FD4F5E2600EAD39FE2F5 DUP3 PUSH2 0x1611 JUMP JUMPDEST POP JUMP JUMPDEST PUSH0 PUSH32 0x1FFC9A700000000000000000000000000000000000000000000000000000000 PUSH28 0xFFFFFFFFFFFFFFFFFFFFFFFFFFFFFFFFFFFFFFFFFFFFFFFFFFFFFFFF NOT AND DUP3 PUSH28 0xFFFFFFFFFFFFFFFFFFFFFFFFFFFFFFFFFFFFFFFFFFFFFFFFFFFFFFFF NOT AND EQ SWAP1 POP SWAP2 SWAP1 POP JUMP JUMPDEST PUSH2 0x1A09 DUP2 PUSH2 0x1A04 PUSH2 0x1AF5 JUMP JUMPDEST PUSH2 0x1CF1 JUMP JUMPDEST POP JUMP JUMPDEST PUSH0 PUSH2 0x1A17 DUP4 DUP4 PUSH2 0xFB2 JUMP JUMPDEST PUSH2 0x1AEB JUMPI PUSH1 0x1 PUSH0 PUSH0 DUP6 DUP2 MSTORE PUSH1 0x20 ADD SWAP1 DUP2 MSTORE PUSH1 0x20 ADD PUSH0 KECCAK256 PUSH0 ADD PUSH0 DUP5 PUSH20 0xFFFFFFFFFFFFFFFFFFFFFFFFFFFFFFFFFFFFFFFF AND PUSH20 0xFFFFFFFFFFFFFFFFFFFFFFFFFFFFFFFFFFFFFFFF AND DUP2 MSTORE PUSH1 0x20 ADD SWAP1 DUP2 MSTORE PUSH1 0x20 ADD PUSH0 KECCAK256 PUSH0 PUSH2 0x100 EXP DUP2 SLOAD DUP2 PUSH1 0xFF MUL NOT AND SWAP1 DUP4 ISZERO ISZERO MUL OR SWAP1 SSTORE POP PUSH2 0x1A88 PUSH2 0x1AF5 JUMP JUMPDEST PUSH20 0xFFFFFFFFFFFFFFFFFFFFFFFFFFFFFFFFFFFFFFFF AND DUP3 PUSH20 0xFFFFFFFFFFFFFFFFFFFFFFFFFFFFFFFFFFFFFFFF AND DUP5 PUSH32 0x2F8788117E7EFF1D82E926EC794901D17C78024A50270940304540A733656F0D PUSH1 0x40 MLOAD PUSH1 0x40 MLOAD DUP1 SWAP2 SUB SWAP1 LOG4 PUSH1 0x1 SWAP1 POP PUSH2 0x1AEF JUMP JUMPDEST PUSH0 SWAP1 POP JUMPDEST SWAP3 SWAP2 POP POP JUMP JUMPDEST PUSH0 CALLER SWAP1 POP SWAP1 JUMP JUMPDEST PUSH0 PUSH2 0x1B07 DUP4 DUP4 PUSH2 0xFB2 JUMP JUMPDEST ISZERO PUSH2 0x1BDB JUMPI PUSH0 PUSH0 PUSH0 DUP6 DUP2 MSTORE PUSH1 0x20 ADD SWAP1 DUP2 MSTORE PUSH1 0x20 ADD PUSH0 KECCAK256 PUSH0 ADD PUSH0 DUP5 PUSH20 0xFFFFFFFFFFFFFFFFFFFFFFFFFFFFFFFFFFFFFFFF AND PUSH20 0xFFFFFFFFFFFFFFFFFFFFFFFFFFFFFFFFFFFFFFFF AND DUP2 MSTORE PUSH1 0x20 ADD SWAP1 DUP2 MSTORE PUSH1 0x20 ADD PUSH0 KECCAK256 PUSH0 PUSH2 0x100 EXP DUP2 SLOAD DUP2 PUSH1 0xFF MUL NOT AND SWAP1 DUP4 ISZERO ISZERO MUL OR SWAP1 SSTORE POP PUSH2 0x1B78 PUSH2 0x1AF5 JUMP JUMPDEST PUSH20 0xFFFFFFFFFFFFFFFFFFFFFFFFFFFFFFFFFFFFFFFF AND DUP3 PUSH20 0xFFFFFFFFFFFFFFFFFFFFFFFFFFFFFFFFFFFFFFFF AND DUP5 PUSH32 0xF6391F5C32D9C69D2A47EA670B442974B53935D1EDC7FD64EB21E047A839171B PUSH1 0x40 MLOAD PUSH1 0x40 MLOAD DUP1 SWAP2 SUB SWAP1 LOG4 PUSH1 0x1 SWAP1 POP PUSH2 0x1BDF JUMP JUMPDEST PUSH0 SWAP1 POP JUMPDEST SWAP3 SWAP2 POP POP JUMP JUMPDEST PUSH2 0x1BED PUSH2 0xCC8 JUMP JUMPDEST ISZERO PUSH2 0x1C2D JUMPI PUSH1 0x40 MLOAD PUSH32 0x8C379A000000000000000000000000000000000000000000000000000000000 DUP2 MSTORE PUSH1 0x4 ADD PUSH2 0x1C24 SWAP1 PUSH2 0x2C42 JUMP JUMPDEST PUSH1 0x40 MLOAD DUP1 SWAP2 SUB SWAP1 REVERT JUMPDEST JUMP JUMPDEST PUSH2 0x1C37 PUSH2 0x1D42 JUMP JUMPDEST PUSH0 PUSH1 0x1 PUSH0 PUSH2 0x100 EXP DUP2 SLOAD DUP2 PUSH1 0xFF MUL NOT AND SWAP1 DUP4 ISZERO ISZERO MUL OR SWAP1 SSTORE POP PUSH32 0x5DB9EE0A495BF2E6FF9C91A7834C1BA4FDD244A5E8AA4E537BD38AEAE4B073AA PUSH2 0x1C79 PUSH2 0x1AF5 JUMP JUMPDEST PUSH1 0x40 MLOAD PUSH2 0x1C86 SWAP2 SWAP1 PUSH2 0x1F94 JUMP JUMPDEST PUSH1 0x40 MLOAD DUP1 SWAP2 SUB SWAP1 LOG1 JUMP JUMPDEST PUSH2 0x1C98 PUSH2 0x1BE5 JUMP JUMPDEST PUSH1 0x1 DUP1 PUSH0 PUSH2 0x100 EXP DUP2 SLOAD DUP2 PUSH1 0xFF MUL NOT AND SWAP1 DUP4 ISZERO ISZERO MUL OR SWAP1 SSTORE POP PUSH32 0x62E78CEA01BEE320CD4E420270B5EA74000D11B0C9F74754EBDBFC544B05A258 PUSH2 0x1CDA PUSH2 0x1AF5 JUMP JUMPDEST PUSH1 0x40 MLOAD PUSH2 0x1CE7 SWAP2 SWAP1 PUSH2 0x1F94 JUMP JUMPDEST PUSH1 0x40 MLOAD DUP1 SWAP2 SUB SWAP1 LOG1 JUMP JUMPDEST PUSH2 0x1CFB DUP3 DUP3 PUSH2 0xFB2 JUMP JUMPDEST PUSH2 0x1D3E JUMPI DUP1 DUP3 PUSH1 0x40 MLOAD PUSH32 0xE2517D3F00000000000000000000000000000000000000000000000000000000 DUP2 MSTORE PUSH1 0x4 ADD PUSH2 0x1D35 SWAP3 SWAP2 SWAP1 PUSH2 0x2C60 JUMP JUMPDEST PUSH1 0x40 MLOAD DUP1 SWAP2 SUB SWAP1 REVERT JUMPDEST POP POP JUMP JUMPDEST PUSH2 0x1D4A PUSH2 0xCC8 JUMP JUMPDEST PUSH2 0x1D89 JUMPI PUSH1 0x40 MLOAD PUSH32 0x8C379A000000000000000000000000000000000000000000000000000000000 DUP2 MSTORE PUSH1 0x4 ADD PUSH2 0x1D80 SWAP1 PUSH2 0x2CD1 JUMP JUMPDEST PUSH1 0x40 MLOAD DUP1 SWAP2 SUB SWAP1 REVERT JUMPDEST JUMP JUMPDEST PUSH0 DUP3 DUP3 MSTORE PUSH1 0x20 DUP3 ADD SWAP1 POP SWAP3 SWAP2 POP POP JUMP JUMPDEST PUSH32 0x446972656374207061796D656E7473206E6F7420616C6C6F7765640000000000 PUSH0 DUP3 ADD MSTORE POP JUMP JUMPDEST PUSH0 PUSH2 0x1DCF PUSH1 0x1B DUP4 PUSH2 0x1D8B JUMP JUMPDEST SWAP2 POP PUSH2 0x1DDA DUP3 PUSH2 0x1D9B JUMP JUMPDEST PUSH1 0x20 DUP3 ADD SWAP1 POP SWAP2 SWAP1 POP JUMP JUMPDEST PUSH0 PUSH1 0x20 DUP3 ADD SWAP1 POP DUP2 DUP2 SUB PUSH0 DUP4 ADD MSTORE PUSH2 0x1DFC DUP2 PUSH2 0x1DC3 JUMP JUMPDEST SWAP1 POP SWAP2 SWAP1 POP JUMP JUMPDEST PUSH32 0x46756E6374696F6E20646F6573206E6F74206578697374206F72206469726563 PUSH0 DUP3 ADD MSTORE PUSH32 0x74207061796D656E74206E6F7420616C6C6F7765640000000000000000000000 PUSH1 0x20 DUP3 ADD MSTORE POP JUMP JUMPDEST PUSH0 PUSH2 0x1E5D PUSH1 0x35 DUP4 PUSH2 0x1D8B JUMP JUMPDEST SWAP2 POP PUSH2 0x1E68 DUP3 PUSH2 0x1E03 JUMP JUMPDEST PUSH1 0x40 DUP3 ADD SWAP1 POP SWAP2 SWAP1 POP JUMP JUMPDEST PUSH0 PUSH1 0x20 DUP3 ADD SWAP1 POP DUP2 DUP2 SUB PUSH0 DUP4 ADD MSTORE PUSH2 0x1E8A DUP2 PUSH2 0x1E51 JUMP JUMPDEST SWAP1 POP SWAP2 SWAP1 POP JUMP JUMPDEST PUSH0 PUSH1 0x40 MLOAD SWAP1 POP SWAP1 JUMP JUMPDEST PUSH0 PUSH0 REVERT JUMPDEST PUSH0 PUSH0 REVERT JUMPDEST PUSH0 PUSH32 0xFFFFFFFF00000000000000000000000000000000000000000000000000000000 DUP3 AND SWAP1 POP SWAP2 SWAP1 POP JUMP JUMPDEST PUSH2 0x1ED6 DUP2 PUSH2 0x1EA2 JUMP JUMPDEST DUP2 EQ PUSH2 0x1EE0 JUMPI PUSH0 PUSH0 REVERT JUMPDEST POP JUMP JUMPDEST PUSH0 DUP2 CALLDATALOAD SWAP1 POP PUSH2 0x1EF1 DUP2 PUSH2 0x1ECD JUMP JUMPDEST SWAP3 SWAP2 POP POP JUMP JUMPDEST PUSH0 PUSH1 0x20 DUP3 DUP5 SUB SLT ISZERO PUSH2 0x1F0C JUMPI PUSH2 0x1F0B PUSH2 0x1E9A JUMP JUMPDEST JUMPDEST PUSH0 PUSH2 0x1F19 DUP5 DUP3 DUP6 ADD PUSH2 0x1EE3 JUMP JUMPDEST SWAP2 POP POP SWAP3 SWAP2 POP POP JUMP JUMPDEST PUSH0 DUP2 ISZERO ISZERO SWAP1 POP SWAP2 SWAP1 POP JUMP JUMPDEST PUSH2 0x1F36 DUP2 PUSH2 0x1F22 JUMP JUMPDEST DUP3 MSTORE POP POP JUMP JUMPDEST PUSH0 PUSH1 0x20 DUP3 ADD SWAP1 POP PUSH2 0x1F4F PUSH0 DUP4 ADD DUP5 PUSH2 0x1F2D JUMP JUMPDEST SWAP3 SWAP2 POP POP JUMP JUMPDEST PUSH0 PUSH20 0xFFFFFFFFFFFFFFFFFFFFFFFFFFFFFFFFFFFFFFFF DUP3 AND SWAP1 POP SWAP2 SWAP1 POP JUMP JUMPDEST PUSH0 PUSH2 0x1F7E DUP3 PUSH2 0x1F55 JUMP JUMPDEST SWAP1 POP SWAP2 SWAP1 POP JUMP JUMPDEST PUSH2 0x1F8E DUP2 PUSH2 0x1F74 JUMP JUMPDEST DUP3 MSTORE POP POP JUMP JUMPDEST PUSH0 PUSH1 0x20 DUP3 ADD SWAP1 POP PUSH2 0x1FA7 PUSH0 DUP4 ADD DUP5 PUSH2 0x1F85 JUMP JUMPDEST SWAP3 SWAP2 POP POP JUMP JUMPDEST PUSH0 DUP2 SWAP1 POP SWAP2 SWAP1 POP JUMP JUMPDEST PUSH2 0x1FBF DUP2 PUSH2 0x1FAD JUMP JUMPDEST DUP2 EQ PUSH2 0x1FC9 JUMPI PUSH0 PUSH0 REVERT JUMPDEST POP JUMP JUMPDEST PUSH0 DUP2 CALLDATALOAD SWAP1 POP PUSH2 0x1FDA DUP2 PUSH2 0x1FB6 JUMP JUMPDEST SWAP3 SWAP2 POP POP JUMP JUMPDEST PUSH0 PUSH1 0x20 DUP3 DUP5 SUB SLT ISZERO PUSH2 0x1FF5 JUMPI PUSH2 0x1FF4 PUSH2 0x1E9A JUMP JUMPDEST JUMPDEST PUSH0 PUSH2 0x2002 DUP5 DUP3 DUP6 ADD PUSH2 0x1FCC JUMP JUMPDEST SWAP2 POP POP SWAP3 SWAP2 POP POP JUMP JUMPDEST PUSH2 0x2014 DUP2 PUSH2 0x1FAD JUMP JUMPDEST DUP3 MSTORE POP POP JUMP JUMPDEST PUSH0 PUSH1 0x20 DUP3 ADD SWAP1 POP PUSH2 0x202D PUSH0 DUP4 ADD DUP5 PUSH2 0x200B JUMP JUMPDEST SWAP3 SWAP2 POP POP JUMP JUMPDEST PUSH2 0x203C DUP2 PUSH2 0x1F74 JUMP JUMPDEST DUP2 EQ PUSH2 0x2046 JUMPI PUSH0 PUSH0 REVERT JUMPDEST POP JUMP JUMPDEST PUSH0 DUP2 CALLDATALOAD SWAP1 POP PUSH2 0x2057 DUP2 PUSH2 0x2033 JUMP JUMPDEST SWAP3 SWAP2 POP POP JUMP JUMPDEST PUSH0 PUSH0 PUSH1 0x40 DUP4 DUP6 SUB SLT ISZERO PUSH2 0x2073 JUMPI PUSH2 0x2072 PUSH2 0x1E9A JUMP JUMPDEST JUMPDEST PUSH0 PUSH2 0x2080 DUP6 DUP3 DUP7 ADD PUSH2 0x1FCC JUMP JUMPDEST SWAP3 POP POP PUSH1 0x20 PUSH2 0x2091 DUP6 DUP3 DUP7 ADD PUSH2 0x2049 JUMP JUMPDEST SWAP2 POP POP SWAP3 POP SWAP3 SWAP1 POP JUMP JUMPDEST PUSH0 PUSH1 0xFF DUP3 AND SWAP1 POP SWAP2 SWAP1 POP JUMP JUMPDEST PUSH2 0x20B0 DUP2 PUSH2 0x209B JUMP JUMPDEST DUP3 MSTORE POP POP JUMP JUMPDEST PUSH0 PUSH1 0x20 DUP3 ADD SWAP1 POP PUSH2 0x20C9 PUSH0 DUP4 ADD DUP5 PUSH2 0x20A7 JUMP JUMPDEST SWAP3 SWAP2 POP POP JUMP JUMPDEST PUSH0 DUP2 SWAP1 POP SWAP2 SWAP1 POP JUMP JUMPDEST PUSH2 0x20E1 DUP2 PUSH2 0x20CF JUMP JUMPDEST DUP2 EQ PUSH2 0x20EB JUMPI PUSH0 PUSH0 REVERT JUMPDEST POP JUMP JUMPDEST PUSH0 DUP2 CALLDATALOAD SWAP1 POP PUSH2 0x20FC DUP2 PUSH2 0x20D8 JUMP JUMPDEST SWAP3 SWAP2 POP POP JUMP JUMPDEST PUSH0 PUSH1 0x20 DUP3 DUP5 SUB SLT ISZERO PUSH2 0x2117 JUMPI PUSH2 0x2116 PUSH2 0x1E9A JUMP JUMPDEST JUMPDEST PUSH0 PUSH2 0x2124 DUP5 DUP3 DUP6 ADD PUSH2 0x20EE JUMP JUMPDEST SWAP2 POP POP SWAP3 SWAP2 POP POP JUMP JUMPDEST PUSH0 PUSH1 0x20 DUP3 DUP5 SUB SLT ISZERO PUSH2 0x2142 JUMPI PUSH2 0x2141 PUSH2 0x1E9A JUMP JUMPDEST JUMPDEST PUSH0 PUSH2 0x214F DUP5 DUP3 DUP6 ADD PUSH2 0x2049 JUMP JUMPDEST SWAP2 POP POP SWAP3 SWAP2 POP POP JUMP JUMPDEST PUSH0 DUP2 MLOAD SWAP1 POP SWAP2 SWAP1 POP JUMP JUMPDEST DUP3 DUP2 DUP4 MCOPY PUSH0 DUP4 DUP4 ADD MSTORE POP POP POP JUMP JUMPDEST PUSH0 PUSH1 0x1F NOT PUSH1 0x1F DUP4 ADD AND SWAP1 POP SWAP2 SWAP1 POP JUMP JUMPDEST PUSH0 PUSH2 0x218A DUP3 PUSH2 0x2158 JUMP JUMPDEST PUSH2 0x2194 DUP2 DUP6 PUSH2 0x1D8B JUMP JUMPDEST SWAP4 POP PUSH2 0x21A4 DUP2 DUP6 PUSH1 0x20 DUP7 ADD PUSH2 0x2162 JUMP JUMPDEST PUSH2 0x21AD DUP2 PUSH2 0x2170 JUMP JUMPDEST DUP5 ADD SWAP2 POP POP SWAP3 SWAP2 POP POP JUMP JUMPDEST PUSH2 0x21C1 DUP2 PUSH2 0x20CF JUMP JUMPDEST DUP3 MSTORE POP POP JUMP JUMPDEST PUSH0 PUSH1 0xA0 DUP3 ADD SWAP1 POP DUP2 DUP2 SUB PUSH0 DUP4 ADD MSTORE PUSH2 0x21DF DUP2 DUP9 PUSH2 0x2180 JUMP JUMPDEST SWAP1 POP PUSH2 0x21EE PUSH1 0x20 DUP4 ADD DUP8 PUSH2 0x21B8 JUMP JUMPDEST PUSH2 0x21FB PUSH1 0x40 DUP4 ADD DUP7 PUSH2 0x1F85 JUMP JUMPDEST PUSH2 0x2208 PUSH1 0x60 DUP4 ADD DUP6 PUSH2 0x1F2D JUMP JUMPDEST PUSH2 0x2215 PUSH1 0x80 DUP4 ADD DUP5 PUSH2 0x1F85 JUMP JUMPDEST SWAP7 SWAP6 POP POP POP POP POP POP JUMP JUMPDEST PUSH0 PUSH0 REVERT JUMPDEST PUSH0 PUSH0 REVERT JUMPDEST PUSH32 0x4E487B7100000000000000000000000000000000000000000000000000000000 PUSH0 MSTORE PUSH1 0x41 PUSH1 0x4 MSTORE PUSH1 0x24 PUSH0 REVERT JUMPDEST PUSH2 0x225D DUP3 PUSH2 0x2170 JUMP JUMPDEST DUP2 ADD DUP2 DUP2 LT PUSH8 0xFFFFFFFFFFFFFFFF DUP3 GT OR ISZERO PUSH2 0x227C JUMPI PUSH2 0x227B PUSH2 0x2227 JUMP JUMPDEST JUMPDEST DUP1 PUSH1 0x40 MSTORE POP POP POP JUMP JUMPDEST PUSH0 PUSH2 0x228E PUSH2 0x1E91 JUMP JUMPDEST SWAP1 POP PUSH2 0x229A DUP3 DUP3 PUSH2 0x2254 JUMP JUMPDEST SWAP2 SWAP1 POP JUMP JUMPDEST PUSH0 PUSH8 0xFFFFFFFFFFFFFFFF DUP3 GT ISZERO PUSH2 0x22B9 JUMPI PUSH2 0x22B8 PUSH2 0x2227 JUMP JUMPDEST JUMPDEST PUSH2 0x22C2 DUP3 PUSH2 0x2170 JUMP JUMPDEST SWAP1 POP PUSH1 0x20 DUP2 ADD SWAP1 POP SWAP2 SWAP1 POP JUMP JUMPDEST DUP3 DUP2 DUP4 CALLDATACOPY PUSH0 DUP4 DUP4 ADD MSTORE POP POP POP JUMP JUMPDEST PUSH0 PUSH2 0x22EF PUSH2 0x22EA DUP5 PUSH2 0x229F JUMP JUMPDEST PUSH2 0x2285 JUMP JUMPDEST SWAP1 POP DUP3 DUP2 MSTORE PUSH1 0x20 DUP2 ADD DUP5 DUP5 DUP5 ADD GT ISZERO PUSH2 0x230B JUMPI PUSH2 0x230A PUSH2 0x2223 JUMP JUMPDEST JUMPDEST PUSH2 0x2316 DUP5 DUP3 DUP6 PUSH2 0x22CF JUMP JUMPDEST POP SWAP4 SWAP3 POP POP POP JUMP JUMPDEST PUSH0 DUP3 PUSH1 0x1F DUP4 ADD SLT PUSH2 0x2332 JUMPI PUSH2 0x2331 PUSH2 0x221F JUMP JUMPDEST JUMPDEST DUP2 CALLDATALOAD PUSH2 0x2342 DUP5 DUP3 PUSH1 0x20 DUP7 ADD PUSH2 0x22DD JUMP JUMPDEST SWAP2 POP POP SWAP3 SWAP2 POP POP JUMP JUMPDEST PUSH0 PUSH0 PUSH1 0x40 DUP4 DUP6 SUB SLT ISZERO PUSH2 0x2361 JUMPI PUSH2 0x2360 PUSH2 0x1E9A JUMP JUMPDEST JUMPDEST PUSH0 DUP4 ADD CALLDATALOAD PUSH8 0xFFFFFFFFFFFFFFFF DUP2 GT ISZERO PUSH2 0x237E JUMPI PUSH2 0x237D PUSH2 0x1E9E JUMP JUMPDEST JUMPDEST PUSH2 0x238A DUP6 DUP3 DUP7 ADD PUSH2 0x231E JUMP JUMPDEST SWAP3 POP POP PUSH1 0x20 PUSH2 0x239B DUP6 DUP3 DUP7 ADD PUSH2 0x20EE JUMP JUMPDEST SWAP2 POP POP SWAP3 POP SWAP3 SWAP1 POP JUMP JUMPDEST PUSH0 DUP2 SWAP1 POP SWAP2 SWAP1 POP JUMP JUMPDEST PUSH0 PUSH2 0x23C8 PUSH2 0x23C3 PUSH2 0x23BE DUP5 PUSH2 0x1F55 JUMP JUMPDEST PUSH2 0x23A5 JUMP JUMPDEST PUSH2 0x1F55 JUMP JUMPDEST SWAP1 POP SWAP2 SWAP1 POP JUMP JUMPDEST PUSH0 PUSH2 0x23D9 DUP3 PUSH2 0x23AE JUMP JUMPDEST SWAP1 POP SWAP2 SWAP1 POP JUMP JUMPDEST PUSH0 PUSH2 0x23EA DUP3 PUSH2 0x23CF JUMP JUMPDEST SWAP1 POP SWAP2 SWAP1 POP JUMP JUMPDEST PUSH2 0x23FA DUP2 PUSH2 0x23E0 JUMP JUMPDEST DUP3 MSTORE POP POP JUMP JUMPDEST PUSH0 PUSH1 0x20 DUP3 ADD SWAP1 POP PUSH2 0x2413 PUSH0 DUP4 ADD DUP5 PUSH2 0x23F1 JUMP JUMPDEST SWAP3 SWAP2 POP POP JUMP JUMPDEST PUSH2 0x2422 DUP2 PUSH2 0x1F22 JUMP JUMPDEST DUP2 EQ PUSH2 0x242C JUMPI PUSH0 PUSH0 REVERT JUMPDEST POP JUMP JUMPDEST PUSH0 DUP2 CALLDATALOAD SWAP1 POP PUSH2 0x243D DUP2 PUSH2 0x2419 JUMP JUMPDEST SWAP3 SWAP2 POP POP JUMP JUMPDEST PUSH0 PUSH0 PUSH1 0x40 DUP4 DUP6 SUB SLT ISZERO PUSH2 0x2459 JUMPI PUSH2 0x2458 PUSH2 0x1E9A JUMP JUMPDEST JUMPDEST PUSH0 PUSH2 0x2466 DUP6 DUP3 DUP7 ADD PUSH2 0x20EE JUMP JUMPDEST SWAP3 POP POP PUSH1 0x20 PUSH2 0x2477 DUP6 DUP3 DUP7 ADD PUSH2 0x242F JUMP JUMPDEST SWAP2 POP POP SWAP3 POP SWAP3 SWAP1 POP JUMP JUMPDEST PUSH0 PUSH1 0x20 DUP3 ADD SWAP1 POP PUSH2 0x2494 PUSH0 DUP4 ADD DUP5 PUSH2 0x21B8 JUMP JUMPDEST SWAP3 SWAP2 POP POP JUMP JUMPDEST PUSH32 0x5265737472696374656420746F20627579657273000000000000000000000000 PUSH0 DUP3 ADD MSTORE POP JUMP JUMPDEST PUSH0 PUSH2 0x24CE PUSH1 0x14 DUP4 PUSH2 0x1D8B JUMP JUMPDEST SWAP2 POP PUSH2 0x24D9 DUP3 PUSH2 0x249A JUMP JUMPDEST PUSH1 0x20 DUP3 ADD SWAP1 POP SWAP2 SWAP1 POP JUMP JUMPDEST PUSH0 PUSH1 0x20 DUP3 ADD SWAP1 POP DUP2 DUP2 SUB PUSH0 DUP4 ADD MSTORE PUSH2 0x24FB DUP2 PUSH2 0x24C2 JUMP JUMPDEST SWAP1 POP SWAP2 SWAP1 POP JUMP JUMPDEST PUSH32 0x50726F64756374206973206E6F7420617661696C61626C650000000000000000 PUSH0 DUP3 ADD MSTORE POP JUMP JUMPDEST PUSH0 PUSH2 0x2536 PUSH1 0x18 DUP4 PUSH2 0x1D8B JUMP JUMPDEST SWAP2 POP PUSH2 0x2541 DUP3 PUSH2 0x2502 JUMP JUMPDEST PUSH1 0x20 DUP3 ADD SWAP1 POP SWAP2 SWAP1 POP JUMP JUMPDEST PUSH0 PUSH1 0x20 DUP3 ADD SWAP1 POP DUP2 DUP2 SUB PUSH0 DUP4 ADD MSTORE PUSH2 0x2563 DUP2 PUSH2 0x252A JUMP JUMPDEST SWAP1 POP SWAP2 SWAP1 POP JUMP JUMPDEST PUSH0 PUSH1 0x60 DUP3 ADD SWAP1 POP PUSH2 0x257D PUSH0 DUP4 ADD DUP7 PUSH2 0x21B8 JUMP JUMPDEST PUSH2 0x258A PUSH1 0x20 DUP4 ADD DUP6 PUSH2 0x21B8 JUMP JUMPDEST PUSH2 0x2597 PUSH1 0x40 DUP4 ADD DUP5 PUSH2 0x1F85 JUMP JUMPDEST SWAP5 SWAP4 POP POP POP POP JUMP JUMPDEST PUSH0 PUSH1 0x40 DUP3 ADD SWAP1 POP PUSH2 0x25B2 PUSH0 DUP4 ADD DUP6 PUSH2 0x21B8 JUMP JUMPDEST PUSH2 0x25BF PUSH1 0x20 DUP4 ADD DUP5 PUSH2 0x1F85 JUMP JUMPDEST SWAP4 SWAP3 POP POP POP JUMP JUMPDEST PUSH32 0x5265737472696374656420746F2061646D696E73000000000000000000000000 PUSH0 DUP3 ADD MSTORE POP JUMP JUMPDEST PUSH0 PUSH2 0x25FA PUSH1 0x14 DUP4 PUSH2 0x1D8B JUMP JUMPDEST SWAP2 POP PUSH2 0x2605 DUP3 PUSH2 0x25C6 JUMP JUMPDEST PUSH1 0x20 DUP3 ADD SWAP1 POP SWAP2 SWAP1 POP JUMP JUMPDEST PUSH0 PUSH1 0x20 DUP3 ADD SWAP1 POP DUP2 DUP2 SUB PUSH0 DUP4 ADD MSTORE PUSH2 0x2627 DUP2 PUSH2 0x25EE JUMP JUMPDEST SWAP1 POP SWAP2 SWAP1 POP JUMP JUMPDEST PUSH32 0x4E487B7100000000000000000000000000000000000000000000000000000000 PUSH0 MSTORE PUSH1 0x22 PUSH1 0x4 MSTORE PUSH1 0x24 PUSH0 REVERT JUMPDEST PUSH0 PUSH1 0x2 DUP3 DIV SWAP1 POP PUSH1 0x1 DUP3 AND DUP1 PUSH2 0x2672 JUMPI PUSH1 0x7F DUP3 AND SWAP2 POP JUMPDEST PUSH1 0x20 DUP3 LT DUP2 SUB PUSH2 0x2685 JUMPI PUSH2 0x2684 PUSH2 0x262E JUMP JUMPDEST JUMPDEST POP SWAP2 SWAP1 POP JUMP JUMPDEST PUSH32 0x5265737472696374656420746F2073656C6C6572730000000000000000000000 PUSH0 DUP3 ADD MSTORE POP JUMP JUMPDEST PUSH0 PUSH2 0x26BF PUSH1 0x15 DUP4 PUSH2 0x1D8B JUMP JUMPDEST SWAP2 POP PUSH2 0x26CA DUP3 PUSH2 0x268B JUMP JUMPDEST PUSH1 0x20 DUP3 ADD SWAP1 POP SWAP2 SWAP1 POP JUMP JUMPDEST PUSH0 PUSH1 0x20 DUP3 ADD SWAP1 POP DUP2 DUP2 SUB PUSH0 DUP4 ADD MSTORE PUSH2 0x26EC DUP2 PUSH2 0x26B3 JUMP JUMPDEST SWAP1 POP SWAP2 SWAP1 POP JUMP JUMPDEST PUSH32 0x50726F64756374206E616D652069732072657175697265640000000000000000 PUSH0 DUP3 ADD MSTORE POP JUMP JUMPDEST PUSH0 PUSH2 0x2727 PUSH1 0x18 DUP4 PUSH2 0x1D8B JUMP JUMPDEST SWAP2 POP PUSH2 0x2732 DUP3 PUSH2 0x26F3 JUMP JUMPDEST PUSH1 0x20 DUP3 ADD SWAP1 POP SWAP2 SWAP1 POP JUMP JUMPDEST PUSH0 PUSH1 0x20 DUP3 ADD SWAP1 POP DUP2 DUP2 SUB PUSH0 DUP4 ADD MSTORE PUSH2 0x2754 DUP2 PUSH2 0x271B JUMP JUMPDEST SWAP1 POP SWAP2 SWAP1 POP JUMP JUMPDEST PUSH32 0x5072696365206D7573742062652067726561746572207468616E203000000000 PUSH0 DUP3 ADD MSTORE POP JUMP JUMPDEST PUSH0 PUSH2 0x278F PUSH1 0x1C DUP4 PUSH2 0x1D8B JUMP JUMPDEST SWAP2 POP PUSH2 0x279A DUP3 PUSH2 0x275B JUMP JUMPDEST PUSH1 0x20 DUP3 ADD SWAP1 POP SWAP2 SWAP1 POP JUMP JUMPDEST PUSH0 PUSH1 0x20 DUP3 ADD SWAP1 POP DUP2 DUP2 SUB PUSH0 DUP4 ADD MSTORE PUSH2 0x27BC DUP2 PUSH2 0x2783 JUMP JUMPDEST SWAP1 POP SWAP2 SWAP1 POP JUMP JUMPDEST PUSH0 DUP2 SWAP1 POP DUP2 PUSH0 MSTORE PUSH1 0x20 PUSH0 KECCAK256 SWAP1 POP SWAP2 SWAP1 POP JUMP JUMPDEST PUSH0 PUSH1 0x20 PUSH1 0x1F DUP4 ADD DIV SWAP1 POP SWAP2 SWAP1 POP JUMP JUMPDEST PUSH0 DUP3 DUP3 SHL SWAP1 POP SWAP3 SWAP2 POP POP JUMP JUMPDEST PUSH0 PUSH1 0x8 DUP4 MUL PUSH2 0x281F PUSH32 0xFFFFFFFFFFFFFFFFFFFFFFFFFFFFFFFFFFFFFFFFFFFFFFFFFFFFFFFFFFFFFFFF DUP3 PUSH2 0x27E4 JUMP JUMPDEST PUSH2 0x2829 DUP7 DUP4 PUSH2 0x27E4 JUMP JUMPDEST SWAP6 POP DUP1 NOT DUP5 AND SWAP4 POP DUP1 DUP7 AND DUP5 OR SWAP3 POP POP POP SWAP4 SWAP3 POP POP POP JUMP JUMPDEST PUSH0 PUSH2 0x285B PUSH2 0x2856 PUSH2 0x2851 DUP5 PUSH2 0x20CF JUMP JUMPDEST PUSH2 0x23A5 JUMP JUMPDEST PUSH2 0x20CF JUMP JUMPDEST SWAP1 POP SWAP2 SWAP1 POP JUMP JUMPDEST PUSH0 DUP2 SWAP1 POP SWAP2 SWAP1 POP JUMP JUMPDEST PUSH2 0x2874 DUP4 PUSH2 0x2841 JUMP JUMPDEST PUSH2 0x2888 PUSH2 0x2880 DUP3 PUSH2 0x2862 JUMP JUMPDEST DUP5 DUP5 SLOAD PUSH2 0x27F0 JUMP JUMPDEST DUP3 SSTORE POP POP POP POP JUMP JUMPDEST PUSH0 PUSH0 SWAP1 POP SWAP1 JUMP JUMPDEST PUSH2 0x289F PUSH2 0x2890 JUMP JUMPDEST PUSH2 0x28AA DUP2 DUP5 DUP5 PUSH2 0x286B JUMP JUMPDEST POP POP POP JUMP JUMPDEST JUMPDEST DUP2 DUP2 LT ISZERO PUSH2 0x28CD JUMPI PUSH2 0x28C2 PUSH0 DUP3 PUSH2 0x2897 JUMP JUMPDEST PUSH1 0x1 DUP2 ADD SWAP1 POP PUSH2 0x28B0 JUMP JUMPDEST POP POP JUMP JUMPDEST PUSH1 0x1F DUP3 GT ISZERO PUSH2 0x2912 JUMPI PUSH2 0x28E3 DUP2 PUSH2 0x27C3 JUMP JUMPDEST PUSH2 0x28EC DUP5 PUSH2 0x27D5 JUMP JUMPDEST DUP2 ADD PUSH1 0x20 DUP6 LT ISZERO PUSH2 0x28FB JUMPI DUP2 SWAP1 POP JUMPDEST PUSH2 0x290F PUSH2 0x2907 DUP6 PUSH2 0x27D5 JUMP JUMPDEST DUP4 ADD DUP3 PUSH2 0x28AF JUMP JUMPDEST POP POP JUMPDEST POP POP POP JUMP JUMPDEST PUSH0 DUP3 DUP3 SHR SWAP1 POP SWAP3 SWAP2 POP POP JUMP JUMPDEST PUSH0 PUSH2 0x2932 PUSH0 NOT DUP5 PUSH1 0x8 MUL PUSH2 0x2917 JUMP JUMPDEST NOT DUP1 DUP4 AND SWAP2 POP POP SWAP3 SWAP2 POP POP JUMP JUMPDEST PUSH0 PUSH2 0x294A DUP4 DUP4 PUSH2 0x2923 JUMP JUMPDEST SWAP2 POP DUP3 PUSH1 0x2 MUL DUP3 OR SWAP1 POP SWAP3 SWAP2 POP POP JUMP JUMPDEST PUSH2 0x2963 DUP3 PUSH2 0x2158 JUMP JUMPDEST PUSH8 0xFFFFFFFFFFFFFFFF DUP2 GT ISZERO PUSH2 0x297C JUMPI PUSH2 0x297B PUSH2 0x2227 JUMP JUMPDEST JUMPDEST PUSH2 0x2986 DUP3 SLOAD PUSH2 0x265B JUMP JUMPDEST PUSH2 0x2991 DUP3 DUP3 DUP6 PUSH2 0x28D1 JUMP JUMPDEST PUSH0 PUSH1 0x20 SWAP1 POP PUSH1 0x1F DUP4 GT PUSH1 0x1 DUP2 EQ PUSH2 0x29C2 JUMPI PUSH0 DUP5 ISZERO PUSH2 0x29B0 JUMPI DUP3 DUP8 ADD MLOAD SWAP1 POP JUMPDEST PUSH2 0x29BA DUP6 DUP3 PUSH2 0x293F JUMP JUMPDEST DUP7 SSTORE POP PUSH2 0x2A21 JUMP JUMPDEST PUSH1 0x1F NOT DUP5 AND PUSH2 0x29D0 DUP7 PUSH2 0x27C3 JUMP JUMPDEST PUSH0 JUMPDEST DUP3 DUP2 LT ISZERO PUSH2 0x29F7 JUMPI DUP5 DUP10 ADD MLOAD DUP3 SSTORE PUSH1 0x1 DUP3 ADD SWAP2 POP PUSH1 0x20 DUP6 ADD SWAP5 POP PUSH1 0x20 DUP2 ADD SWAP1 POP PUSH2 0x29D2 JUMP JUMPDEST DUP7 DUP4 LT ISZERO PUSH2 0x2A14 JUMPI DUP5 DUP10 ADD MLOAD PUSH2 0x2A10 PUSH1 0x1F DUP10 AND DUP3 PUSH2 0x2923 JUMP JUMPDEST DUP4 SSTORE POP JUMPDEST PUSH1 0x1 PUSH1 0x2 DUP9 MUL ADD DUP9 SSTORE POP POP POP JUMPDEST POP POP POP POP POP POP JUMP JUMPDEST PUSH0 PUSH1 0x80 DUP3 ADD SWAP1 POP PUSH2 0x2A3C PUSH0 DUP4 ADD DUP8 PUSH2 0x21B8 JUMP JUMPDEST DUP2 DUP2 SUB PUSH1 0x20 DUP4 ADD MSTORE PUSH2 0x2A4E DUP2 DUP7 PUSH2 0x2180 JUMP JUMPDEST SWAP1 POP PUSH2 0x2A5D PUSH1 0x40 DUP4 ADD DUP6 PUSH2 0x21B8 JUMP JUMPDEST PUSH2 0x2A6A PUSH1 0x60 DUP4 ADD DUP5 PUSH2 0x1F85 JUMP JUMPDEST SWAP6 SWAP5 POP POP POP POP POP JUMP JUMPDEST PUSH32 0x5265737472696374656420746F2061756469746F727300000000000000000000 PUSH0 DUP3 ADD MSTORE POP JUMP JUMPDEST PUSH0 PUSH2 0x2AA7 PUSH1 0x16 DUP4 PUSH2 0x1D8B JUMP JUMPDEST SWAP2 POP PUSH2 0x2AB2 DUP3 PUSH2 0x2A73 JUMP JUMPDEST PUSH1 0x20 DUP3 ADD SWAP1 POP SWAP2 SWAP1 POP JUMP JUMPDEST PUSH0 PUSH1 0x20 DUP3 ADD SWAP1 POP DUP2 DUP2 SUB PUSH0 DUP4 ADD MSTORE PUSH2 0x2AD4 DUP2 PUSH2 0x2A9B JUMP JUMPDEST SWAP1 POP SWAP2 SWAP1 POP JUMP JUMPDEST PUSH32 0x50726F64756374206973207374696C6C20617661696C61626C65000000000000 PUSH0 DUP3 ADD MSTORE POP JUMP JUMPDEST PUSH0 PUSH2 0x2B0F PUSH1 0x1A DUP4 PUSH2 0x1D8B JUMP JUMPDEST SWAP2 POP PUSH2 0x2B1A DUP3 PUSH2 0x2ADB JUMP JUMPDEST PUSH1 0x20 DUP3 ADD SWAP1 POP SWAP2 SWAP1 POP JUMP JUMPDEST PUSH0 PUSH1 0x20 DUP3 ADD SWAP1 POP DUP2 DUP2 SUB PUSH0 DUP4 ADD MSTORE PUSH2 0x2B3C DUP2 PUSH2 0x2B03 JUMP JUMPDEST SWAP1 POP SWAP2 SWAP1 POP JUMP JUMPDEST PUSH32 0x4F6E6C79207468652073656C6C65722063616E20757064617465207468652070 PUSH0 DUP3 ADD MSTORE PUSH32 0x726F647563742073746174757300000000000000000000000000000000000000 PUSH1 0x20 DUP3 ADD MSTORE POP JUMP JUMPDEST PUSH0 PUSH2 0x2B9D PUSH1 0x2D DUP4 PUSH2 0x1D8B JUMP JUMPDEST SWAP2 POP PUSH2 0x2BA8 DUP3 PUSH2 0x2B43 JUMP JUMPDEST PUSH1 0x40 DUP3 ADD SWAP1 POP SWAP2 SWAP1 POP JUMP JUMPDEST PUSH0 PUSH1 0x20 DUP3 ADD SWAP1 POP DUP2 DUP2 SUB PUSH0 DUP4 ADD MSTORE PUSH2 0x2BCA DUP2 PUSH2 0x2B91 JUMP JUMPDEST SWAP1 POP SWAP2 SWAP1 POP JUMP JUMPDEST PUSH0 PUSH1 0x40 DUP3 ADD SWAP1 POP PUSH2 0x2BE4 PUSH0 DUP4 ADD DUP6 PUSH2 0x21B8 JUMP JUMPDEST PUSH2 0x2BF1 PUSH1 0x20 DUP4 ADD DUP5 PUSH2 0x1F2D JUMP JUMPDEST SWAP4 SWAP3 POP POP POP JUMP JUMPDEST PUSH32 0x5061757361626C653A2070617573656400000000000000000000000000000000 PUSH0 DUP3 ADD MSTORE POP JUMP JUMPDEST PUSH0 PUSH2 0x2C2C PUSH1 0x10 DUP4 PUSH2 0x1D8B JUMP JUMPDEST SWAP2 POP PUSH2 0x2C37 DUP3 PUSH2 0x2BF8 JUMP JUMPDEST PUSH1 0x20 DUP3 ADD SWAP1 POP SWAP2 SWAP1 POP JUMP JUMPDEST PUSH0 PUSH1 0x20 DUP3 ADD SWAP1 POP DUP2 DUP2 SUB PUSH0 DUP4 ADD MSTORE PUSH2 0x2C59 DUP2 PUSH2 0x2C20 JUMP JUMPDEST SWAP1 POP SWAP2 SWAP1 POP JUMP JUMPDEST PUSH0 PUSH1 0x40 DUP3 ADD SWAP1 POP PUSH2 0x2C73 PUSH0 DUP4 ADD DUP6 PUSH2 0x1F85 JUMP JUMPDEST PUSH2 0x2C80 PUSH1 0x20 DUP4 ADD DUP5 PUSH2 0x200B JUMP JUMPDEST SWAP4 SWAP3 POP POP POP JUMP JUMPDEST PUSH32 0x5061757361626C653A206E6F7420706175736564000000000000000000000000 PUSH0 DUP3 ADD MSTORE POP JUMP JUMPDEST PUSH0 PUSH2 0x2CBB PUSH1 0x14 DUP4 PUSH2 0x1D8B JUMP JUMPDEST SWAP2 POP PUSH2 0x2CC6 DUP3 PUSH2 0x2C87 JUMP JUMPDEST PUSH1 0x20 DUP3 ADD SWAP1 POP SWAP2 SWAP1 POP JUMP JUMPDEST PUSH0 PUSH1 0x20 DUP3 ADD SWAP1 POP DUP2 DUP2 SUB PUSH0 DUP4 ADD MSTORE PUSH2 0x2CE8 DUP2 PUSH2 0x2CAF JUMP JUMPDEST SWAP1 POP SWAP2 SWAP1 POP JUMP INVALID LOG2 PUSH5 0x6970667358 0x22 SLT KECCAK256 0xB9 PUSH2 0x4071 0x28 GAS 0x4B CALLDATASIZE 0xDB 0xDD 0xCC 0xAE EXTCODECOPY ADD 0x2B PUSH29 0xFB0EB068A8B5C0CC04B7ECE5A0B71EAB64736F6C634300081C00330000 "
				},
				"gasEstimates": {
					"creation": {
						"codeDepositCost": "2311400",
						"executionCost": "infinite",
						"totalCost": "infinite"
					},
					"external": {
						"": "531",
						"ADMIN_ROLE()": "392",
						"AUDITOR_ROLE()": "437",
						"AUTHENTICATOR_ROLE()": "436",
						"BUYER_ROLE()": "436",
						"DEFAULT_ADMIN_ROLE()": "374",
						"SELLER_ROLE()": "369",
						"addAuditor(address)": "infinite",
						"addAuthenticator(address)": "infinite",
						"addBuyer(address)": "infinite",
						"addProduct(string,uint256)": "infinite",
						"addSeller(address)": "infinite",
						"audictorAddress()": "462",
						"authenticatorAddress()": "442",
						"buyerAddress()": "441",
						"cancelPurchase(uint256)": "infinite",
						"decimal()": "420",
						"decimals()": "384",
						"getRoleAdmin(bytes32)": "infinite",
						"grantRole(bytes32,address)": "infinite",
						"hasRole(bytes32,address)": "3210",
						"icoContract()": "infinite",
						"pause()": "infinite",
						"paused()": "2563",
						"productCount()": "2513",
						"products(uint256)": "infinite",
						"purchaseProduct(uint256)": "infinite",
						"removeAuditor(address)": "infinite",
						"removeAuthenticator(address)": "infinite",
						"removeBuyer(address)": "infinite",
						"removeSeller(address)": "infinite",
						"renounceRole(bytes32,address)": "infinite",
						"revokeRole(bytes32,address)": "infinite",
						"sellerAddress()": "485",
						"supportsInterface(bytes4)": "764",
						"unpause()": "infinite",
						"updateProductStatus(uint256,bool)": "infinite"
					}
				},
				"methodIdentifiers": {
					"ADMIN_ROLE()": "75b238fc",
					"AUDITOR_ROLE()": "6e1d616e",
					"AUTHENTICATOR_ROLE()": "b65c5e8d",
					"BUYER_ROLE()": "7a01a1da",
					"DEFAULT_ADMIN_ROLE()": "a217fddf",
					"SELLER_ROLE()": "dbe4613d",
					"addAuditor(address)": "e429cef1",
					"addAuthenticator(address)": "410b2724",
					"addBuyer(address)": "bbf89803",
					"addProduct(string,uint256)": "b15247d9",
					"addSeller(address)": "d93fabfa",
					"audictorAddress()": "b235ce85",
					"authenticatorAddress()": "1fc6cf22",
					"buyerAddress()": "44834aca",
					"cancelPurchase(uint256)": "c3634ddc",
					"decimal()": "76809ce3",
					"decimals()": "313ce567",
					"getRoleAdmin(bytes32)": "248a9ca3",
					"grantRole(bytes32,address)": "2f2ff15d",
					"hasRole(bytes32,address)": "91d14854",
					"icoContract()": "c66e4095",
					"pause()": "8456cb59",
					"paused()": "5c975abb",
					"productCount()": "e0f6ef87",
					"products(uint256)": "7acc0b20",
					"purchaseProduct(uint256)": "38e76a03",
					"removeAuditor(address)": "e6116cfd",
					"removeAuthenticator(address)": "9699a82d",
					"removeBuyer(address)": "6f75b00c",
					"removeSeller(address)": "7cb9cf54",
					"renounceRole(bytes32,address)": "36568abe",
					"revokeRole(bytes32,address)": "d547741f",
					"sellerAddress()": "3d9b2ae6",
					"supportsInterface(bytes4)": "01ffc9a7",
					"unpause()": "3f4ba83a",
					"updateProductStatus(uint256,bool)": "e08903b1"
				}
			},
			"storageLayout": {
				"storage": [
					{
						"astId": 26,
						"contract": "contracts/ecommerce.sol:Ecommerce",
						"label": "_roles",
						"offset": 0,
						"slot": "0",
						"type": "t_mapping(t_bytes32,t_struct(RoleData)21_storage)"
					},
					{
						"astId": 396,
						"contract": "contracts/ecommerce.sol:Ecommerce",
						"label": "_paused",
						"offset": 0,
						"slot": "1",
						"type": "t_bool"
					},
					{
						"astId": 640,
						"contract": "contracts/ecommerce.sol:Ecommerce",
						"label": "products",
						"offset": 0,
						"slot": "2",
						"type": "t_mapping(t_uint256,t_struct(Product)635_storage)"
					},
					{
						"astId": 642,
						"contract": "contracts/ecommerce.sol:Ecommerce",
						"label": "productCount",
						"offset": 0,
						"slot": "3",
						"type": "t_uint256"
					},
					{
						"astId": 645,
						"contract": "contracts/ecommerce.sol:Ecommerce",
						"label": "icoContract",
						"offset": 0,
						"slot": "4",
						"type": "t_contract(IICO)580"
					}
				],
				"types": {
					"t_address": {
						"encoding": "inplace",
						"label": "address",
						"numberOfBytes": "20"
					},
					"t_bool": {
						"encoding": "inplace",
						"label": "bool",
						"numberOfBytes": "1"
					},
					"t_bytes32": {
						"encoding": "inplace",
						"label": "bytes32",
						"numberOfBytes": "32"
					},
					"t_contract(IICO)580": {
						"encoding": "inplace",
						"label": "contract IICO",
						"numberOfBytes": "20"
					},
					"t_mapping(t_address,t_bool)": {
						"encoding": "mapping",
						"key": "t_address",
						"label": "mapping(address => bool)",
						"numberOfBytes": "32",
						"value": "t_bool"
					},
					"t_mapping(t_bytes32,t_struct(RoleData)21_storage)": {
						"encoding": "mapping",
						"key": "t_bytes32",
						"label": "mapping(bytes32 => struct AccessControl.RoleData)",
						"numberOfBytes": "32",
						"value": "t_struct(RoleData)21_storage"
					},
					"t_mapping(t_uint256,t_struct(Product)635_storage)": {
						"encoding": "mapping",
						"key": "t_uint256",
						"label": "mapping(uint256 => struct Ecommerce.Product)",
						"numberOfBytes": "32",
						"value": "t_struct(Product)635_storage"
					},
					"t_string_storage": {
						"encoding": "bytes",
						"label": "string",
						"numberOfBytes": "32"
					},
					"t_struct(Product)635_storage": {
						"encoding": "inplace",
						"label": "struct Ecommerce.Product",
						"members": [
							{
								"astId": 626,
								"contract": "contracts/ecommerce.sol:Ecommerce",
								"label": "name",
								"offset": 0,
								"slot": "0",
								"type": "t_string_storage"
							},
							{
								"astId": 628,
								"contract": "contracts/ecommerce.sol:Ecommerce",
								"label": "price",
								"offset": 0,
								"slot": "1",
								"type": "t_uint256"
							},
							{
								"astId": 630,
								"contract": "contracts/ecommerce.sol:Ecommerce",
								"label": "seller",
								"offset": 0,
								"slot": "2",
								"type": "t_address"
							},
							{
								"astId": 632,
								"contract": "contracts/ecommerce.sol:Ecommerce",
								"label": "available",
								"offset": 20,
								"slot": "2",
								"type": "t_bool"
							},
							{
								"astId": 634,
								"contract": "contracts/ecommerce.sol:Ecommerce",
								"label": "buyer",
								"offset": 0,
								"slot": "3",
								"type": "t_address"
							}
						],
						"numberOfBytes": "128"
					},
					"t_struct(RoleData)21_storage": {
						"encoding": "inplace",
						"label": "struct AccessControl.RoleData",
						"members": [
							{
								"astId": 18,
								"contract": "contracts/ecommerce.sol:Ecommerce",
								"label": "hasRole",
								"offset": 0,
								"slot": "0",
								"type": "t_mapping(t_address,t_bool)"
							},
							{
								"astId": 20,
								"contract": "contracts/ecommerce.sol:Ecommerce",
								"label": "adminRole",
								"offset": 0,
								"slot": "1",
								"type": "t_bytes32"
							}
						],
						"numberOfBytes": "64"
					},
					"t_uint256": {
						"encoding": "inplace",
						"label": "uint256",
						"numberOfBytes": "32"
					}
				}
			},
			"userdoc": {
				"kind": "user",
				"methods": {},
				"version": 1
			}
		}
	}
}